{
	"packages/hardhat/contracts/UserRequestStruct.sol": {
		"UserRequestStruct": {
			"abi": [
				{
					"inputs": [],
					"stateMutability": "nonpayable",
					"type": "constructor"
				},
				{
					"anonymous": false,
					"inputs": [
						{
							"indexed": true,
							"internalType": "uint256",
							"name": "requestId",
							"type": "uint256"
						},
						{
							"indexed": true,
							"internalType": "address",
							"name": "user",
							"type": "address"
						},
						{
							"indexed": false,
							"internalType": "string",
							"name": "skill",
							"type": "string"
						},
						{
							"indexed": false,
							"internalType": "string",
							"name": "project",
							"type": "string"
						},
						{
							"indexed": false,
							"internalType": "string",
							"name": "experience",
							"type": "string"
						},
						{
							"indexed": false,
							"internalType": "uint256",
							"name": "stakeAmount",
							"type": "uint256"
						},
						{
							"indexed": false,
							"internalType": "enum UserRequestStruct.RequestStatus",
							"name": "status",
							"type": "uint8"
						}
					],
					"name": "RequestAdded",
					"type": "event"
				},
				{
					"inputs": [
						{
							"internalType": "address",
							"name": "_user",
							"type": "address"
						},
						{
							"internalType": "address[]",
							"name": "_vouched",
							"type": "address[]"
						},
						{
							"internalType": "uint256",
							"name": "_vouchedCount",
							"type": "uint256"
						},
						{
							"internalType": "string",
							"name": "_skill",
							"type": "string"
						},
						{
							"internalType": "string",
							"name": "_project",
							"type": "string"
						},
						{
							"internalType": "string",
							"name": "_experience",
							"type": "string"
						},
						{
							"internalType": "uint256",
							"name": "_stakeAmountByUser",
							"type": "uint256"
						},
						{
							"internalType": "uint256",
							"name": "_creationTime",
							"type": "uint256"
						}
					],
					"name": "add",
					"outputs": [
						{
							"internalType": "uint256",
							"name": "requestId",
							"type": "uint256"
						}
					],
					"stateMutability": "nonpayable",
					"type": "function"
				},
				{
					"inputs": [
						{
							"internalType": "uint256",
							"name": "_requestId",
							"type": "uint256"
						},
						{
							"internalType": "address",
							"name": "voucher",
							"type": "address"
						}
					],
					"name": "addVoucher",
					"outputs": [],
					"stateMutability": "nonpayable",
					"type": "function"
				},
				{
					"inputs": [
						{
							"internalType": "uint256",
							"name": "requestId",
							"type": "uint256"
						}
					],
					"name": "get",
					"outputs": [
						{
							"components": [
								{
									"internalType": "address",
									"name": "user",
									"type": "address"
								},
								{
									"internalType": "address[]",
									"name": "vouched",
									"type": "address[]"
								},
								{
									"internalType": "uint256",
									"name": "vouchedCount",
									"type": "uint256"
								},
								{
									"internalType": "string",
									"name": "skill",
									"type": "string"
								},
								{
									"internalType": "string",
									"name": "project",
									"type": "string"
								},
								{
									"internalType": "string",
									"name": "experience",
									"type": "string"
								},
								{
									"internalType": "uint256",
									"name": "stakeAmountByUser",
									"type": "uint256"
								},
								{
									"internalType": "enum UserRequestStruct.RequestStatus",
									"name": "status",
									"type": "uint8"
								},
								{
									"internalType": "uint256",
									"name": "creationTime",
									"type": "uint256"
								}
							],
							"internalType": "struct UserRequestStruct.UserRequest",
							"name": "",
							"type": "tuple"
						}
					],
					"stateMutability": "view",
					"type": "function"
				},
				{
					"inputs": [],
					"name": "nextRequestId",
					"outputs": [
						{
							"internalType": "uint256",
							"name": "",
							"type": "uint256"
						}
					],
					"stateMutability": "view",
					"type": "function"
				},
				{
					"inputs": [],
					"name": "tokenContract",
					"outputs": [
						{
							"internalType": "contract TokenContract",
							"name": "",
							"type": "address"
						}
					],
					"stateMutability": "view",
					"type": "function"
				},
				{
					"inputs": [
						{
							"internalType": "uint256",
							"name": "",
							"type": "uint256"
						}
					],
					"name": "userRequests",
					"outputs": [
						{
							"internalType": "address",
							"name": "user",
							"type": "address"
						},
						{
							"internalType": "uint256",
							"name": "vouchedCount",
							"type": "uint256"
						},
						{
							"internalType": "string",
							"name": "skill",
							"type": "string"
						},
						{
							"internalType": "string",
							"name": "project",
							"type": "string"
						},
						{
							"internalType": "string",
							"name": "experience",
							"type": "string"
						},
						{
							"internalType": "uint256",
							"name": "stakeAmountByUser",
							"type": "uint256"
						},
						{
							"internalType": "enum UserRequestStruct.RequestStatus",
							"name": "status",
							"type": "uint8"
						},
						{
							"internalType": "uint256",
							"name": "creationTime",
							"type": "uint256"
						}
					],
					"stateMutability": "view",
					"type": "function"
				}
			],
			"devdoc": {
				"kind": "dev",
				"methods": {},
				"version": 1
			},
			"evm": {
				"assembly": "    /* \"packages/hardhat/contracts/UserRequestStruct.sol\":118:2200  contract UserRequestStruct {... */\n  mstore(0x40, 0x80)\n    /* \"packages/hardhat/contracts/UserRequestStruct.sol\":287:329  0x406AB5033423Dcb6391Ac9eEEad73294FA82Cfbc */\n  0x406ab5033423dcb6391ac9eeead73294fa82cfbc\n    /* \"packages/hardhat/contracts/UserRequestStruct.sol\":236:330  TokenContract public tokenContract = TokenContract(0x406AB5033423Dcb6391Ac9eEEad73294FA82Cfbc) */\n  0x00\n  dup1\n  0x0100\n  exp\n  dup2\n  sload\n  dup2\n  0xffffffffffffffffffffffffffffffffffffffff\n  mul\n  not\n  and\n  swap1\n  dup4\n  0xffffffffffffffffffffffffffffffffffffffff\n  and\n  mul\n  or\n  swap1\n  sstore\n  pop\n    /* \"packages/hardhat/contracts/UserRequestStruct.sol\":893:943  constructor() {... */\n  callvalue\n  dup1\n  iszero\n  tag_1\n  jumpi\n  0x00\n  dup1\n  revert\ntag_1:\n  pop\n    /* \"packages/hardhat/contracts/UserRequestStruct.sol\":934:935  1 */\n  0x01\n    /* \"packages/hardhat/contracts/UserRequestStruct.sol\":918:931  nextRequestId */\n  0x02\n    /* \"packages/hardhat/contracts/UserRequestStruct.sol\":918:935  nextRequestId = 1 */\n  dup2\n  swap1\n  sstore\n  pop\n    /* \"packages/hardhat/contracts/UserRequestStruct.sol\":118:2200  contract UserRequestStruct {... */\n  dataSize(sub_0)\n  dup1\n  dataOffset(sub_0)\n  0x00\n  codecopy\n  0x00\n  return\nstop\n\nsub_0: assembly {\n        /* \"packages/hardhat/contracts/UserRequestStruct.sol\":118:2200  contract UserRequestStruct {... */\n      mstore(0x40, 0x80)\n      callvalue\n      dup1\n      iszero\n      tag_1\n      jumpi\n      0x00\n      dup1\n      revert\n    tag_1:\n      pop\n      jumpi(tag_2, lt(calldatasize, 0x04))\n      shr(0xe0, calldataload(0x00))\n      dup1\n      0x216cef46\n      eq\n      tag_3\n      jumpi\n      dup1\n      0x55a373d6\n      eq\n      tag_4\n      jumpi\n      dup1\n      0x6a84a985\n      eq\n      tag_5\n      jumpi\n      dup1\n      0x94169656\n      eq\n      tag_6\n      jumpi\n      dup1\n      0x9507d39a\n      eq\n      tag_7\n      jumpi\n      dup1\n      0xd5ad68d9\n      eq\n      tag_8\n      jumpi\n    tag_2:\n      0x00\n      dup1\n      revert\n        /* \"packages/hardhat/contracts/UserRequestStruct.sol\":951:1874  function add(... */\n    tag_3:\n      tag_9\n      0x04\n      dup1\n      calldatasize\n      sub\n      dup2\n      add\n      swap1\n      tag_10\n      swap2\n      swap1\n      tag_11\n      jump\t// in\n    tag_10:\n      tag_12\n      jump\t// in\n    tag_9:\n      mload(0x40)\n      tag_13\n      swap2\n      swap1\n      tag_14\n      jump\t// in\n    tag_13:\n      mload(0x40)\n      dup1\n      swap2\n      sub\n      swap1\n      return\n        /* \"packages/hardhat/contracts/UserRequestStruct.sol\":236:330  TokenContract public tokenContract = TokenContract(0x406AB5033423Dcb6391Ac9eEEad73294FA82Cfbc) */\n    tag_4:\n      tag_15\n      tag_16\n      jump\t// in\n    tag_15:\n      mload(0x40)\n      tag_17\n      swap2\n      swap1\n      tag_18\n      jump\t// in\n    tag_17:\n      mload(0x40)\n      dup1\n      swap2\n      sub\n      swap1\n      return\n        /* \"packages/hardhat/contracts/UserRequestStruct.sol\":688:716  uint256 public nextRequestId */\n    tag_5:\n      tag_19\n      tag_20\n      jump\t// in\n    tag_19:\n      mload(0x40)\n      tag_21\n      swap2\n      swap1\n      tag_14\n      jump\t// in\n    tag_21:\n      mload(0x40)\n      dup1\n      swap2\n      sub\n      swap1\n      return\n        /* \"packages/hardhat/contracts/UserRequestStruct.sol\":630:681  mapping(uint256 => UserRequest) public userRequests */\n    tag_6:\n      tag_22\n      0x04\n      dup1\n      calldatasize\n      sub\n      dup2\n      add\n      swap1\n      tag_23\n      swap2\n      swap1\n      tag_24\n      jump\t// in\n    tag_23:\n      tag_25\n      jump\t// in\n    tag_22:\n      mload(0x40)\n      tag_26\n      swap9\n      swap8\n      swap7\n      swap6\n      swap5\n      swap4\n      swap3\n      swap2\n      swap1\n      tag_27\n      jump\t// in\n    tag_26:\n      mload(0x40)\n      dup1\n      swap2\n      sub\n      swap1\n      return\n        /* \"packages/hardhat/contracts/UserRequestStruct.sol\":1884:2008  function get(uint256 requestId) external view returns (UserRequest memory) {... */\n    tag_7:\n      tag_28\n      0x04\n      dup1\n      calldatasize\n      sub\n      dup2\n      add\n      swap1\n      tag_29\n      swap2\n      swap1\n      tag_24\n      jump\t// in\n    tag_29:\n      tag_30\n      jump\t// in\n    tag_28:\n      mload(0x40)\n      tag_31\n      swap2\n      swap1\n      tag_32\n      jump\t// in\n    tag_31:\n      mload(0x40)\n      dup1\n      swap2\n      sub\n      swap1\n      return\n        /* \"packages/hardhat/contracts/UserRequestStruct.sol\":2016:2197  function addVoucher(uint256 _requestId, address voucher) external {... */\n    tag_8:\n      tag_33\n      0x04\n      dup1\n      calldatasize\n      sub\n      dup2\n      add\n      swap1\n      tag_34\n      swap2\n      swap1\n      tag_35\n      jump\t// in\n    tag_34:\n      tag_36\n      jump\t// in\n    tag_33:\n      stop\n        /* \"packages/hardhat/contracts/UserRequestStruct.sol\":951:1874  function add(... */\n    tag_12:\n        /* \"packages/hardhat/contracts/UserRequestStruct.sol\":1250:1267  uint256 requestId */\n      0x00\n        /* \"packages/hardhat/contracts/UserRequestStruct.sol\":1292:1305  nextRequestId */\n      sload(0x02)\n        /* \"packages/hardhat/contracts/UserRequestStruct.sol\":1280:1305  requestId = nextRequestId */\n      swap1\n      pop\n        /* \"packages/hardhat/contracts/UserRequestStruct.sol\":1342:1710  UserRequest({... */\n      mload(0x40)\n      dup1\n      0x0120\n      add\n      0x40\n      mstore\n      dup1\n        /* \"packages/hardhat/contracts/UserRequestStruct.sol\":1375:1380  _user */\n      dup11\n        /* \"packages/hardhat/contracts/UserRequestStruct.sol\":1342:1710  UserRequest({... */\n      0xffffffffffffffffffffffffffffffffffffffff\n      and\n      dup2\n      mstore\n      0x20\n      add\n        /* \"packages/hardhat/contracts/UserRequestStruct.sol\":1404:1412  _vouched */\n      dup10\n        /* \"packages/hardhat/contracts/UserRequestStruct.sol\":1342:1710  UserRequest({... */\n      dup2\n      mstore\n      0x20\n      add\n        /* \"packages/hardhat/contracts/UserRequestStruct.sol\":1441:1454  _vouchedCount */\n      dup9\n        /* \"packages/hardhat/contracts/UserRequestStruct.sol\":1342:1710  UserRequest({... */\n      dup2\n      mstore\n      0x20\n      add\n        /* \"packages/hardhat/contracts/UserRequestStruct.sol\":1476:1482  _skill */\n      dup8\n        /* \"packages/hardhat/contracts/UserRequestStruct.sol\":1342:1710  UserRequest({... */\n      dup2\n      mstore\n      0x20\n      add\n        /* \"packages/hardhat/contracts/UserRequestStruct.sol\":1506:1514  _project */\n      dup7\n        /* \"packages/hardhat/contracts/UserRequestStruct.sol\":1342:1710  UserRequest({... */\n      dup2\n      mstore\n      0x20\n      add\n        /* \"packages/hardhat/contracts/UserRequestStruct.sol\":1541:1552  _experience */\n      dup6\n        /* \"packages/hardhat/contracts/UserRequestStruct.sol\":1342:1710  UserRequest({... */\n      dup2\n      mstore\n      0x20\n      add\n        /* \"packages/hardhat/contracts/UserRequestStruct.sol\":1586:1604  _stakeAmountByUser */\n      dup5\n        /* \"packages/hardhat/contracts/UserRequestStruct.sol\":1342:1710  UserRequest({... */\n      dup2\n      mstore\n      0x20\n      add\n        /* \"packages/hardhat/contracts/UserRequestStruct.sol\":1627:1656  RequestStatus.VouchingProcess */\n      0x01\n        /* \"packages/hardhat/contracts/UserRequestStruct.sol\":1342:1710  UserRequest({... */\n      0x03\n      dup2\n      gt\n      iszero\n      tag_38\n      jumpi\n      tag_39\n      tag_40\n      jump\t// in\n    tag_39:\n    tag_38:\n      dup2\n      mstore\n      0x20\n      add\n        /* \"packages/hardhat/contracts/UserRequestStruct.sol\":1685:1698  _creationTime */\n      dup4\n        /* \"packages/hardhat/contracts/UserRequestStruct.sol\":1342:1710  UserRequest({... */\n      dup2\n      mstore\n      pop\n        /* \"packages/hardhat/contracts/UserRequestStruct.sol\":1316:1328  userRequests */\n      0x01\n        /* \"packages/hardhat/contracts/UserRequestStruct.sol\":1316:1339  userRequests[requestId] */\n      0x00\n        /* \"packages/hardhat/contracts/UserRequestStruct.sol\":1329:1338  requestId */\n      dup4\n        /* \"packages/hardhat/contracts/UserRequestStruct.sol\":1316:1339  userRequests[requestId] */\n      dup2\n      mstore\n      0x20\n      add\n      swap1\n      dup2\n      mstore\n      0x20\n      add\n      0x00\n      keccak256\n        /* \"packages/hardhat/contracts/UserRequestStruct.sol\":1316:1710  userRequests[requestId] = UserRequest({... */\n      0x00\n      dup3\n      add\n      mload\n      dup2\n      0x00\n      add\n      exp(0x0100, 0x00)\n      dup2\n      sload\n      dup2\n      0xffffffffffffffffffffffffffffffffffffffff\n      mul\n      not\n      and\n      swap1\n      dup4\n      0xffffffffffffffffffffffffffffffffffffffff\n      and\n      mul\n      or\n      swap1\n      sstore\n      pop\n      0x20\n      dup3\n      add\n      mload\n      dup2\n      0x01\n      add\n      swap1\n      dup1\n      mload\n      swap1\n      0x20\n      add\n      swap1\n      tag_41\n      swap3\n      swap2\n      swap1\n      tag_42\n      jump\t// in\n    tag_41:\n      pop\n      0x40\n      dup3\n      add\n      mload\n      dup2\n      0x02\n      add\n      sstore\n      0x60\n      dup3\n      add\n      mload\n      dup2\n      0x03\n      add\n      swap1\n      dup2\n      tag_43\n      swap2\n      swap1\n      tag_44\n      jump\t// in\n    tag_43:\n      pop\n      0x80\n      dup3\n      add\n      mload\n      dup2\n      0x04\n      add\n      swap1\n      dup2\n      tag_45\n      swap2\n      swap1\n      tag_44\n      jump\t// in\n    tag_45:\n      pop\n      0xa0\n      dup3\n      add\n      mload\n      dup2\n      0x05\n      add\n      swap1\n      dup2\n      tag_46\n      swap2\n      swap1\n      tag_44\n      jump\t// in\n    tag_46:\n      pop\n      0xc0\n      dup3\n      add\n      mload\n      dup2\n      0x06\n      add\n      sstore\n      0xe0\n      dup3\n      add\n      mload\n      dup2\n      0x07\n      add\n      exp(0x0100, 0x00)\n      dup2\n      sload\n      dup2\n      0xff\n      mul\n      not\n      and\n      swap1\n      dup4\n      0x03\n      dup2\n      gt\n      iszero\n      tag_47\n      jumpi\n      tag_48\n      tag_40\n      jump\t// in\n    tag_48:\n    tag_47:\n      mul\n      or\n      swap1\n      sstore\n      pop\n      0x0100\n      dup3\n      add\n      mload\n      dup2\n      0x08\n      add\n      sstore\n      swap1\n      pop\n      pop\n        /* \"packages/hardhat/contracts/UserRequestStruct.sol\":1721:1734  nextRequestId */\n      0x02\n      0x00\n        /* \"packages/hardhat/contracts/UserRequestStruct.sol\":1721:1736  nextRequestId++ */\n      dup2\n      sload\n      dup1\n      swap3\n      swap2\n      swap1\n      tag_49\n      swap1\n      tag_50\n      jump\t// in\n    tag_49:\n      swap2\n      swap1\n      pop\n      sstore\n      pop\n        /* \"packages/hardhat/contracts/UserRequestStruct.sol\":1778:1783  _user */\n      dup9\n        /* \"packages/hardhat/contracts/UserRequestStruct.sol\":1754:1866  RequestAdded(requestId, _user, _skill, _project, _experience, _stakeAmountByUser, RequestStatus.VouchingProcess) */\n      0xffffffffffffffffffffffffffffffffffffffff\n      and\n        /* \"packages/hardhat/contracts/UserRequestStruct.sol\":1767:1776  requestId */\n      dup2\n        /* \"packages/hardhat/contracts/UserRequestStruct.sol\":1754:1866  RequestAdded(requestId, _user, _skill, _project, _experience, _stakeAmountByUser, RequestStatus.VouchingProcess) */\n      0xcda275eddd33a0342d4ae7d10cf2bd21459b4ca6b0c0c8fd29c3d3d792d50c2a\n        /* \"packages/hardhat/contracts/UserRequestStruct.sol\":1785:1791  _skill */\n      dup9\n        /* \"packages/hardhat/contracts/UserRequestStruct.sol\":1793:1801  _project */\n      dup9\n        /* \"packages/hardhat/contracts/UserRequestStruct.sol\":1803:1814  _experience */\n      dup9\n        /* \"packages/hardhat/contracts/UserRequestStruct.sol\":1816:1834  _stakeAmountByUser */\n      dup9\n        /* \"packages/hardhat/contracts/UserRequestStruct.sol\":1836:1865  RequestStatus.VouchingProcess */\n      0x01\n        /* \"packages/hardhat/contracts/UserRequestStruct.sol\":1754:1866  RequestAdded(requestId, _user, _skill, _project, _experience, _stakeAmountByUser, RequestStatus.VouchingProcess) */\n      mload(0x40)\n      tag_51\n      swap6\n      swap5\n      swap4\n      swap3\n      swap2\n      swap1\n      tag_52\n      jump\t// in\n    tag_51:\n      mload(0x40)\n      dup1\n      swap2\n      sub\n      swap1\n      log3\n        /* \"packages/hardhat/contracts/UserRequestStruct.sol\":951:1874  function add(... */\n      swap9\n      swap8\n      pop\n      pop\n      pop\n      pop\n      pop\n      pop\n      pop\n      pop\n      jump\t// out\n        /* \"packages/hardhat/contracts/UserRequestStruct.sol\":236:330  TokenContract public tokenContract = TokenContract(0x406AB5033423Dcb6391Ac9eEEad73294FA82Cfbc) */\n    tag_16:\n      0x00\n      dup1\n      sload\n      swap1\n      0x0100\n      exp\n      swap1\n      div\n      0xffffffffffffffffffffffffffffffffffffffff\n      and\n      dup2\n      jump\t// out\n        /* \"packages/hardhat/contracts/UserRequestStruct.sol\":688:716  uint256 public nextRequestId */\n    tag_20:\n      sload(0x02)\n      dup2\n      jump\t// out\n        /* \"packages/hardhat/contracts/UserRequestStruct.sol\":630:681  mapping(uint256 => UserRequest) public userRequests */\n    tag_25:\n      mstore(0x20, 0x01)\n      dup1\n      0x00\n      mstore\n      keccak256(0x00, 0x40)\n      0x00\n      swap2\n      pop\n      swap1\n      pop\n      dup1\n      0x00\n      add\n      0x00\n      swap1\n      sload\n      swap1\n      0x0100\n      exp\n      swap1\n      div\n      0xffffffffffffffffffffffffffffffffffffffff\n      and\n      swap1\n      dup1\n      0x02\n      add\n      sload\n      swap1\n      dup1\n      0x03\n      add\n      dup1\n      sload\n      tag_53\n      swap1\n      tag_54\n      jump\t// in\n    tag_53:\n      dup1\n      0x1f\n      add\n      0x20\n      dup1\n      swap2\n      div\n      mul\n      0x20\n      add\n      mload(0x40)\n      swap1\n      dup2\n      add\n      0x40\n      mstore\n      dup1\n      swap3\n      swap2\n      swap1\n      dup2\n      dup2\n      mstore\n      0x20\n      add\n      dup3\n      dup1\n      sload\n      tag_55\n      swap1\n      tag_54\n      jump\t// in\n    tag_55:\n      dup1\n      iszero\n      tag_56\n      jumpi\n      dup1\n      0x1f\n      lt\n      tag_57\n      jumpi\n      0x0100\n      dup1\n      dup4\n      sload\n      div\n      mul\n      dup4\n      mstore\n      swap2\n      0x20\n      add\n      swap2\n      jump(tag_56)\n    tag_57:\n      dup3\n      add\n      swap2\n      swap1\n      0x00\n      mstore\n      keccak256(0x00, 0x20)\n      swap1\n    tag_58:\n      dup2\n      sload\n      dup2\n      mstore\n      swap1\n      0x01\n      add\n      swap1\n      0x20\n      add\n      dup1\n      dup4\n      gt\n      tag_58\n      jumpi\n      dup3\n      swap1\n      sub\n      0x1f\n      and\n      dup3\n      add\n      swap2\n    tag_56:\n      pop\n      pop\n      pop\n      pop\n      pop\n      swap1\n      dup1\n      0x04\n      add\n      dup1\n      sload\n      tag_59\n      swap1\n      tag_54\n      jump\t// in\n    tag_59:\n      dup1\n      0x1f\n      add\n      0x20\n      dup1\n      swap2\n      div\n      mul\n      0x20\n      add\n      mload(0x40)\n      swap1\n      dup2\n      add\n      0x40\n      mstore\n      dup1\n      swap3\n      swap2\n      swap1\n      dup2\n      dup2\n      mstore\n      0x20\n      add\n      dup3\n      dup1\n      sload\n      tag_60\n      swap1\n      tag_54\n      jump\t// in\n    tag_60:\n      dup1\n      iszero\n      tag_61\n      jumpi\n      dup1\n      0x1f\n      lt\n      tag_62\n      jumpi\n      0x0100\n      dup1\n      dup4\n      sload\n      div\n      mul\n      dup4\n      mstore\n      swap2\n      0x20\n      add\n      swap2\n      jump(tag_61)\n    tag_62:\n      dup3\n      add\n      swap2\n      swap1\n      0x00\n      mstore\n      keccak256(0x00, 0x20)\n      swap1\n    tag_63:\n      dup2\n      sload\n      dup2\n      mstore\n      swap1\n      0x01\n      add\n      swap1\n      0x20\n      add\n      dup1\n      dup4\n      gt\n      tag_63\n      jumpi\n      dup3\n      swap1\n      sub\n      0x1f\n      and\n      dup3\n      add\n      swap2\n    tag_61:\n      pop\n      pop\n      pop\n      pop\n      pop\n      swap1\n      dup1\n      0x05\n      add\n      dup1\n      sload\n      tag_64\n      swap1\n      tag_54\n      jump\t// in\n    tag_64:\n      dup1\n      0x1f\n      add\n      0x20\n      dup1\n      swap2\n      div\n      mul\n      0x20\n      add\n      mload(0x40)\n      swap1\n      dup2\n      add\n      0x40\n      mstore\n      dup1\n      swap3\n      swap2\n      swap1\n      dup2\n      dup2\n      mstore\n      0x20\n      add\n      dup3\n      dup1\n      sload\n      tag_65\n      swap1\n      tag_54\n      jump\t// in\n    tag_65:\n      dup1\n      iszero\n      tag_66\n      jumpi\n      dup1\n      0x1f\n      lt\n      tag_67\n      jumpi\n      0x0100\n      dup1\n      dup4\n      sload\n      div\n      mul\n      dup4\n      mstore\n      swap2\n      0x20\n      add\n      swap2\n      jump(tag_66)\n    tag_67:\n      dup3\n      add\n      swap2\n      swap1\n      0x00\n      mstore\n      keccak256(0x00, 0x20)\n      swap1\n    tag_68:\n      dup2\n      sload\n      dup2\n      mstore\n      swap1\n      0x01\n      add\n      swap1\n      0x20\n      add\n      dup1\n      dup4\n      gt\n      tag_68\n      jumpi\n      dup3\n      swap1\n      sub\n      0x1f\n      and\n      dup3\n      add\n      swap2\n    tag_66:\n      pop\n      pop\n      pop\n      pop\n      pop\n      swap1\n      dup1\n      0x06\n      add\n      sload\n      swap1\n      dup1\n      0x07\n      add\n      0x00\n      swap1\n      sload\n      swap1\n      0x0100\n      exp\n      swap1\n      div\n      0xff\n      and\n      swap1\n      dup1\n      0x08\n      add\n      sload\n      swap1\n      pop\n      dup9\n      jump\t// out\n        /* \"packages/hardhat/contracts/UserRequestStruct.sol\":1884:2008  function get(uint256 requestId) external view returns (UserRequest memory) {... */\n    tag_30:\n        /* \"packages/hardhat/contracts/UserRequestStruct.sol\":1939:1957  UserRequest memory */\n      tag_69\n      tag_70\n      jump\t// in\n    tag_69:\n        /* \"packages/hardhat/contracts/UserRequestStruct.sol\":1977:1989  userRequests */\n      0x01\n        /* \"packages/hardhat/contracts/UserRequestStruct.sol\":1977:2000  userRequests[requestId] */\n      0x00\n        /* \"packages/hardhat/contracts/UserRequestStruct.sol\":1990:1999  requestId */\n      dup4\n        /* \"packages/hardhat/contracts/UserRequestStruct.sol\":1977:2000  userRequests[requestId] */\n      dup2\n      mstore\n      0x20\n      add\n      swap1\n      dup2\n      mstore\n      0x20\n      add\n      0x00\n      keccak256\n        /* \"packages/hardhat/contracts/UserRequestStruct.sol\":1970:2000  return userRequests[requestId] */\n      mload(0x40)\n      dup1\n      0x0120\n      add\n      0x40\n      mstore\n      swap1\n      dup2\n      0x00\n      dup3\n      add\n      0x00\n      swap1\n      sload\n      swap1\n      0x0100\n      exp\n      swap1\n      div\n      0xffffffffffffffffffffffffffffffffffffffff\n      and\n      0xffffffffffffffffffffffffffffffffffffffff\n      and\n      0xffffffffffffffffffffffffffffffffffffffff\n      and\n      dup2\n      mstore\n      0x20\n      add\n      0x01\n      dup3\n      add\n      dup1\n      sload\n      dup1\n      0x20\n      mul\n      0x20\n      add\n      mload(0x40)\n      swap1\n      dup2\n      add\n      0x40\n      mstore\n      dup1\n      swap3\n      swap2\n      swap1\n      dup2\n      dup2\n      mstore\n      0x20\n      add\n      dup3\n      dup1\n      sload\n      dup1\n      iszero\n      tag_72\n      jumpi\n      0x20\n      mul\n      dup3\n      add\n      swap2\n      swap1\n      0x00\n      mstore\n      keccak256(0x00, 0x20)\n      swap1\n    tag_73:\n      dup2\n      0x00\n      swap1\n      sload\n      swap1\n      0x0100\n      exp\n      swap1\n      div\n      0xffffffffffffffffffffffffffffffffffffffff\n      and\n      0xffffffffffffffffffffffffffffffffffffffff\n      and\n      dup2\n      mstore\n      0x20\n      add\n      swap1\n      0x01\n      add\n      swap1\n      dup1\n      dup4\n      gt\n      tag_73\n      jumpi\n    tag_72:\n      pop\n      pop\n      pop\n      pop\n      pop\n      dup2\n      mstore\n      0x20\n      add\n      0x02\n      dup3\n      add\n      sload\n      dup2\n      mstore\n      0x20\n      add\n      0x03\n      dup3\n      add\n      dup1\n      sload\n      tag_74\n      swap1\n      tag_54\n      jump\t// in\n    tag_74:\n      dup1\n      0x1f\n      add\n      0x20\n      dup1\n      swap2\n      div\n      mul\n      0x20\n      add\n      mload(0x40)\n      swap1\n      dup2\n      add\n      0x40\n      mstore\n      dup1\n      swap3\n      swap2\n      swap1\n      dup2\n      dup2\n      mstore\n      0x20\n      add\n      dup3\n      dup1\n      sload\n      tag_75\n      swap1\n      tag_54\n      jump\t// in\n    tag_75:\n      dup1\n      iszero\n      tag_76\n      jumpi\n      dup1\n      0x1f\n      lt\n      tag_77\n      jumpi\n      0x0100\n      dup1\n      dup4\n      sload\n      div\n      mul\n      dup4\n      mstore\n      swap2\n      0x20\n      add\n      swap2\n      jump(tag_76)\n    tag_77:\n      dup3\n      add\n      swap2\n      swap1\n      0x00\n      mstore\n      keccak256(0x00, 0x20)\n      swap1\n    tag_78:\n      dup2\n      sload\n      dup2\n      mstore\n      swap1\n      0x01\n      add\n      swap1\n      0x20\n      add\n      dup1\n      dup4\n      gt\n      tag_78\n      jumpi\n      dup3\n      swap1\n      sub\n      0x1f\n      and\n      dup3\n      add\n      swap2\n    tag_76:\n      pop\n      pop\n      pop\n      pop\n      pop\n      dup2\n      mstore\n      0x20\n      add\n      0x04\n      dup3\n      add\n      dup1\n      sload\n      tag_79\n      swap1\n      tag_54\n      jump\t// in\n    tag_79:\n      dup1\n      0x1f\n      add\n      0x20\n      dup1\n      swap2\n      div\n      mul\n      0x20\n      add\n      mload(0x40)\n      swap1\n      dup2\n      add\n      0x40\n      mstore\n      dup1\n      swap3\n      swap2\n      swap1\n      dup2\n      dup2\n      mstore\n      0x20\n      add\n      dup3\n      dup1\n      sload\n      tag_80\n      swap1\n      tag_54\n      jump\t// in\n    tag_80:\n      dup1\n      iszero\n      tag_81\n      jumpi\n      dup1\n      0x1f\n      lt\n      tag_82\n      jumpi\n      0x0100\n      dup1\n      dup4\n      sload\n      div\n      mul\n      dup4\n      mstore\n      swap2\n      0x20\n      add\n      swap2\n      jump(tag_81)\n    tag_82:\n      dup3\n      add\n      swap2\n      swap1\n      0x00\n      mstore\n      keccak256(0x00, 0x20)\n      swap1\n    tag_83:\n      dup2\n      sload\n      dup2\n      mstore\n      swap1\n      0x01\n      add\n      swap1\n      0x20\n      add\n      dup1\n      dup4\n      gt\n      tag_83\n      jumpi\n      dup3\n      swap1\n      sub\n      0x1f\n      and\n      dup3\n      add\n      swap2\n    tag_81:\n      pop\n      pop\n      pop\n      pop\n      pop\n      dup2\n      mstore\n      0x20\n      add\n      0x05\n      dup3\n      add\n      dup1\n      sload\n      tag_84\n      swap1\n      tag_54\n      jump\t// in\n    tag_84:\n      dup1\n      0x1f\n      add\n      0x20\n      dup1\n      swap2\n      div\n      mul\n      0x20\n      add\n      mload(0x40)\n      swap1\n      dup2\n      add\n      0x40\n      mstore\n      dup1\n      swap3\n      swap2\n      swap1\n      dup2\n      dup2\n      mstore\n      0x20\n      add\n      dup3\n      dup1\n      sload\n      tag_85\n      swap1\n      tag_54\n      jump\t// in\n    tag_85:\n      dup1\n      iszero\n      tag_86\n      jumpi\n      dup1\n      0x1f\n      lt\n      tag_87\n      jumpi\n      0x0100\n      dup1\n      dup4\n      sload\n      div\n      mul\n      dup4\n      mstore\n      swap2\n      0x20\n      add\n      swap2\n      jump(tag_86)\n    tag_87:\n      dup3\n      add\n      swap2\n      swap1\n      0x00\n      mstore\n      keccak256(0x00, 0x20)\n      swap1\n    tag_88:\n      dup2\n      sload\n      dup2\n      mstore\n      swap1\n      0x01\n      add\n      swap1\n      0x20\n      add\n      dup1\n      dup4\n      gt\n      tag_88\n      jumpi\n      dup3\n      swap1\n      sub\n      0x1f\n      and\n      dup3\n      add\n      swap2\n    tag_86:\n      pop\n      pop\n      pop\n      pop\n      pop\n      dup2\n      mstore\n      0x20\n      add\n      0x06\n      dup3\n      add\n      sload\n      dup2\n      mstore\n      0x20\n      add\n      0x07\n      dup3\n      add\n      0x00\n      swap1\n      sload\n      swap1\n      0x0100\n      exp\n      swap1\n      div\n      0xff\n      and\n      0x03\n      dup2\n      gt\n      iszero\n      tag_89\n      jumpi\n      tag_90\n      tag_40\n      jump\t// in\n    tag_90:\n    tag_89:\n      0x03\n      dup2\n      gt\n      iszero\n      tag_91\n      jumpi\n      tag_92\n      tag_40\n      jump\t// in\n    tag_92:\n    tag_91:\n      dup2\n      mstore\n      0x20\n      add\n      0x08\n      dup3\n      add\n      sload\n      dup2\n      mstore\n      pop\n      pop\n      swap1\n      pop\n        /* \"packages/hardhat/contracts/UserRequestStruct.sol\":1884:2008  function get(uint256 requestId) external view returns (UserRequest memory) {... */\n      swap2\n      swap1\n      pop\n      jump\t// out\n        /* \"packages/hardhat/contracts/UserRequestStruct.sol\":2016:2197  function addVoucher(uint256 _requestId, address voucher) external {... */\n    tag_36:\n        /* \"packages/hardhat/contracts/UserRequestStruct.sol\":2093:2105  userRequests */\n      0x01\n        /* \"packages/hardhat/contracts/UserRequestStruct.sol\":2093:2117  userRequests[_requestId] */\n      0x00\n        /* \"packages/hardhat/contracts/UserRequestStruct.sol\":2106:2116  _requestId */\n      dup4\n        /* \"packages/hardhat/contracts/UserRequestStruct.sol\":2093:2117  userRequests[_requestId] */\n      dup2\n      mstore\n      0x20\n      add\n      swap1\n      dup2\n      mstore\n      0x20\n      add\n      0x00\n      keccak256\n        /* \"packages/hardhat/contracts/UserRequestStruct.sol\":2093:2125  userRequests[_requestId].vouched */\n      0x01\n      add\n        /* \"packages/hardhat/contracts/UserRequestStruct.sol\":2131:2138  voucher */\n      dup2\n        /* \"packages/hardhat/contracts/UserRequestStruct.sol\":2093:2139  userRequests[_requestId].vouched.push(voucher) */\n      swap1\n      dup1\n      0x01\n      dup2\n      sload\n      add\n      dup1\n      dup3\n      sstore\n      dup1\n      swap2\n      pop\n      pop\n      0x01\n      swap1\n      sub\n      swap1\n      0x00\n      mstore\n      keccak256(0x00, 0x20)\n      add\n      0x00\n      swap1\n      swap2\n      swap1\n      swap2\n      swap1\n      swap2\n      0x0100\n      exp\n      dup2\n      sload\n      dup2\n      0xffffffffffffffffffffffffffffffffffffffff\n      mul\n      not\n      and\n      swap1\n      dup4\n      0xffffffffffffffffffffffffffffffffffffffff\n      and\n      mul\n      or\n      swap1\n      sstore\n      pop\n        /* \"packages/hardhat/contracts/UserRequestStruct.sol\":2150:2162  userRequests */\n      0x01\n        /* \"packages/hardhat/contracts/UserRequestStruct.sol\":2150:2174  userRequests[_requestId] */\n      0x00\n        /* \"packages/hardhat/contracts/UserRequestStruct.sol\":2163:2173  _requestId */\n      dup4\n        /* \"packages/hardhat/contracts/UserRequestStruct.sol\":2150:2174  userRequests[_requestId] */\n      dup2\n      mstore\n      0x20\n      add\n      swap1\n      dup2\n      mstore\n      0x20\n      add\n      0x00\n      keccak256\n        /* \"packages/hardhat/contracts/UserRequestStruct.sol\":2150:2187  userRequests[_requestId].vouchedCount */\n      0x02\n      add\n      0x00\n        /* \"packages/hardhat/contracts/UserRequestStruct.sol\":2150:2189  userRequests[_requestId].vouchedCount++ */\n      dup2\n      sload\n      dup1\n      swap3\n      swap2\n      swap1\n      tag_95\n      swap1\n      tag_50\n      jump\t// in\n    tag_95:\n      swap2\n      swap1\n      pop\n      sstore\n      pop\n        /* \"packages/hardhat/contracts/UserRequestStruct.sol\":2016:2197  function addVoucher(uint256 _requestId, address voucher) external {... */\n      pop\n      pop\n      jump\t// out\n    tag_42:\n      dup3\n      dup1\n      sload\n      dup3\n      dup3\n      sstore\n      swap1\n      0x00\n      mstore\n      keccak256(0x00, 0x20)\n      swap1\n      dup2\n      add\n      swap3\n      dup3\n      iszero\n      tag_96\n      jumpi\n      swap2\n      0x20\n      mul\n      dup3\n      add\n    tag_97:\n      dup3\n      dup2\n      gt\n      iszero\n      tag_98\n      jumpi\n      dup3\n      mload\n      dup3\n      exp(0x0100, 0x00)\n      dup2\n      sload\n      dup2\n      0xffffffffffffffffffffffffffffffffffffffff\n      mul\n      not\n      and\n      swap1\n      dup4\n      0xffffffffffffffffffffffffffffffffffffffff\n      and\n      mul\n      or\n      swap1\n      sstore\n      pop\n      swap2\n      0x20\n      add\n      swap2\n      swap1\n      0x01\n      add\n      swap1\n      jump(tag_97)\n    tag_98:\n    tag_96:\n      pop\n      swap1\n      pop\n      tag_99\n      swap2\n      swap1\n      tag_100\n      jump\t// in\n    tag_99:\n      pop\n      swap1\n      jump\t// out\n    tag_70:\n      mload(0x40)\n      dup1\n      0x0120\n      add\n      0x40\n      mstore\n      dup1\n      and(0xffffffffffffffffffffffffffffffffffffffff, 0x00)\n      dup2\n      mstore\n      0x20\n      add\n      0x60\n      dup2\n      mstore\n      0x20\n      add\n      0x00\n      dup2\n      mstore\n      0x20\n      add\n      0x60\n      dup2\n      mstore\n      0x20\n      add\n      0x60\n      dup2\n      mstore\n      0x20\n      add\n      0x60\n      dup2\n      mstore\n      0x20\n      add\n      0x00\n      dup2\n      mstore\n      0x20\n      add\n      0x00\n      0x03\n      dup2\n      gt\n      iszero\n      tag_101\n      jumpi\n      tag_102\n      tag_40\n      jump\t// in\n    tag_102:\n    tag_101:\n      dup2\n      mstore\n      0x20\n      add\n      0x00\n      dup2\n      mstore\n      pop\n      swap1\n      jump\t// out\n    tag_100:\n    tag_103:\n      dup1\n      dup3\n      gt\n      iszero\n      tag_104\n      jumpi\n      0x00\n      dup2\n      0x00\n      swap1\n      sstore\n      pop\n      0x01\n      add\n      jump(tag_103)\n    tag_104:\n      pop\n      swap1\n      jump\t// out\n        /* \"#utility.yul\":7:82   */\n    tag_105:\n        /* \"#utility.yul\":40:46   */\n      0x00\n        /* \"#utility.yul\":73:75   */\n      0x40\n        /* \"#utility.yul\":67:76   */\n      mload\n        /* \"#utility.yul\":57:76   */\n      swap1\n      pop\n        /* \"#utility.yul\":7:82   */\n      swap1\n      jump\t// out\n        /* \"#utility.yul\":88:205   */\n    tag_106:\n        /* \"#utility.yul\":197:198   */\n      0x00\n        /* \"#utility.yul\":194:195   */\n      dup1\n        /* \"#utility.yul\":187:199   */\n      revert\n        /* \"#utility.yul\":211:328   */\n    tag_107:\n        /* \"#utility.yul\":320:321   */\n      0x00\n        /* \"#utility.yul\":317:318   */\n      dup1\n        /* \"#utility.yul\":310:322   */\n      revert\n        /* \"#utility.yul\":334:460   */\n    tag_108:\n        /* \"#utility.yul\":371:378   */\n      0x00\n        /* \"#utility.yul\":411:453   */\n      0xffffffffffffffffffffffffffffffffffffffff\n        /* \"#utility.yul\":404:409   */\n      dup3\n        /* \"#utility.yul\":400:454   */\n      and\n        /* \"#utility.yul\":389:454   */\n      swap1\n      pop\n        /* \"#utility.yul\":334:460   */\n      swap2\n      swap1\n      pop\n      jump\t// out\n        /* \"#utility.yul\":466:562   */\n    tag_109:\n        /* \"#utility.yul\":503:510   */\n      0x00\n        /* \"#utility.yul\":532:556   */\n      tag_178\n        /* \"#utility.yul\":550:555   */\n      dup3\n        /* \"#utility.yul\":532:556   */\n      tag_108\n      jump\t// in\n    tag_178:\n        /* \"#utility.yul\":521:556   */\n      swap1\n      pop\n        /* \"#utility.yul\":466:562   */\n      swap2\n      swap1\n      pop\n      jump\t// out\n        /* \"#utility.yul\":568:690   */\n    tag_110:\n        /* \"#utility.yul\":641:665   */\n      tag_180\n        /* \"#utility.yul\":659:664   */\n      dup2\n        /* \"#utility.yul\":641:665   */\n      tag_109\n      jump\t// in\n    tag_180:\n        /* \"#utility.yul\":634:639   */\n      dup2\n        /* \"#utility.yul\":631:666   */\n      eq\n        /* \"#utility.yul\":621:684   */\n      tag_181\n      jumpi\n        /* \"#utility.yul\":680:681   */\n      0x00\n        /* \"#utility.yul\":677:678   */\n      dup1\n        /* \"#utility.yul\":670:682   */\n      revert\n        /* \"#utility.yul\":621:684   */\n    tag_181:\n        /* \"#utility.yul\":568:690   */\n      pop\n      jump\t// out\n        /* \"#utility.yul\":696:835   */\n    tag_111:\n        /* \"#utility.yul\":742:747   */\n      0x00\n        /* \"#utility.yul\":780:786   */\n      dup2\n        /* \"#utility.yul\":767:787   */\n      calldataload\n        /* \"#utility.yul\":758:787   */\n      swap1\n      pop\n        /* \"#utility.yul\":796:829   */\n      tag_183\n        /* \"#utility.yul\":823:828   */\n      dup2\n        /* \"#utility.yul\":796:829   */\n      tag_110\n      jump\t// in\n    tag_183:\n        /* \"#utility.yul\":696:835   */\n      swap3\n      swap2\n      pop\n      pop\n      jump\t// out\n        /* \"#utility.yul\":841:958   */\n    tag_112:\n        /* \"#utility.yul\":950:951   */\n      0x00\n        /* \"#utility.yul\":947:948   */\n      dup1\n        /* \"#utility.yul\":940:952   */\n      revert\n        /* \"#utility.yul\":964:1066   */\n    tag_113:\n        /* \"#utility.yul\":1005:1011   */\n      0x00\n        /* \"#utility.yul\":1056:1058   */\n      0x1f\n        /* \"#utility.yul\":1052:1059   */\n      not\n        /* \"#utility.yul\":1047:1049   */\n      0x1f\n        /* \"#utility.yul\":1040:1045   */\n      dup4\n        /* \"#utility.yul\":1036:1050   */\n      add\n        /* \"#utility.yul\":1032:1060   */\n      and\n        /* \"#utility.yul\":1022:1060   */\n      swap1\n      pop\n        /* \"#utility.yul\":964:1066   */\n      swap2\n      swap1\n      pop\n      jump\t// out\n        /* \"#utility.yul\":1072:1252   */\n    tag_114:\n        /* \"#utility.yul\":1120:1197   */\n      0x4e487b7100000000000000000000000000000000000000000000000000000000\n        /* \"#utility.yul\":1117:1118   */\n      0x00\n        /* \"#utility.yul\":1110:1198   */\n      mstore\n        /* \"#utility.yul\":1217:1221   */\n      0x41\n        /* \"#utility.yul\":1214:1215   */\n      0x04\n        /* \"#utility.yul\":1207:1222   */\n      mstore\n        /* \"#utility.yul\":1241:1245   */\n      0x24\n        /* \"#utility.yul\":1238:1239   */\n      0x00\n        /* \"#utility.yul\":1231:1246   */\n      revert\n        /* \"#utility.yul\":1258:1539   */\n    tag_115:\n        /* \"#utility.yul\":1341:1368   */\n      tag_188\n        /* \"#utility.yul\":1363:1367   */\n      dup3\n        /* \"#utility.yul\":1341:1368   */\n      tag_113\n      jump\t// in\n    tag_188:\n        /* \"#utility.yul\":1333:1339   */\n      dup2\n        /* \"#utility.yul\":1329:1369   */\n      add\n        /* \"#utility.yul\":1471:1477   */\n      dup2\n        /* \"#utility.yul\":1459:1469   */\n      dup2\n        /* \"#utility.yul\":1456:1478   */\n      lt\n        /* \"#utility.yul\":1435:1453   */\n      0xffffffffffffffff\n        /* \"#utility.yul\":1423:1433   */\n      dup3\n        /* \"#utility.yul\":1420:1454   */\n      gt\n        /* \"#utility.yul\":1417:1479   */\n      or\n        /* \"#utility.yul\":1414:1502   */\n      iszero\n      tag_189\n      jumpi\n        /* \"#utility.yul\":1482:1500   */\n      tag_190\n      tag_114\n      jump\t// in\n    tag_190:\n        /* \"#utility.yul\":1414:1502   */\n    tag_189:\n        /* \"#utility.yul\":1522:1532   */\n      dup1\n        /* \"#utility.yul\":1518:1520   */\n      0x40\n        /* \"#utility.yul\":1511:1533   */\n      mstore\n        /* \"#utility.yul\":1301:1539   */\n      pop\n        /* \"#utility.yul\":1258:1539   */\n      pop\n      pop\n      jump\t// out\n        /* \"#utility.yul\":1545:1674   */\n    tag_116:\n        /* \"#utility.yul\":1579:1585   */\n      0x00\n        /* \"#utility.yul\":1606:1626   */\n      tag_192\n      tag_105\n      jump\t// in\n    tag_192:\n        /* \"#utility.yul\":1596:1626   */\n      swap1\n      pop\n        /* \"#utility.yul\":1635:1668   */\n      tag_193\n        /* \"#utility.yul\":1663:1667   */\n      dup3\n        /* \"#utility.yul\":1655:1661   */\n      dup3\n        /* \"#utility.yul\":1635:1668   */\n      tag_115\n      jump\t// in\n    tag_193:\n        /* \"#utility.yul\":1545:1674   */\n      swap2\n      swap1\n      pop\n      jump\t// out\n        /* \"#utility.yul\":1680:1991   */\n    tag_117:\n        /* \"#utility.yul\":1757:1761   */\n      0x00\n        /* \"#utility.yul\":1847:1865   */\n      0xffffffffffffffff\n        /* \"#utility.yul\":1839:1845   */\n      dup3\n        /* \"#utility.yul\":1836:1866   */\n      gt\n        /* \"#utility.yul\":1833:1889   */\n      iszero\n      tag_195\n      jumpi\n        /* \"#utility.yul\":1869:1887   */\n      tag_196\n      tag_114\n      jump\t// in\n    tag_196:\n        /* \"#utility.yul\":1833:1889   */\n    tag_195:\n        /* \"#utility.yul\":1919:1923   */\n      0x20\n        /* \"#utility.yul\":1911:1917   */\n      dup3\n        /* \"#utility.yul\":1907:1924   */\n      mul\n        /* \"#utility.yul\":1899:1924   */\n      swap1\n      pop\n        /* \"#utility.yul\":1979:1983   */\n      0x20\n        /* \"#utility.yul\":1973:1977   */\n      dup2\n        /* \"#utility.yul\":1969:1984   */\n      add\n        /* \"#utility.yul\":1961:1984   */\n      swap1\n      pop\n        /* \"#utility.yul\":1680:1991   */\n      swap2\n      swap1\n      pop\n      jump\t// out\n        /* \"#utility.yul\":1997:2114   */\n    tag_118:\n        /* \"#utility.yul\":2106:2107   */\n      0x00\n        /* \"#utility.yul\":2103:2104   */\n      dup1\n        /* \"#utility.yul\":2096:2108   */\n      revert\n        /* \"#utility.yul\":2137:2847   */\n    tag_119:\n        /* \"#utility.yul\":2233:2238   */\n      0x00\n        /* \"#utility.yul\":2258:2339   */\n      tag_199\n        /* \"#utility.yul\":2274:2338   */\n      tag_200\n        /* \"#utility.yul\":2331:2337   */\n      dup5\n        /* \"#utility.yul\":2274:2338   */\n      tag_117\n      jump\t// in\n    tag_200:\n        /* \"#utility.yul\":2258:2339   */\n      tag_116\n      jump\t// in\n    tag_199:\n        /* \"#utility.yul\":2249:2339   */\n      swap1\n      pop\n        /* \"#utility.yul\":2359:2364   */\n      dup1\n        /* \"#utility.yul\":2388:2394   */\n      dup4\n        /* \"#utility.yul\":2381:2386   */\n      dup3\n        /* \"#utility.yul\":2374:2395   */\n      mstore\n        /* \"#utility.yul\":2422:2426   */\n      0x20\n        /* \"#utility.yul\":2415:2420   */\n      dup3\n        /* \"#utility.yul\":2411:2427   */\n      add\n        /* \"#utility.yul\":2404:2427   */\n      swap1\n      pop\n        /* \"#utility.yul\":2475:2479   */\n      0x20\n        /* \"#utility.yul\":2467:2473   */\n      dup5\n        /* \"#utility.yul\":2463:2480   */\n      mul\n        /* \"#utility.yul\":2455:2461   */\n      dup4\n        /* \"#utility.yul\":2451:2481   */\n      add\n        /* \"#utility.yul\":2504:2507   */\n      dup6\n        /* \"#utility.yul\":2496:2502   */\n      dup2\n        /* \"#utility.yul\":2493:2508   */\n      gt\n        /* \"#utility.yul\":2490:2612   */\n      iszero\n      tag_201\n      jumpi\n        /* \"#utility.yul\":2523:2602   */\n      tag_202\n      tag_118\n      jump\t// in\n    tag_202:\n        /* \"#utility.yul\":2490:2612   */\n    tag_201:\n        /* \"#utility.yul\":2638:2644   */\n      dup4\n        /* \"#utility.yul\":2621:2841   */\n    tag_203:\n        /* \"#utility.yul\":2655:2661   */\n      dup2\n        /* \"#utility.yul\":2650:2653   */\n      dup2\n        /* \"#utility.yul\":2647:2662   */\n      lt\n        /* \"#utility.yul\":2621:2841   */\n      iszero\n      tag_205\n      jumpi\n        /* \"#utility.yul\":2730:2733   */\n      dup1\n        /* \"#utility.yul\":2759:2796   */\n      tag_206\n        /* \"#utility.yul\":2792:2795   */\n      dup9\n        /* \"#utility.yul\":2780:2790   */\n      dup3\n        /* \"#utility.yul\":2759:2796   */\n      tag_111\n      jump\t// in\n    tag_206:\n        /* \"#utility.yul\":2754:2757   */\n      dup5\n        /* \"#utility.yul\":2747:2797   */\n      mstore\n        /* \"#utility.yul\":2826:2830   */\n      0x20\n        /* \"#utility.yul\":2821:2824   */\n      dup5\n        /* \"#utility.yul\":2817:2831   */\n      add\n        /* \"#utility.yul\":2810:2831   */\n      swap4\n      pop\n        /* \"#utility.yul\":2697:2841   */\n      pop\n        /* \"#utility.yul\":2681:2685   */\n      0x20\n        /* \"#utility.yul\":2676:2679   */\n      dup2\n        /* \"#utility.yul\":2672:2686   */\n      add\n        /* \"#utility.yul\":2665:2686   */\n      swap1\n      pop\n        /* \"#utility.yul\":2621:2841   */\n      jump(tag_203)\n    tag_205:\n        /* \"#utility.yul\":2625:2646   */\n      pop\n        /* \"#utility.yul\":2239:2847   */\n      pop\n      pop\n        /* \"#utility.yul\":2137:2847   */\n      swap4\n      swap3\n      pop\n      pop\n      pop\n      jump\t// out\n        /* \"#utility.yul\":2870:3240   */\n    tag_120:\n        /* \"#utility.yul\":2941:2946   */\n      0x00\n        /* \"#utility.yul\":2990:2993   */\n      dup3\n        /* \"#utility.yul\":2983:2987   */\n      0x1f\n        /* \"#utility.yul\":2975:2981   */\n      dup4\n        /* \"#utility.yul\":2971:2988   */\n      add\n        /* \"#utility.yul\":2967:2994   */\n      slt\n        /* \"#utility.yul\":2957:3079   */\n      tag_208\n      jumpi\n        /* \"#utility.yul\":2998:3077   */\n      tag_209\n      tag_112\n      jump\t// in\n    tag_209:\n        /* \"#utility.yul\":2957:3079   */\n    tag_208:\n        /* \"#utility.yul\":3115:3121   */\n      dup2\n        /* \"#utility.yul\":3102:3122   */\n      calldataload\n        /* \"#utility.yul\":3140:3234   */\n      tag_210\n        /* \"#utility.yul\":3230:3233   */\n      dup5\n        /* \"#utility.yul\":3222:3228   */\n      dup3\n        /* \"#utility.yul\":3215:3219   */\n      0x20\n        /* \"#utility.yul\":3207:3213   */\n      dup7\n        /* \"#utility.yul\":3203:3220   */\n      add\n        /* \"#utility.yul\":3140:3234   */\n      tag_119\n      jump\t// in\n    tag_210:\n        /* \"#utility.yul\":3131:3234   */\n      swap2\n      pop\n        /* \"#utility.yul\":2947:3240   */\n      pop\n        /* \"#utility.yul\":2870:3240   */\n      swap3\n      swap2\n      pop\n      pop\n      jump\t// out\n        /* \"#utility.yul\":3246:3323   */\n    tag_121:\n        /* \"#utility.yul\":3283:3290   */\n      0x00\n        /* \"#utility.yul\":3312:3317   */\n      dup2\n        /* \"#utility.yul\":3301:3317   */\n      swap1\n      pop\n        /* \"#utility.yul\":3246:3323   */\n      swap2\n      swap1\n      pop\n      jump\t// out\n        /* \"#utility.yul\":3329:3451   */\n    tag_122:\n        /* \"#utility.yul\":3402:3426   */\n      tag_213\n        /* \"#utility.yul\":3420:3425   */\n      dup2\n        /* \"#utility.yul\":3402:3426   */\n      tag_121\n      jump\t// in\n    tag_213:\n        /* \"#utility.yul\":3395:3400   */\n      dup2\n        /* \"#utility.yul\":3392:3427   */\n      eq\n        /* \"#utility.yul\":3382:3445   */\n      tag_214\n      jumpi\n        /* \"#utility.yul\":3441:3442   */\n      0x00\n        /* \"#utility.yul\":3438:3439   */\n      dup1\n        /* \"#utility.yul\":3431:3443   */\n      revert\n        /* \"#utility.yul\":3382:3445   */\n    tag_214:\n        /* \"#utility.yul\":3329:3451   */\n      pop\n      jump\t// out\n        /* \"#utility.yul\":3457:3596   */\n    tag_123:\n        /* \"#utility.yul\":3503:3508   */\n      0x00\n        /* \"#utility.yul\":3541:3547   */\n      dup2\n        /* \"#utility.yul\":3528:3548   */\n      calldataload\n        /* \"#utility.yul\":3519:3548   */\n      swap1\n      pop\n        /* \"#utility.yul\":3557:3590   */\n      tag_216\n        /* \"#utility.yul\":3584:3589   */\n      dup2\n        /* \"#utility.yul\":3557:3590   */\n      tag_122\n      jump\t// in\n    tag_216:\n        /* \"#utility.yul\":3457:3596   */\n      swap3\n      swap2\n      pop\n      pop\n      jump\t// out\n        /* \"#utility.yul\":3602:3719   */\n    tag_124:\n        /* \"#utility.yul\":3711:3712   */\n      0x00\n        /* \"#utility.yul\":3708:3709   */\n      dup1\n        /* \"#utility.yul\":3701:3713   */\n      revert\n        /* \"#utility.yul\":3725:4033   */\n    tag_125:\n        /* \"#utility.yul\":3787:3791   */\n      0x00\n        /* \"#utility.yul\":3877:3895   */\n      0xffffffffffffffff\n        /* \"#utility.yul\":3869:3875   */\n      dup3\n        /* \"#utility.yul\":3866:3896   */\n      gt\n        /* \"#utility.yul\":3863:3919   */\n      iszero\n      tag_219\n      jumpi\n        /* \"#utility.yul\":3899:3917   */\n      tag_220\n      tag_114\n      jump\t// in\n    tag_220:\n        /* \"#utility.yul\":3863:3919   */\n    tag_219:\n        /* \"#utility.yul\":3937:3966   */\n      tag_221\n        /* \"#utility.yul\":3959:3965   */\n      dup3\n        /* \"#utility.yul\":3937:3966   */\n      tag_113\n      jump\t// in\n    tag_221:\n        /* \"#utility.yul\":3929:3966   */\n      swap1\n      pop\n        /* \"#utility.yul\":4021:4025   */\n      0x20\n        /* \"#utility.yul\":4015:4019   */\n      dup2\n        /* \"#utility.yul\":4011:4026   */\n      add\n        /* \"#utility.yul\":4003:4026   */\n      swap1\n      pop\n        /* \"#utility.yul\":3725:4033   */\n      swap2\n      swap1\n      pop\n      jump\t// out\n        /* \"#utility.yul\":4039:4187   */\n    tag_126:\n        /* \"#utility.yul\":4137:4143   */\n      dup3\n        /* \"#utility.yul\":4132:4135   */\n      dup2\n        /* \"#utility.yul\":4127:4130   */\n      dup4\n        /* \"#utility.yul\":4114:4144   */\n      calldatacopy\n        /* \"#utility.yul\":4178:4179   */\n      0x00\n        /* \"#utility.yul\":4169:4175   */\n      dup4\n        /* \"#utility.yul\":4164:4167   */\n      dup4\n        /* \"#utility.yul\":4160:4176   */\n      add\n        /* \"#utility.yul\":4153:4180   */\n      mstore\n        /* \"#utility.yul\":4039:4187   */\n      pop\n      pop\n      pop\n      jump\t// out\n        /* \"#utility.yul\":4193:4618   */\n    tag_127:\n        /* \"#utility.yul\":4271:4276   */\n      0x00\n        /* \"#utility.yul\":4296:4362   */\n      tag_224\n        /* \"#utility.yul\":4312:4361   */\n      tag_225\n        /* \"#utility.yul\":4354:4360   */\n      dup5\n        /* \"#utility.yul\":4312:4361   */\n      tag_125\n      jump\t// in\n    tag_225:\n        /* \"#utility.yul\":4296:4362   */\n      tag_116\n      jump\t// in\n    tag_224:\n        /* \"#utility.yul\":4287:4362   */\n      swap1\n      pop\n        /* \"#utility.yul\":4385:4391   */\n      dup3\n        /* \"#utility.yul\":4378:4383   */\n      dup2\n        /* \"#utility.yul\":4371:4392   */\n      mstore\n        /* \"#utility.yul\":4423:4427   */\n      0x20\n        /* \"#utility.yul\":4416:4421   */\n      dup2\n        /* \"#utility.yul\":4412:4428   */\n      add\n        /* \"#utility.yul\":4461:4464   */\n      dup5\n        /* \"#utility.yul\":4452:4458   */\n      dup5\n        /* \"#utility.yul\":4447:4450   */\n      dup5\n        /* \"#utility.yul\":4443:4459   */\n      add\n        /* \"#utility.yul\":4440:4465   */\n      gt\n        /* \"#utility.yul\":4437:4549   */\n      iszero\n      tag_226\n      jumpi\n        /* \"#utility.yul\":4468:4547   */\n      tag_227\n      tag_124\n      jump\t// in\n    tag_227:\n        /* \"#utility.yul\":4437:4549   */\n    tag_226:\n        /* \"#utility.yul\":4558:4612   */\n      tag_228\n        /* \"#utility.yul\":4605:4611   */\n      dup5\n        /* \"#utility.yul\":4600:4603   */\n      dup3\n        /* \"#utility.yul\":4595:4598   */\n      dup6\n        /* \"#utility.yul\":4558:4612   */\n      tag_126\n      jump\t// in\n    tag_228:\n        /* \"#utility.yul\":4277:4618   */\n      pop\n        /* \"#utility.yul\":4193:4618   */\n      swap4\n      swap3\n      pop\n      pop\n      pop\n      jump\t// out\n        /* \"#utility.yul\":4638:4978   */\n    tag_128:\n        /* \"#utility.yul\":4694:4699   */\n      0x00\n        /* \"#utility.yul\":4743:4746   */\n      dup3\n        /* \"#utility.yul\":4736:4740   */\n      0x1f\n        /* \"#utility.yul\":4728:4734   */\n      dup4\n        /* \"#utility.yul\":4724:4741   */\n      add\n        /* \"#utility.yul\":4720:4747   */\n      slt\n        /* \"#utility.yul\":4710:4832   */\n      tag_230\n      jumpi\n        /* \"#utility.yul\":4751:4830   */\n      tag_231\n      tag_112\n      jump\t// in\n    tag_231:\n        /* \"#utility.yul\":4710:4832   */\n    tag_230:\n        /* \"#utility.yul\":4868:4874   */\n      dup2\n        /* \"#utility.yul\":4855:4875   */\n      calldataload\n        /* \"#utility.yul\":4893:4972   */\n      tag_232\n        /* \"#utility.yul\":4968:4971   */\n      dup5\n        /* \"#utility.yul\":4960:4966   */\n      dup3\n        /* \"#utility.yul\":4953:4957   */\n      0x20\n        /* \"#utility.yul\":4945:4951   */\n      dup7\n        /* \"#utility.yul\":4941:4958   */\n      add\n        /* \"#utility.yul\":4893:4972   */\n      tag_127\n      jump\t// in\n    tag_232:\n        /* \"#utility.yul\":4884:4972   */\n      swap2\n      pop\n        /* \"#utility.yul\":4700:4978   */\n      pop\n        /* \"#utility.yul\":4638:4978   */\n      swap3\n      swap2\n      pop\n      pop\n      jump\t// out\n        /* \"#utility.yul\":4984:7083   */\n    tag_11:\n        /* \"#utility.yul\":5161:5167   */\n      0x00\n        /* \"#utility.yul\":5169:5175   */\n      dup1\n        /* \"#utility.yul\":5177:5183   */\n      0x00\n        /* \"#utility.yul\":5185:5191   */\n      dup1\n        /* \"#utility.yul\":5193:5199   */\n      0x00\n        /* \"#utility.yul\":5201:5207   */\n      dup1\n        /* \"#utility.yul\":5209:5215   */\n      0x00\n        /* \"#utility.yul\":5217:5223   */\n      dup1\n        /* \"#utility.yul\":5266:5269   */\n      0x0100\n        /* \"#utility.yul\":5254:5263   */\n      dup10\n        /* \"#utility.yul\":5245:5252   */\n      dup12\n        /* \"#utility.yul\":5241:5264   */\n      sub\n        /* \"#utility.yul\":5237:5270   */\n      slt\n        /* \"#utility.yul\":5234:5354   */\n      iszero\n      tag_234\n      jumpi\n        /* \"#utility.yul\":5273:5352   */\n      tag_235\n      tag_106\n      jump\t// in\n    tag_235:\n        /* \"#utility.yul\":5234:5354   */\n    tag_234:\n        /* \"#utility.yul\":5393:5394   */\n      0x00\n        /* \"#utility.yul\":5418:5471   */\n      tag_236\n        /* \"#utility.yul\":5463:5470   */\n      dup12\n        /* \"#utility.yul\":5454:5460   */\n      dup3\n        /* \"#utility.yul\":5443:5452   */\n      dup13\n        /* \"#utility.yul\":5439:5461   */\n      add\n        /* \"#utility.yul\":5418:5471   */\n      tag_111\n      jump\t// in\n    tag_236:\n        /* \"#utility.yul\":5408:5471   */\n      swap9\n      pop\n        /* \"#utility.yul\":5364:5481   */\n      pop\n        /* \"#utility.yul\":5548:5550   */\n      0x20\n        /* \"#utility.yul\":5537:5546   */\n      dup10\n        /* \"#utility.yul\":5533:5551   */\n      add\n        /* \"#utility.yul\":5520:5552   */\n      calldataload\n        /* \"#utility.yul\":5579:5597   */\n      0xffffffffffffffff\n        /* \"#utility.yul\":5571:5577   */\n      dup2\n        /* \"#utility.yul\":5568:5598   */\n      gt\n        /* \"#utility.yul\":5565:5682   */\n      iszero\n      tag_237\n      jumpi\n        /* \"#utility.yul\":5601:5680   */\n      tag_238\n      tag_107\n      jump\t// in\n    tag_238:\n        /* \"#utility.yul\":5565:5682   */\n    tag_237:\n        /* \"#utility.yul\":5706:5784   */\n      tag_239\n        /* \"#utility.yul\":5776:5783   */\n      dup12\n        /* \"#utility.yul\":5767:5773   */\n      dup3\n        /* \"#utility.yul\":5756:5765   */\n      dup13\n        /* \"#utility.yul\":5752:5774   */\n      add\n        /* \"#utility.yul\":5706:5784   */\n      tag_120\n      jump\t// in\n    tag_239:\n        /* \"#utility.yul\":5696:5784   */\n      swap8\n      pop\n        /* \"#utility.yul\":5491:5794   */\n      pop\n        /* \"#utility.yul\":5833:5835   */\n      0x40\n        /* \"#utility.yul\":5859:5912   */\n      tag_240\n        /* \"#utility.yul\":5904:5911   */\n      dup12\n        /* \"#utility.yul\":5895:5901   */\n      dup3\n        /* \"#utility.yul\":5884:5893   */\n      dup13\n        /* \"#utility.yul\":5880:5902   */\n      add\n        /* \"#utility.yul\":5859:5912   */\n      tag_123\n      jump\t// in\n    tag_240:\n        /* \"#utility.yul\":5849:5912   */\n      swap7\n      pop\n        /* \"#utility.yul\":5804:5922   */\n      pop\n        /* \"#utility.yul\":5989:5991   */\n      0x60\n        /* \"#utility.yul\":5978:5987   */\n      dup10\n        /* \"#utility.yul\":5974:5992   */\n      add\n        /* \"#utility.yul\":5961:5993   */\n      calldataload\n        /* \"#utility.yul\":6020:6038   */\n      0xffffffffffffffff\n        /* \"#utility.yul\":6012:6018   */\n      dup2\n        /* \"#utility.yul\":6009:6039   */\n      gt\n        /* \"#utility.yul\":6006:6123   */\n      iszero\n      tag_241\n      jumpi\n        /* \"#utility.yul\":6042:6121   */\n      tag_242\n      tag_107\n      jump\t// in\n    tag_242:\n        /* \"#utility.yul\":6006:6123   */\n    tag_241:\n        /* \"#utility.yul\":6147:6210   */\n      tag_243\n        /* \"#utility.yul\":6202:6209   */\n      dup12\n        /* \"#utility.yul\":6193:6199   */\n      dup3\n        /* \"#utility.yul\":6182:6191   */\n      dup13\n        /* \"#utility.yul\":6178:6200   */\n      add\n        /* \"#utility.yul\":6147:6210   */\n      tag_128\n      jump\t// in\n    tag_243:\n        /* \"#utility.yul\":6137:6210   */\n      swap6\n      pop\n        /* \"#utility.yul\":5932:6220   */\n      pop\n        /* \"#utility.yul\":6287:6290   */\n      0x80\n        /* \"#utility.yul\":6276:6285   */\n      dup10\n        /* \"#utility.yul\":6272:6291   */\n      add\n        /* \"#utility.yul\":6259:6292   */\n      calldataload\n        /* \"#utility.yul\":6319:6337   */\n      0xffffffffffffffff\n        /* \"#utility.yul\":6311:6317   */\n      dup2\n        /* \"#utility.yul\":6308:6338   */\n      gt\n        /* \"#utility.yul\":6305:6422   */\n      iszero\n      tag_244\n      jumpi\n        /* \"#utility.yul\":6341:6420   */\n      tag_245\n      tag_107\n      jump\t// in\n    tag_245:\n        /* \"#utility.yul\":6305:6422   */\n    tag_244:\n        /* \"#utility.yul\":6446:6509   */\n      tag_246\n        /* \"#utility.yul\":6501:6508   */\n      dup12\n        /* \"#utility.yul\":6492:6498   */\n      dup3\n        /* \"#utility.yul\":6481:6490   */\n      dup13\n        /* \"#utility.yul\":6477:6499   */\n      add\n        /* \"#utility.yul\":6446:6509   */\n      tag_128\n      jump\t// in\n    tag_246:\n        /* \"#utility.yul\":6436:6509   */\n      swap5\n      pop\n        /* \"#utility.yul\":6230:6519   */\n      pop\n        /* \"#utility.yul\":6586:6589   */\n      0xa0\n        /* \"#utility.yul\":6575:6584   */\n      dup10\n        /* \"#utility.yul\":6571:6590   */\n      add\n        /* \"#utility.yul\":6558:6591   */\n      calldataload\n        /* \"#utility.yul\":6618:6636   */\n      0xffffffffffffffff\n        /* \"#utility.yul\":6610:6616   */\n      dup2\n        /* \"#utility.yul\":6607:6637   */\n      gt\n        /* \"#utility.yul\":6604:6721   */\n      iszero\n      tag_247\n      jumpi\n        /* \"#utility.yul\":6640:6719   */\n      tag_248\n      tag_107\n      jump\t// in\n    tag_248:\n        /* \"#utility.yul\":6604:6721   */\n    tag_247:\n        /* \"#utility.yul\":6745:6808   */\n      tag_249\n        /* \"#utility.yul\":6800:6807   */\n      dup12\n        /* \"#utility.yul\":6791:6797   */\n      dup3\n        /* \"#utility.yul\":6780:6789   */\n      dup13\n        /* \"#utility.yul\":6776:6798   */\n      add\n        /* \"#utility.yul\":6745:6808   */\n      tag_128\n      jump\t// in\n    tag_249:\n        /* \"#utility.yul\":6735:6808   */\n      swap4\n      pop\n        /* \"#utility.yul\":6529:6818   */\n      pop\n        /* \"#utility.yul\":6857:6860   */\n      0xc0\n        /* \"#utility.yul\":6884:6937   */\n      tag_250\n        /* \"#utility.yul\":6929:6936   */\n      dup12\n        /* \"#utility.yul\":6920:6926   */\n      dup3\n        /* \"#utility.yul\":6909:6918   */\n      dup13\n        /* \"#utility.yul\":6905:6927   */\n      add\n        /* \"#utility.yul\":6884:6937   */\n      tag_123\n      jump\t// in\n    tag_250:\n        /* \"#utility.yul\":6874:6937   */\n      swap3\n      pop\n        /* \"#utility.yul\":6828:6947   */\n      pop\n        /* \"#utility.yul\":6986:6989   */\n      0xe0\n        /* \"#utility.yul\":7013:7066   */\n      tag_251\n        /* \"#utility.yul\":7058:7065   */\n      dup12\n        /* \"#utility.yul\":7049:7055   */\n      dup3\n        /* \"#utility.yul\":7038:7047   */\n      dup13\n        /* \"#utility.yul\":7034:7056   */\n      add\n        /* \"#utility.yul\":7013:7066   */\n      tag_123\n      jump\t// in\n    tag_251:\n        /* \"#utility.yul\":7003:7066   */\n      swap2\n      pop\n        /* \"#utility.yul\":6957:7076   */\n      pop\n        /* \"#utility.yul\":4984:7083   */\n      swap3\n      swap6\n      swap9\n      pop\n      swap3\n      swap6\n      swap9\n      swap1\n      swap4\n      swap7\n      pop\n      jump\t// out\n        /* \"#utility.yul\":7089:7207   */\n    tag_129:\n        /* \"#utility.yul\":7176:7200   */\n      tag_253\n        /* \"#utility.yul\":7194:7199   */\n      dup2\n        /* \"#utility.yul\":7176:7200   */\n      tag_121\n      jump\t// in\n    tag_253:\n        /* \"#utility.yul\":7171:7174   */\n      dup3\n        /* \"#utility.yul\":7164:7201   */\n      mstore\n        /* \"#utility.yul\":7089:7207   */\n      pop\n      pop\n      jump\t// out\n        /* \"#utility.yul\":7213:7435   */\n    tag_14:\n        /* \"#utility.yul\":7306:7310   */\n      0x00\n        /* \"#utility.yul\":7344:7346   */\n      0x20\n        /* \"#utility.yul\":7333:7342   */\n      dup3\n        /* \"#utility.yul\":7329:7347   */\n      add\n        /* \"#utility.yul\":7321:7347   */\n      swap1\n      pop\n        /* \"#utility.yul\":7357:7428   */\n      tag_255\n        /* \"#utility.yul\":7425:7426   */\n      0x00\n        /* \"#utility.yul\":7414:7423   */\n      dup4\n        /* \"#utility.yul\":7410:7427   */\n      add\n        /* \"#utility.yul\":7401:7407   */\n      dup5\n        /* \"#utility.yul\":7357:7428   */\n      tag_129\n      jump\t// in\n    tag_255:\n        /* \"#utility.yul\":7213:7435   */\n      swap3\n      swap2\n      pop\n      pop\n      jump\t// out\n        /* \"#utility.yul\":7441:7501   */\n    tag_130:\n        /* \"#utility.yul\":7469:7472   */\n      0x00\n        /* \"#utility.yul\":7490:7495   */\n      dup2\n        /* \"#utility.yul\":7483:7495   */\n      swap1\n      pop\n        /* \"#utility.yul\":7441:7501   */\n      swap2\n      swap1\n      pop\n      jump\t// out\n        /* \"#utility.yul\":7507:7649   */\n    tag_131:\n        /* \"#utility.yul\":7557:7566   */\n      0x00\n        /* \"#utility.yul\":7590:7643   */\n      tag_258\n        /* \"#utility.yul\":7608:7642   */\n      tag_259\n        /* \"#utility.yul\":7617:7641   */\n      tag_260\n        /* \"#utility.yul\":7635:7640   */\n      dup5\n        /* \"#utility.yul\":7617:7641   */\n      tag_108\n      jump\t// in\n    tag_260:\n        /* \"#utility.yul\":7608:7642   */\n      tag_130\n      jump\t// in\n    tag_259:\n        /* \"#utility.yul\":7590:7643   */\n      tag_108\n      jump\t// in\n    tag_258:\n        /* \"#utility.yul\":7577:7643   */\n      swap1\n      pop\n        /* \"#utility.yul\":7507:7649   */\n      swap2\n      swap1\n      pop\n      jump\t// out\n        /* \"#utility.yul\":7655:7781   */\n    tag_132:\n        /* \"#utility.yul\":7705:7714   */\n      0x00\n        /* \"#utility.yul\":7738:7775   */\n      tag_262\n        /* \"#utility.yul\":7769:7774   */\n      dup3\n        /* \"#utility.yul\":7738:7775   */\n      tag_131\n      jump\t// in\n    tag_262:\n        /* \"#utility.yul\":7725:7775   */\n      swap1\n      pop\n        /* \"#utility.yul\":7655:7781   */\n      swap2\n      swap1\n      pop\n      jump\t// out\n        /* \"#utility.yul\":7787:7934   */\n    tag_133:\n        /* \"#utility.yul\":7858:7867   */\n      0x00\n        /* \"#utility.yul\":7891:7928   */\n      tag_264\n        /* \"#utility.yul\":7922:7927   */\n      dup3\n        /* \"#utility.yul\":7891:7928   */\n      tag_132\n      jump\t// in\n    tag_264:\n        /* \"#utility.yul\":7878:7928   */\n      swap1\n      pop\n        /* \"#utility.yul\":7787:7934   */\n      swap2\n      swap1\n      pop\n      jump\t// out\n        /* \"#utility.yul\":7940:8113   */\n    tag_134:\n        /* \"#utility.yul\":8048:8106   */\n      tag_266\n        /* \"#utility.yul\":8100:8105   */\n      dup2\n        /* \"#utility.yul\":8048:8106   */\n      tag_133\n      jump\t// in\n    tag_266:\n        /* \"#utility.yul\":8043:8046   */\n      dup3\n        /* \"#utility.yul\":8036:8107   */\n      mstore\n        /* \"#utility.yul\":7940:8113   */\n      pop\n      pop\n      jump\t// out\n        /* \"#utility.yul\":8119:8383   */\n    tag_18:\n        /* \"#utility.yul\":8233:8237   */\n      0x00\n        /* \"#utility.yul\":8271:8273   */\n      0x20\n        /* \"#utility.yul\":8260:8269   */\n      dup3\n        /* \"#utility.yul\":8256:8274   */\n      add\n        /* \"#utility.yul\":8248:8274   */\n      swap1\n      pop\n        /* \"#utility.yul\":8284:8376   */\n      tag_268\n        /* \"#utility.yul\":8373:8374   */\n      0x00\n        /* \"#utility.yul\":8362:8371   */\n      dup4\n        /* \"#utility.yul\":8358:8375   */\n      add\n        /* \"#utility.yul\":8349:8355   */\n      dup5\n        /* \"#utility.yul\":8284:8376   */\n      tag_134\n      jump\t// in\n    tag_268:\n        /* \"#utility.yul\":8119:8383   */\n      swap3\n      swap2\n      pop\n      pop\n      jump\t// out\n        /* \"#utility.yul\":8389:8718   */\n    tag_24:\n        /* \"#utility.yul\":8448:8454   */\n      0x00\n        /* \"#utility.yul\":8497:8499   */\n      0x20\n        /* \"#utility.yul\":8485:8494   */\n      dup3\n        /* \"#utility.yul\":8476:8483   */\n      dup5\n        /* \"#utility.yul\":8472:8495   */\n      sub\n        /* \"#utility.yul\":8468:8500   */\n      slt\n        /* \"#utility.yul\":8465:8584   */\n      iszero\n      tag_270\n      jumpi\n        /* \"#utility.yul\":8503:8582   */\n      tag_271\n      tag_106\n      jump\t// in\n    tag_271:\n        /* \"#utility.yul\":8465:8584   */\n    tag_270:\n        /* \"#utility.yul\":8623:8624   */\n      0x00\n        /* \"#utility.yul\":8648:8701   */\n      tag_272\n        /* \"#utility.yul\":8693:8700   */\n      dup5\n        /* \"#utility.yul\":8684:8690   */\n      dup3\n        /* \"#utility.yul\":8673:8682   */\n      dup6\n        /* \"#utility.yul\":8669:8691   */\n      add\n        /* \"#utility.yul\":8648:8701   */\n      tag_123\n      jump\t// in\n    tag_272:\n        /* \"#utility.yul\":8638:8701   */\n      swap2\n      pop\n        /* \"#utility.yul\":8594:8711   */\n      pop\n        /* \"#utility.yul\":8389:8718   */\n      swap3\n      swap2\n      pop\n      pop\n      jump\t// out\n        /* \"#utility.yul\":8724:8842   */\n    tag_135:\n        /* \"#utility.yul\":8811:8835   */\n      tag_274\n        /* \"#utility.yul\":8829:8834   */\n      dup2\n        /* \"#utility.yul\":8811:8835   */\n      tag_109\n      jump\t// in\n    tag_274:\n        /* \"#utility.yul\":8806:8809   */\n      dup3\n        /* \"#utility.yul\":8799:8836   */\n      mstore\n        /* \"#utility.yul\":8724:8842   */\n      pop\n      pop\n      jump\t// out\n        /* \"#utility.yul\":8848:8947   */\n    tag_136:\n        /* \"#utility.yul\":8900:8906   */\n      0x00\n        /* \"#utility.yul\":8934:8939   */\n      dup2\n        /* \"#utility.yul\":8928:8940   */\n      mload\n        /* \"#utility.yul\":8918:8940   */\n      swap1\n      pop\n        /* \"#utility.yul\":8848:8947   */\n      swap2\n      swap1\n      pop\n      jump\t// out\n        /* \"#utility.yul\":8953:9122   */\n    tag_137:\n        /* \"#utility.yul\":9037:9048   */\n      0x00\n        /* \"#utility.yul\":9071:9077   */\n      dup3\n        /* \"#utility.yul\":9066:9069   */\n      dup3\n        /* \"#utility.yul\":9059:9078   */\n      mstore\n        /* \"#utility.yul\":9111:9115   */\n      0x20\n        /* \"#utility.yul\":9106:9109   */\n      dup3\n        /* \"#utility.yul\":9102:9116   */\n      add\n        /* \"#utility.yul\":9087:9116   */\n      swap1\n      pop\n        /* \"#utility.yul\":8953:9122   */\n      swap3\n      swap2\n      pop\n      pop\n      jump\t// out\n        /* \"#utility.yul\":9128:9267   */\n    tag_138:\n        /* \"#utility.yul\":9217:9223   */\n      dup3\n        /* \"#utility.yul\":9212:9215   */\n      dup2\n        /* \"#utility.yul\":9207:9210   */\n      dup4\n        /* \"#utility.yul\":9201:9224   */\n      mcopy\n        /* \"#utility.yul\":9258:9259   */\n      0x00\n        /* \"#utility.yul\":9249:9255   */\n      dup4\n        /* \"#utility.yul\":9244:9247   */\n      dup4\n        /* \"#utility.yul\":9240:9256   */\n      add\n        /* \"#utility.yul\":9233:9260   */\n      mstore\n        /* \"#utility.yul\":9128:9267   */\n      pop\n      pop\n      pop\n      jump\t// out\n        /* \"#utility.yul\":9273:9650   */\n    tag_139:\n        /* \"#utility.yul\":9361:9364   */\n      0x00\n        /* \"#utility.yul\":9389:9428   */\n      tag_279\n        /* \"#utility.yul\":9422:9427   */\n      dup3\n        /* \"#utility.yul\":9389:9428   */\n      tag_136\n      jump\t// in\n    tag_279:\n        /* \"#utility.yul\":9444:9515   */\n      tag_280\n        /* \"#utility.yul\":9508:9514   */\n      dup2\n        /* \"#utility.yul\":9503:9506   */\n      dup6\n        /* \"#utility.yul\":9444:9515   */\n      tag_137\n      jump\t// in\n    tag_280:\n        /* \"#utility.yul\":9437:9515   */\n      swap4\n      pop\n        /* \"#utility.yul\":9524:9589   */\n      tag_281\n        /* \"#utility.yul\":9582:9588   */\n      dup2\n        /* \"#utility.yul\":9577:9580   */\n      dup6\n        /* \"#utility.yul\":9570:9574   */\n      0x20\n        /* \"#utility.yul\":9563:9568   */\n      dup7\n        /* \"#utility.yul\":9559:9575   */\n      add\n        /* \"#utility.yul\":9524:9589   */\n      tag_138\n      jump\t// in\n    tag_281:\n        /* \"#utility.yul\":9614:9643   */\n      tag_282\n        /* \"#utility.yul\":9636:9642   */\n      dup2\n        /* \"#utility.yul\":9614:9643   */\n      tag_113\n      jump\t// in\n    tag_282:\n        /* \"#utility.yul\":9609:9612   */\n      dup5\n        /* \"#utility.yul\":9605:9644   */\n      add\n        /* \"#utility.yul\":9598:9644   */\n      swap2\n      pop\n        /* \"#utility.yul\":9365:9650   */\n      pop\n        /* \"#utility.yul\":9273:9650   */\n      swap3\n      swap2\n      pop\n      pop\n      jump\t// out\n        /* \"#utility.yul\":9656:9836   */\n    tag_40:\n        /* \"#utility.yul\":9704:9781   */\n      0x4e487b7100000000000000000000000000000000000000000000000000000000\n        /* \"#utility.yul\":9701:9702   */\n      0x00\n        /* \"#utility.yul\":9694:9782   */\n      mstore\n        /* \"#utility.yul\":9801:9805   */\n      0x21\n        /* \"#utility.yul\":9798:9799   */\n      0x04\n        /* \"#utility.yul\":9791:9806   */\n      mstore\n        /* \"#utility.yul\":9825:9829   */\n      0x24\n        /* \"#utility.yul\":9822:9823   */\n      0x00\n        /* \"#utility.yul\":9815:9830   */\n      revert\n        /* \"#utility.yul\":9842:9964   */\n    tag_140:\n        /* \"#utility.yul\":9932:9933   */\n      0x04\n        /* \"#utility.yul\":9925:9930   */\n      dup2\n        /* \"#utility.yul\":9922:9934   */\n      lt\n        /* \"#utility.yul\":9912:9958   */\n      tag_285\n      jumpi\n        /* \"#utility.yul\":9938:9956   */\n      tag_286\n      tag_40\n      jump\t// in\n    tag_286:\n        /* \"#utility.yul\":9912:9958   */\n    tag_285:\n        /* \"#utility.yul\":9842:9964   */\n      pop\n      jump\t// out\n        /* \"#utility.yul\":9970:10115   */\n    tag_141:\n        /* \"#utility.yul\":10024:10031   */\n      0x00\n        /* \"#utility.yul\":10053:10058   */\n      dup2\n        /* \"#utility.yul\":10042:10058   */\n      swap1\n      pop\n        /* \"#utility.yul\":10059:10109   */\n      tag_288\n        /* \"#utility.yul\":10103:10108   */\n      dup3\n        /* \"#utility.yul\":10059:10109   */\n      tag_140\n      jump\t// in\n    tag_288:\n        /* \"#utility.yul\":9970:10115   */\n      swap2\n      swap1\n      pop\n      jump\t// out\n        /* \"#utility.yul\":10121:10266   */\n    tag_142:\n        /* \"#utility.yul\":10186:10195   */\n      0x00\n        /* \"#utility.yul\":10219:10260   */\n      tag_290\n        /* \"#utility.yul\":10254:10259   */\n      dup3\n        /* \"#utility.yul\":10219:10260   */\n      tag_141\n      jump\t// in\n    tag_290:\n        /* \"#utility.yul\":10206:10260   */\n      swap1\n      pop\n        /* \"#utility.yul\":10121:10266   */\n      swap2\n      swap1\n      pop\n      jump\t// out\n        /* \"#utility.yul\":10272:10433   */\n    tag_143:\n        /* \"#utility.yul\":10374:10426   */\n      tag_292\n        /* \"#utility.yul\":10420:10425   */\n      dup2\n        /* \"#utility.yul\":10374:10426   */\n      tag_142\n      jump\t// in\n    tag_292:\n        /* \"#utility.yul\":10369:10372   */\n      dup3\n        /* \"#utility.yul\":10362:10427   */\n      mstore\n        /* \"#utility.yul\":10272:10433   */\n      pop\n      pop\n      jump\t// out\n        /* \"#utility.yul\":10439:11739   */\n    tag_27:\n        /* \"#utility.yul\":10803:10807   */\n      0x00\n        /* \"#utility.yul\":10841:10844   */\n      0x0100\n        /* \"#utility.yul\":10830:10839   */\n      dup3\n        /* \"#utility.yul\":10826:10845   */\n      add\n        /* \"#utility.yul\":10818:10845   */\n      swap1\n      pop\n        /* \"#utility.yul\":10855:10926   */\n      tag_294\n        /* \"#utility.yul\":10923:10924   */\n      0x00\n        /* \"#utility.yul\":10912:10921   */\n      dup4\n        /* \"#utility.yul\":10908:10925   */\n      add\n        /* \"#utility.yul\":10899:10905   */\n      dup12\n        /* \"#utility.yul\":10855:10926   */\n      tag_135\n      jump\t// in\n    tag_294:\n        /* \"#utility.yul\":10936:11008   */\n      tag_295\n        /* \"#utility.yul\":11004:11006   */\n      0x20\n        /* \"#utility.yul\":10993:11002   */\n      dup4\n        /* \"#utility.yul\":10989:11007   */\n      add\n        /* \"#utility.yul\":10980:10986   */\n      dup11\n        /* \"#utility.yul\":10936:11008   */\n      tag_129\n      jump\t// in\n    tag_295:\n        /* \"#utility.yul\":11055:11064   */\n      dup2\n        /* \"#utility.yul\":11049:11053   */\n      dup2\n        /* \"#utility.yul\":11045:11065   */\n      sub\n        /* \"#utility.yul\":11040:11042   */\n      0x40\n        /* \"#utility.yul\":11029:11038   */\n      dup4\n        /* \"#utility.yul\":11025:11043   */\n      add\n        /* \"#utility.yul\":11018:11066   */\n      mstore\n        /* \"#utility.yul\":11083:11161   */\n      tag_296\n        /* \"#utility.yul\":11156:11160   */\n      dup2\n        /* \"#utility.yul\":11147:11153   */\n      dup10\n        /* \"#utility.yul\":11083:11161   */\n      tag_139\n      jump\t// in\n    tag_296:\n        /* \"#utility.yul\":11075:11161   */\n      swap1\n      pop\n        /* \"#utility.yul\":11208:11217   */\n      dup2\n        /* \"#utility.yul\":11202:11206   */\n      dup2\n        /* \"#utility.yul\":11198:11218   */\n      sub\n        /* \"#utility.yul\":11193:11195   */\n      0x60\n        /* \"#utility.yul\":11182:11191   */\n      dup4\n        /* \"#utility.yul\":11178:11196   */\n      add\n        /* \"#utility.yul\":11171:11219   */\n      mstore\n        /* \"#utility.yul\":11236:11314   */\n      tag_297\n        /* \"#utility.yul\":11309:11313   */\n      dup2\n        /* \"#utility.yul\":11300:11306   */\n      dup9\n        /* \"#utility.yul\":11236:11314   */\n      tag_139\n      jump\t// in\n    tag_297:\n        /* \"#utility.yul\":11228:11314   */\n      swap1\n      pop\n        /* \"#utility.yul\":11362:11371   */\n      dup2\n        /* \"#utility.yul\":11356:11360   */\n      dup2\n        /* \"#utility.yul\":11352:11372   */\n      sub\n        /* \"#utility.yul\":11346:11349   */\n      0x80\n        /* \"#utility.yul\":11335:11344   */\n      dup4\n        /* \"#utility.yul\":11331:11350   */\n      add\n        /* \"#utility.yul\":11324:11373   */\n      mstore\n        /* \"#utility.yul\":11390:11468   */\n      tag_298\n        /* \"#utility.yul\":11463:11467   */\n      dup2\n        /* \"#utility.yul\":11454:11460   */\n      dup8\n        /* \"#utility.yul\":11390:11468   */\n      tag_139\n      jump\t// in\n    tag_298:\n        /* \"#utility.yul\":11382:11468   */\n      swap1\n      pop\n        /* \"#utility.yul\":11478:11551   */\n      tag_299\n        /* \"#utility.yul\":11546:11549   */\n      0xa0\n        /* \"#utility.yul\":11535:11544   */\n      dup4\n        /* \"#utility.yul\":11531:11550   */\n      add\n        /* \"#utility.yul\":11522:11528   */\n      dup7\n        /* \"#utility.yul\":11478:11551   */\n      tag_129\n      jump\t// in\n    tag_299:\n        /* \"#utility.yul\":11561:11649   */\n      tag_300\n        /* \"#utility.yul\":11644:11647   */\n      0xc0\n        /* \"#utility.yul\":11633:11642   */\n      dup4\n        /* \"#utility.yul\":11629:11648   */\n      add\n        /* \"#utility.yul\":11620:11626   */\n      dup6\n        /* \"#utility.yul\":11561:11649   */\n      tag_143\n      jump\t// in\n    tag_300:\n        /* \"#utility.yul\":11659:11732   */\n      tag_301\n        /* \"#utility.yul\":11727:11730   */\n      0xe0\n        /* \"#utility.yul\":11716:11725   */\n      dup4\n        /* \"#utility.yul\":11712:11731   */\n      add\n        /* \"#utility.yul\":11703:11709   */\n      dup5\n        /* \"#utility.yul\":11659:11732   */\n      tag_129\n      jump\t// in\n    tag_301:\n        /* \"#utility.yul\":10439:11739   */\n      swap10\n      swap9\n      pop\n      pop\n      pop\n      pop\n      pop\n      pop\n      pop\n      pop\n      pop\n      jump\t// out\n        /* \"#utility.yul\":11745:11853   */\n    tag_144:\n        /* \"#utility.yul\":11822:11846   */\n      tag_303\n        /* \"#utility.yul\":11840:11845   */\n      dup2\n        /* \"#utility.yul\":11822:11846   */\n      tag_109\n      jump\t// in\n    tag_303:\n        /* \"#utility.yul\":11817:11820   */\n      dup3\n        /* \"#utility.yul\":11810:11847   */\n      mstore\n        /* \"#utility.yul\":11745:11853   */\n      pop\n      pop\n      jump\t// out\n        /* \"#utility.yul\":11859:11973   */\n    tag_145:\n        /* \"#utility.yul\":11926:11932   */\n      0x00\n        /* \"#utility.yul\":11960:11965   */\n      dup2\n        /* \"#utility.yul\":11954:11966   */\n      mload\n        /* \"#utility.yul\":11944:11966   */\n      swap1\n      pop\n        /* \"#utility.yul\":11859:11973   */\n      swap2\n      swap1\n      pop\n      jump\t// out\n        /* \"#utility.yul\":11979:12153   */\n    tag_146:\n        /* \"#utility.yul\":12068:12079   */\n      0x00\n        /* \"#utility.yul\":12102:12108   */\n      dup3\n        /* \"#utility.yul\":12097:12100   */\n      dup3\n        /* \"#utility.yul\":12090:12109   */\n      mstore\n        /* \"#utility.yul\":12142:12146   */\n      0x20\n        /* \"#utility.yul\":12137:12140   */\n      dup3\n        /* \"#utility.yul\":12133:12147   */\n      add\n        /* \"#utility.yul\":12118:12147   */\n      swap1\n      pop\n        /* \"#utility.yul\":11979:12153   */\n      swap3\n      swap2\n      pop\n      pop\n      jump\t// out\n        /* \"#utility.yul\":12159:12291   */\n    tag_147:\n        /* \"#utility.yul\":12226:12230   */\n      0x00\n        /* \"#utility.yul\":12249:12252   */\n      dup2\n        /* \"#utility.yul\":12241:12252   */\n      swap1\n      pop\n        /* \"#utility.yul\":12279:12283   */\n      0x20\n        /* \"#utility.yul\":12274:12277   */\n      dup3\n        /* \"#utility.yul\":12270:12284   */\n      add\n        /* \"#utility.yul\":12262:12284   */\n      swap1\n      pop\n        /* \"#utility.yul\":12159:12291   */\n      swap2\n      swap1\n      pop\n      jump\t// out\n        /* \"#utility.yul\":12297:12476   */\n    tag_148:\n        /* \"#utility.yul\":12366:12376   */\n      0x00\n        /* \"#utility.yul\":12387:12433   */\n      tag_308\n        /* \"#utility.yul\":12429:12432   */\n      dup4\n        /* \"#utility.yul\":12421:12427   */\n      dup4\n        /* \"#utility.yul\":12387:12433   */\n      tag_144\n      jump\t// in\n    tag_308:\n        /* \"#utility.yul\":12465:12469   */\n      0x20\n        /* \"#utility.yul\":12460:12463   */\n      dup4\n        /* \"#utility.yul\":12456:12470   */\n      add\n        /* \"#utility.yul\":12442:12470   */\n      swap1\n      pop\n        /* \"#utility.yul\":12297:12476   */\n      swap3\n      swap2\n      pop\n      pop\n      jump\t// out\n        /* \"#utility.yul\":12482:12595   */\n    tag_149:\n        /* \"#utility.yul\":12552:12556   */\n      0x00\n        /* \"#utility.yul\":12584:12588   */\n      0x20\n        /* \"#utility.yul\":12579:12582   */\n      dup3\n        /* \"#utility.yul\":12575:12589   */\n      add\n        /* \"#utility.yul\":12567:12589   */\n      swap1\n      pop\n        /* \"#utility.yul\":12482:12595   */\n      swap2\n      swap1\n      pop\n      jump\t// out\n        /* \"#utility.yul\":12631:13343   */\n    tag_150:\n        /* \"#utility.yul\":12740:12743   */\n      0x00\n        /* \"#utility.yul\":12769:12823   */\n      tag_311\n        /* \"#utility.yul\":12817:12822   */\n      dup3\n        /* \"#utility.yul\":12769:12823   */\n      tag_145\n      jump\t// in\n    tag_311:\n        /* \"#utility.yul\":12839:12915   */\n      tag_312\n        /* \"#utility.yul\":12908:12914   */\n      dup2\n        /* \"#utility.yul\":12903:12906   */\n      dup6\n        /* \"#utility.yul\":12839:12915   */\n      tag_146\n      jump\t// in\n    tag_312:\n        /* \"#utility.yul\":12832:12915   */\n      swap4\n      pop\n        /* \"#utility.yul\":12939:12995   */\n      tag_313\n        /* \"#utility.yul\":12989:12994   */\n      dup4\n        /* \"#utility.yul\":12939:12995   */\n      tag_147\n      jump\t// in\n    tag_313:\n        /* \"#utility.yul\":13018:13025   */\n      dup1\n        /* \"#utility.yul\":13049:13050   */\n      0x00\n        /* \"#utility.yul\":13034:13318   */\n    tag_314:\n        /* \"#utility.yul\":13059:13065   */\n      dup4\n        /* \"#utility.yul\":13056:13057   */\n      dup2\n        /* \"#utility.yul\":13053:13066   */\n      lt\n        /* \"#utility.yul\":13034:13318   */\n      iszero\n      tag_316\n      jumpi\n        /* \"#utility.yul\":13135:13141   */\n      dup2\n        /* \"#utility.yul\":13129:13142   */\n      mload\n        /* \"#utility.yul\":13162:13225   */\n      tag_317\n        /* \"#utility.yul\":13221:13224   */\n      dup9\n        /* \"#utility.yul\":13206:13219   */\n      dup3\n        /* \"#utility.yul\":13162:13225   */\n      tag_148\n      jump\t// in\n    tag_317:\n        /* \"#utility.yul\":13155:13225   */\n      swap8\n      pop\n        /* \"#utility.yul\":13248:13308   */\n      tag_318\n        /* \"#utility.yul\":13301:13307   */\n      dup4\n        /* \"#utility.yul\":13248:13308   */\n      tag_149\n      jump\t// in\n    tag_318:\n        /* \"#utility.yul\":13238:13308   */\n      swap3\n      pop\n        /* \"#utility.yul\":13094:13318   */\n      pop\n        /* \"#utility.yul\":13081:13082   */\n      0x01\n        /* \"#utility.yul\":13078:13079   */\n      dup2\n        /* \"#utility.yul\":13074:13083   */\n      add\n        /* \"#utility.yul\":13069:13083   */\n      swap1\n      pop\n        /* \"#utility.yul\":13034:13318   */\n      jump(tag_314)\n    tag_316:\n        /* \"#utility.yul\":13038:13052   */\n      pop\n        /* \"#utility.yul\":13334:13337   */\n      dup6\n        /* \"#utility.yul\":13327:13337   */\n      swap4\n      pop\n        /* \"#utility.yul\":12745:13343   */\n      pop\n      pop\n      pop\n        /* \"#utility.yul\":12631:13343   */\n      swap3\n      swap2\n      pop\n      pop\n      jump\t// out\n        /* \"#utility.yul\":13349:13457   */\n    tag_151:\n        /* \"#utility.yul\":13426:13450   */\n      tag_320\n        /* \"#utility.yul\":13444:13449   */\n      dup2\n        /* \"#utility.yul\":13426:13450   */\n      tag_121\n      jump\t// in\n    tag_320:\n        /* \"#utility.yul\":13421:13424   */\n      dup3\n        /* \"#utility.yul\":13414:13451   */\n      mstore\n        /* \"#utility.yul\":13349:13457   */\n      pop\n      pop\n      jump\t// out\n        /* \"#utility.yul\":13463:13622   */\n    tag_152:\n        /* \"#utility.yul\":13537:13548   */\n      0x00\n        /* \"#utility.yul\":13571:13577   */\n      dup3\n        /* \"#utility.yul\":13566:13569   */\n      dup3\n        /* \"#utility.yul\":13559:13578   */\n      mstore\n        /* \"#utility.yul\":13611:13615   */\n      0x20\n        /* \"#utility.yul\":13606:13609   */\n      dup3\n        /* \"#utility.yul\":13602:13616   */\n      add\n        /* \"#utility.yul\":13587:13616   */\n      swap1\n      pop\n        /* \"#utility.yul\":13463:13622   */\n      swap3\n      swap2\n      pop\n      pop\n      jump\t// out\n        /* \"#utility.yul\":13628:13985   */\n    tag_153:\n        /* \"#utility.yul\":13706:13709   */\n      0x00\n        /* \"#utility.yul\":13734:13773   */\n      tag_323\n        /* \"#utility.yul\":13767:13772   */\n      dup3\n        /* \"#utility.yul\":13734:13773   */\n      tag_136\n      jump\t// in\n    tag_323:\n        /* \"#utility.yul\":13789:13850   */\n      tag_324\n        /* \"#utility.yul\":13843:13849   */\n      dup2\n        /* \"#utility.yul\":13838:13841   */\n      dup6\n        /* \"#utility.yul\":13789:13850   */\n      tag_152\n      jump\t// in\n    tag_324:\n        /* \"#utility.yul\":13782:13850   */\n      swap4\n      pop\n        /* \"#utility.yul\":13859:13924   */\n      tag_325\n        /* \"#utility.yul\":13917:13923   */\n      dup2\n        /* \"#utility.yul\":13912:13915   */\n      dup6\n        /* \"#utility.yul\":13905:13909   */\n      0x20\n        /* \"#utility.yul\":13898:13903   */\n      dup7\n        /* \"#utility.yul\":13894:13910   */\n      add\n        /* \"#utility.yul\":13859:13924   */\n      tag_138\n      jump\t// in\n    tag_325:\n        /* \"#utility.yul\":13949:13978   */\n      tag_326\n        /* \"#utility.yul\":13971:13977   */\n      dup2\n        /* \"#utility.yul\":13949:13978   */\n      tag_113\n      jump\t// in\n    tag_326:\n        /* \"#utility.yul\":13944:13947   */\n      dup5\n        /* \"#utility.yul\":13940:13979   */\n      add\n        /* \"#utility.yul\":13933:13979   */\n      swap2\n      pop\n        /* \"#utility.yul\":13710:13985   */\n      pop\n        /* \"#utility.yul\":13628:13985   */\n      swap3\n      swap2\n      pop\n      pop\n      jump\t// out\n        /* \"#utility.yul\":13991:14142   */\n    tag_154:\n        /* \"#utility.yul\":14083:14135   */\n      tag_328\n        /* \"#utility.yul\":14129:14134   */\n      dup2\n        /* \"#utility.yul\":14083:14135   */\n      tag_142\n      jump\t// in\n    tag_328:\n        /* \"#utility.yul\":14078:14081   */\n      dup3\n        /* \"#utility.yul\":14071:14136   */\n      mstore\n        /* \"#utility.yul\":13991:14142   */\n      pop\n      pop\n      jump\t// out\n        /* \"#utility.yul\":14232:16370   */\n    tag_155:\n        /* \"#utility.yul\":14357:14360   */\n      0x00\n        /* \"#utility.yul\":14393:14399   */\n      0x0120\n        /* \"#utility.yul\":14388:14391   */\n      dup4\n        /* \"#utility.yul\":14384:14400   */\n      add\n        /* \"#utility.yul\":14482:14486   */\n      0x00\n        /* \"#utility.yul\":14475:14480   */\n      dup4\n        /* \"#utility.yul\":14471:14487   */\n      add\n        /* \"#utility.yul\":14465:14488   */\n      mload\n        /* \"#utility.yul\":14501:14564   */\n      tag_330\n        /* \"#utility.yul\":14558:14562   */\n      0x00\n        /* \"#utility.yul\":14553:14556   */\n      dup7\n        /* \"#utility.yul\":14549:14563   */\n      add\n        /* \"#utility.yul\":14535:14547   */\n      dup3\n        /* \"#utility.yul\":14501:14564   */\n      tag_144\n      jump\t// in\n    tag_330:\n        /* \"#utility.yul\":14410:14574   */\n      pop\n        /* \"#utility.yul\":14659:14663   */\n      0x20\n        /* \"#utility.yul\":14652:14657   */\n      dup4\n        /* \"#utility.yul\":14648:14664   */\n      add\n        /* \"#utility.yul\":14642:14665   */\n      mload\n        /* \"#utility.yul\":14712:14715   */\n      dup5\n        /* \"#utility.yul\":14706:14710   */\n      dup3\n        /* \"#utility.yul\":14702:14716   */\n      sub\n        /* \"#utility.yul\":14695:14699   */\n      0x20\n        /* \"#utility.yul\":14690:14693   */\n      dup7\n        /* \"#utility.yul\":14686:14700   */\n      add\n        /* \"#utility.yul\":14679:14717   */\n      mstore\n        /* \"#utility.yul\":14738:14841   */\n      tag_331\n        /* \"#utility.yul\":14836:14840   */\n      dup3\n        /* \"#utility.yul\":14822:14834   */\n      dup3\n        /* \"#utility.yul\":14738:14841   */\n      tag_150\n      jump\t// in\n    tag_331:\n        /* \"#utility.yul\":14730:14841   */\n      swap2\n      pop\n        /* \"#utility.yul\":14584:14852   */\n      pop\n        /* \"#utility.yul\":14942:14946   */\n      0x40\n        /* \"#utility.yul\":14935:14940   */\n      dup4\n        /* \"#utility.yul\":14931:14947   */\n      add\n        /* \"#utility.yul\":14925:14948   */\n      mload\n        /* \"#utility.yul\":14961:15024   */\n      tag_332\n        /* \"#utility.yul\":15018:15022   */\n      0x40\n        /* \"#utility.yul\":15013:15016   */\n      dup7\n        /* \"#utility.yul\":15009:15023   */\n      add\n        /* \"#utility.yul\":14995:15007   */\n      dup3\n        /* \"#utility.yul\":14961:15024   */\n      tag_151\n      jump\t// in\n    tag_332:\n        /* \"#utility.yul\":14862:15034   */\n      pop\n        /* \"#utility.yul\":15117:15121   */\n      0x60\n        /* \"#utility.yul\":15110:15115   */\n      dup4\n        /* \"#utility.yul\":15106:15122   */\n      add\n        /* \"#utility.yul\":15100:15123   */\n      mload\n        /* \"#utility.yul\":15170:15173   */\n      dup5\n        /* \"#utility.yul\":15164:15168   */\n      dup3\n        /* \"#utility.yul\":15160:15174   */\n      sub\n        /* \"#utility.yul\":15153:15157   */\n      0x60\n        /* \"#utility.yul\":15148:15151   */\n      dup7\n        /* \"#utility.yul\":15144:15158   */\n      add\n        /* \"#utility.yul\":15137:15175   */\n      mstore\n        /* \"#utility.yul\":15196:15269   */\n      tag_333\n        /* \"#utility.yul\":15264:15268   */\n      dup3\n        /* \"#utility.yul\":15250:15262   */\n      dup3\n        /* \"#utility.yul\":15196:15269   */\n      tag_153\n      jump\t// in\n    tag_333:\n        /* \"#utility.yul\":15188:15269   */\n      swap2\n      pop\n        /* \"#utility.yul\":15044:15280   */\n      pop\n        /* \"#utility.yul\":15365:15369   */\n      0x80\n        /* \"#utility.yul\":15358:15363   */\n      dup4\n        /* \"#utility.yul\":15354:15370   */\n      add\n        /* \"#utility.yul\":15348:15371   */\n      mload\n        /* \"#utility.yul\":15418:15421   */\n      dup5\n        /* \"#utility.yul\":15412:15416   */\n      dup3\n        /* \"#utility.yul\":15408:15422   */\n      sub\n        /* \"#utility.yul\":15401:15405   */\n      0x80\n        /* \"#utility.yul\":15396:15399   */\n      dup7\n        /* \"#utility.yul\":15392:15406   */\n      add\n        /* \"#utility.yul\":15385:15423   */\n      mstore\n        /* \"#utility.yul\":15444:15517   */\n      tag_334\n        /* \"#utility.yul\":15512:15516   */\n      dup3\n        /* \"#utility.yul\":15498:15510   */\n      dup3\n        /* \"#utility.yul\":15444:15517   */\n      tag_153\n      jump\t// in\n    tag_334:\n        /* \"#utility.yul\":15436:15517   */\n      swap2\n      pop\n        /* \"#utility.yul\":15290:15528   */\n      pop\n        /* \"#utility.yul\":15616:15620   */\n      0xa0\n        /* \"#utility.yul\":15609:15614   */\n      dup4\n        /* \"#utility.yul\":15605:15621   */\n      add\n        /* \"#utility.yul\":15599:15622   */\n      mload\n        /* \"#utility.yul\":15669:15672   */\n      dup5\n        /* \"#utility.yul\":15663:15667   */\n      dup3\n        /* \"#utility.yul\":15659:15673   */\n      sub\n        /* \"#utility.yul\":15652:15656   */\n      0xa0\n        /* \"#utility.yul\":15647:15650   */\n      dup7\n        /* \"#utility.yul\":15643:15657   */\n      add\n        /* \"#utility.yul\":15636:15674   */\n      mstore\n        /* \"#utility.yul\":15695:15768   */\n      tag_335\n        /* \"#utility.yul\":15763:15767   */\n      dup3\n        /* \"#utility.yul\":15749:15761   */\n      dup3\n        /* \"#utility.yul\":15695:15768   */\n      tag_153\n      jump\t// in\n    tag_335:\n        /* \"#utility.yul\":15687:15768   */\n      swap2\n      pop\n        /* \"#utility.yul\":15538:15779   */\n      pop\n        /* \"#utility.yul\":15874:15878   */\n      0xc0\n        /* \"#utility.yul\":15867:15872   */\n      dup4\n        /* \"#utility.yul\":15863:15879   */\n      add\n        /* \"#utility.yul\":15857:15880   */\n      mload\n        /* \"#utility.yul\":15893:15956   */\n      tag_336\n        /* \"#utility.yul\":15950:15954   */\n      0xc0\n        /* \"#utility.yul\":15945:15948   */\n      dup7\n        /* \"#utility.yul\":15941:15955   */\n      add\n        /* \"#utility.yul\":15927:15939   */\n      dup3\n        /* \"#utility.yul\":15893:15956   */\n      tag_151\n      jump\t// in\n    tag_336:\n        /* \"#utility.yul\":15789:15966   */\n      pop\n        /* \"#utility.yul\":16050:16054   */\n      0xe0\n        /* \"#utility.yul\":16043:16048   */\n      dup4\n        /* \"#utility.yul\":16039:16055   */\n      add\n        /* \"#utility.yul\":16033:16056   */\n      mload\n        /* \"#utility.yul\":16069:16147   */\n      tag_337\n        /* \"#utility.yul\":16141:16145   */\n      0xe0\n        /* \"#utility.yul\":16136:16139   */\n      dup7\n        /* \"#utility.yul\":16132:16146   */\n      add\n        /* \"#utility.yul\":16118:16130   */\n      dup3\n        /* \"#utility.yul\":16069:16147   */\n      tag_154\n      jump\t// in\n    tag_337:\n        /* \"#utility.yul\":15976:16157   */\n      pop\n        /* \"#utility.yul\":16247:16253   */\n      0x0100\n        /* \"#utility.yul\":16240:16245   */\n      dup4\n        /* \"#utility.yul\":16236:16254   */\n      add\n        /* \"#utility.yul\":16230:16255   */\n      mload\n        /* \"#utility.yul\":16268:16333   */\n      tag_338\n        /* \"#utility.yul\":16325:16331   */\n      0x0100\n        /* \"#utility.yul\":16320:16323   */\n      dup7\n        /* \"#utility.yul\":16316:16332   */\n      add\n        /* \"#utility.yul\":16302:16314   */\n      dup3\n        /* \"#utility.yul\":16268:16333   */\n      tag_151\n      jump\t// in\n    tag_338:\n        /* \"#utility.yul\":16167:16343   */\n      pop\n        /* \"#utility.yul\":16360:16364   */\n      dup1\n        /* \"#utility.yul\":16353:16364   */\n      swap2\n      pop\n        /* \"#utility.yul\":14362:16370   */\n      pop\n        /* \"#utility.yul\":14232:16370   */\n      swap3\n      swap2\n      pop\n      pop\n      jump\t// out\n        /* \"#utility.yul\":16376:16761   */\n    tag_32:\n        /* \"#utility.yul\":16525:16529   */\n      0x00\n        /* \"#utility.yul\":16563:16565   */\n      0x20\n        /* \"#utility.yul\":16552:16561   */\n      dup3\n        /* \"#utility.yul\":16548:16566   */\n      add\n        /* \"#utility.yul\":16540:16566   */\n      swap1\n      pop\n        /* \"#utility.yul\":16612:16621   */\n      dup2\n        /* \"#utility.yul\":16606:16610   */\n      dup2\n        /* \"#utility.yul\":16602:16622   */\n      sub\n        /* \"#utility.yul\":16598:16599   */\n      0x00\n        /* \"#utility.yul\":16587:16596   */\n      dup4\n        /* \"#utility.yul\":16583:16600   */\n      add\n        /* \"#utility.yul\":16576:16623   */\n      mstore\n        /* \"#utility.yul\":16640:16754   */\n      tag_340\n        /* \"#utility.yul\":16749:16753   */\n      dup2\n        /* \"#utility.yul\":16740:16746   */\n      dup5\n        /* \"#utility.yul\":16640:16754   */\n      tag_155\n      jump\t// in\n    tag_340:\n        /* \"#utility.yul\":16632:16754   */\n      swap1\n      pop\n        /* \"#utility.yul\":16376:16761   */\n      swap3\n      swap2\n      pop\n      pop\n      jump\t// out\n        /* \"#utility.yul\":16767:17241   */\n    tag_35:\n        /* \"#utility.yul\":16835:16841   */\n      0x00\n        /* \"#utility.yul\":16843:16849   */\n      dup1\n        /* \"#utility.yul\":16892:16894   */\n      0x40\n        /* \"#utility.yul\":16880:16889   */\n      dup4\n        /* \"#utility.yul\":16871:16878   */\n      dup6\n        /* \"#utility.yul\":16867:16890   */\n      sub\n        /* \"#utility.yul\":16863:16895   */\n      slt\n        /* \"#utility.yul\":16860:16979   */\n      iszero\n      tag_342\n      jumpi\n        /* \"#utility.yul\":16898:16977   */\n      tag_343\n      tag_106\n      jump\t// in\n    tag_343:\n        /* \"#utility.yul\":16860:16979   */\n    tag_342:\n        /* \"#utility.yul\":17018:17019   */\n      0x00\n        /* \"#utility.yul\":17043:17096   */\n      tag_344\n        /* \"#utility.yul\":17088:17095   */\n      dup6\n        /* \"#utility.yul\":17079:17085   */\n      dup3\n        /* \"#utility.yul\":17068:17077   */\n      dup7\n        /* \"#utility.yul\":17064:17086   */\n      add\n        /* \"#utility.yul\":17043:17096   */\n      tag_123\n      jump\t// in\n    tag_344:\n        /* \"#utility.yul\":17033:17096   */\n      swap3\n      pop\n        /* \"#utility.yul\":16989:17106   */\n      pop\n        /* \"#utility.yul\":17145:17147   */\n      0x20\n        /* \"#utility.yul\":17171:17224   */\n      tag_345\n        /* \"#utility.yul\":17216:17223   */\n      dup6\n        /* \"#utility.yul\":17207:17213   */\n      dup3\n        /* \"#utility.yul\":17196:17205   */\n      dup7\n        /* \"#utility.yul\":17192:17214   */\n      add\n        /* \"#utility.yul\":17171:17224   */\n      tag_111\n      jump\t// in\n    tag_345:\n        /* \"#utility.yul\":17161:17224   */\n      swap2\n      pop\n        /* \"#utility.yul\":17116:17234   */\n      pop\n        /* \"#utility.yul\":16767:17241   */\n      swap3\n      pop\n      swap3\n      swap1\n      pop\n      jump\t// out\n        /* \"#utility.yul\":17247:17427   */\n    tag_156:\n        /* \"#utility.yul\":17295:17372   */\n      0x4e487b7100000000000000000000000000000000000000000000000000000000\n        /* \"#utility.yul\":17292:17293   */\n      0x00\n        /* \"#utility.yul\":17285:17373   */\n      mstore\n        /* \"#utility.yul\":17392:17396   */\n      0x22\n        /* \"#utility.yul\":17389:17390   */\n      0x04\n        /* \"#utility.yul\":17382:17397   */\n      mstore\n        /* \"#utility.yul\":17416:17420   */\n      0x24\n        /* \"#utility.yul\":17413:17414   */\n      0x00\n        /* \"#utility.yul\":17406:17421   */\n      revert\n        /* \"#utility.yul\":17433:17753   */\n    tag_54:\n        /* \"#utility.yul\":17477:17483   */\n      0x00\n        /* \"#utility.yul\":17514:17515   */\n      0x02\n        /* \"#utility.yul\":17508:17512   */\n      dup3\n        /* \"#utility.yul\":17504:17516   */\n      div\n        /* \"#utility.yul\":17494:17516   */\n      swap1\n      pop\n        /* \"#utility.yul\":17561:17562   */\n      0x01\n        /* \"#utility.yul\":17555:17559   */\n      dup3\n        /* \"#utility.yul\":17551:17563   */\n      and\n        /* \"#utility.yul\":17582:17600   */\n      dup1\n        /* \"#utility.yul\":17572:17653   */\n      tag_348\n      jumpi\n        /* \"#utility.yul\":17638:17642   */\n      0x7f\n        /* \"#utility.yul\":17630:17636   */\n      dup3\n        /* \"#utility.yul\":17626:17643   */\n      and\n        /* \"#utility.yul\":17616:17643   */\n      swap2\n      pop\n        /* \"#utility.yul\":17572:17653   */\n    tag_348:\n        /* \"#utility.yul\":17700:17702   */\n      0x20\n        /* \"#utility.yul\":17692:17698   */\n      dup3\n        /* \"#utility.yul\":17689:17703   */\n      lt\n        /* \"#utility.yul\":17669:17687   */\n      dup2\n        /* \"#utility.yul\":17666:17704   */\n      sub\n        /* \"#utility.yul\":17663:17747   */\n      tag_349\n      jumpi\n        /* \"#utility.yul\":17719:17737   */\n      tag_350\n      tag_156\n      jump\t// in\n    tag_350:\n        /* \"#utility.yul\":17663:17747   */\n    tag_349:\n        /* \"#utility.yul\":17484:17753   */\n      pop\n        /* \"#utility.yul\":17433:17753   */\n      swap2\n      swap1\n      pop\n      jump\t// out\n        /* \"#utility.yul\":17759:17900   */\n    tag_157:\n        /* \"#utility.yul\":17808:17812   */\n      0x00\n        /* \"#utility.yul\":17831:17834   */\n      dup2\n        /* \"#utility.yul\":17823:17834   */\n      swap1\n      pop\n        /* \"#utility.yul\":17854:17857   */\n      dup2\n        /* \"#utility.yul\":17851:17852   */\n      0x00\n        /* \"#utility.yul\":17844:17858   */\n      mstore\n        /* \"#utility.yul\":17888:17892   */\n      0x20\n        /* \"#utility.yul\":17885:17886   */\n      0x00\n        /* \"#utility.yul\":17875:17893   */\n      keccak256\n        /* \"#utility.yul\":17867:17893   */\n      swap1\n      pop\n        /* \"#utility.yul\":17759:17900   */\n      swap2\n      swap1\n      pop\n      jump\t// out\n        /* \"#utility.yul\":17906:17999   */\n    tag_158:\n        /* \"#utility.yul\":17943:17949   */\n      0x00\n        /* \"#utility.yul\":17990:17992   */\n      0x20\n        /* \"#utility.yul\":17985:17987   */\n      0x1f\n        /* \"#utility.yul\":17978:17983   */\n      dup4\n        /* \"#utility.yul\":17974:17988   */\n      add\n        /* \"#utility.yul\":17970:17993   */\n      div\n        /* \"#utility.yul\":17960:17993   */\n      swap1\n      pop\n        /* \"#utility.yul\":17906:17999   */\n      swap2\n      swap1\n      pop\n      jump\t// out\n        /* \"#utility.yul\":18005:18112   */\n    tag_159:\n        /* \"#utility.yul\":18049:18057   */\n      0x00\n        /* \"#utility.yul\":18099:18104   */\n      dup3\n        /* \"#utility.yul\":18093:18097   */\n      dup3\n        /* \"#utility.yul\":18089:18105   */\n      shl\n        /* \"#utility.yul\":18068:18105   */\n      swap1\n      pop\n        /* \"#utility.yul\":18005:18112   */\n      swap3\n      swap2\n      pop\n      pop\n      jump\t// out\n        /* \"#utility.yul\":18118:18511   */\n    tag_160:\n        /* \"#utility.yul\":18187:18193   */\n      0x00\n        /* \"#utility.yul\":18237:18238   */\n      0x08\n        /* \"#utility.yul\":18225:18235   */\n      dup4\n        /* \"#utility.yul\":18221:18239   */\n      mul\n        /* \"#utility.yul\":18260:18357   */\n      tag_355\n        /* \"#utility.yul\":18290:18356   */\n      0xffffffffffffffffffffffffffffffffffffffffffffffffffffffffffffffff\n        /* \"#utility.yul\":18279:18288   */\n      dup3\n        /* \"#utility.yul\":18260:18357   */\n      tag_159\n      jump\t// in\n    tag_355:\n        /* \"#utility.yul\":18378:18417   */\n      tag_356\n        /* \"#utility.yul\":18408:18416   */\n      dup7\n        /* \"#utility.yul\":18397:18406   */\n      dup4\n        /* \"#utility.yul\":18378:18417   */\n      tag_159\n      jump\t// in\n    tag_356:\n        /* \"#utility.yul\":18366:18417   */\n      swap6\n      pop\n        /* \"#utility.yul\":18450:18454   */\n      dup1\n        /* \"#utility.yul\":18446:18455   */\n      not\n        /* \"#utility.yul\":18439:18444   */\n      dup5\n        /* \"#utility.yul\":18435:18456   */\n      and\n        /* \"#utility.yul\":18426:18456   */\n      swap4\n      pop\n        /* \"#utility.yul\":18499:18503   */\n      dup1\n        /* \"#utility.yul\":18489:18497   */\n      dup7\n        /* \"#utility.yul\":18485:18504   */\n      and\n        /* \"#utility.yul\":18478:18483   */\n      dup5\n        /* \"#utility.yul\":18475:18505   */\n      or\n        /* \"#utility.yul\":18465:18505   */\n      swap3\n      pop\n        /* \"#utility.yul\":18194:18511   */\n      pop\n      pop\n        /* \"#utility.yul\":18118:18511   */\n      swap4\n      swap3\n      pop\n      pop\n      pop\n      jump\t// out\n        /* \"#utility.yul\":18517:18659   */\n    tag_161:\n        /* \"#utility.yul\":18567:18576   */\n      0x00\n        /* \"#utility.yul\":18600:18653   */\n      tag_358\n        /* \"#utility.yul\":18618:18652   */\n      tag_359\n        /* \"#utility.yul\":18627:18651   */\n      tag_360\n        /* \"#utility.yul\":18645:18650   */\n      dup5\n        /* \"#utility.yul\":18627:18651   */\n      tag_121\n      jump\t// in\n    tag_360:\n        /* \"#utility.yul\":18618:18652   */\n      tag_130\n      jump\t// in\n    tag_359:\n        /* \"#utility.yul\":18600:18653   */\n      tag_121\n      jump\t// in\n    tag_358:\n        /* \"#utility.yul\":18587:18653   */\n      swap1\n      pop\n        /* \"#utility.yul\":18517:18659   */\n      swap2\n      swap1\n      pop\n      jump\t// out\n        /* \"#utility.yul\":18665:18740   */\n    tag_162:\n        /* \"#utility.yul\":18708:18711   */\n      0x00\n        /* \"#utility.yul\":18729:18734   */\n      dup2\n        /* \"#utility.yul\":18722:18734   */\n      swap1\n      pop\n        /* \"#utility.yul\":18665:18740   */\n      swap2\n      swap1\n      pop\n      jump\t// out\n        /* \"#utility.yul\":18746:19015   */\n    tag_163:\n        /* \"#utility.yul\":18856:18895   */\n      tag_363\n        /* \"#utility.yul\":18887:18894   */\n      dup4\n        /* \"#utility.yul\":18856:18895   */\n      tag_161\n      jump\t// in\n    tag_363:\n        /* \"#utility.yul\":18917:19008   */\n      tag_364\n        /* \"#utility.yul\":18966:19007   */\n      tag_365\n        /* \"#utility.yul\":18990:19006   */\n      dup3\n        /* \"#utility.yul\":18966:19007   */\n      tag_162\n      jump\t// in\n    tag_365:\n        /* \"#utility.yul\":18958:18964   */\n      dup5\n        /* \"#utility.yul\":18951:18955   */\n      dup5\n        /* \"#utility.yul\":18945:18956   */\n      sload\n        /* \"#utility.yul\":18917:19008   */\n      tag_160\n      jump\t// in\n    tag_364:\n        /* \"#utility.yul\":18911:18915   */\n      dup3\n        /* \"#utility.yul\":18904:19009   */\n      sstore\n        /* \"#utility.yul\":18822:19015   */\n      pop\n        /* \"#utility.yul\":18746:19015   */\n      pop\n      pop\n      pop\n      jump\t// out\n        /* \"#utility.yul\":19021:19094   */\n    tag_164:\n        /* \"#utility.yul\":19066:19069   */\n      0x00\n        /* \"#utility.yul\":19021:19094   */\n      swap1\n      jump\t// out\n        /* \"#utility.yul\":19100:19289   */\n    tag_165:\n        /* \"#utility.yul\":19177:19209   */\n      tag_368\n      tag_164\n      jump\t// in\n    tag_368:\n        /* \"#utility.yul\":19218:19283   */\n      tag_369\n        /* \"#utility.yul\":19276:19282   */\n      dup2\n        /* \"#utility.yul\":19268:19274   */\n      dup5\n        /* \"#utility.yul\":19262:19266   */\n      dup5\n        /* \"#utility.yul\":19218:19283   */\n      tag_163\n      jump\t// in\n    tag_369:\n        /* \"#utility.yul\":19153:19289   */\n      pop\n        /* \"#utility.yul\":19100:19289   */\n      pop\n      pop\n      jump\t// out\n        /* \"#utility.yul\":19295:19481   */\n    tag_166:\n        /* \"#utility.yul\":19355:19475   */\n    tag_371:\n        /* \"#utility.yul\":19372:19375   */\n      dup2\n        /* \"#utility.yul\":19365:19370   */\n      dup2\n        /* \"#utility.yul\":19362:19376   */\n      lt\n        /* \"#utility.yul\":19355:19475   */\n      iszero\n      tag_373\n      jumpi\n        /* \"#utility.yul\":19426:19465   */\n      tag_374\n        /* \"#utility.yul\":19463:19464   */\n      0x00\n        /* \"#utility.yul\":19456:19461   */\n      dup3\n        /* \"#utility.yul\":19426:19465   */\n      tag_165\n      jump\t// in\n    tag_374:\n        /* \"#utility.yul\":19399:19400   */\n      0x01\n        /* \"#utility.yul\":19392:19397   */\n      dup2\n        /* \"#utility.yul\":19388:19401   */\n      add\n        /* \"#utility.yul\":19379:19401   */\n      swap1\n      pop\n        /* \"#utility.yul\":19355:19475   */\n      jump(tag_371)\n    tag_373:\n        /* \"#utility.yul\":19295:19481   */\n      pop\n      pop\n      jump\t// out\n        /* \"#utility.yul\":19487:20030   */\n    tag_167:\n        /* \"#utility.yul\":19588:19590   */\n      0x1f\n        /* \"#utility.yul\":19583:19586   */\n      dup3\n        /* \"#utility.yul\":19580:19591   */\n      gt\n        /* \"#utility.yul\":19577:20023   */\n      iszero\n      tag_376\n      jumpi\n        /* \"#utility.yul\":19622:19660   */\n      tag_377\n        /* \"#utility.yul\":19654:19659   */\n      dup2\n        /* \"#utility.yul\":19622:19660   */\n      tag_157\n      jump\t// in\n    tag_377:\n        /* \"#utility.yul\":19706:19735   */\n      tag_378\n        /* \"#utility.yul\":19724:19734   */\n      dup5\n        /* \"#utility.yul\":19706:19735   */\n      tag_158\n      jump\t// in\n    tag_378:\n        /* \"#utility.yul\":19696:19704   */\n      dup2\n        /* \"#utility.yul\":19692:19736   */\n      add\n        /* \"#utility.yul\":19889:19891   */\n      0x20\n        /* \"#utility.yul\":19877:19887   */\n      dup6\n        /* \"#utility.yul\":19874:19892   */\n      lt\n        /* \"#utility.yul\":19871:19920   */\n      iszero\n      tag_379\n      jumpi\n        /* \"#utility.yul\":19910:19918   */\n      dup2\n        /* \"#utility.yul\":19895:19918   */\n      swap1\n      pop\n        /* \"#utility.yul\":19871:19920   */\n    tag_379:\n        /* \"#utility.yul\":19933:20013   */\n      tag_380\n        /* \"#utility.yul\":19989:20011   */\n      tag_381\n        /* \"#utility.yul\":20007:20010   */\n      dup6\n        /* \"#utility.yul\":19989:20011   */\n      tag_158\n      jump\t// in\n    tag_381:\n        /* \"#utility.yul\":19979:19987   */\n      dup4\n        /* \"#utility.yul\":19975:20012   */\n      add\n        /* \"#utility.yul\":19962:19973   */\n      dup3\n        /* \"#utility.yul\":19933:20013   */\n      tag_166\n      jump\t// in\n    tag_380:\n        /* \"#utility.yul\":19592:20023   */\n      pop\n      pop\n        /* \"#utility.yul\":19577:20023   */\n    tag_376:\n        /* \"#utility.yul\":19487:20030   */\n      pop\n      pop\n      pop\n      jump\t// out\n        /* \"#utility.yul\":20036:20153   */\n    tag_168:\n        /* \"#utility.yul\":20090:20098   */\n      0x00\n        /* \"#utility.yul\":20140:20145   */\n      dup3\n        /* \"#utility.yul\":20134:20138   */\n      dup3\n        /* \"#utility.yul\":20130:20146   */\n      shr\n        /* \"#utility.yul\":20109:20146   */\n      swap1\n      pop\n        /* \"#utility.yul\":20036:20153   */\n      swap3\n      swap2\n      pop\n      pop\n      jump\t// out\n        /* \"#utility.yul\":20159:20328   */\n    tag_169:\n        /* \"#utility.yul\":20203:20209   */\n      0x00\n        /* \"#utility.yul\":20236:20287   */\n      tag_384\n        /* \"#utility.yul\":20284:20285   */\n      0x00\n        /* \"#utility.yul\":20280:20286   */\n      not\n        /* \"#utility.yul\":20272:20277   */\n      dup5\n        /* \"#utility.yul\":20269:20270   */\n      0x08\n        /* \"#utility.yul\":20265:20278   */\n      mul\n        /* \"#utility.yul\":20236:20287   */\n      tag_168\n      jump\t// in\n    tag_384:\n        /* \"#utility.yul\":20232:20288   */\n      not\n        /* \"#utility.yul\":20317:20321   */\n      dup1\n        /* \"#utility.yul\":20311:20315   */\n      dup4\n        /* \"#utility.yul\":20307:20322   */\n      and\n        /* \"#utility.yul\":20297:20322   */\n      swap2\n      pop\n        /* \"#utility.yul\":20210:20328   */\n      pop\n        /* \"#utility.yul\":20159:20328   */\n      swap3\n      swap2\n      pop\n      pop\n      jump\t// out\n        /* \"#utility.yul\":20333:20628   */\n    tag_170:\n        /* \"#utility.yul\":20409:20413   */\n      0x00\n        /* \"#utility.yul\":20555:20584   */\n      tag_386\n        /* \"#utility.yul\":20580:20583   */\n      dup4\n        /* \"#utility.yul\":20574:20578   */\n      dup4\n        /* \"#utility.yul\":20555:20584   */\n      tag_169\n      jump\t// in\n    tag_386:\n        /* \"#utility.yul\":20547:20584   */\n      swap2\n      pop\n        /* \"#utility.yul\":20617:20620   */\n      dup3\n        /* \"#utility.yul\":20614:20615   */\n      0x02\n        /* \"#utility.yul\":20610:20621   */\n      mul\n        /* \"#utility.yul\":20604:20608   */\n      dup3\n        /* \"#utility.yul\":20601:20622   */\n      or\n        /* \"#utility.yul\":20593:20622   */\n      swap1\n      pop\n        /* \"#utility.yul\":20333:20628   */\n      swap3\n      swap2\n      pop\n      pop\n      jump\t// out\n        /* \"#utility.yul\":20633:22028   */\n    tag_44:\n        /* \"#utility.yul\":20750:20787   */\n      tag_388\n        /* \"#utility.yul\":20783:20786   */\n      dup3\n        /* \"#utility.yul\":20750:20787   */\n      tag_136\n      jump\t// in\n    tag_388:\n        /* \"#utility.yul\":20852:20870   */\n      0xffffffffffffffff\n        /* \"#utility.yul\":20844:20850   */\n      dup2\n        /* \"#utility.yul\":20841:20871   */\n      gt\n        /* \"#utility.yul\":20838:20894   */\n      iszero\n      tag_389\n      jumpi\n        /* \"#utility.yul\":20874:20892   */\n      tag_390\n      tag_114\n      jump\t// in\n    tag_390:\n        /* \"#utility.yul\":20838:20894   */\n    tag_389:\n        /* \"#utility.yul\":20918:20956   */\n      tag_391\n        /* \"#utility.yul\":20950:20954   */\n      dup3\n        /* \"#utility.yul\":20944:20955   */\n      sload\n        /* \"#utility.yul\":20918:20956   */\n      tag_54\n      jump\t// in\n    tag_391:\n        /* \"#utility.yul\":21003:21070   */\n      tag_392\n        /* \"#utility.yul\":21063:21069   */\n      dup3\n        /* \"#utility.yul\":21055:21061   */\n      dup3\n        /* \"#utility.yul\":21049:21053   */\n      dup6\n        /* \"#utility.yul\":21003:21070   */\n      tag_167\n      jump\t// in\n    tag_392:\n        /* \"#utility.yul\":21097:21098   */\n      0x00\n        /* \"#utility.yul\":21121:21125   */\n      0x20\n        /* \"#utility.yul\":21108:21125   */\n      swap1\n      pop\n        /* \"#utility.yul\":21153:21155   */\n      0x1f\n        /* \"#utility.yul\":21145:21151   */\n      dup4\n        /* \"#utility.yul\":21142:21156   */\n      gt\n        /* \"#utility.yul\":21170:21171   */\n      0x01\n        /* \"#utility.yul\":21165:21783   */\n      dup2\n      eq\n      tag_394\n      jumpi\n        /* \"#utility.yul\":21827:21828   */\n      0x00\n        /* \"#utility.yul\":21844:21850   */\n      dup5\n        /* \"#utility.yul\":21841:21918   */\n      iszero\n      tag_395\n      jumpi\n        /* \"#utility.yul\":21893:21902   */\n      dup3\n        /* \"#utility.yul\":21888:21891   */\n      dup8\n        /* \"#utility.yul\":21884:21903   */\n      add\n        /* \"#utility.yul\":21878:21904   */\n      mload\n        /* \"#utility.yul\":21869:21904   */\n      swap1\n      pop\n        /* \"#utility.yul\":21841:21918   */\n    tag_395:\n        /* \"#utility.yul\":21944:22011   */\n      tag_396\n        /* \"#utility.yul\":22004:22010   */\n      dup6\n        /* \"#utility.yul\":21997:22002   */\n      dup3\n        /* \"#utility.yul\":21944:22011   */\n      tag_170\n      jump\t// in\n    tag_396:\n        /* \"#utility.yul\":21938:21942   */\n      dup7\n        /* \"#utility.yul\":21931:22012   */\n      sstore\n        /* \"#utility.yul\":21800:22022   */\n      pop\n        /* \"#utility.yul\":21135:22022   */\n      jump(tag_393)\n        /* \"#utility.yul\":21165:21783   */\n    tag_394:\n        /* \"#utility.yul\":21217:21221   */\n      0x1f\n        /* \"#utility.yul\":21213:21222   */\n      not\n        /* \"#utility.yul\":21205:21211   */\n      dup5\n        /* \"#utility.yul\":21201:21223   */\n      and\n        /* \"#utility.yul\":21251:21288   */\n      tag_397\n        /* \"#utility.yul\":21283:21287   */\n      dup7\n        /* \"#utility.yul\":21251:21288   */\n      tag_157\n      jump\t// in\n    tag_397:\n        /* \"#utility.yul\":21310:21311   */\n      0x00\n        /* \"#utility.yul\":21324:21532   */\n    tag_398:\n        /* \"#utility.yul\":21338:21345   */\n      dup3\n        /* \"#utility.yul\":21335:21336   */\n      dup2\n        /* \"#utility.yul\":21332:21346   */\n      lt\n        /* \"#utility.yul\":21324:21532   */\n      iszero\n      tag_400\n      jumpi\n        /* \"#utility.yul\":21417:21426   */\n      dup5\n        /* \"#utility.yul\":21412:21415   */\n      dup10\n        /* \"#utility.yul\":21408:21427   */\n      add\n        /* \"#utility.yul\":21402:21428   */\n      mload\n        /* \"#utility.yul\":21394:21400   */\n      dup3\n        /* \"#utility.yul\":21387:21429   */\n      sstore\n        /* \"#utility.yul\":21468:21469   */\n      0x01\n        /* \"#utility.yul\":21460:21466   */\n      dup3\n        /* \"#utility.yul\":21456:21470   */\n      add\n        /* \"#utility.yul\":21446:21470   */\n      swap2\n      pop\n        /* \"#utility.yul\":21515:21517   */\n      0x20\n        /* \"#utility.yul\":21504:21513   */\n      dup6\n        /* \"#utility.yul\":21500:21518   */\n      add\n        /* \"#utility.yul\":21487:21518   */\n      swap5\n      pop\n        /* \"#utility.yul\":21361:21365   */\n      0x20\n        /* \"#utility.yul\":21358:21359   */\n      dup2\n        /* \"#utility.yul\":21354:21366   */\n      add\n        /* \"#utility.yul\":21349:21366   */\n      swap1\n      pop\n        /* \"#utility.yul\":21324:21532   */\n      jump(tag_398)\n    tag_400:\n        /* \"#utility.yul\":21560:21566   */\n      dup7\n        /* \"#utility.yul\":21551:21558   */\n      dup4\n        /* \"#utility.yul\":21548:21567   */\n      lt\n        /* \"#utility.yul\":21545:21724   */\n      iszero\n      tag_401\n      jumpi\n        /* \"#utility.yul\":21618:21627   */\n      dup5\n        /* \"#utility.yul\":21613:21616   */\n      dup10\n        /* \"#utility.yul\":21609:21628   */\n      add\n        /* \"#utility.yul\":21603:21629   */\n      mload\n        /* \"#utility.yul\":21661:21709   */\n      tag_402\n        /* \"#utility.yul\":21703:21707   */\n      0x1f\n        /* \"#utility.yul\":21695:21701   */\n      dup10\n        /* \"#utility.yul\":21691:21708   */\n      and\n        /* \"#utility.yul\":21680:21689   */\n      dup3\n        /* \"#utility.yul\":21661:21709   */\n      tag_169\n      jump\t// in\n    tag_402:\n        /* \"#utility.yul\":21653:21659   */\n      dup4\n        /* \"#utility.yul\":21646:21710   */\n      sstore\n        /* \"#utility.yul\":21568:21724   */\n      pop\n        /* \"#utility.yul\":21545:21724   */\n    tag_401:\n        /* \"#utility.yul\":21770:21771   */\n      0x01\n        /* \"#utility.yul\":21766:21767   */\n      0x02\n        /* \"#utility.yul\":21758:21764   */\n      dup9\n        /* \"#utility.yul\":21754:21768   */\n      mul\n        /* \"#utility.yul\":21750:21772   */\n      add\n        /* \"#utility.yul\":21744:21748   */\n      dup9\n        /* \"#utility.yul\":21737:21773   */\n      sstore\n        /* \"#utility.yul\":21172:21783   */\n      pop\n      pop\n      pop\n        /* \"#utility.yul\":21135:22022   */\n    tag_393:\n      pop\n        /* \"#utility.yul\":20725:22028   */\n      pop\n      pop\n      pop\n        /* \"#utility.yul\":20633:22028   */\n      pop\n      pop\n      jump\t// out\n        /* \"#utility.yul\":22034:22214   */\n    tag_171:\n        /* \"#utility.yul\":22082:22159   */\n      0x4e487b7100000000000000000000000000000000000000000000000000000000\n        /* \"#utility.yul\":22079:22080   */\n      0x00\n        /* \"#utility.yul\":22072:22160   */\n      mstore\n        /* \"#utility.yul\":22179:22183   */\n      0x11\n        /* \"#utility.yul\":22176:22177   */\n      0x04\n        /* \"#utility.yul\":22169:22184   */\n      mstore\n        /* \"#utility.yul\":22203:22207   */\n      0x24\n        /* \"#utility.yul\":22200:22201   */\n      0x00\n        /* \"#utility.yul\":22193:22208   */\n      revert\n        /* \"#utility.yul\":22220:22453   */\n    tag_50:\n        /* \"#utility.yul\":22259:22262   */\n      0x00\n        /* \"#utility.yul\":22282:22306   */\n      tag_405\n        /* \"#utility.yul\":22300:22305   */\n      dup3\n        /* \"#utility.yul\":22282:22306   */\n      tag_121\n      jump\t// in\n    tag_405:\n        /* \"#utility.yul\":22273:22306   */\n      swap2\n      pop\n        /* \"#utility.yul\":22328:22394   */\n      0xffffffffffffffffffffffffffffffffffffffffffffffffffffffffffffffff\n        /* \"#utility.yul\":22321:22326   */\n      dup3\n        /* \"#utility.yul\":22318:22395   */\n      sub\n        /* \"#utility.yul\":22315:22418   */\n      tag_406\n      jumpi\n        /* \"#utility.yul\":22398:22416   */\n      tag_407\n      tag_171\n      jump\t// in\n    tag_407:\n        /* \"#utility.yul\":22315:22418   */\n    tag_406:\n        /* \"#utility.yul\":22445:22446   */\n      0x01\n        /* \"#utility.yul\":22438:22443   */\n      dup3\n        /* \"#utility.yul\":22434:22447   */\n      add\n        /* \"#utility.yul\":22427:22447   */\n      swap1\n      pop\n        /* \"#utility.yul\":22220:22453   */\n      swap2\n      swap1\n      pop\n      jump\t// out\n        /* \"#utility.yul\":22459:23426   */\n    tag_52:\n        /* \"#utility.yul\":22739:22743   */\n      0x00\n        /* \"#utility.yul\":22777:22780   */\n      0xa0\n        /* \"#utility.yul\":22766:22775   */\n      dup3\n        /* \"#utility.yul\":22762:22781   */\n      add\n        /* \"#utility.yul\":22754:22781   */\n      swap1\n      pop\n        /* \"#utility.yul\":22827:22836   */\n      dup2\n        /* \"#utility.yul\":22821:22825   */\n      dup2\n        /* \"#utility.yul\":22817:22837   */\n      sub\n        /* \"#utility.yul\":22813:22814   */\n      0x00\n        /* \"#utility.yul\":22802:22811   */\n      dup4\n        /* \"#utility.yul\":22798:22815   */\n      add\n        /* \"#utility.yul\":22791:22838   */\n      mstore\n        /* \"#utility.yul\":22855:22933   */\n      tag_409\n        /* \"#utility.yul\":22928:22932   */\n      dup2\n        /* \"#utility.yul\":22919:22925   */\n      dup9\n        /* \"#utility.yul\":22855:22933   */\n      tag_139\n      jump\t// in\n    tag_409:\n        /* \"#utility.yul\":22847:22933   */\n      swap1\n      pop\n        /* \"#utility.yul\":22980:22989   */\n      dup2\n        /* \"#utility.yul\":22974:22978   */\n      dup2\n        /* \"#utility.yul\":22970:22990   */\n      sub\n        /* \"#utility.yul\":22965:22967   */\n      0x20\n        /* \"#utility.yul\":22954:22963   */\n      dup4\n        /* \"#utility.yul\":22950:22968   */\n      add\n        /* \"#utility.yul\":22943:22991   */\n      mstore\n        /* \"#utility.yul\":23008:23086   */\n      tag_410\n        /* \"#utility.yul\":23081:23085   */\n      dup2\n        /* \"#utility.yul\":23072:23078   */\n      dup8\n        /* \"#utility.yul\":23008:23086   */\n      tag_139\n      jump\t// in\n    tag_410:\n        /* \"#utility.yul\":23000:23086   */\n      swap1\n      pop\n        /* \"#utility.yul\":23133:23142   */\n      dup2\n        /* \"#utility.yul\":23127:23131   */\n      dup2\n        /* \"#utility.yul\":23123:23143   */\n      sub\n        /* \"#utility.yul\":23118:23120   */\n      0x40\n        /* \"#utility.yul\":23107:23116   */\n      dup4\n        /* \"#utility.yul\":23103:23121   */\n      add\n        /* \"#utility.yul\":23096:23144   */\n      mstore\n        /* \"#utility.yul\":23161:23239   */\n      tag_411\n        /* \"#utility.yul\":23234:23238   */\n      dup2\n        /* \"#utility.yul\":23225:23231   */\n      dup7\n        /* \"#utility.yul\":23161:23239   */\n      tag_139\n      jump\t// in\n    tag_411:\n        /* \"#utility.yul\":23153:23239   */\n      swap1\n      pop\n        /* \"#utility.yul\":23249:23321   */\n      tag_412\n        /* \"#utility.yul\":23317:23319   */\n      0x60\n        /* \"#utility.yul\":23306:23315   */\n      dup4\n        /* \"#utility.yul\":23302:23320   */\n      add\n        /* \"#utility.yul\":23293:23299   */\n      dup6\n        /* \"#utility.yul\":23249:23321   */\n      tag_129\n      jump\t// in\n    tag_412:\n        /* \"#utility.yul\":23331:23419   */\n      tag_413\n        /* \"#utility.yul\":23414:23417   */\n      0x80\n        /* \"#utility.yul\":23403:23412   */\n      dup4\n        /* \"#utility.yul\":23399:23418   */\n      add\n        /* \"#utility.yul\":23390:23396   */\n      dup5\n        /* \"#utility.yul\":23331:23419   */\n      tag_143\n      jump\t// in\n    tag_413:\n        /* \"#utility.yul\":22459:23426   */\n      swap7\n      swap6\n      pop\n      pop\n      pop\n      pop\n      pop\n      pop\n      jump\t// out\n\n    auxdata: 0xa2646970667358221220dd4bb1976f2d880ca6efee4b5b8ce3cb4aa0f837ef2f0bec5f33ec9e25d3a1f464736f6c63430008190033\n}\n",
				"bytecode": {
					"linkReferences": {},
					"object": "608060405273406ab5033423dcb6391ac9eeead73294fa82cfbc5f806101000a81548173ffffffffffffffffffffffffffffffffffffffff021916908373ffffffffffffffffffffffffffffffffffffffff1602179055503480156061575f80fd5b50600160028190555061164a806100775f395ff3fe608060405234801561000f575f80fd5b5060043610610060575f3560e01c8063216cef461461006457806355a373d6146100945780636a84a985146100b257806394169656146100d05780639507d39a14610107578063d5ad68d914610137575b5f80fd5b61007e60048036038101906100799190610ccd565b610153565b60405161008b9190610dfd565b60405180910390f35b61009c610342565b6040516100a99190610e71565b60405180910390f35b6100ba610365565b6040516100c79190610dfd565b60405180910390f35b6100ea60048036038101906100e59190610e8a565b61036b565b6040516100fe989796959493929190610f97565b60405180910390f35b610121600480360381019061011c9190610e8a565b61056c565b60405161012e919061121c565b60405180910390f35b610151600480360381019061014c919061123c565b61087f565b005b5f60025490506040518061012001604052808a73ffffffffffffffffffffffffffffffffffffffff168152602001898152602001888152602001878152602001868152602001858152602001848152602001600160038111156101b9576101b8610f24565b5b81526020018381525060015f8381526020019081526020015f205f820151815f015f6101000a81548173ffffffffffffffffffffffffffffffffffffffff021916908373ffffffffffffffffffffffffffffffffffffffff160217905550602082015181600101908051906020019061023392919061091e565b50604082015181600201556060820151816003019081610253919061146b565b506080820151816004019081610269919061146b565b5060a082015181600501908161027f919061146b565b5060c0820151816006015560e0820151816007015f6101000a81548160ff021916908360038111156102b4576102b3610f24565b5b0217905550610100820151816008015590505060025f8154809291906102d990611567565b91905055508873ffffffffffffffffffffffffffffffffffffffff16817fcda275eddd33a0342d4ae7d10cf2bd21459b4ca6b0c0c8fd29c3d3d792d50c2a88888888600160405161032e9594939291906115ae565b60405180910390a398975050505050505050565b5f8054906101000a900473ffffffffffffffffffffffffffffffffffffffff1681565b60025481565b6001602052805f5260405f205f91509050805f015f9054906101000a900473ffffffffffffffffffffffffffffffffffffffff16908060020154908060030180546103b5906112a7565b80601f01602080910402602001604051908101604052809291908181526020018280546103e1906112a7565b801561042c5780601f106104035761010080835404028352916020019161042c565b820191905f5260205f20905b81548152906001019060200180831161040f57829003601f168201915b505050505090806004018054610441906112a7565b80601f016020809104026020016040519081016040528092919081815260200182805461046d906112a7565b80156104b85780601f1061048f576101008083540402835291602001916104b8565b820191905f5260205f20905b81548152906001019060200180831161049b57829003601f168201915b5050505050908060050180546104cd906112a7565b80601f01602080910402602001604051908101604052809291908181526020018280546104f9906112a7565b80156105445780601f1061051b57610100808354040283529160200191610544565b820191905f5260205f20905b81548152906001019060200180831161052757829003601f168201915b505050505090806006015490806007015f9054906101000a900460ff16908060080154905088565b6105746109a5565b60015f8381526020019081526020015f20604051806101200160405290815f82015f9054906101000a900473ffffffffffffffffffffffffffffffffffffffff1673ffffffffffffffffffffffffffffffffffffffff1673ffffffffffffffffffffffffffffffffffffffff1681526020016001820180548060200260200160405190810160405280929190818152602001828054801561066757602002820191905f5260205f20905b815f9054906101000a900473ffffffffffffffffffffffffffffffffffffffff1673ffffffffffffffffffffffffffffffffffffffff168152602001906001019080831161061e575b505050505081526020016002820154815260200160038201805461068a906112a7565b80601f01602080910402602001604051908101604052809291908181526020018280546106b6906112a7565b80156107015780601f106106d857610100808354040283529160200191610701565b820191905f5260205f20905b8154815290600101906020018083116106e457829003601f168201915b5050505050815260200160048201805461071a906112a7565b80601f0160208091040260200160405190810160405280929190818152602001828054610746906112a7565b80156107915780601f1061076857610100808354040283529160200191610791565b820191905f5260205f20905b81548152906001019060200180831161077457829003601f168201915b505050505081526020016005820180546107aa906112a7565b80601f01602080910402602001604051908101604052809291908181526020018280546107d6906112a7565b80156108215780601f106107f857610100808354040283529160200191610821565b820191905f5260205f20905b81548152906001019060200180831161080457829003601f168201915b5050505050815260200160068201548152602001600782015f9054906101000a900460ff16600381111561085857610857610f24565b5b600381111561086a57610869610f24565b5b81526020016008820154815250509050919050565b60015f8381526020019081526020015f2060010181908060018154018082558091505060019003905f5260205f20015f9091909190916101000a81548173ffffffffffffffffffffffffffffffffffffffff021916908373ffffffffffffffffffffffffffffffffffffffff16021790555060015f8381526020019081526020015f206002015f81548092919061091590611567565b91905055505050565b828054828255905f5260205f20908101928215610994579160200282015b82811115610993578251825f6101000a81548173ffffffffffffffffffffffffffffffffffffffff021916908373ffffffffffffffffffffffffffffffffffffffff1602179055509160200191906001019061093c565b5b5090506109a19190610a14565b5090565b6040518061012001604052805f73ffffffffffffffffffffffffffffffffffffffff168152602001606081526020015f81526020016060815260200160608152602001606081526020015f81526020015f6003811115610a0857610a07610f24565b5b81526020015f81525090565b5b80821115610a2b575f815f905550600101610a15565b5090565b5f604051905090565b5f80fd5b5f80fd5b5f73ffffffffffffffffffffffffffffffffffffffff82169050919050565b5f610a6982610a40565b9050919050565b610a7981610a5f565b8114610a83575f80fd5b50565b5f81359050610a9481610a70565b92915050565b5f80fd5b5f601f19601f8301169050919050565b7f4e487b71000000000000000000000000000000000000000000000000000000005f52604160045260245ffd5b610ae482610a9e565b810181811067ffffffffffffffff82111715610b0357610b02610aae565b5b80604052505050565b5f610b15610a2f565b9050610b218282610adb565b919050565b5f67ffffffffffffffff821115610b4057610b3f610aae565b5b602082029050602081019050919050565b5f80fd5b5f610b67610b6284610b26565b610b0c565b90508083825260208201905060208402830185811115610b8a57610b89610b51565b5b835b81811015610bb35780610b9f8882610a86565b845260208401935050602081019050610b8c565b5050509392505050565b5f82601f830112610bd157610bd0610a9a565b5b8135610be1848260208601610b55565b91505092915050565b5f819050919050565b610bfc81610bea565b8114610c06575f80fd5b50565b5f81359050610c1781610bf3565b92915050565b5f80fd5b5f67ffffffffffffffff821115610c3b57610c3a610aae565b5b610c4482610a9e565b9050602081019050919050565b828183375f83830152505050565b5f610c71610c6c84610c21565b610b0c565b905082815260208101848484011115610c8d57610c8c610c1d565b5b610c98848285610c51565b509392505050565b5f82601f830112610cb457610cb3610a9a565b5b8135610cc4848260208601610c5f565b91505092915050565b5f805f805f805f80610100898b031215610cea57610ce9610a38565b5b5f610cf78b828c01610a86565b985050602089013567ffffffffffffffff811115610d1857610d17610a3c565b5b610d248b828c01610bbd565b9750506040610d358b828c01610c09565b965050606089013567ffffffffffffffff811115610d5657610d55610a3c565b5b610d628b828c01610ca0565b955050608089013567ffffffffffffffff811115610d8357610d82610a3c565b5b610d8f8b828c01610ca0565b94505060a089013567ffffffffffffffff811115610db057610daf610a3c565b5b610dbc8b828c01610ca0565b93505060c0610dcd8b828c01610c09565b92505060e0610dde8b828c01610c09565b9150509295985092959890939650565b610df781610bea565b82525050565b5f602082019050610e105f830184610dee565b92915050565b5f819050919050565b5f610e39610e34610e2f84610a40565b610e16565b610a40565b9050919050565b5f610e4a82610e1f565b9050919050565b5f610e5b82610e40565b9050919050565b610e6b81610e51565b82525050565b5f602082019050610e845f830184610e62565b92915050565b5f60208284031215610e9f57610e9e610a38565b5b5f610eac84828501610c09565b91505092915050565b610ebe81610a5f565b82525050565b5f81519050919050565b5f82825260208201905092915050565b8281835e5f83830152505050565b5f610ef682610ec4565b610f008185610ece565b9350610f10818560208601610ede565b610f1981610a9e565b840191505092915050565b7f4e487b71000000000000000000000000000000000000000000000000000000005f52602160045260245ffd5b60048110610f6257610f61610f24565b5b50565b5f819050610f7282610f51565b919050565b5f610f8182610f65565b9050919050565b610f9181610f77565b82525050565b5f61010082019050610fab5f83018b610eb5565b610fb8602083018a610dee565b8181036040830152610fca8189610eec565b90508181036060830152610fde8188610eec565b90508181036080830152610ff28187610eec565b905061100160a0830186610dee565b61100e60c0830185610f88565b61101b60e0830184610dee565b9998505050505050505050565b61103181610a5f565b82525050565b5f81519050919050565b5f82825260208201905092915050565b5f819050602082019050919050565b5f61106b8383611028565b60208301905092915050565b5f602082019050919050565b5f61108d82611037565b6110978185611041565b93506110a283611051565b805f5b838110156110d25781516110b98882611060565b97506110c483611077565b9250506001810190506110a5565b5085935050505092915050565b6110e881610bea565b82525050565b5f82825260208201905092915050565b5f61110882610ec4565b61111281856110ee565b9350611122818560208601610ede565b61112b81610a9e565b840191505092915050565b61113f81610f77565b82525050565b5f61012083015f83015161115b5f860182611028565b50602083015184820360208601526111738282611083565b915050604083015161118860408601826110df565b50606083015184820360608601526111a082826110fe565b915050608083015184820360808601526111ba82826110fe565b91505060a083015184820360a08601526111d482826110fe565b91505060c08301516111e960c08601826110df565b5060e08301516111fc60e0860182611136565b506101008301516112116101008601826110df565b508091505092915050565b5f6020820190508181035f8301526112348184611145565b905092915050565b5f806040838503121561125257611251610a38565b5b5f61125f85828601610c09565b925050602061127085828601610a86565b9150509250929050565b7f4e487b71000000000000000000000000000000000000000000000000000000005f52602260045260245ffd5b5f60028204905060018216806112be57607f821691505b6020821081036112d1576112d061127a565b5b50919050565b5f819050815f5260205f209050919050565b5f6020601f8301049050919050565b5f82821b905092915050565b5f600883026113337fffffffffffffffffffffffffffffffffffffffffffffffffffffffffffffffff826112f8565b61133d86836112f8565b95508019841693508086168417925050509392505050565b5f61136f61136a61136584610bea565b610e16565b610bea565b9050919050565b5f819050919050565b61138883611355565b61139c61139482611376565b848454611304565b825550505050565b5f90565b6113b06113a4565b6113bb81848461137f565b505050565b5b818110156113de576113d35f826113a8565b6001810190506113c1565b5050565b601f821115611423576113f4816112d7565b6113fd846112e9565b8101602085101561140c578190505b611420611418856112e9565b8301826113c0565b50505b505050565b5f82821c905092915050565b5f6114435f1984600802611428565b1980831691505092915050565b5f61145b8383611434565b9150826002028217905092915050565b61147482610ec4565b67ffffffffffffffff81111561148d5761148c610aae565b5b61149782546112a7565b6114a28282856113e2565b5f60209050601f8311600181146114d3575f84156114c1578287015190505b6114cb8582611450565b865550611532565b601f1984166114e1866112d7565b5f5b82811015611508578489015182556001820191506020850194506020810190506114e3565b868310156115255784890151611521601f891682611434565b8355505b6001600288020188555050505b505050505050565b7f4e487b71000000000000000000000000000000000000000000000000000000005f52601160045260245ffd5b5f61157182610bea565b91507fffffffffffffffffffffffffffffffffffffffffffffffffffffffffffffffff82036115a3576115a261153a565b5b600182019050919050565b5f60a0820190508181035f8301526115c68188610eec565b905081810360208301526115da8187610eec565b905081810360408301526115ee8186610eec565b90506115fd6060830185610dee565b61160a6080830184610f88565b969550505050505056fea2646970667358221220dd4bb1976f2d880ca6efee4b5b8ce3cb4aa0f837ef2f0bec5f33ec9e25d3a1f464736f6c63430008190033",
					"opcodes": "PUSH1 0x80 PUSH1 0x40 MSTORE PUSH20 0x406AB5033423DCB6391AC9EEEAD73294FA82CFBC PUSH0 DUP1 PUSH2 0x100 EXP DUP2 SLOAD DUP2 PUSH20 0xFFFFFFFFFFFFFFFFFFFFFFFFFFFFFFFFFFFFFFFF MUL NOT AND SWAP1 DUP4 PUSH20 0xFFFFFFFFFFFFFFFFFFFFFFFFFFFFFFFFFFFFFFFF AND MUL OR SWAP1 SSTORE POP CALLVALUE DUP1 ISZERO PUSH1 0x61 JUMPI PUSH0 DUP1 REVERT JUMPDEST POP PUSH1 0x1 PUSH1 0x2 DUP2 SWAP1 SSTORE POP PUSH2 0x164A DUP1 PUSH2 0x77 PUSH0 CODECOPY PUSH0 RETURN INVALID PUSH1 0x80 PUSH1 0x40 MSTORE CALLVALUE DUP1 ISZERO PUSH2 0xF JUMPI PUSH0 DUP1 REVERT JUMPDEST POP PUSH1 0x4 CALLDATASIZE LT PUSH2 0x60 JUMPI PUSH0 CALLDATALOAD PUSH1 0xE0 SHR DUP1 PUSH4 0x216CEF46 EQ PUSH2 0x64 JUMPI DUP1 PUSH4 0x55A373D6 EQ PUSH2 0x94 JUMPI DUP1 PUSH4 0x6A84A985 EQ PUSH2 0xB2 JUMPI DUP1 PUSH4 0x94169656 EQ PUSH2 0xD0 JUMPI DUP1 PUSH4 0x9507D39A EQ PUSH2 0x107 JUMPI DUP1 PUSH4 0xD5AD68D9 EQ PUSH2 0x137 JUMPI JUMPDEST PUSH0 DUP1 REVERT JUMPDEST PUSH2 0x7E PUSH1 0x4 DUP1 CALLDATASIZE SUB DUP2 ADD SWAP1 PUSH2 0x79 SWAP2 SWAP1 PUSH2 0xCCD JUMP JUMPDEST PUSH2 0x153 JUMP JUMPDEST PUSH1 0x40 MLOAD PUSH2 0x8B SWAP2 SWAP1 PUSH2 0xDFD JUMP JUMPDEST PUSH1 0x40 MLOAD DUP1 SWAP2 SUB SWAP1 RETURN JUMPDEST PUSH2 0x9C PUSH2 0x342 JUMP JUMPDEST PUSH1 0x40 MLOAD PUSH2 0xA9 SWAP2 SWAP1 PUSH2 0xE71 JUMP JUMPDEST PUSH1 0x40 MLOAD DUP1 SWAP2 SUB SWAP1 RETURN JUMPDEST PUSH2 0xBA PUSH2 0x365 JUMP JUMPDEST PUSH1 0x40 MLOAD PUSH2 0xC7 SWAP2 SWAP1 PUSH2 0xDFD JUMP JUMPDEST PUSH1 0x40 MLOAD DUP1 SWAP2 SUB SWAP1 RETURN JUMPDEST PUSH2 0xEA PUSH1 0x4 DUP1 CALLDATASIZE SUB DUP2 ADD SWAP1 PUSH2 0xE5 SWAP2 SWAP1 PUSH2 0xE8A JUMP JUMPDEST PUSH2 0x36B JUMP JUMPDEST PUSH1 0x40 MLOAD PUSH2 0xFE SWAP9 SWAP8 SWAP7 SWAP6 SWAP5 SWAP4 SWAP3 SWAP2 SWAP1 PUSH2 0xF97 JUMP JUMPDEST PUSH1 0x40 MLOAD DUP1 SWAP2 SUB SWAP1 RETURN JUMPDEST PUSH2 0x121 PUSH1 0x4 DUP1 CALLDATASIZE SUB DUP2 ADD SWAP1 PUSH2 0x11C SWAP2 SWAP1 PUSH2 0xE8A JUMP JUMPDEST PUSH2 0x56C JUMP JUMPDEST PUSH1 0x40 MLOAD PUSH2 0x12E SWAP2 SWAP1 PUSH2 0x121C JUMP JUMPDEST PUSH1 0x40 MLOAD DUP1 SWAP2 SUB SWAP1 RETURN JUMPDEST PUSH2 0x151 PUSH1 0x4 DUP1 CALLDATASIZE SUB DUP2 ADD SWAP1 PUSH2 0x14C SWAP2 SWAP1 PUSH2 0x123C JUMP JUMPDEST PUSH2 0x87F JUMP JUMPDEST STOP JUMPDEST PUSH0 PUSH1 0x2 SLOAD SWAP1 POP PUSH1 0x40 MLOAD DUP1 PUSH2 0x120 ADD PUSH1 0x40 MSTORE DUP1 DUP11 PUSH20 0xFFFFFFFFFFFFFFFFFFFFFFFFFFFFFFFFFFFFFFFF AND DUP2 MSTORE PUSH1 0x20 ADD DUP10 DUP2 MSTORE PUSH1 0x20 ADD DUP9 DUP2 MSTORE PUSH1 0x20 ADD DUP8 DUP2 MSTORE PUSH1 0x20 ADD DUP7 DUP2 MSTORE PUSH1 0x20 ADD DUP6 DUP2 MSTORE PUSH1 0x20 ADD DUP5 DUP2 MSTORE PUSH1 0x20 ADD PUSH1 0x1 PUSH1 0x3 DUP2 GT ISZERO PUSH2 0x1B9 JUMPI PUSH2 0x1B8 PUSH2 0xF24 JUMP JUMPDEST JUMPDEST DUP2 MSTORE PUSH1 0x20 ADD DUP4 DUP2 MSTORE POP PUSH1 0x1 PUSH0 DUP4 DUP2 MSTORE PUSH1 0x20 ADD SWAP1 DUP2 MSTORE PUSH1 0x20 ADD PUSH0 KECCAK256 PUSH0 DUP3 ADD MLOAD DUP2 PUSH0 ADD PUSH0 PUSH2 0x100 EXP DUP2 SLOAD DUP2 PUSH20 0xFFFFFFFFFFFFFFFFFFFFFFFFFFFFFFFFFFFFFFFF MUL NOT AND SWAP1 DUP4 PUSH20 0xFFFFFFFFFFFFFFFFFFFFFFFFFFFFFFFFFFFFFFFF AND MUL OR SWAP1 SSTORE POP PUSH1 0x20 DUP3 ADD MLOAD DUP2 PUSH1 0x1 ADD SWAP1 DUP1 MLOAD SWAP1 PUSH1 0x20 ADD SWAP1 PUSH2 0x233 SWAP3 SWAP2 SWAP1 PUSH2 0x91E JUMP JUMPDEST POP PUSH1 0x40 DUP3 ADD MLOAD DUP2 PUSH1 0x2 ADD SSTORE PUSH1 0x60 DUP3 ADD MLOAD DUP2 PUSH1 0x3 ADD SWAP1 DUP2 PUSH2 0x253 SWAP2 SWAP1 PUSH2 0x146B JUMP JUMPDEST POP PUSH1 0x80 DUP3 ADD MLOAD DUP2 PUSH1 0x4 ADD SWAP1 DUP2 PUSH2 0x269 SWAP2 SWAP1 PUSH2 0x146B JUMP JUMPDEST POP PUSH1 0xA0 DUP3 ADD MLOAD DUP2 PUSH1 0x5 ADD SWAP1 DUP2 PUSH2 0x27F SWAP2 SWAP1 PUSH2 0x146B JUMP JUMPDEST POP PUSH1 0xC0 DUP3 ADD MLOAD DUP2 PUSH1 0x6 ADD SSTORE PUSH1 0xE0 DUP3 ADD MLOAD DUP2 PUSH1 0x7 ADD PUSH0 PUSH2 0x100 EXP DUP2 SLOAD DUP2 PUSH1 0xFF MUL NOT AND SWAP1 DUP4 PUSH1 0x3 DUP2 GT ISZERO PUSH2 0x2B4 JUMPI PUSH2 0x2B3 PUSH2 0xF24 JUMP JUMPDEST JUMPDEST MUL OR SWAP1 SSTORE POP PUSH2 0x100 DUP3 ADD MLOAD DUP2 PUSH1 0x8 ADD SSTORE SWAP1 POP POP PUSH1 0x2 PUSH0 DUP2 SLOAD DUP1 SWAP3 SWAP2 SWAP1 PUSH2 0x2D9 SWAP1 PUSH2 0x1567 JUMP JUMPDEST SWAP2 SWAP1 POP SSTORE POP DUP9 PUSH20 0xFFFFFFFFFFFFFFFFFFFFFFFFFFFFFFFFFFFFFFFF AND DUP2 PUSH32 0xCDA275EDDD33A0342D4AE7D10CF2BD21459B4CA6B0C0C8FD29C3D3D792D50C2A DUP9 DUP9 DUP9 DUP9 PUSH1 0x1 PUSH1 0x40 MLOAD PUSH2 0x32E SWAP6 SWAP5 SWAP4 SWAP3 SWAP2 SWAP1 PUSH2 0x15AE JUMP JUMPDEST PUSH1 0x40 MLOAD DUP1 SWAP2 SUB SWAP1 LOG3 SWAP9 SWAP8 POP POP POP POP POP POP POP POP JUMP JUMPDEST PUSH0 DUP1 SLOAD SWAP1 PUSH2 0x100 EXP SWAP1 DIV PUSH20 0xFFFFFFFFFFFFFFFFFFFFFFFFFFFFFFFFFFFFFFFF AND DUP2 JUMP JUMPDEST PUSH1 0x2 SLOAD DUP2 JUMP JUMPDEST PUSH1 0x1 PUSH1 0x20 MSTORE DUP1 PUSH0 MSTORE PUSH1 0x40 PUSH0 KECCAK256 PUSH0 SWAP2 POP SWAP1 POP DUP1 PUSH0 ADD PUSH0 SWAP1 SLOAD SWAP1 PUSH2 0x100 EXP SWAP1 DIV PUSH20 0xFFFFFFFFFFFFFFFFFFFFFFFFFFFFFFFFFFFFFFFF AND SWAP1 DUP1 PUSH1 0x2 ADD SLOAD SWAP1 DUP1 PUSH1 0x3 ADD DUP1 SLOAD PUSH2 0x3B5 SWAP1 PUSH2 0x12A7 JUMP JUMPDEST DUP1 PUSH1 0x1F ADD PUSH1 0x20 DUP1 SWAP2 DIV MUL PUSH1 0x20 ADD PUSH1 0x40 MLOAD SWAP1 DUP2 ADD PUSH1 0x40 MSTORE DUP1 SWAP3 SWAP2 SWAP1 DUP2 DUP2 MSTORE PUSH1 0x20 ADD DUP3 DUP1 SLOAD PUSH2 0x3E1 SWAP1 PUSH2 0x12A7 JUMP JUMPDEST DUP1 ISZERO PUSH2 0x42C JUMPI DUP1 PUSH1 0x1F LT PUSH2 0x403 JUMPI PUSH2 0x100 DUP1 DUP4 SLOAD DIV MUL DUP4 MSTORE SWAP2 PUSH1 0x20 ADD SWAP2 PUSH2 0x42C JUMP JUMPDEST DUP3 ADD SWAP2 SWAP1 PUSH0 MSTORE PUSH1 0x20 PUSH0 KECCAK256 SWAP1 JUMPDEST DUP2 SLOAD DUP2 MSTORE SWAP1 PUSH1 0x1 ADD SWAP1 PUSH1 0x20 ADD DUP1 DUP4 GT PUSH2 0x40F JUMPI DUP3 SWAP1 SUB PUSH1 0x1F AND DUP3 ADD SWAP2 JUMPDEST POP POP POP POP POP SWAP1 DUP1 PUSH1 0x4 ADD DUP1 SLOAD PUSH2 0x441 SWAP1 PUSH2 0x12A7 JUMP JUMPDEST DUP1 PUSH1 0x1F ADD PUSH1 0x20 DUP1 SWAP2 DIV MUL PUSH1 0x20 ADD PUSH1 0x40 MLOAD SWAP1 DUP2 ADD PUSH1 0x40 MSTORE DUP1 SWAP3 SWAP2 SWAP1 DUP2 DUP2 MSTORE PUSH1 0x20 ADD DUP3 DUP1 SLOAD PUSH2 0x46D SWAP1 PUSH2 0x12A7 JUMP JUMPDEST DUP1 ISZERO PUSH2 0x4B8 JUMPI DUP1 PUSH1 0x1F LT PUSH2 0x48F JUMPI PUSH2 0x100 DUP1 DUP4 SLOAD DIV MUL DUP4 MSTORE SWAP2 PUSH1 0x20 ADD SWAP2 PUSH2 0x4B8 JUMP JUMPDEST DUP3 ADD SWAP2 SWAP1 PUSH0 MSTORE PUSH1 0x20 PUSH0 KECCAK256 SWAP1 JUMPDEST DUP2 SLOAD DUP2 MSTORE SWAP1 PUSH1 0x1 ADD SWAP1 PUSH1 0x20 ADD DUP1 DUP4 GT PUSH2 0x49B JUMPI DUP3 SWAP1 SUB PUSH1 0x1F AND DUP3 ADD SWAP2 JUMPDEST POP POP POP POP POP SWAP1 DUP1 PUSH1 0x5 ADD DUP1 SLOAD PUSH2 0x4CD SWAP1 PUSH2 0x12A7 JUMP JUMPDEST DUP1 PUSH1 0x1F ADD PUSH1 0x20 DUP1 SWAP2 DIV MUL PUSH1 0x20 ADD PUSH1 0x40 MLOAD SWAP1 DUP2 ADD PUSH1 0x40 MSTORE DUP1 SWAP3 SWAP2 SWAP1 DUP2 DUP2 MSTORE PUSH1 0x20 ADD DUP3 DUP1 SLOAD PUSH2 0x4F9 SWAP1 PUSH2 0x12A7 JUMP JUMPDEST DUP1 ISZERO PUSH2 0x544 JUMPI DUP1 PUSH1 0x1F LT PUSH2 0x51B JUMPI PUSH2 0x100 DUP1 DUP4 SLOAD DIV MUL DUP4 MSTORE SWAP2 PUSH1 0x20 ADD SWAP2 PUSH2 0x544 JUMP JUMPDEST DUP3 ADD SWAP2 SWAP1 PUSH0 MSTORE PUSH1 0x20 PUSH0 KECCAK256 SWAP1 JUMPDEST DUP2 SLOAD DUP2 MSTORE SWAP1 PUSH1 0x1 ADD SWAP1 PUSH1 0x20 ADD DUP1 DUP4 GT PUSH2 0x527 JUMPI DUP3 SWAP1 SUB PUSH1 0x1F AND DUP3 ADD SWAP2 JUMPDEST POP POP POP POP POP SWAP1 DUP1 PUSH1 0x6 ADD SLOAD SWAP1 DUP1 PUSH1 0x7 ADD PUSH0 SWAP1 SLOAD SWAP1 PUSH2 0x100 EXP SWAP1 DIV PUSH1 0xFF AND SWAP1 DUP1 PUSH1 0x8 ADD SLOAD SWAP1 POP DUP9 JUMP JUMPDEST PUSH2 0x574 PUSH2 0x9A5 JUMP JUMPDEST PUSH1 0x1 PUSH0 DUP4 DUP2 MSTORE PUSH1 0x20 ADD SWAP1 DUP2 MSTORE PUSH1 0x20 ADD PUSH0 KECCAK256 PUSH1 0x40 MLOAD DUP1 PUSH2 0x120 ADD PUSH1 0x40 MSTORE SWAP1 DUP2 PUSH0 DUP3 ADD PUSH0 SWAP1 SLOAD SWAP1 PUSH2 0x100 EXP SWAP1 DIV PUSH20 0xFFFFFFFFFFFFFFFFFFFFFFFFFFFFFFFFFFFFFFFF AND PUSH20 0xFFFFFFFFFFFFFFFFFFFFFFFFFFFFFFFFFFFFFFFF AND PUSH20 0xFFFFFFFFFFFFFFFFFFFFFFFFFFFFFFFFFFFFFFFF AND DUP2 MSTORE PUSH1 0x20 ADD PUSH1 0x1 DUP3 ADD DUP1 SLOAD DUP1 PUSH1 0x20 MUL PUSH1 0x20 ADD PUSH1 0x40 MLOAD SWAP1 DUP2 ADD PUSH1 0x40 MSTORE DUP1 SWAP3 SWAP2 SWAP1 DUP2 DUP2 MSTORE PUSH1 0x20 ADD DUP3 DUP1 SLOAD DUP1 ISZERO PUSH2 0x667 JUMPI PUSH1 0x20 MUL DUP3 ADD SWAP2 SWAP1 PUSH0 MSTORE PUSH1 0x20 PUSH0 KECCAK256 SWAP1 JUMPDEST DUP2 PUSH0 SWAP1 SLOAD SWAP1 PUSH2 0x100 EXP SWAP1 DIV PUSH20 0xFFFFFFFFFFFFFFFFFFFFFFFFFFFFFFFFFFFFFFFF AND PUSH20 0xFFFFFFFFFFFFFFFFFFFFFFFFFFFFFFFFFFFFFFFF AND DUP2 MSTORE PUSH1 0x20 ADD SWAP1 PUSH1 0x1 ADD SWAP1 DUP1 DUP4 GT PUSH2 0x61E JUMPI JUMPDEST POP POP POP POP POP DUP2 MSTORE PUSH1 0x20 ADD PUSH1 0x2 DUP3 ADD SLOAD DUP2 MSTORE PUSH1 0x20 ADD PUSH1 0x3 DUP3 ADD DUP1 SLOAD PUSH2 0x68A SWAP1 PUSH2 0x12A7 JUMP JUMPDEST DUP1 PUSH1 0x1F ADD PUSH1 0x20 DUP1 SWAP2 DIV MUL PUSH1 0x20 ADD PUSH1 0x40 MLOAD SWAP1 DUP2 ADD PUSH1 0x40 MSTORE DUP1 SWAP3 SWAP2 SWAP1 DUP2 DUP2 MSTORE PUSH1 0x20 ADD DUP3 DUP1 SLOAD PUSH2 0x6B6 SWAP1 PUSH2 0x12A7 JUMP JUMPDEST DUP1 ISZERO PUSH2 0x701 JUMPI DUP1 PUSH1 0x1F LT PUSH2 0x6D8 JUMPI PUSH2 0x100 DUP1 DUP4 SLOAD DIV MUL DUP4 MSTORE SWAP2 PUSH1 0x20 ADD SWAP2 PUSH2 0x701 JUMP JUMPDEST DUP3 ADD SWAP2 SWAP1 PUSH0 MSTORE PUSH1 0x20 PUSH0 KECCAK256 SWAP1 JUMPDEST DUP2 SLOAD DUP2 MSTORE SWAP1 PUSH1 0x1 ADD SWAP1 PUSH1 0x20 ADD DUP1 DUP4 GT PUSH2 0x6E4 JUMPI DUP3 SWAP1 SUB PUSH1 0x1F AND DUP3 ADD SWAP2 JUMPDEST POP POP POP POP POP DUP2 MSTORE PUSH1 0x20 ADD PUSH1 0x4 DUP3 ADD DUP1 SLOAD PUSH2 0x71A SWAP1 PUSH2 0x12A7 JUMP JUMPDEST DUP1 PUSH1 0x1F ADD PUSH1 0x20 DUP1 SWAP2 DIV MUL PUSH1 0x20 ADD PUSH1 0x40 MLOAD SWAP1 DUP2 ADD PUSH1 0x40 MSTORE DUP1 SWAP3 SWAP2 SWAP1 DUP2 DUP2 MSTORE PUSH1 0x20 ADD DUP3 DUP1 SLOAD PUSH2 0x746 SWAP1 PUSH2 0x12A7 JUMP JUMPDEST DUP1 ISZERO PUSH2 0x791 JUMPI DUP1 PUSH1 0x1F LT PUSH2 0x768 JUMPI PUSH2 0x100 DUP1 DUP4 SLOAD DIV MUL DUP4 MSTORE SWAP2 PUSH1 0x20 ADD SWAP2 PUSH2 0x791 JUMP JUMPDEST DUP3 ADD SWAP2 SWAP1 PUSH0 MSTORE PUSH1 0x20 PUSH0 KECCAK256 SWAP1 JUMPDEST DUP2 SLOAD DUP2 MSTORE SWAP1 PUSH1 0x1 ADD SWAP1 PUSH1 0x20 ADD DUP1 DUP4 GT PUSH2 0x774 JUMPI DUP3 SWAP1 SUB PUSH1 0x1F AND DUP3 ADD SWAP2 JUMPDEST POP POP POP POP POP DUP2 MSTORE PUSH1 0x20 ADD PUSH1 0x5 DUP3 ADD DUP1 SLOAD PUSH2 0x7AA SWAP1 PUSH2 0x12A7 JUMP JUMPDEST DUP1 PUSH1 0x1F ADD PUSH1 0x20 DUP1 SWAP2 DIV MUL PUSH1 0x20 ADD PUSH1 0x40 MLOAD SWAP1 DUP2 ADD PUSH1 0x40 MSTORE DUP1 SWAP3 SWAP2 SWAP1 DUP2 DUP2 MSTORE PUSH1 0x20 ADD DUP3 DUP1 SLOAD PUSH2 0x7D6 SWAP1 PUSH2 0x12A7 JUMP JUMPDEST DUP1 ISZERO PUSH2 0x821 JUMPI DUP1 PUSH1 0x1F LT PUSH2 0x7F8 JUMPI PUSH2 0x100 DUP1 DUP4 SLOAD DIV MUL DUP4 MSTORE SWAP2 PUSH1 0x20 ADD SWAP2 PUSH2 0x821 JUMP JUMPDEST DUP3 ADD SWAP2 SWAP1 PUSH0 MSTORE PUSH1 0x20 PUSH0 KECCAK256 SWAP1 JUMPDEST DUP2 SLOAD DUP2 MSTORE SWAP1 PUSH1 0x1 ADD SWAP1 PUSH1 0x20 ADD DUP1 DUP4 GT PUSH2 0x804 JUMPI DUP3 SWAP1 SUB PUSH1 0x1F AND DUP3 ADD SWAP2 JUMPDEST POP POP POP POP POP DUP2 MSTORE PUSH1 0x20 ADD PUSH1 0x6 DUP3 ADD SLOAD DUP2 MSTORE PUSH1 0x20 ADD PUSH1 0x7 DUP3 ADD PUSH0 SWAP1 SLOAD SWAP1 PUSH2 0x100 EXP SWAP1 DIV PUSH1 0xFF AND PUSH1 0x3 DUP2 GT ISZERO PUSH2 0x858 JUMPI PUSH2 0x857 PUSH2 0xF24 JUMP JUMPDEST JUMPDEST PUSH1 0x3 DUP2 GT ISZERO PUSH2 0x86A JUMPI PUSH2 0x869 PUSH2 0xF24 JUMP JUMPDEST JUMPDEST DUP2 MSTORE PUSH1 0x20 ADD PUSH1 0x8 DUP3 ADD SLOAD DUP2 MSTORE POP POP SWAP1 POP SWAP2 SWAP1 POP JUMP JUMPDEST PUSH1 0x1 PUSH0 DUP4 DUP2 MSTORE PUSH1 0x20 ADD SWAP1 DUP2 MSTORE PUSH1 0x20 ADD PUSH0 KECCAK256 PUSH1 0x1 ADD DUP2 SWAP1 DUP1 PUSH1 0x1 DUP2 SLOAD ADD DUP1 DUP3 SSTORE DUP1 SWAP2 POP POP PUSH1 0x1 SWAP1 SUB SWAP1 PUSH0 MSTORE PUSH1 0x20 PUSH0 KECCAK256 ADD PUSH0 SWAP1 SWAP2 SWAP1 SWAP2 SWAP1 SWAP2 PUSH2 0x100 EXP DUP2 SLOAD DUP2 PUSH20 0xFFFFFFFFFFFFFFFFFFFFFFFFFFFFFFFFFFFFFFFF MUL NOT AND SWAP1 DUP4 PUSH20 0xFFFFFFFFFFFFFFFFFFFFFFFFFFFFFFFFFFFFFFFF AND MUL OR SWAP1 SSTORE POP PUSH1 0x1 PUSH0 DUP4 DUP2 MSTORE PUSH1 0x20 ADD SWAP1 DUP2 MSTORE PUSH1 0x20 ADD PUSH0 KECCAK256 PUSH1 0x2 ADD PUSH0 DUP2 SLOAD DUP1 SWAP3 SWAP2 SWAP1 PUSH2 0x915 SWAP1 PUSH2 0x1567 JUMP JUMPDEST SWAP2 SWAP1 POP SSTORE POP POP POP JUMP JUMPDEST DUP3 DUP1 SLOAD DUP3 DUP3 SSTORE SWAP1 PUSH0 MSTORE PUSH1 0x20 PUSH0 KECCAK256 SWAP1 DUP2 ADD SWAP3 DUP3 ISZERO PUSH2 0x994 JUMPI SWAP2 PUSH1 0x20 MUL DUP3 ADD JUMPDEST DUP3 DUP2 GT ISZERO PUSH2 0x993 JUMPI DUP3 MLOAD DUP3 PUSH0 PUSH2 0x100 EXP DUP2 SLOAD DUP2 PUSH20 0xFFFFFFFFFFFFFFFFFFFFFFFFFFFFFFFFFFFFFFFF MUL NOT AND SWAP1 DUP4 PUSH20 0xFFFFFFFFFFFFFFFFFFFFFFFFFFFFFFFFFFFFFFFF AND MUL OR SWAP1 SSTORE POP SWAP2 PUSH1 0x20 ADD SWAP2 SWAP1 PUSH1 0x1 ADD SWAP1 PUSH2 0x93C JUMP JUMPDEST JUMPDEST POP SWAP1 POP PUSH2 0x9A1 SWAP2 SWAP1 PUSH2 0xA14 JUMP JUMPDEST POP SWAP1 JUMP JUMPDEST PUSH1 0x40 MLOAD DUP1 PUSH2 0x120 ADD PUSH1 0x40 MSTORE DUP1 PUSH0 PUSH20 0xFFFFFFFFFFFFFFFFFFFFFFFFFFFFFFFFFFFFFFFF AND DUP2 MSTORE PUSH1 0x20 ADD PUSH1 0x60 DUP2 MSTORE PUSH1 0x20 ADD PUSH0 DUP2 MSTORE PUSH1 0x20 ADD PUSH1 0x60 DUP2 MSTORE PUSH1 0x20 ADD PUSH1 0x60 DUP2 MSTORE PUSH1 0x20 ADD PUSH1 0x60 DUP2 MSTORE PUSH1 0x20 ADD PUSH0 DUP2 MSTORE PUSH1 0x20 ADD PUSH0 PUSH1 0x3 DUP2 GT ISZERO PUSH2 0xA08 JUMPI PUSH2 0xA07 PUSH2 0xF24 JUMP JUMPDEST JUMPDEST DUP2 MSTORE PUSH1 0x20 ADD PUSH0 DUP2 MSTORE POP SWAP1 JUMP JUMPDEST JUMPDEST DUP1 DUP3 GT ISZERO PUSH2 0xA2B JUMPI PUSH0 DUP2 PUSH0 SWAP1 SSTORE POP PUSH1 0x1 ADD PUSH2 0xA15 JUMP JUMPDEST POP SWAP1 JUMP JUMPDEST PUSH0 PUSH1 0x40 MLOAD SWAP1 POP SWAP1 JUMP JUMPDEST PUSH0 DUP1 REVERT JUMPDEST PUSH0 DUP1 REVERT JUMPDEST PUSH0 PUSH20 0xFFFFFFFFFFFFFFFFFFFFFFFFFFFFFFFFFFFFFFFF DUP3 AND SWAP1 POP SWAP2 SWAP1 POP JUMP JUMPDEST PUSH0 PUSH2 0xA69 DUP3 PUSH2 0xA40 JUMP JUMPDEST SWAP1 POP SWAP2 SWAP1 POP JUMP JUMPDEST PUSH2 0xA79 DUP2 PUSH2 0xA5F JUMP JUMPDEST DUP2 EQ PUSH2 0xA83 JUMPI PUSH0 DUP1 REVERT JUMPDEST POP JUMP JUMPDEST PUSH0 DUP2 CALLDATALOAD SWAP1 POP PUSH2 0xA94 DUP2 PUSH2 0xA70 JUMP JUMPDEST SWAP3 SWAP2 POP POP JUMP JUMPDEST PUSH0 DUP1 REVERT JUMPDEST PUSH0 PUSH1 0x1F NOT PUSH1 0x1F DUP4 ADD AND SWAP1 POP SWAP2 SWAP1 POP JUMP JUMPDEST PUSH32 0x4E487B7100000000000000000000000000000000000000000000000000000000 PUSH0 MSTORE PUSH1 0x41 PUSH1 0x4 MSTORE PUSH1 0x24 PUSH0 REVERT JUMPDEST PUSH2 0xAE4 DUP3 PUSH2 0xA9E JUMP JUMPDEST DUP2 ADD DUP2 DUP2 LT PUSH8 0xFFFFFFFFFFFFFFFF DUP3 GT OR ISZERO PUSH2 0xB03 JUMPI PUSH2 0xB02 PUSH2 0xAAE JUMP JUMPDEST JUMPDEST DUP1 PUSH1 0x40 MSTORE POP POP POP JUMP JUMPDEST PUSH0 PUSH2 0xB15 PUSH2 0xA2F JUMP JUMPDEST SWAP1 POP PUSH2 0xB21 DUP3 DUP3 PUSH2 0xADB JUMP JUMPDEST SWAP2 SWAP1 POP JUMP JUMPDEST PUSH0 PUSH8 0xFFFFFFFFFFFFFFFF DUP3 GT ISZERO PUSH2 0xB40 JUMPI PUSH2 0xB3F PUSH2 0xAAE JUMP JUMPDEST JUMPDEST PUSH1 0x20 DUP3 MUL SWAP1 POP PUSH1 0x20 DUP2 ADD SWAP1 POP SWAP2 SWAP1 POP JUMP JUMPDEST PUSH0 DUP1 REVERT JUMPDEST PUSH0 PUSH2 0xB67 PUSH2 0xB62 DUP5 PUSH2 0xB26 JUMP JUMPDEST PUSH2 0xB0C JUMP JUMPDEST SWAP1 POP DUP1 DUP4 DUP3 MSTORE PUSH1 0x20 DUP3 ADD SWAP1 POP PUSH1 0x20 DUP5 MUL DUP4 ADD DUP6 DUP2 GT ISZERO PUSH2 0xB8A JUMPI PUSH2 0xB89 PUSH2 0xB51 JUMP JUMPDEST JUMPDEST DUP4 JUMPDEST DUP2 DUP2 LT ISZERO PUSH2 0xBB3 JUMPI DUP1 PUSH2 0xB9F DUP9 DUP3 PUSH2 0xA86 JUMP JUMPDEST DUP5 MSTORE PUSH1 0x20 DUP5 ADD SWAP4 POP POP PUSH1 0x20 DUP2 ADD SWAP1 POP PUSH2 0xB8C JUMP JUMPDEST POP POP POP SWAP4 SWAP3 POP POP POP JUMP JUMPDEST PUSH0 DUP3 PUSH1 0x1F DUP4 ADD SLT PUSH2 0xBD1 JUMPI PUSH2 0xBD0 PUSH2 0xA9A JUMP JUMPDEST JUMPDEST DUP2 CALLDATALOAD PUSH2 0xBE1 DUP5 DUP3 PUSH1 0x20 DUP7 ADD PUSH2 0xB55 JUMP JUMPDEST SWAP2 POP POP SWAP3 SWAP2 POP POP JUMP JUMPDEST PUSH0 DUP2 SWAP1 POP SWAP2 SWAP1 POP JUMP JUMPDEST PUSH2 0xBFC DUP2 PUSH2 0xBEA JUMP JUMPDEST DUP2 EQ PUSH2 0xC06 JUMPI PUSH0 DUP1 REVERT JUMPDEST POP JUMP JUMPDEST PUSH0 DUP2 CALLDATALOAD SWAP1 POP PUSH2 0xC17 DUP2 PUSH2 0xBF3 JUMP JUMPDEST SWAP3 SWAP2 POP POP JUMP JUMPDEST PUSH0 DUP1 REVERT JUMPDEST PUSH0 PUSH8 0xFFFFFFFFFFFFFFFF DUP3 GT ISZERO PUSH2 0xC3B JUMPI PUSH2 0xC3A PUSH2 0xAAE JUMP JUMPDEST JUMPDEST PUSH2 0xC44 DUP3 PUSH2 0xA9E JUMP JUMPDEST SWAP1 POP PUSH1 0x20 DUP2 ADD SWAP1 POP SWAP2 SWAP1 POP JUMP JUMPDEST DUP3 DUP2 DUP4 CALLDATACOPY PUSH0 DUP4 DUP4 ADD MSTORE POP POP POP JUMP JUMPDEST PUSH0 PUSH2 0xC71 PUSH2 0xC6C DUP5 PUSH2 0xC21 JUMP JUMPDEST PUSH2 0xB0C JUMP JUMPDEST SWAP1 POP DUP3 DUP2 MSTORE PUSH1 0x20 DUP2 ADD DUP5 DUP5 DUP5 ADD GT ISZERO PUSH2 0xC8D JUMPI PUSH2 0xC8C PUSH2 0xC1D JUMP JUMPDEST JUMPDEST PUSH2 0xC98 DUP5 DUP3 DUP6 PUSH2 0xC51 JUMP JUMPDEST POP SWAP4 SWAP3 POP POP POP JUMP JUMPDEST PUSH0 DUP3 PUSH1 0x1F DUP4 ADD SLT PUSH2 0xCB4 JUMPI PUSH2 0xCB3 PUSH2 0xA9A JUMP JUMPDEST JUMPDEST DUP2 CALLDATALOAD PUSH2 0xCC4 DUP5 DUP3 PUSH1 0x20 DUP7 ADD PUSH2 0xC5F JUMP JUMPDEST SWAP2 POP POP SWAP3 SWAP2 POP POP JUMP JUMPDEST PUSH0 DUP1 PUSH0 DUP1 PUSH0 DUP1 PUSH0 DUP1 PUSH2 0x100 DUP10 DUP12 SUB SLT ISZERO PUSH2 0xCEA JUMPI PUSH2 0xCE9 PUSH2 0xA38 JUMP JUMPDEST JUMPDEST PUSH0 PUSH2 0xCF7 DUP12 DUP3 DUP13 ADD PUSH2 0xA86 JUMP JUMPDEST SWAP9 POP POP PUSH1 0x20 DUP10 ADD CALLDATALOAD PUSH8 0xFFFFFFFFFFFFFFFF DUP2 GT ISZERO PUSH2 0xD18 JUMPI PUSH2 0xD17 PUSH2 0xA3C JUMP JUMPDEST JUMPDEST PUSH2 0xD24 DUP12 DUP3 DUP13 ADD PUSH2 0xBBD JUMP JUMPDEST SWAP8 POP POP PUSH1 0x40 PUSH2 0xD35 DUP12 DUP3 DUP13 ADD PUSH2 0xC09 JUMP JUMPDEST SWAP7 POP POP PUSH1 0x60 DUP10 ADD CALLDATALOAD PUSH8 0xFFFFFFFFFFFFFFFF DUP2 GT ISZERO PUSH2 0xD56 JUMPI PUSH2 0xD55 PUSH2 0xA3C JUMP JUMPDEST JUMPDEST PUSH2 0xD62 DUP12 DUP3 DUP13 ADD PUSH2 0xCA0 JUMP JUMPDEST SWAP6 POP POP PUSH1 0x80 DUP10 ADD CALLDATALOAD PUSH8 0xFFFFFFFFFFFFFFFF DUP2 GT ISZERO PUSH2 0xD83 JUMPI PUSH2 0xD82 PUSH2 0xA3C JUMP JUMPDEST JUMPDEST PUSH2 0xD8F DUP12 DUP3 DUP13 ADD PUSH2 0xCA0 JUMP JUMPDEST SWAP5 POP POP PUSH1 0xA0 DUP10 ADD CALLDATALOAD PUSH8 0xFFFFFFFFFFFFFFFF DUP2 GT ISZERO PUSH2 0xDB0 JUMPI PUSH2 0xDAF PUSH2 0xA3C JUMP JUMPDEST JUMPDEST PUSH2 0xDBC DUP12 DUP3 DUP13 ADD PUSH2 0xCA0 JUMP JUMPDEST SWAP4 POP POP PUSH1 0xC0 PUSH2 0xDCD DUP12 DUP3 DUP13 ADD PUSH2 0xC09 JUMP JUMPDEST SWAP3 POP POP PUSH1 0xE0 PUSH2 0xDDE DUP12 DUP3 DUP13 ADD PUSH2 0xC09 JUMP JUMPDEST SWAP2 POP POP SWAP3 SWAP6 SWAP9 POP SWAP3 SWAP6 SWAP9 SWAP1 SWAP4 SWAP7 POP JUMP JUMPDEST PUSH2 0xDF7 DUP2 PUSH2 0xBEA JUMP JUMPDEST DUP3 MSTORE POP POP JUMP JUMPDEST PUSH0 PUSH1 0x20 DUP3 ADD SWAP1 POP PUSH2 0xE10 PUSH0 DUP4 ADD DUP5 PUSH2 0xDEE JUMP JUMPDEST SWAP3 SWAP2 POP POP JUMP JUMPDEST PUSH0 DUP2 SWAP1 POP SWAP2 SWAP1 POP JUMP JUMPDEST PUSH0 PUSH2 0xE39 PUSH2 0xE34 PUSH2 0xE2F DUP5 PUSH2 0xA40 JUMP JUMPDEST PUSH2 0xE16 JUMP JUMPDEST PUSH2 0xA40 JUMP JUMPDEST SWAP1 POP SWAP2 SWAP1 POP JUMP JUMPDEST PUSH0 PUSH2 0xE4A DUP3 PUSH2 0xE1F JUMP JUMPDEST SWAP1 POP SWAP2 SWAP1 POP JUMP JUMPDEST PUSH0 PUSH2 0xE5B DUP3 PUSH2 0xE40 JUMP JUMPDEST SWAP1 POP SWAP2 SWAP1 POP JUMP JUMPDEST PUSH2 0xE6B DUP2 PUSH2 0xE51 JUMP JUMPDEST DUP3 MSTORE POP POP JUMP JUMPDEST PUSH0 PUSH1 0x20 DUP3 ADD SWAP1 POP PUSH2 0xE84 PUSH0 DUP4 ADD DUP5 PUSH2 0xE62 JUMP JUMPDEST SWAP3 SWAP2 POP POP JUMP JUMPDEST PUSH0 PUSH1 0x20 DUP3 DUP5 SUB SLT ISZERO PUSH2 0xE9F JUMPI PUSH2 0xE9E PUSH2 0xA38 JUMP JUMPDEST JUMPDEST PUSH0 PUSH2 0xEAC DUP5 DUP3 DUP6 ADD PUSH2 0xC09 JUMP JUMPDEST SWAP2 POP POP SWAP3 SWAP2 POP POP JUMP JUMPDEST PUSH2 0xEBE DUP2 PUSH2 0xA5F JUMP JUMPDEST DUP3 MSTORE POP POP JUMP JUMPDEST PUSH0 DUP2 MLOAD SWAP1 POP SWAP2 SWAP1 POP JUMP JUMPDEST PUSH0 DUP3 DUP3 MSTORE PUSH1 0x20 DUP3 ADD SWAP1 POP SWAP3 SWAP2 POP POP JUMP JUMPDEST DUP3 DUP2 DUP4 MCOPY PUSH0 DUP4 DUP4 ADD MSTORE POP POP POP JUMP JUMPDEST PUSH0 PUSH2 0xEF6 DUP3 PUSH2 0xEC4 JUMP JUMPDEST PUSH2 0xF00 DUP2 DUP6 PUSH2 0xECE JUMP JUMPDEST SWAP4 POP PUSH2 0xF10 DUP2 DUP6 PUSH1 0x20 DUP7 ADD PUSH2 0xEDE JUMP JUMPDEST PUSH2 0xF19 DUP2 PUSH2 0xA9E JUMP JUMPDEST DUP5 ADD SWAP2 POP POP SWAP3 SWAP2 POP POP JUMP JUMPDEST PUSH32 0x4E487B7100000000000000000000000000000000000000000000000000000000 PUSH0 MSTORE PUSH1 0x21 PUSH1 0x4 MSTORE PUSH1 0x24 PUSH0 REVERT JUMPDEST PUSH1 0x4 DUP2 LT PUSH2 0xF62 JUMPI PUSH2 0xF61 PUSH2 0xF24 JUMP JUMPDEST JUMPDEST POP JUMP JUMPDEST PUSH0 DUP2 SWAP1 POP PUSH2 0xF72 DUP3 PUSH2 0xF51 JUMP JUMPDEST SWAP2 SWAP1 POP JUMP JUMPDEST PUSH0 PUSH2 0xF81 DUP3 PUSH2 0xF65 JUMP JUMPDEST SWAP1 POP SWAP2 SWAP1 POP JUMP JUMPDEST PUSH2 0xF91 DUP2 PUSH2 0xF77 JUMP JUMPDEST DUP3 MSTORE POP POP JUMP JUMPDEST PUSH0 PUSH2 0x100 DUP3 ADD SWAP1 POP PUSH2 0xFAB PUSH0 DUP4 ADD DUP12 PUSH2 0xEB5 JUMP JUMPDEST PUSH2 0xFB8 PUSH1 0x20 DUP4 ADD DUP11 PUSH2 0xDEE JUMP JUMPDEST DUP2 DUP2 SUB PUSH1 0x40 DUP4 ADD MSTORE PUSH2 0xFCA DUP2 DUP10 PUSH2 0xEEC JUMP JUMPDEST SWAP1 POP DUP2 DUP2 SUB PUSH1 0x60 DUP4 ADD MSTORE PUSH2 0xFDE DUP2 DUP9 PUSH2 0xEEC JUMP JUMPDEST SWAP1 POP DUP2 DUP2 SUB PUSH1 0x80 DUP4 ADD MSTORE PUSH2 0xFF2 DUP2 DUP8 PUSH2 0xEEC JUMP JUMPDEST SWAP1 POP PUSH2 0x1001 PUSH1 0xA0 DUP4 ADD DUP7 PUSH2 0xDEE JUMP JUMPDEST PUSH2 0x100E PUSH1 0xC0 DUP4 ADD DUP6 PUSH2 0xF88 JUMP JUMPDEST PUSH2 0x101B PUSH1 0xE0 DUP4 ADD DUP5 PUSH2 0xDEE JUMP JUMPDEST SWAP10 SWAP9 POP POP POP POP POP POP POP POP POP JUMP JUMPDEST PUSH2 0x1031 DUP2 PUSH2 0xA5F JUMP JUMPDEST DUP3 MSTORE POP POP JUMP JUMPDEST PUSH0 DUP2 MLOAD SWAP1 POP SWAP2 SWAP1 POP JUMP JUMPDEST PUSH0 DUP3 DUP3 MSTORE PUSH1 0x20 DUP3 ADD SWAP1 POP SWAP3 SWAP2 POP POP JUMP JUMPDEST PUSH0 DUP2 SWAP1 POP PUSH1 0x20 DUP3 ADD SWAP1 POP SWAP2 SWAP1 POP JUMP JUMPDEST PUSH0 PUSH2 0x106B DUP4 DUP4 PUSH2 0x1028 JUMP JUMPDEST PUSH1 0x20 DUP4 ADD SWAP1 POP SWAP3 SWAP2 POP POP JUMP JUMPDEST PUSH0 PUSH1 0x20 DUP3 ADD SWAP1 POP SWAP2 SWAP1 POP JUMP JUMPDEST PUSH0 PUSH2 0x108D DUP3 PUSH2 0x1037 JUMP JUMPDEST PUSH2 0x1097 DUP2 DUP6 PUSH2 0x1041 JUMP JUMPDEST SWAP4 POP PUSH2 0x10A2 DUP4 PUSH2 0x1051 JUMP JUMPDEST DUP1 PUSH0 JUMPDEST DUP4 DUP2 LT ISZERO PUSH2 0x10D2 JUMPI DUP2 MLOAD PUSH2 0x10B9 DUP9 DUP3 PUSH2 0x1060 JUMP JUMPDEST SWAP8 POP PUSH2 0x10C4 DUP4 PUSH2 0x1077 JUMP JUMPDEST SWAP3 POP POP PUSH1 0x1 DUP2 ADD SWAP1 POP PUSH2 0x10A5 JUMP JUMPDEST POP DUP6 SWAP4 POP POP POP POP SWAP3 SWAP2 POP POP JUMP JUMPDEST PUSH2 0x10E8 DUP2 PUSH2 0xBEA JUMP JUMPDEST DUP3 MSTORE POP POP JUMP JUMPDEST PUSH0 DUP3 DUP3 MSTORE PUSH1 0x20 DUP3 ADD SWAP1 POP SWAP3 SWAP2 POP POP JUMP JUMPDEST PUSH0 PUSH2 0x1108 DUP3 PUSH2 0xEC4 JUMP JUMPDEST PUSH2 0x1112 DUP2 DUP6 PUSH2 0x10EE JUMP JUMPDEST SWAP4 POP PUSH2 0x1122 DUP2 DUP6 PUSH1 0x20 DUP7 ADD PUSH2 0xEDE JUMP JUMPDEST PUSH2 0x112B DUP2 PUSH2 0xA9E JUMP JUMPDEST DUP5 ADD SWAP2 POP POP SWAP3 SWAP2 POP POP JUMP JUMPDEST PUSH2 0x113F DUP2 PUSH2 0xF77 JUMP JUMPDEST DUP3 MSTORE POP POP JUMP JUMPDEST PUSH0 PUSH2 0x120 DUP4 ADD PUSH0 DUP4 ADD MLOAD PUSH2 0x115B PUSH0 DUP7 ADD DUP3 PUSH2 0x1028 JUMP JUMPDEST POP PUSH1 0x20 DUP4 ADD MLOAD DUP5 DUP3 SUB PUSH1 0x20 DUP7 ADD MSTORE PUSH2 0x1173 DUP3 DUP3 PUSH2 0x1083 JUMP JUMPDEST SWAP2 POP POP PUSH1 0x40 DUP4 ADD MLOAD PUSH2 0x1188 PUSH1 0x40 DUP7 ADD DUP3 PUSH2 0x10DF JUMP JUMPDEST POP PUSH1 0x60 DUP4 ADD MLOAD DUP5 DUP3 SUB PUSH1 0x60 DUP7 ADD MSTORE PUSH2 0x11A0 DUP3 DUP3 PUSH2 0x10FE JUMP JUMPDEST SWAP2 POP POP PUSH1 0x80 DUP4 ADD MLOAD DUP5 DUP3 SUB PUSH1 0x80 DUP7 ADD MSTORE PUSH2 0x11BA DUP3 DUP3 PUSH2 0x10FE JUMP JUMPDEST SWAP2 POP POP PUSH1 0xA0 DUP4 ADD MLOAD DUP5 DUP3 SUB PUSH1 0xA0 DUP7 ADD MSTORE PUSH2 0x11D4 DUP3 DUP3 PUSH2 0x10FE JUMP JUMPDEST SWAP2 POP POP PUSH1 0xC0 DUP4 ADD MLOAD PUSH2 0x11E9 PUSH1 0xC0 DUP7 ADD DUP3 PUSH2 0x10DF JUMP JUMPDEST POP PUSH1 0xE0 DUP4 ADD MLOAD PUSH2 0x11FC PUSH1 0xE0 DUP7 ADD DUP3 PUSH2 0x1136 JUMP JUMPDEST POP PUSH2 0x100 DUP4 ADD MLOAD PUSH2 0x1211 PUSH2 0x100 DUP7 ADD DUP3 PUSH2 0x10DF JUMP JUMPDEST POP DUP1 SWAP2 POP POP SWAP3 SWAP2 POP POP JUMP JUMPDEST PUSH0 PUSH1 0x20 DUP3 ADD SWAP1 POP DUP2 DUP2 SUB PUSH0 DUP4 ADD MSTORE PUSH2 0x1234 DUP2 DUP5 PUSH2 0x1145 JUMP JUMPDEST SWAP1 POP SWAP3 SWAP2 POP POP JUMP JUMPDEST PUSH0 DUP1 PUSH1 0x40 DUP4 DUP6 SUB SLT ISZERO PUSH2 0x1252 JUMPI PUSH2 0x1251 PUSH2 0xA38 JUMP JUMPDEST JUMPDEST PUSH0 PUSH2 0x125F DUP6 DUP3 DUP7 ADD PUSH2 0xC09 JUMP JUMPDEST SWAP3 POP POP PUSH1 0x20 PUSH2 0x1270 DUP6 DUP3 DUP7 ADD PUSH2 0xA86 JUMP JUMPDEST SWAP2 POP POP SWAP3 POP SWAP3 SWAP1 POP JUMP JUMPDEST PUSH32 0x4E487B7100000000000000000000000000000000000000000000000000000000 PUSH0 MSTORE PUSH1 0x22 PUSH1 0x4 MSTORE PUSH1 0x24 PUSH0 REVERT JUMPDEST PUSH0 PUSH1 0x2 DUP3 DIV SWAP1 POP PUSH1 0x1 DUP3 AND DUP1 PUSH2 0x12BE JUMPI PUSH1 0x7F DUP3 AND SWAP2 POP JUMPDEST PUSH1 0x20 DUP3 LT DUP2 SUB PUSH2 0x12D1 JUMPI PUSH2 0x12D0 PUSH2 0x127A JUMP JUMPDEST JUMPDEST POP SWAP2 SWAP1 POP JUMP JUMPDEST PUSH0 DUP2 SWAP1 POP DUP2 PUSH0 MSTORE PUSH1 0x20 PUSH0 KECCAK256 SWAP1 POP SWAP2 SWAP1 POP JUMP JUMPDEST PUSH0 PUSH1 0x20 PUSH1 0x1F DUP4 ADD DIV SWAP1 POP SWAP2 SWAP1 POP JUMP JUMPDEST PUSH0 DUP3 DUP3 SHL SWAP1 POP SWAP3 SWAP2 POP POP JUMP JUMPDEST PUSH0 PUSH1 0x8 DUP4 MUL PUSH2 0x1333 PUSH32 0xFFFFFFFFFFFFFFFFFFFFFFFFFFFFFFFFFFFFFFFFFFFFFFFFFFFFFFFFFFFFFFFF DUP3 PUSH2 0x12F8 JUMP JUMPDEST PUSH2 0x133D DUP7 DUP4 PUSH2 0x12F8 JUMP JUMPDEST SWAP6 POP DUP1 NOT DUP5 AND SWAP4 POP DUP1 DUP7 AND DUP5 OR SWAP3 POP POP POP SWAP4 SWAP3 POP POP POP JUMP JUMPDEST PUSH0 PUSH2 0x136F PUSH2 0x136A PUSH2 0x1365 DUP5 PUSH2 0xBEA JUMP JUMPDEST PUSH2 0xE16 JUMP JUMPDEST PUSH2 0xBEA JUMP JUMPDEST SWAP1 POP SWAP2 SWAP1 POP JUMP JUMPDEST PUSH0 DUP2 SWAP1 POP SWAP2 SWAP1 POP JUMP JUMPDEST PUSH2 0x1388 DUP4 PUSH2 0x1355 JUMP JUMPDEST PUSH2 0x139C PUSH2 0x1394 DUP3 PUSH2 0x1376 JUMP JUMPDEST DUP5 DUP5 SLOAD PUSH2 0x1304 JUMP JUMPDEST DUP3 SSTORE POP POP POP POP JUMP JUMPDEST PUSH0 SWAP1 JUMP JUMPDEST PUSH2 0x13B0 PUSH2 0x13A4 JUMP JUMPDEST PUSH2 0x13BB DUP2 DUP5 DUP5 PUSH2 0x137F JUMP JUMPDEST POP POP POP JUMP JUMPDEST JUMPDEST DUP2 DUP2 LT ISZERO PUSH2 0x13DE JUMPI PUSH2 0x13D3 PUSH0 DUP3 PUSH2 0x13A8 JUMP JUMPDEST PUSH1 0x1 DUP2 ADD SWAP1 POP PUSH2 0x13C1 JUMP JUMPDEST POP POP JUMP JUMPDEST PUSH1 0x1F DUP3 GT ISZERO PUSH2 0x1423 JUMPI PUSH2 0x13F4 DUP2 PUSH2 0x12D7 JUMP JUMPDEST PUSH2 0x13FD DUP5 PUSH2 0x12E9 JUMP JUMPDEST DUP2 ADD PUSH1 0x20 DUP6 LT ISZERO PUSH2 0x140C JUMPI DUP2 SWAP1 POP JUMPDEST PUSH2 0x1420 PUSH2 0x1418 DUP6 PUSH2 0x12E9 JUMP JUMPDEST DUP4 ADD DUP3 PUSH2 0x13C0 JUMP JUMPDEST POP POP JUMPDEST POP POP POP JUMP JUMPDEST PUSH0 DUP3 DUP3 SHR SWAP1 POP SWAP3 SWAP2 POP POP JUMP JUMPDEST PUSH0 PUSH2 0x1443 PUSH0 NOT DUP5 PUSH1 0x8 MUL PUSH2 0x1428 JUMP JUMPDEST NOT DUP1 DUP4 AND SWAP2 POP POP SWAP3 SWAP2 POP POP JUMP JUMPDEST PUSH0 PUSH2 0x145B DUP4 DUP4 PUSH2 0x1434 JUMP JUMPDEST SWAP2 POP DUP3 PUSH1 0x2 MUL DUP3 OR SWAP1 POP SWAP3 SWAP2 POP POP JUMP JUMPDEST PUSH2 0x1474 DUP3 PUSH2 0xEC4 JUMP JUMPDEST PUSH8 0xFFFFFFFFFFFFFFFF DUP2 GT ISZERO PUSH2 0x148D JUMPI PUSH2 0x148C PUSH2 0xAAE JUMP JUMPDEST JUMPDEST PUSH2 0x1497 DUP3 SLOAD PUSH2 0x12A7 JUMP JUMPDEST PUSH2 0x14A2 DUP3 DUP3 DUP6 PUSH2 0x13E2 JUMP JUMPDEST PUSH0 PUSH1 0x20 SWAP1 POP PUSH1 0x1F DUP4 GT PUSH1 0x1 DUP2 EQ PUSH2 0x14D3 JUMPI PUSH0 DUP5 ISZERO PUSH2 0x14C1 JUMPI DUP3 DUP8 ADD MLOAD SWAP1 POP JUMPDEST PUSH2 0x14CB DUP6 DUP3 PUSH2 0x1450 JUMP JUMPDEST DUP7 SSTORE POP PUSH2 0x1532 JUMP JUMPDEST PUSH1 0x1F NOT DUP5 AND PUSH2 0x14E1 DUP7 PUSH2 0x12D7 JUMP JUMPDEST PUSH0 JUMPDEST DUP3 DUP2 LT ISZERO PUSH2 0x1508 JUMPI DUP5 DUP10 ADD MLOAD DUP3 SSTORE PUSH1 0x1 DUP3 ADD SWAP2 POP PUSH1 0x20 DUP6 ADD SWAP5 POP PUSH1 0x20 DUP2 ADD SWAP1 POP PUSH2 0x14E3 JUMP JUMPDEST DUP7 DUP4 LT ISZERO PUSH2 0x1525 JUMPI DUP5 DUP10 ADD MLOAD PUSH2 0x1521 PUSH1 0x1F DUP10 AND DUP3 PUSH2 0x1434 JUMP JUMPDEST DUP4 SSTORE POP JUMPDEST PUSH1 0x1 PUSH1 0x2 DUP9 MUL ADD DUP9 SSTORE POP POP POP JUMPDEST POP POP POP POP POP POP JUMP JUMPDEST PUSH32 0x4E487B7100000000000000000000000000000000000000000000000000000000 PUSH0 MSTORE PUSH1 0x11 PUSH1 0x4 MSTORE PUSH1 0x24 PUSH0 REVERT JUMPDEST PUSH0 PUSH2 0x1571 DUP3 PUSH2 0xBEA JUMP JUMPDEST SWAP2 POP PUSH32 0xFFFFFFFFFFFFFFFFFFFFFFFFFFFFFFFFFFFFFFFFFFFFFFFFFFFFFFFFFFFFFFFF DUP3 SUB PUSH2 0x15A3 JUMPI PUSH2 0x15A2 PUSH2 0x153A JUMP JUMPDEST JUMPDEST PUSH1 0x1 DUP3 ADD SWAP1 POP SWAP2 SWAP1 POP JUMP JUMPDEST PUSH0 PUSH1 0xA0 DUP3 ADD SWAP1 POP DUP2 DUP2 SUB PUSH0 DUP4 ADD MSTORE PUSH2 0x15C6 DUP2 DUP9 PUSH2 0xEEC JUMP JUMPDEST SWAP1 POP DUP2 DUP2 SUB PUSH1 0x20 DUP4 ADD MSTORE PUSH2 0x15DA DUP2 DUP8 PUSH2 0xEEC JUMP JUMPDEST SWAP1 POP DUP2 DUP2 SUB PUSH1 0x40 DUP4 ADD MSTORE PUSH2 0x15EE DUP2 DUP7 PUSH2 0xEEC JUMP JUMPDEST SWAP1 POP PUSH2 0x15FD PUSH1 0x60 DUP4 ADD DUP6 PUSH2 0xDEE JUMP JUMPDEST PUSH2 0x160A PUSH1 0x80 DUP4 ADD DUP5 PUSH2 0xF88 JUMP JUMPDEST SWAP7 SWAP6 POP POP POP POP POP POP JUMP INVALID LOG2 PUSH5 0x6970667358 0x22 SLT KECCAK256 0xDD 0x4B 0xB1 SWAP8 PUSH16 0x2D880CA6EFEE4B5B8CE3CB4AA0F837EF 0x2F SIGNEXTEND 0xEC PUSH0 CALLER 0xEC SWAP15 0x25 0xD3 LOG1 DELEGATECALL PUSH5 0x736F6C6343 STOP ADDMOD NOT STOP CALLER "
				},
				"gasEstimates": {
					"creation": {
						"codeDepositCost": "1141200",
						"executionCost": "47565",
						"totalCost": "1188765"
					},
					"external": {
						"add(address,address[],uint256,string,string,string,uint256,uint256)": "infinite",
						"addVoucher(uint256,address)": "infinite",
						"get(uint256)": "infinite",
						"nextRequestId()": "2447",
						"tokenContract()": "infinite",
						"userRequests(uint256)": "infinite"
					}
				},
				"methodIdentifiers": {
					"add(address,address[],uint256,string,string,string,uint256,uint256)": "216cef46",
					"addVoucher(uint256,address)": "d5ad68d9",
					"get(uint256)": "9507d39a",
					"nextRequestId()": "6a84a985",
					"tokenContract()": "55a373d6",
					"userRequests(uint256)": "94169656"
				}
			},
			"storageLayout": {
				"storage": [
					{
						"astId": 900,
						"contract": "packages/hardhat/contracts/UserRequestStruct.sol:UserRequestStruct",
						"label": "tokenContract",
						"offset": 0,
						"slot": "0",
						"type": "t_contract(TokenContract)885"
					},
					{
						"astId": 926,
						"contract": "packages/hardhat/contracts/UserRequestStruct.sol:UserRequestStruct",
						"label": "userRequests",
						"offset": 0,
						"slot": "1",
						"type": "t_mapping(t_uint256,t_struct(UserRequest)921_storage)"
					},
					{
						"astId": 928,
						"contract": "packages/hardhat/contracts/UserRequestStruct.sol:UserRequestStruct",
						"label": "nextRequestId",
						"offset": 0,
						"slot": "2",
						"type": "t_uint256"
					}
				],
				"types": {
					"t_address": {
						"encoding": "inplace",
						"label": "address",
						"numberOfBytes": "20"
					},
					"t_array(t_address)dyn_storage": {
						"base": "t_address",
						"encoding": "dynamic_array",
						"label": "address[]",
						"numberOfBytes": "32"
					},
					"t_contract(TokenContract)885": {
						"encoding": "inplace",
						"label": "contract TokenContract",
						"numberOfBytes": "20"
					},
					"t_enum(RequestStatus)894": {
						"encoding": "inplace",
						"label": "enum UserRequestStruct.RequestStatus",
						"numberOfBytes": "1"
					},
					"t_mapping(t_uint256,t_struct(UserRequest)921_storage)": {
						"encoding": "mapping",
						"key": "t_uint256",
						"label": "mapping(uint256 => struct UserRequestStruct.UserRequest)",
						"numberOfBytes": "32",
						"value": "t_struct(UserRequest)921_storage"
					},
					"t_string_storage": {
						"encoding": "bytes",
						"label": "string",
						"numberOfBytes": "32"
					},
					"t_struct(UserRequest)921_storage": {
						"encoding": "inplace",
						"label": "struct UserRequestStruct.UserRequest",
						"members": [
							{
								"astId": 902,
								"contract": "packages/hardhat/contracts/UserRequestStruct.sol:UserRequestStruct",
								"label": "user",
								"offset": 0,
								"slot": "0",
								"type": "t_address"
							},
							{
								"astId": 905,
								"contract": "packages/hardhat/contracts/UserRequestStruct.sol:UserRequestStruct",
								"label": "vouched",
								"offset": 0,
								"slot": "1",
								"type": "t_array(t_address)dyn_storage"
							},
							{
								"astId": 907,
								"contract": "packages/hardhat/contracts/UserRequestStruct.sol:UserRequestStruct",
								"label": "vouchedCount",
								"offset": 0,
								"slot": "2",
								"type": "t_uint256"
							},
							{
								"astId": 909,
								"contract": "packages/hardhat/contracts/UserRequestStruct.sol:UserRequestStruct",
								"label": "skill",
								"offset": 0,
								"slot": "3",
								"type": "t_string_storage"
							},
							{
								"astId": 911,
								"contract": "packages/hardhat/contracts/UserRequestStruct.sol:UserRequestStruct",
								"label": "project",
								"offset": 0,
								"slot": "4",
								"type": "t_string_storage"
							},
							{
								"astId": 913,
								"contract": "packages/hardhat/contracts/UserRequestStruct.sol:UserRequestStruct",
								"label": "experience",
								"offset": 0,
								"slot": "5",
								"type": "t_string_storage"
							},
							{
								"astId": 915,
								"contract": "packages/hardhat/contracts/UserRequestStruct.sol:UserRequestStruct",
								"label": "stakeAmountByUser",
								"offset": 0,
								"slot": "6",
								"type": "t_uint256"
							},
							{
								"astId": 918,
								"contract": "packages/hardhat/contracts/UserRequestStruct.sol:UserRequestStruct",
								"label": "status",
								"offset": 0,
								"slot": "7",
								"type": "t_enum(RequestStatus)894"
							},
							{
								"astId": 920,
								"contract": "packages/hardhat/contracts/UserRequestStruct.sol:UserRequestStruct",
								"label": "creationTime",
								"offset": 0,
								"slot": "8",
								"type": "t_uint256"
							}
						],
						"numberOfBytes": "288"
					},
					"t_uint256": {
						"encoding": "inplace",
						"label": "uint256",
						"numberOfBytes": "32"
					}
				}
			},
			"userdoc": {
				"kind": "user",
				"methods": {},
				"version": 1
			}
		}
	}
}