{
	"packages/hardhat/contracts/UserRequestStruct.sol": {
		"UserRequestStruct": {
			"abi": [
				{
					"inputs": [],
					"name": "tokenContract",
					"outputs": [
						{
							"internalType": "contract TokenContract",
							"name": "",
							"type": "address"
						}
					],
					"stateMutability": "view",
					"type": "function"
				},
				{
					"inputs": [
						{
							"internalType": "uint256",
							"name": "",
							"type": "uint256"
						}
					],
					"name": "userRequests",
					"outputs": [
						{
							"internalType": "address",
							"name": "user",
							"type": "address"
						},
						{
							"internalType": "uint256",
							"name": "vouchedCount",
							"type": "uint256"
						},
						{
							"internalType": "string",
							"name": "skill",
							"type": "string"
						},
						{
							"internalType": "string",
							"name": "project",
							"type": "string"
						},
						{
							"internalType": "string",
							"name": "experience",
							"type": "string"
						},
						{
							"internalType": "uint256",
							"name": "stakeAmountByUser",
							"type": "uint256"
						},
						{
							"internalType": "enum UserRequestStruct.RequestStatus",
							"name": "status",
							"type": "uint8"
						},
						{
							"internalType": "uint256",
							"name": "creationTime",
							"type": "uint256"
						}
					],
					"stateMutability": "view",
					"type": "function"
				}
			],
			"devdoc": {
				"kind": "dev",
				"methods": {},
				"version": 1
			},
			"evm": {
				"assembly": "    /* \"packages/hardhat/contracts/UserRequestStruct.sol\":91:729  contract UserRequestStruct {... */\n  mstore(0x40, 0x80)\n    /* \"packages/hardhat/contracts/UserRequestStruct.sol\":260:302  0xaE036c65C649172b43ef7156b009c6221B596B8b */\n  0xae036c65c649172b43ef7156b009c6221b596b8b\n    /* \"packages/hardhat/contracts/UserRequestStruct.sol\":209:303  TokenContract public tokenContract = TokenContract(0xaE036c65C649172b43ef7156b009c6221B596B8b) */\n  0x00\n  dup1\n  0x0100\n  exp\n  dup2\n  sload\n  dup2\n  0xffffffffffffffffffffffffffffffffffffffff\n  mul\n  not\n  and\n  swap1\n  dup4\n  0xffffffffffffffffffffffffffffffffffffffff\n  and\n  mul\n  or\n  swap1\n  sstore\n  pop\n    /* \"packages/hardhat/contracts/UserRequestStruct.sol\":91:729  contract UserRequestStruct {... */\n  callvalue\n  dup1\n  iszero\n  tag_1\n  jumpi\n  0x00\n  dup1\n  revert\ntag_1:\n  pop\n  dataSize(sub_0)\n  dup1\n  dataOffset(sub_0)\n  0x00\n  codecopy\n  0x00\n  return\nstop\n\nsub_0: assembly {\n        /* \"packages/hardhat/contracts/UserRequestStruct.sol\":91:729  contract UserRequestStruct {... */\n      mstore(0x40, 0x80)\n      callvalue\n      dup1\n      iszero\n      tag_1\n      jumpi\n      0x00\n      dup1\n      revert\n    tag_1:\n      pop\n      jumpi(tag_2, lt(calldatasize, 0x04))\n      shr(0xe0, calldataload(0x00))\n      dup1\n      0x55a373d6\n      eq\n      tag_3\n      jumpi\n      dup1\n      0x94169656\n      eq\n      tag_4\n      jumpi\n    tag_2:\n      0x00\n      dup1\n      revert\n        /* \"packages/hardhat/contracts/UserRequestStruct.sol\":209:303  TokenContract public tokenContract = TokenContract(0xaE036c65C649172b43ef7156b009c6221B596B8b) */\n    tag_3:\n      tag_5\n      tag_6\n      jump\t// in\n    tag_5:\n      mload(0x40)\n      tag_7\n      swap2\n      swap1\n      tag_8\n      jump\t// in\n    tag_7:\n      mload(0x40)\n      dup1\n      swap2\n      sub\n      swap1\n      return\n        /* \"packages/hardhat/contracts/UserRequestStruct.sol\":668:719  mapping(uint256 => UserRequest) public userRequests */\n    tag_4:\n      tag_9\n      0x04\n      dup1\n      calldatasize\n      sub\n      dup2\n      add\n      swap1\n      tag_10\n      swap2\n      swap1\n      tag_11\n      jump\t// in\n    tag_10:\n      tag_12\n      jump\t// in\n    tag_9:\n      mload(0x40)\n      tag_13\n      swap9\n      swap8\n      swap7\n      swap6\n      swap5\n      swap4\n      swap3\n      swap2\n      swap1\n      tag_14\n      jump\t// in\n    tag_13:\n      mload(0x40)\n      dup1\n      swap2\n      sub\n      swap1\n      return\n        /* \"packages/hardhat/contracts/UserRequestStruct.sol\":209:303  TokenContract public tokenContract = TokenContract(0xaE036c65C649172b43ef7156b009c6221B596B8b) */\n    tag_6:\n      0x00\n      dup1\n      sload\n      swap1\n      0x0100\n      exp\n      swap1\n      div\n      0xffffffffffffffffffffffffffffffffffffffff\n      and\n      dup2\n      jump\t// out\n        /* \"packages/hardhat/contracts/UserRequestStruct.sol\":668:719  mapping(uint256 => UserRequest) public userRequests */\n    tag_12:\n      mstore(0x20, 0x01)\n      dup1\n      0x00\n      mstore\n      keccak256(0x00, 0x40)\n      0x00\n      swap2\n      pop\n      swap1\n      pop\n      dup1\n      0x00\n      add\n      0x00\n      swap1\n      sload\n      swap1\n      0x0100\n      exp\n      swap1\n      div\n      0xffffffffffffffffffffffffffffffffffffffff\n      and\n      swap1\n      dup1\n      0x02\n      add\n      sload\n      swap1\n      dup1\n      0x03\n      add\n      dup1\n      sload\n      tag_15\n      swap1\n      tag_16\n      jump\t// in\n    tag_15:\n      dup1\n      0x1f\n      add\n      0x20\n      dup1\n      swap2\n      div\n      mul\n      0x20\n      add\n      mload(0x40)\n      swap1\n      dup2\n      add\n      0x40\n      mstore\n      dup1\n      swap3\n      swap2\n      swap1\n      dup2\n      dup2\n      mstore\n      0x20\n      add\n      dup3\n      dup1\n      sload\n      tag_17\n      swap1\n      tag_16\n      jump\t// in\n    tag_17:\n      dup1\n      iszero\n      tag_18\n      jumpi\n      dup1\n      0x1f\n      lt\n      tag_19\n      jumpi\n      0x0100\n      dup1\n      dup4\n      sload\n      div\n      mul\n      dup4\n      mstore\n      swap2\n      0x20\n      add\n      swap2\n      jump(tag_18)\n    tag_19:\n      dup3\n      add\n      swap2\n      swap1\n      0x00\n      mstore\n      keccak256(0x00, 0x20)\n      swap1\n    tag_20:\n      dup2\n      sload\n      dup2\n      mstore\n      swap1\n      0x01\n      add\n      swap1\n      0x20\n      add\n      dup1\n      dup4\n      gt\n      tag_20\n      jumpi\n      dup3\n      swap1\n      sub\n      0x1f\n      and\n      dup3\n      add\n      swap2\n    tag_18:\n      pop\n      pop\n      pop\n      pop\n      pop\n      swap1\n      dup1\n      0x04\n      add\n      dup1\n      sload\n      tag_21\n      swap1\n      tag_16\n      jump\t// in\n    tag_21:\n      dup1\n      0x1f\n      add\n      0x20\n      dup1\n      swap2\n      div\n      mul\n      0x20\n      add\n      mload(0x40)\n      swap1\n      dup2\n      add\n      0x40\n      mstore\n      dup1\n      swap3\n      swap2\n      swap1\n      dup2\n      dup2\n      mstore\n      0x20\n      add\n      dup3\n      dup1\n      sload\n      tag_22\n      swap1\n      tag_16\n      jump\t// in\n    tag_22:\n      dup1\n      iszero\n      tag_23\n      jumpi\n      dup1\n      0x1f\n      lt\n      tag_24\n      jumpi\n      0x0100\n      dup1\n      dup4\n      sload\n      div\n      mul\n      dup4\n      mstore\n      swap2\n      0x20\n      add\n      swap2\n      jump(tag_23)\n    tag_24:\n      dup3\n      add\n      swap2\n      swap1\n      0x00\n      mstore\n      keccak256(0x00, 0x20)\n      swap1\n    tag_25:\n      dup2\n      sload\n      dup2\n      mstore\n      swap1\n      0x01\n      add\n      swap1\n      0x20\n      add\n      dup1\n      dup4\n      gt\n      tag_25\n      jumpi\n      dup3\n      swap1\n      sub\n      0x1f\n      and\n      dup3\n      add\n      swap2\n    tag_23:\n      pop\n      pop\n      pop\n      pop\n      pop\n      swap1\n      dup1\n      0x05\n      add\n      dup1\n      sload\n      tag_26\n      swap1\n      tag_16\n      jump\t// in\n    tag_26:\n      dup1\n      0x1f\n      add\n      0x20\n      dup1\n      swap2\n      div\n      mul\n      0x20\n      add\n      mload(0x40)\n      swap1\n      dup2\n      add\n      0x40\n      mstore\n      dup1\n      swap3\n      swap2\n      swap1\n      dup2\n      dup2\n      mstore\n      0x20\n      add\n      dup3\n      dup1\n      sload\n      tag_27\n      swap1\n      tag_16\n      jump\t// in\n    tag_27:\n      dup1\n      iszero\n      tag_28\n      jumpi\n      dup1\n      0x1f\n      lt\n      tag_29\n      jumpi\n      0x0100\n      dup1\n      dup4\n      sload\n      div\n      mul\n      dup4\n      mstore\n      swap2\n      0x20\n      add\n      swap2\n      jump(tag_28)\n    tag_29:\n      dup3\n      add\n      swap2\n      swap1\n      0x00\n      mstore\n      keccak256(0x00, 0x20)\n      swap1\n    tag_30:\n      dup2\n      sload\n      dup2\n      mstore\n      swap1\n      0x01\n      add\n      swap1\n      0x20\n      add\n      dup1\n      dup4\n      gt\n      tag_30\n      jumpi\n      dup3\n      swap1\n      sub\n      0x1f\n      and\n      dup3\n      add\n      swap2\n    tag_28:\n      pop\n      pop\n      pop\n      pop\n      pop\n      swap1\n      dup1\n      0x06\n      add\n      sload\n      swap1\n      dup1\n      0x07\n      add\n      0x00\n      swap1\n      sload\n      swap1\n      0x0100\n      exp\n      swap1\n      div\n      0xff\n      and\n      swap1\n      dup1\n      0x08\n      add\n      sload\n      swap1\n      pop\n      dup9\n      jump\t// out\n        /* \"#utility.yul\":7:133   */\n    tag_31:\n        /* \"#utility.yul\":44:51   */\n      0x00\n        /* \"#utility.yul\":84:126   */\n      0xffffffffffffffffffffffffffffffffffffffff\n        /* \"#utility.yul\":77:82   */\n      dup3\n        /* \"#utility.yul\":73:127   */\n      and\n        /* \"#utility.yul\":62:127   */\n      swap1\n      pop\n        /* \"#utility.yul\":7:133   */\n      swap2\n      swap1\n      pop\n      jump\t// out\n        /* \"#utility.yul\":139:199   */\n    tag_32:\n        /* \"#utility.yul\":167:170   */\n      0x00\n        /* \"#utility.yul\":188:193   */\n      dup2\n        /* \"#utility.yul\":181:193   */\n      swap1\n      pop\n        /* \"#utility.yul\":139:199   */\n      swap2\n      swap1\n      pop\n      jump\t// out\n        /* \"#utility.yul\":205:347   */\n    tag_33:\n        /* \"#utility.yul\":255:264   */\n      0x00\n        /* \"#utility.yul\":288:341   */\n      tag_61\n        /* \"#utility.yul\":306:340   */\n      tag_62\n        /* \"#utility.yul\":315:339   */\n      tag_63\n        /* \"#utility.yul\":333:338   */\n      dup5\n        /* \"#utility.yul\":315:339   */\n      tag_31\n      jump\t// in\n    tag_63:\n        /* \"#utility.yul\":306:340   */\n      tag_32\n      jump\t// in\n    tag_62:\n        /* \"#utility.yul\":288:341   */\n      tag_31\n      jump\t// in\n    tag_61:\n        /* \"#utility.yul\":275:341   */\n      swap1\n      pop\n        /* \"#utility.yul\":205:347   */\n      swap2\n      swap1\n      pop\n      jump\t// out\n        /* \"#utility.yul\":353:479   */\n    tag_34:\n        /* \"#utility.yul\":403:412   */\n      0x00\n        /* \"#utility.yul\":436:473   */\n      tag_65\n        /* \"#utility.yul\":467:472   */\n      dup3\n        /* \"#utility.yul\":436:473   */\n      tag_33\n      jump\t// in\n    tag_65:\n        /* \"#utility.yul\":423:473   */\n      swap1\n      pop\n        /* \"#utility.yul\":353:479   */\n      swap2\n      swap1\n      pop\n      jump\t// out\n        /* \"#utility.yul\":485:632   */\n    tag_35:\n        /* \"#utility.yul\":556:565   */\n      0x00\n        /* \"#utility.yul\":589:626   */\n      tag_67\n        /* \"#utility.yul\":620:625   */\n      dup3\n        /* \"#utility.yul\":589:626   */\n      tag_34\n      jump\t// in\n    tag_67:\n        /* \"#utility.yul\":576:626   */\n      swap1\n      pop\n        /* \"#utility.yul\":485:632   */\n      swap2\n      swap1\n      pop\n      jump\t// out\n        /* \"#utility.yul\":638:811   */\n    tag_36:\n        /* \"#utility.yul\":746:804   */\n      tag_69\n        /* \"#utility.yul\":798:803   */\n      dup2\n        /* \"#utility.yul\":746:804   */\n      tag_35\n      jump\t// in\n    tag_69:\n        /* \"#utility.yul\":741:744   */\n      dup3\n        /* \"#utility.yul\":734:805   */\n      mstore\n        /* \"#utility.yul\":638:811   */\n      pop\n      pop\n      jump\t// out\n        /* \"#utility.yul\":817:1081   */\n    tag_8:\n        /* \"#utility.yul\":931:935   */\n      0x00\n        /* \"#utility.yul\":969:971   */\n      0x20\n        /* \"#utility.yul\":958:967   */\n      dup3\n        /* \"#utility.yul\":954:972   */\n      add\n        /* \"#utility.yul\":946:972   */\n      swap1\n      pop\n        /* \"#utility.yul\":982:1074   */\n      tag_71\n        /* \"#utility.yul\":1071:1072   */\n      0x00\n        /* \"#utility.yul\":1060:1069   */\n      dup4\n        /* \"#utility.yul\":1056:1073   */\n      add\n        /* \"#utility.yul\":1047:1053   */\n      dup5\n        /* \"#utility.yul\":982:1074   */\n      tag_36\n      jump\t// in\n    tag_71:\n        /* \"#utility.yul\":817:1081   */\n      swap3\n      swap2\n      pop\n      pop\n      jump\t// out\n        /* \"#utility.yul\":1168:1285   */\n    tag_38:\n        /* \"#utility.yul\":1277:1278   */\n      0x00\n        /* \"#utility.yul\":1274:1275   */\n      dup1\n        /* \"#utility.yul\":1267:1279   */\n      revert\n        /* \"#utility.yul\":1414:1491   */\n    tag_40:\n        /* \"#utility.yul\":1451:1458   */\n      0x00\n        /* \"#utility.yul\":1480:1485   */\n      dup2\n        /* \"#utility.yul\":1469:1485   */\n      swap1\n      pop\n        /* \"#utility.yul\":1414:1491   */\n      swap2\n      swap1\n      pop\n      jump\t// out\n        /* \"#utility.yul\":1497:1619   */\n    tag_41:\n        /* \"#utility.yul\":1570:1594   */\n      tag_77\n        /* \"#utility.yul\":1588:1593   */\n      dup2\n        /* \"#utility.yul\":1570:1594   */\n      tag_40\n      jump\t// in\n    tag_77:\n        /* \"#utility.yul\":1563:1568   */\n      dup2\n        /* \"#utility.yul\":1560:1595   */\n      eq\n        /* \"#utility.yul\":1550:1613   */\n      tag_78\n      jumpi\n        /* \"#utility.yul\":1609:1610   */\n      0x00\n        /* \"#utility.yul\":1606:1607   */\n      dup1\n        /* \"#utility.yul\":1599:1611   */\n      revert\n        /* \"#utility.yul\":1550:1613   */\n    tag_78:\n        /* \"#utility.yul\":1497:1619   */\n      pop\n      jump\t// out\n        /* \"#utility.yul\":1625:1764   */\n    tag_42:\n        /* \"#utility.yul\":1671:1676   */\n      0x00\n        /* \"#utility.yul\":1709:1715   */\n      dup2\n        /* \"#utility.yul\":1696:1716   */\n      calldataload\n        /* \"#utility.yul\":1687:1716   */\n      swap1\n      pop\n        /* \"#utility.yul\":1725:1758   */\n      tag_80\n        /* \"#utility.yul\":1752:1757   */\n      dup2\n        /* \"#utility.yul\":1725:1758   */\n      tag_41\n      jump\t// in\n    tag_80:\n        /* \"#utility.yul\":1625:1764   */\n      swap3\n      swap2\n      pop\n      pop\n      jump\t// out\n        /* \"#utility.yul\":1770:2099   */\n    tag_11:\n        /* \"#utility.yul\":1829:1835   */\n      0x00\n        /* \"#utility.yul\":1878:1880   */\n      0x20\n        /* \"#utility.yul\":1866:1875   */\n      dup3\n        /* \"#utility.yul\":1857:1864   */\n      dup5\n        /* \"#utility.yul\":1853:1876   */\n      sub\n        /* \"#utility.yul\":1849:1881   */\n      slt\n        /* \"#utility.yul\":1846:1965   */\n      iszero\n      tag_82\n      jumpi\n        /* \"#utility.yul\":1884:1963   */\n      tag_83\n      tag_38\n      jump\t// in\n    tag_83:\n        /* \"#utility.yul\":1846:1965   */\n    tag_82:\n        /* \"#utility.yul\":2004:2005   */\n      0x00\n        /* \"#utility.yul\":2029:2082   */\n      tag_84\n        /* \"#utility.yul\":2074:2081   */\n      dup5\n        /* \"#utility.yul\":2065:2071   */\n      dup3\n        /* \"#utility.yul\":2054:2063   */\n      dup6\n        /* \"#utility.yul\":2050:2072   */\n      add\n        /* \"#utility.yul\":2029:2082   */\n      tag_42\n      jump\t// in\n    tag_84:\n        /* \"#utility.yul\":2019:2082   */\n      swap2\n      pop\n        /* \"#utility.yul\":1975:2092   */\n      pop\n        /* \"#utility.yul\":1770:2099   */\n      swap3\n      swap2\n      pop\n      pop\n      jump\t// out\n        /* \"#utility.yul\":2105:2201   */\n    tag_43:\n        /* \"#utility.yul\":2142:2149   */\n      0x00\n        /* \"#utility.yul\":2171:2195   */\n      tag_86\n        /* \"#utility.yul\":2189:2194   */\n      dup3\n        /* \"#utility.yul\":2171:2195   */\n      tag_31\n      jump\t// in\n    tag_86:\n        /* \"#utility.yul\":2160:2195   */\n      swap1\n      pop\n        /* \"#utility.yul\":2105:2201   */\n      swap2\n      swap1\n      pop\n      jump\t// out\n        /* \"#utility.yul\":2207:2325   */\n    tag_44:\n        /* \"#utility.yul\":2294:2318   */\n      tag_88\n        /* \"#utility.yul\":2312:2317   */\n      dup2\n        /* \"#utility.yul\":2294:2318   */\n      tag_43\n      jump\t// in\n    tag_88:\n        /* \"#utility.yul\":2289:2292   */\n      dup3\n        /* \"#utility.yul\":2282:2319   */\n      mstore\n        /* \"#utility.yul\":2207:2325   */\n      pop\n      pop\n      jump\t// out\n        /* \"#utility.yul\":2331:2449   */\n    tag_45:\n        /* \"#utility.yul\":2418:2442   */\n      tag_90\n        /* \"#utility.yul\":2436:2441   */\n      dup2\n        /* \"#utility.yul\":2418:2442   */\n      tag_40\n      jump\t// in\n    tag_90:\n        /* \"#utility.yul\":2413:2416   */\n      dup3\n        /* \"#utility.yul\":2406:2443   */\n      mstore\n        /* \"#utility.yul\":2331:2449   */\n      pop\n      pop\n      jump\t// out\n        /* \"#utility.yul\":2455:2554   */\n    tag_46:\n        /* \"#utility.yul\":2507:2513   */\n      0x00\n        /* \"#utility.yul\":2541:2546   */\n      dup2\n        /* \"#utility.yul\":2535:2547   */\n      mload\n        /* \"#utility.yul\":2525:2547   */\n      swap1\n      pop\n        /* \"#utility.yul\":2455:2554   */\n      swap2\n      swap1\n      pop\n      jump\t// out\n        /* \"#utility.yul\":2560:2729   */\n    tag_47:\n        /* \"#utility.yul\":2644:2655   */\n      0x00\n        /* \"#utility.yul\":2678:2684   */\n      dup3\n        /* \"#utility.yul\":2673:2676   */\n      dup3\n        /* \"#utility.yul\":2666:2685   */\n      mstore\n        /* \"#utility.yul\":2718:2722   */\n      0x20\n        /* \"#utility.yul\":2713:2716   */\n      dup3\n        /* \"#utility.yul\":2709:2723   */\n      add\n        /* \"#utility.yul\":2694:2723   */\n      swap1\n      pop\n        /* \"#utility.yul\":2560:2729   */\n      swap3\n      swap2\n      pop\n      pop\n      jump\t// out\n        /* \"#utility.yul\":2735:2874   */\n    tag_48:\n        /* \"#utility.yul\":2824:2830   */\n      dup3\n        /* \"#utility.yul\":2819:2822   */\n      dup2\n        /* \"#utility.yul\":2814:2817   */\n      dup4\n        /* \"#utility.yul\":2808:2831   */\n      mcopy\n        /* \"#utility.yul\":2865:2866   */\n      0x00\n        /* \"#utility.yul\":2856:2862   */\n      dup4\n        /* \"#utility.yul\":2851:2854   */\n      dup4\n        /* \"#utility.yul\":2847:2863   */\n      add\n        /* \"#utility.yul\":2840:2867   */\n      mstore\n        /* \"#utility.yul\":2735:2874   */\n      pop\n      pop\n      pop\n      jump\t// out\n        /* \"#utility.yul\":2880:2982   */\n    tag_49:\n        /* \"#utility.yul\":2921:2927   */\n      0x00\n        /* \"#utility.yul\":2972:2974   */\n      0x1f\n        /* \"#utility.yul\":2968:2975   */\n      not\n        /* \"#utility.yul\":2963:2965   */\n      0x1f\n        /* \"#utility.yul\":2956:2961   */\n      dup4\n        /* \"#utility.yul\":2952:2966   */\n      add\n        /* \"#utility.yul\":2948:2976   */\n      and\n        /* \"#utility.yul\":2938:2976   */\n      swap1\n      pop\n        /* \"#utility.yul\":2880:2982   */\n      swap2\n      swap1\n      pop\n      jump\t// out\n        /* \"#utility.yul\":2988:3365   */\n    tag_50:\n        /* \"#utility.yul\":3076:3079   */\n      0x00\n        /* \"#utility.yul\":3104:3143   */\n      tag_96\n        /* \"#utility.yul\":3137:3142   */\n      dup3\n        /* \"#utility.yul\":3104:3143   */\n      tag_46\n      jump\t// in\n    tag_96:\n        /* \"#utility.yul\":3159:3230   */\n      tag_97\n        /* \"#utility.yul\":3223:3229   */\n      dup2\n        /* \"#utility.yul\":3218:3221   */\n      dup6\n        /* \"#utility.yul\":3159:3230   */\n      tag_47\n      jump\t// in\n    tag_97:\n        /* \"#utility.yul\":3152:3230   */\n      swap4\n      pop\n        /* \"#utility.yul\":3239:3304   */\n      tag_98\n        /* \"#utility.yul\":3297:3303   */\n      dup2\n        /* \"#utility.yul\":3292:3295   */\n      dup6\n        /* \"#utility.yul\":3285:3289   */\n      0x20\n        /* \"#utility.yul\":3278:3283   */\n      dup7\n        /* \"#utility.yul\":3274:3290   */\n      add\n        /* \"#utility.yul\":3239:3304   */\n      tag_48\n      jump\t// in\n    tag_98:\n        /* \"#utility.yul\":3329:3358   */\n      tag_99\n        /* \"#utility.yul\":3351:3357   */\n      dup2\n        /* \"#utility.yul\":3329:3358   */\n      tag_49\n      jump\t// in\n    tag_99:\n        /* \"#utility.yul\":3324:3327   */\n      dup5\n        /* \"#utility.yul\":3320:3359   */\n      add\n        /* \"#utility.yul\":3313:3359   */\n      swap2\n      pop\n        /* \"#utility.yul\":3080:3365   */\n      pop\n        /* \"#utility.yul\":2988:3365   */\n      swap3\n      swap2\n      pop\n      pop\n      jump\t// out\n        /* \"#utility.yul\":3371:3551   */\n    tag_51:\n        /* \"#utility.yul\":3419:3496   */\n      0x4e487b7100000000000000000000000000000000000000000000000000000000\n        /* \"#utility.yul\":3416:3417   */\n      0x00\n        /* \"#utility.yul\":3409:3497   */\n      mstore\n        /* \"#utility.yul\":3516:3520   */\n      0x21\n        /* \"#utility.yul\":3513:3514   */\n      0x04\n        /* \"#utility.yul\":3506:3521   */\n      mstore\n        /* \"#utility.yul\":3540:3544   */\n      0x24\n        /* \"#utility.yul\":3537:3538   */\n      0x00\n        /* \"#utility.yul\":3530:3545   */\n      revert\n        /* \"#utility.yul\":3557:3679   */\n    tag_52:\n        /* \"#utility.yul\":3647:3648   */\n      0x04\n        /* \"#utility.yul\":3640:3645   */\n      dup2\n        /* \"#utility.yul\":3637:3649   */\n      lt\n        /* \"#utility.yul\":3627:3673   */\n      tag_102\n      jumpi\n        /* \"#utility.yul\":3653:3671   */\n      tag_103\n      tag_51\n      jump\t// in\n    tag_103:\n        /* \"#utility.yul\":3627:3673   */\n    tag_102:\n        /* \"#utility.yul\":3557:3679   */\n      pop\n      jump\t// out\n        /* \"#utility.yul\":3685:3830   */\n    tag_53:\n        /* \"#utility.yul\":3739:3746   */\n      0x00\n        /* \"#utility.yul\":3768:3773   */\n      dup2\n        /* \"#utility.yul\":3757:3773   */\n      swap1\n      pop\n        /* \"#utility.yul\":3774:3824   */\n      tag_105\n        /* \"#utility.yul\":3818:3823   */\n      dup3\n        /* \"#utility.yul\":3774:3824   */\n      tag_52\n      jump\t// in\n    tag_105:\n        /* \"#utility.yul\":3685:3830   */\n      swap2\n      swap1\n      pop\n      jump\t// out\n        /* \"#utility.yul\":3836:3981   */\n    tag_54:\n        /* \"#utility.yul\":3901:3910   */\n      0x00\n        /* \"#utility.yul\":3934:3975   */\n      tag_107\n        /* \"#utility.yul\":3969:3974   */\n      dup3\n        /* \"#utility.yul\":3934:3975   */\n      tag_53\n      jump\t// in\n    tag_107:\n        /* \"#utility.yul\":3921:3975   */\n      swap1\n      pop\n        /* \"#utility.yul\":3836:3981   */\n      swap2\n      swap1\n      pop\n      jump\t// out\n        /* \"#utility.yul\":3987:4148   */\n    tag_55:\n        /* \"#utility.yul\":4089:4141   */\n      tag_109\n        /* \"#utility.yul\":4135:4140   */\n      dup2\n        /* \"#utility.yul\":4089:4141   */\n      tag_54\n      jump\t// in\n    tag_109:\n        /* \"#utility.yul\":4084:4087   */\n      dup3\n        /* \"#utility.yul\":4077:4142   */\n      mstore\n        /* \"#utility.yul\":3987:4148   */\n      pop\n      pop\n      jump\t// out\n        /* \"#utility.yul\":4154:5454   */\n    tag_14:\n        /* \"#utility.yul\":4518:4522   */\n      0x00\n        /* \"#utility.yul\":4556:4559   */\n      0x0100\n        /* \"#utility.yul\":4545:4554   */\n      dup3\n        /* \"#utility.yul\":4541:4560   */\n      add\n        /* \"#utility.yul\":4533:4560   */\n      swap1\n      pop\n        /* \"#utility.yul\":4570:4641   */\n      tag_111\n        /* \"#utility.yul\":4638:4639   */\n      0x00\n        /* \"#utility.yul\":4627:4636   */\n      dup4\n        /* \"#utility.yul\":4623:4640   */\n      add\n        /* \"#utility.yul\":4614:4620   */\n      dup12\n        /* \"#utility.yul\":4570:4641   */\n      tag_44\n      jump\t// in\n    tag_111:\n        /* \"#utility.yul\":4651:4723   */\n      tag_112\n        /* \"#utility.yul\":4719:4721   */\n      0x20\n        /* \"#utility.yul\":4708:4717   */\n      dup4\n        /* \"#utility.yul\":4704:4722   */\n      add\n        /* \"#utility.yul\":4695:4701   */\n      dup11\n        /* \"#utility.yul\":4651:4723   */\n      tag_45\n      jump\t// in\n    tag_112:\n        /* \"#utility.yul\":4770:4779   */\n      dup2\n        /* \"#utility.yul\":4764:4768   */\n      dup2\n        /* \"#utility.yul\":4760:4780   */\n      sub\n        /* \"#utility.yul\":4755:4757   */\n      0x40\n        /* \"#utility.yul\":4744:4753   */\n      dup4\n        /* \"#utility.yul\":4740:4758   */\n      add\n        /* \"#utility.yul\":4733:4781   */\n      mstore\n        /* \"#utility.yul\":4798:4876   */\n      tag_113\n        /* \"#utility.yul\":4871:4875   */\n      dup2\n        /* \"#utility.yul\":4862:4868   */\n      dup10\n        /* \"#utility.yul\":4798:4876   */\n      tag_50\n      jump\t// in\n    tag_113:\n        /* \"#utility.yul\":4790:4876   */\n      swap1\n      pop\n        /* \"#utility.yul\":4923:4932   */\n      dup2\n        /* \"#utility.yul\":4917:4921   */\n      dup2\n        /* \"#utility.yul\":4913:4933   */\n      sub\n        /* \"#utility.yul\":4908:4910   */\n      0x60\n        /* \"#utility.yul\":4897:4906   */\n      dup4\n        /* \"#utility.yul\":4893:4911   */\n      add\n        /* \"#utility.yul\":4886:4934   */\n      mstore\n        /* \"#utility.yul\":4951:5029   */\n      tag_114\n        /* \"#utility.yul\":5024:5028   */\n      dup2\n        /* \"#utility.yul\":5015:5021   */\n      dup9\n        /* \"#utility.yul\":4951:5029   */\n      tag_50\n      jump\t// in\n    tag_114:\n        /* \"#utility.yul\":4943:5029   */\n      swap1\n      pop\n        /* \"#utility.yul\":5077:5086   */\n      dup2\n        /* \"#utility.yul\":5071:5075   */\n      dup2\n        /* \"#utility.yul\":5067:5087   */\n      sub\n        /* \"#utility.yul\":5061:5064   */\n      0x80\n        /* \"#utility.yul\":5050:5059   */\n      dup4\n        /* \"#utility.yul\":5046:5065   */\n      add\n        /* \"#utility.yul\":5039:5088   */\n      mstore\n        /* \"#utility.yul\":5105:5183   */\n      tag_115\n        /* \"#utility.yul\":5178:5182   */\n      dup2\n        /* \"#utility.yul\":5169:5175   */\n      dup8\n        /* \"#utility.yul\":5105:5183   */\n      tag_50\n      jump\t// in\n    tag_115:\n        /* \"#utility.yul\":5097:5183   */\n      swap1\n      pop\n        /* \"#utility.yul\":5193:5266   */\n      tag_116\n        /* \"#utility.yul\":5261:5264   */\n      0xa0\n        /* \"#utility.yul\":5250:5259   */\n      dup4\n        /* \"#utility.yul\":5246:5265   */\n      add\n        /* \"#utility.yul\":5237:5243   */\n      dup7\n        /* \"#utility.yul\":5193:5266   */\n      tag_45\n      jump\t// in\n    tag_116:\n        /* \"#utility.yul\":5276:5364   */\n      tag_117\n        /* \"#utility.yul\":5359:5362   */\n      0xc0\n        /* \"#utility.yul\":5348:5357   */\n      dup4\n        /* \"#utility.yul\":5344:5363   */\n      add\n        /* \"#utility.yul\":5335:5341   */\n      dup6\n        /* \"#utility.yul\":5276:5364   */\n      tag_55\n      jump\t// in\n    tag_117:\n        /* \"#utility.yul\":5374:5447   */\n      tag_118\n        /* \"#utility.yul\":5442:5445   */\n      0xe0\n        /* \"#utility.yul\":5431:5440   */\n      dup4\n        /* \"#utility.yul\":5427:5446   */\n      add\n        /* \"#utility.yul\":5418:5424   */\n      dup5\n        /* \"#utility.yul\":5374:5447   */\n      tag_45\n      jump\t// in\n    tag_118:\n        /* \"#utility.yul\":4154:5454   */\n      swap10\n      swap9\n      pop\n      pop\n      pop\n      pop\n      pop\n      pop\n      pop\n      pop\n      pop\n      jump\t// out\n        /* \"#utility.yul\":5460:5640   */\n    tag_56:\n        /* \"#utility.yul\":5508:5585   */\n      0x4e487b7100000000000000000000000000000000000000000000000000000000\n        /* \"#utility.yul\":5505:5506   */\n      0x00\n        /* \"#utility.yul\":5498:5586   */\n      mstore\n        /* \"#utility.yul\":5605:5609   */\n      0x22\n        /* \"#utility.yul\":5602:5603   */\n      0x04\n        /* \"#utility.yul\":5595:5610   */\n      mstore\n        /* \"#utility.yul\":5629:5633   */\n      0x24\n        /* \"#utility.yul\":5626:5627   */\n      0x00\n        /* \"#utility.yul\":5619:5634   */\n      revert\n        /* \"#utility.yul\":5646:5966   */\n    tag_16:\n        /* \"#utility.yul\":5690:5696   */\n      0x00\n        /* \"#utility.yul\":5727:5728   */\n      0x02\n        /* \"#utility.yul\":5721:5725   */\n      dup3\n        /* \"#utility.yul\":5717:5729   */\n      div\n        /* \"#utility.yul\":5707:5729   */\n      swap1\n      pop\n        /* \"#utility.yul\":5774:5775   */\n      0x01\n        /* \"#utility.yul\":5768:5772   */\n      dup3\n        /* \"#utility.yul\":5764:5776   */\n      and\n        /* \"#utility.yul\":5795:5813   */\n      dup1\n        /* \"#utility.yul\":5785:5866   */\n      tag_121\n      jumpi\n        /* \"#utility.yul\":5851:5855   */\n      0x7f\n        /* \"#utility.yul\":5843:5849   */\n      dup3\n        /* \"#utility.yul\":5839:5856   */\n      and\n        /* \"#utility.yul\":5829:5856   */\n      swap2\n      pop\n        /* \"#utility.yul\":5785:5866   */\n    tag_121:\n        /* \"#utility.yul\":5913:5915   */\n      0x20\n        /* \"#utility.yul\":5905:5911   */\n      dup3\n        /* \"#utility.yul\":5902:5916   */\n      lt\n        /* \"#utility.yul\":5882:5900   */\n      dup2\n        /* \"#utility.yul\":5879:5917   */\n      sub\n        /* \"#utility.yul\":5876:5960   */\n      tag_122\n      jumpi\n        /* \"#utility.yul\":5932:5950   */\n      tag_123\n      tag_56\n      jump\t// in\n    tag_123:\n        /* \"#utility.yul\":5876:5960   */\n    tag_122:\n        /* \"#utility.yul\":5697:5966   */\n      pop\n        /* \"#utility.yul\":5646:5966   */\n      swap2\n      swap1\n      pop\n      jump\t// out\n\n    auxdata: 0xa2646970667358221220a73074285652b02581840095bfdc4c2c9f2bb2369727a164f06a2b07d4a0d67c64736f6c63430008190033\n}\n",
				"bytecode": {
					"linkReferences": {},
					"object": "608060405273ae036c65c649172b43ef7156b009c6221b596b8b5f806101000a81548173ffffffffffffffffffffffffffffffffffffffff021916908373ffffffffffffffffffffffffffffffffffffffff1602179055503480156061575f80fd5b506105dc8061006f5f395ff3fe608060405234801561000f575f80fd5b5060043610610034575f3560e01c806355a373d6146100385780639416965614610056575b5f80fd5b61004061008d565b60405161004d919061032b565b60405180910390f35b610070600480360381019061006b919061037b565b6100b0565b6040516100849897969594939291906104b8565b60405180910390f35b5f8054906101000a900473ffffffffffffffffffffffffffffffffffffffff1681565b6001602052805f5260405f205f91509050805f015f9054906101000a900473ffffffffffffffffffffffffffffffffffffffff16908060020154908060030180546100fa90610576565b80601f016020809104026020016040519081016040528092919081815260200182805461012690610576565b80156101715780601f1061014857610100808354040283529160200191610171565b820191905f5260205f20905b81548152906001019060200180831161015457829003601f168201915b50505050509080600401805461018690610576565b80601f01602080910402602001604051908101604052809291908181526020018280546101b290610576565b80156101fd5780601f106101d4576101008083540402835291602001916101fd565b820191905f5260205f20905b8154815290600101906020018083116101e057829003601f168201915b50505050509080600501805461021290610576565b80601f016020809104026020016040519081016040528092919081815260200182805461023e90610576565b80156102895780601f1061026057610100808354040283529160200191610289565b820191905f5260205f20905b81548152906001019060200180831161026c57829003601f168201915b505050505090806006015490806007015f9054906101000a900460ff16908060080154905088565b5f73ffffffffffffffffffffffffffffffffffffffff82169050919050565b5f819050919050565b5f6102f36102ee6102e9846102b1565b6102d0565b6102b1565b9050919050565b5f610304826102d9565b9050919050565b5f610315826102fa565b9050919050565b6103258161030b565b82525050565b5f60208201905061033e5f83018461031c565b92915050565b5f80fd5b5f819050919050565b61035a81610348565b8114610364575f80fd5b50565b5f8135905061037581610351565b92915050565b5f602082840312156103905761038f610344565b5b5f61039d84828501610367565b91505092915050565b5f6103b0826102b1565b9050919050565b6103c0816103a6565b82525050565b6103cf81610348565b82525050565b5f81519050919050565b5f82825260208201905092915050565b8281835e5f83830152505050565b5f601f19601f8301169050919050565b5f610417826103d5565b61042181856103df565b93506104318185602086016103ef565b61043a816103fd565b840191505092915050565b7f4e487b71000000000000000000000000000000000000000000000000000000005f52602160045260245ffd5b6004811061048357610482610445565b5b50565b5f81905061049382610472565b919050565b5f6104a282610486565b9050919050565b6104b281610498565b82525050565b5f610100820190506104cc5f83018b6103b7565b6104d9602083018a6103c6565b81810360408301526104eb818961040d565b905081810360608301526104ff818861040d565b90508181036080830152610513818761040d565b905061052260a08301866103c6565b61052f60c08301856104a9565b61053c60e08301846103c6565b9998505050505050505050565b7f4e487b71000000000000000000000000000000000000000000000000000000005f52602260045260245ffd5b5f600282049050600182168061058d57607f821691505b6020821081036105a05761059f610549565b5b5091905056fea2646970667358221220a73074285652b02581840095bfdc4c2c9f2bb2369727a164f06a2b07d4a0d67c64736f6c63430008190033",
					"opcodes": "PUSH1 0x80 PUSH1 0x40 MSTORE PUSH20 0xAE036C65C649172B43EF7156B009C6221B596B8B PUSH0 DUP1 PUSH2 0x100 EXP DUP2 SLOAD DUP2 PUSH20 0xFFFFFFFFFFFFFFFFFFFFFFFFFFFFFFFFFFFFFFFF MUL NOT AND SWAP1 DUP4 PUSH20 0xFFFFFFFFFFFFFFFFFFFFFFFFFFFFFFFFFFFFFFFF AND MUL OR SWAP1 SSTORE POP CALLVALUE DUP1 ISZERO PUSH1 0x61 JUMPI PUSH0 DUP1 REVERT JUMPDEST POP PUSH2 0x5DC DUP1 PUSH2 0x6F PUSH0 CODECOPY PUSH0 RETURN INVALID PUSH1 0x80 PUSH1 0x40 MSTORE CALLVALUE DUP1 ISZERO PUSH2 0xF JUMPI PUSH0 DUP1 REVERT JUMPDEST POP PUSH1 0x4 CALLDATASIZE LT PUSH2 0x34 JUMPI PUSH0 CALLDATALOAD PUSH1 0xE0 SHR DUP1 PUSH4 0x55A373D6 EQ PUSH2 0x38 JUMPI DUP1 PUSH4 0x94169656 EQ PUSH2 0x56 JUMPI JUMPDEST PUSH0 DUP1 REVERT JUMPDEST PUSH2 0x40 PUSH2 0x8D JUMP JUMPDEST PUSH1 0x40 MLOAD PUSH2 0x4D SWAP2 SWAP1 PUSH2 0x32B JUMP JUMPDEST PUSH1 0x40 MLOAD DUP1 SWAP2 SUB SWAP1 RETURN JUMPDEST PUSH2 0x70 PUSH1 0x4 DUP1 CALLDATASIZE SUB DUP2 ADD SWAP1 PUSH2 0x6B SWAP2 SWAP1 PUSH2 0x37B JUMP JUMPDEST PUSH2 0xB0 JUMP JUMPDEST PUSH1 0x40 MLOAD PUSH2 0x84 SWAP9 SWAP8 SWAP7 SWAP6 SWAP5 SWAP4 SWAP3 SWAP2 SWAP1 PUSH2 0x4B8 JUMP JUMPDEST PUSH1 0x40 MLOAD DUP1 SWAP2 SUB SWAP1 RETURN JUMPDEST PUSH0 DUP1 SLOAD SWAP1 PUSH2 0x100 EXP SWAP1 DIV PUSH20 0xFFFFFFFFFFFFFFFFFFFFFFFFFFFFFFFFFFFFFFFF AND DUP2 JUMP JUMPDEST PUSH1 0x1 PUSH1 0x20 MSTORE DUP1 PUSH0 MSTORE PUSH1 0x40 PUSH0 KECCAK256 PUSH0 SWAP2 POP SWAP1 POP DUP1 PUSH0 ADD PUSH0 SWAP1 SLOAD SWAP1 PUSH2 0x100 EXP SWAP1 DIV PUSH20 0xFFFFFFFFFFFFFFFFFFFFFFFFFFFFFFFFFFFFFFFF AND SWAP1 DUP1 PUSH1 0x2 ADD SLOAD SWAP1 DUP1 PUSH1 0x3 ADD DUP1 SLOAD PUSH2 0xFA SWAP1 PUSH2 0x576 JUMP JUMPDEST DUP1 PUSH1 0x1F ADD PUSH1 0x20 DUP1 SWAP2 DIV MUL PUSH1 0x20 ADD PUSH1 0x40 MLOAD SWAP1 DUP2 ADD PUSH1 0x40 MSTORE DUP1 SWAP3 SWAP2 SWAP1 DUP2 DUP2 MSTORE PUSH1 0x20 ADD DUP3 DUP1 SLOAD PUSH2 0x126 SWAP1 PUSH2 0x576 JUMP JUMPDEST DUP1 ISZERO PUSH2 0x171 JUMPI DUP1 PUSH1 0x1F LT PUSH2 0x148 JUMPI PUSH2 0x100 DUP1 DUP4 SLOAD DIV MUL DUP4 MSTORE SWAP2 PUSH1 0x20 ADD SWAP2 PUSH2 0x171 JUMP JUMPDEST DUP3 ADD SWAP2 SWAP1 PUSH0 MSTORE PUSH1 0x20 PUSH0 KECCAK256 SWAP1 JUMPDEST DUP2 SLOAD DUP2 MSTORE SWAP1 PUSH1 0x1 ADD SWAP1 PUSH1 0x20 ADD DUP1 DUP4 GT PUSH2 0x154 JUMPI DUP3 SWAP1 SUB PUSH1 0x1F AND DUP3 ADD SWAP2 JUMPDEST POP POP POP POP POP SWAP1 DUP1 PUSH1 0x4 ADD DUP1 SLOAD PUSH2 0x186 SWAP1 PUSH2 0x576 JUMP JUMPDEST DUP1 PUSH1 0x1F ADD PUSH1 0x20 DUP1 SWAP2 DIV MUL PUSH1 0x20 ADD PUSH1 0x40 MLOAD SWAP1 DUP2 ADD PUSH1 0x40 MSTORE DUP1 SWAP3 SWAP2 SWAP1 DUP2 DUP2 MSTORE PUSH1 0x20 ADD DUP3 DUP1 SLOAD PUSH2 0x1B2 SWAP1 PUSH2 0x576 JUMP JUMPDEST DUP1 ISZERO PUSH2 0x1FD JUMPI DUP1 PUSH1 0x1F LT PUSH2 0x1D4 JUMPI PUSH2 0x100 DUP1 DUP4 SLOAD DIV MUL DUP4 MSTORE SWAP2 PUSH1 0x20 ADD SWAP2 PUSH2 0x1FD JUMP JUMPDEST DUP3 ADD SWAP2 SWAP1 PUSH0 MSTORE PUSH1 0x20 PUSH0 KECCAK256 SWAP1 JUMPDEST DUP2 SLOAD DUP2 MSTORE SWAP1 PUSH1 0x1 ADD SWAP1 PUSH1 0x20 ADD DUP1 DUP4 GT PUSH2 0x1E0 JUMPI DUP3 SWAP1 SUB PUSH1 0x1F AND DUP3 ADD SWAP2 JUMPDEST POP POP POP POP POP SWAP1 DUP1 PUSH1 0x5 ADD DUP1 SLOAD PUSH2 0x212 SWAP1 PUSH2 0x576 JUMP JUMPDEST DUP1 PUSH1 0x1F ADD PUSH1 0x20 DUP1 SWAP2 DIV MUL PUSH1 0x20 ADD PUSH1 0x40 MLOAD SWAP1 DUP2 ADD PUSH1 0x40 MSTORE DUP1 SWAP3 SWAP2 SWAP1 DUP2 DUP2 MSTORE PUSH1 0x20 ADD DUP3 DUP1 SLOAD PUSH2 0x23E SWAP1 PUSH2 0x576 JUMP JUMPDEST DUP1 ISZERO PUSH2 0x289 JUMPI DUP1 PUSH1 0x1F LT PUSH2 0x260 JUMPI PUSH2 0x100 DUP1 DUP4 SLOAD DIV MUL DUP4 MSTORE SWAP2 PUSH1 0x20 ADD SWAP2 PUSH2 0x289 JUMP JUMPDEST DUP3 ADD SWAP2 SWAP1 PUSH0 MSTORE PUSH1 0x20 PUSH0 KECCAK256 SWAP1 JUMPDEST DUP2 SLOAD DUP2 MSTORE SWAP1 PUSH1 0x1 ADD SWAP1 PUSH1 0x20 ADD DUP1 DUP4 GT PUSH2 0x26C JUMPI DUP3 SWAP1 SUB PUSH1 0x1F AND DUP3 ADD SWAP2 JUMPDEST POP POP POP POP POP SWAP1 DUP1 PUSH1 0x6 ADD SLOAD SWAP1 DUP1 PUSH1 0x7 ADD PUSH0 SWAP1 SLOAD SWAP1 PUSH2 0x100 EXP SWAP1 DIV PUSH1 0xFF AND SWAP1 DUP1 PUSH1 0x8 ADD SLOAD SWAP1 POP DUP9 JUMP JUMPDEST PUSH0 PUSH20 0xFFFFFFFFFFFFFFFFFFFFFFFFFFFFFFFFFFFFFFFF DUP3 AND SWAP1 POP SWAP2 SWAP1 POP JUMP JUMPDEST PUSH0 DUP2 SWAP1 POP SWAP2 SWAP1 POP JUMP JUMPDEST PUSH0 PUSH2 0x2F3 PUSH2 0x2EE PUSH2 0x2E9 DUP5 PUSH2 0x2B1 JUMP JUMPDEST PUSH2 0x2D0 JUMP JUMPDEST PUSH2 0x2B1 JUMP JUMPDEST SWAP1 POP SWAP2 SWAP1 POP JUMP JUMPDEST PUSH0 PUSH2 0x304 DUP3 PUSH2 0x2D9 JUMP JUMPDEST SWAP1 POP SWAP2 SWAP1 POP JUMP JUMPDEST PUSH0 PUSH2 0x315 DUP3 PUSH2 0x2FA JUMP JUMPDEST SWAP1 POP SWAP2 SWAP1 POP JUMP JUMPDEST PUSH2 0x325 DUP2 PUSH2 0x30B JUMP JUMPDEST DUP3 MSTORE POP POP JUMP JUMPDEST PUSH0 PUSH1 0x20 DUP3 ADD SWAP1 POP PUSH2 0x33E PUSH0 DUP4 ADD DUP5 PUSH2 0x31C JUMP JUMPDEST SWAP3 SWAP2 POP POP JUMP JUMPDEST PUSH0 DUP1 REVERT JUMPDEST PUSH0 DUP2 SWAP1 POP SWAP2 SWAP1 POP JUMP JUMPDEST PUSH2 0x35A DUP2 PUSH2 0x348 JUMP JUMPDEST DUP2 EQ PUSH2 0x364 JUMPI PUSH0 DUP1 REVERT JUMPDEST POP JUMP JUMPDEST PUSH0 DUP2 CALLDATALOAD SWAP1 POP PUSH2 0x375 DUP2 PUSH2 0x351 JUMP JUMPDEST SWAP3 SWAP2 POP POP JUMP JUMPDEST PUSH0 PUSH1 0x20 DUP3 DUP5 SUB SLT ISZERO PUSH2 0x390 JUMPI PUSH2 0x38F PUSH2 0x344 JUMP JUMPDEST JUMPDEST PUSH0 PUSH2 0x39D DUP5 DUP3 DUP6 ADD PUSH2 0x367 JUMP JUMPDEST SWAP2 POP POP SWAP3 SWAP2 POP POP JUMP JUMPDEST PUSH0 PUSH2 0x3B0 DUP3 PUSH2 0x2B1 JUMP JUMPDEST SWAP1 POP SWAP2 SWAP1 POP JUMP JUMPDEST PUSH2 0x3C0 DUP2 PUSH2 0x3A6 JUMP JUMPDEST DUP3 MSTORE POP POP JUMP JUMPDEST PUSH2 0x3CF DUP2 PUSH2 0x348 JUMP JUMPDEST DUP3 MSTORE POP POP JUMP JUMPDEST PUSH0 DUP2 MLOAD SWAP1 POP SWAP2 SWAP1 POP JUMP JUMPDEST PUSH0 DUP3 DUP3 MSTORE PUSH1 0x20 DUP3 ADD SWAP1 POP SWAP3 SWAP2 POP POP JUMP JUMPDEST DUP3 DUP2 DUP4 MCOPY PUSH0 DUP4 DUP4 ADD MSTORE POP POP POP JUMP JUMPDEST PUSH0 PUSH1 0x1F NOT PUSH1 0x1F DUP4 ADD AND SWAP1 POP SWAP2 SWAP1 POP JUMP JUMPDEST PUSH0 PUSH2 0x417 DUP3 PUSH2 0x3D5 JUMP JUMPDEST PUSH2 0x421 DUP2 DUP6 PUSH2 0x3DF JUMP JUMPDEST SWAP4 POP PUSH2 0x431 DUP2 DUP6 PUSH1 0x20 DUP7 ADD PUSH2 0x3EF JUMP JUMPDEST PUSH2 0x43A DUP2 PUSH2 0x3FD JUMP JUMPDEST DUP5 ADD SWAP2 POP POP SWAP3 SWAP2 POP POP JUMP JUMPDEST PUSH32 0x4E487B7100000000000000000000000000000000000000000000000000000000 PUSH0 MSTORE PUSH1 0x21 PUSH1 0x4 MSTORE PUSH1 0x24 PUSH0 REVERT JUMPDEST PUSH1 0x4 DUP2 LT PUSH2 0x483 JUMPI PUSH2 0x482 PUSH2 0x445 JUMP JUMPDEST JUMPDEST POP JUMP JUMPDEST PUSH0 DUP2 SWAP1 POP PUSH2 0x493 DUP3 PUSH2 0x472 JUMP JUMPDEST SWAP2 SWAP1 POP JUMP JUMPDEST PUSH0 PUSH2 0x4A2 DUP3 PUSH2 0x486 JUMP JUMPDEST SWAP1 POP SWAP2 SWAP1 POP JUMP JUMPDEST PUSH2 0x4B2 DUP2 PUSH2 0x498 JUMP JUMPDEST DUP3 MSTORE POP POP JUMP JUMPDEST PUSH0 PUSH2 0x100 DUP3 ADD SWAP1 POP PUSH2 0x4CC PUSH0 DUP4 ADD DUP12 PUSH2 0x3B7 JUMP JUMPDEST PUSH2 0x4D9 PUSH1 0x20 DUP4 ADD DUP11 PUSH2 0x3C6 JUMP JUMPDEST DUP2 DUP2 SUB PUSH1 0x40 DUP4 ADD MSTORE PUSH2 0x4EB DUP2 DUP10 PUSH2 0x40D JUMP JUMPDEST SWAP1 POP DUP2 DUP2 SUB PUSH1 0x60 DUP4 ADD MSTORE PUSH2 0x4FF DUP2 DUP9 PUSH2 0x40D JUMP JUMPDEST SWAP1 POP DUP2 DUP2 SUB PUSH1 0x80 DUP4 ADD MSTORE PUSH2 0x513 DUP2 DUP8 PUSH2 0x40D JUMP JUMPDEST SWAP1 POP PUSH2 0x522 PUSH1 0xA0 DUP4 ADD DUP7 PUSH2 0x3C6 JUMP JUMPDEST PUSH2 0x52F PUSH1 0xC0 DUP4 ADD DUP6 PUSH2 0x4A9 JUMP JUMPDEST PUSH2 0x53C PUSH1 0xE0 DUP4 ADD DUP5 PUSH2 0x3C6 JUMP JUMPDEST SWAP10 SWAP9 POP POP POP POP POP POP POP POP POP JUMP JUMPDEST PUSH32 0x4E487B7100000000000000000000000000000000000000000000000000000000 PUSH0 MSTORE PUSH1 0x22 PUSH1 0x4 MSTORE PUSH1 0x24 PUSH0 REVERT JUMPDEST PUSH0 PUSH1 0x2 DUP3 DIV SWAP1 POP PUSH1 0x1 DUP3 AND DUP1 PUSH2 0x58D JUMPI PUSH1 0x7F DUP3 AND SWAP2 POP JUMPDEST PUSH1 0x20 DUP3 LT DUP2 SUB PUSH2 0x5A0 JUMPI PUSH2 0x59F PUSH2 0x549 JUMP JUMPDEST JUMPDEST POP SWAP2 SWAP1 POP JUMP INVALID LOG2 PUSH5 0x6970667358 0x22 SLT KECCAK256 0xA7 ADDRESS PUSH21 0x285652B02581840095BFDC4C2C9F2BB2369727A164 CREATE PUSH11 0x2B07D4A0D67C64736F6C63 NUMBER STOP ADDMOD NOT STOP CALLER "
				},
				"gasEstimates": {
					"creation": {
						"codeDepositCost": "300000",
						"executionCost": "24601",
						"totalCost": "324601"
					},
					"external": {
						"tokenContract()": "infinite",
						"userRequests(uint256)": "infinite"
					}
				},
				"methodIdentifiers": {
					"tokenContract()": "55a373d6",
					"userRequests(uint256)": "94169656"
				}
			},
			"storageLayout": {
				"storage": [
					{
						"astId": 899,
						"contract": "packages/hardhat/contracts/UserRequestStruct.sol:UserRequestStruct",
						"label": "tokenContract",
						"offset": 0,
						"slot": "0",
						"type": "t_contract(TokenContract)885"
					},
					{
						"astId": 925,
						"contract": "packages/hardhat/contracts/UserRequestStruct.sol:UserRequestStruct",
						"label": "userRequests",
						"offset": 0,
						"slot": "1",
						"type": "t_mapping(t_uint256,t_struct(UserRequest)920_storage)"
					}
				],
				"types": {
					"t_address": {
						"encoding": "inplace",
						"label": "address",
						"numberOfBytes": "20"
					},
					"t_array(t_address)dyn_storage": {
						"base": "t_address",
						"encoding": "dynamic_array",
						"label": "address[]",
						"numberOfBytes": "32"
					},
					"t_contract(TokenContract)885": {
						"encoding": "inplace",
						"label": "contract TokenContract",
						"numberOfBytes": "20"
					},
					"t_enum(RequestStatus)893": {
						"encoding": "inplace",
						"label": "enum UserRequestStruct.RequestStatus",
						"numberOfBytes": "1"
					},
					"t_mapping(t_uint256,t_struct(UserRequest)920_storage)": {
						"encoding": "mapping",
						"key": "t_uint256",
						"label": "mapping(uint256 => struct UserRequestStruct.UserRequest)",
						"numberOfBytes": "32",
						"value": "t_struct(UserRequest)920_storage"
					},
					"t_string_storage": {
						"encoding": "bytes",
						"label": "string",
						"numberOfBytes": "32"
					},
					"t_struct(UserRequest)920_storage": {
						"encoding": "inplace",
						"label": "struct UserRequestStruct.UserRequest",
						"members": [
							{
								"astId": 901,
								"contract": "packages/hardhat/contracts/UserRequestStruct.sol:UserRequestStruct",
								"label": "user",
								"offset": 0,
								"slot": "0",
								"type": "t_address"
							},
							{
								"astId": 904,
								"contract": "packages/hardhat/contracts/UserRequestStruct.sol:UserRequestStruct",
								"label": "vouched",
								"offset": 0,
								"slot": "1",
								"type": "t_array(t_address)dyn_storage"
							},
							{
								"astId": 906,
								"contract": "packages/hardhat/contracts/UserRequestStruct.sol:UserRequestStruct",
								"label": "vouchedCount",
								"offset": 0,
								"slot": "2",
								"type": "t_uint256"
							},
							{
								"astId": 908,
								"contract": "packages/hardhat/contracts/UserRequestStruct.sol:UserRequestStruct",
								"label": "skill",
								"offset": 0,
								"slot": "3",
								"type": "t_string_storage"
							},
							{
								"astId": 910,
								"contract": "packages/hardhat/contracts/UserRequestStruct.sol:UserRequestStruct",
								"label": "project",
								"offset": 0,
								"slot": "4",
								"type": "t_string_storage"
							},
							{
								"astId": 912,
								"contract": "packages/hardhat/contracts/UserRequestStruct.sol:UserRequestStruct",
								"label": "experience",
								"offset": 0,
								"slot": "5",
								"type": "t_string_storage"
							},
							{
								"astId": 914,
								"contract": "packages/hardhat/contracts/UserRequestStruct.sol:UserRequestStruct",
								"label": "stakeAmountByUser",
								"offset": 0,
								"slot": "6",
								"type": "t_uint256"
							},
							{
								"astId": 917,
								"contract": "packages/hardhat/contracts/UserRequestStruct.sol:UserRequestStruct",
								"label": "status",
								"offset": 0,
								"slot": "7",
								"type": "t_enum(RequestStatus)893"
							},
							{
								"astId": 919,
								"contract": "packages/hardhat/contracts/UserRequestStruct.sol:UserRequestStruct",
								"label": "creationTime",
								"offset": 0,
								"slot": "8",
								"type": "t_uint256"
							}
						],
						"numberOfBytes": "288"
					},
					"t_uint256": {
						"encoding": "inplace",
						"label": "uint256",
						"numberOfBytes": "32"
					}
				}
			},
			"userdoc": {
				"kind": "user",
				"methods": {},
				"version": 1
			}
		}
	}
}