{
  "_format": "hh-sol-artifact-1",
  "contractName": "SkillVouchNFT",
  "sourceName": "contracts/SkillVouchNFT.sol",
  "abi": [
    {
      "inputs": [],
      "stateMutability": "nonpayable",
      "type": "constructor"
    },
    {
      "inputs": [
        {
          "internalType": "address",
          "name": "sender",
          "type": "address"
        },
        {
          "internalType": "uint256",
          "name": "tokenId",
          "type": "uint256"
        },
        {
          "internalType": "address",
          "name": "owner",
          "type": "address"
        }
      ],
      "name": "ERC721IncorrectOwner",
      "type": "error"
    },
    {
      "inputs": [
        {
          "internalType": "address",
          "name": "operator",
          "type": "address"
        },
        {
          "internalType": "uint256",
          "name": "tokenId",
          "type": "uint256"
        }
      ],
      "name": "ERC721InsufficientApproval",
      "type": "error"
    },
    {
      "inputs": [
        {
          "internalType": "address",
          "name": "approver",
          "type": "address"
        }
      ],
      "name": "ERC721InvalidApprover",
      "type": "error"
    },
    {
      "inputs": [
        {
          "internalType": "address",
          "name": "operator",
          "type": "address"
        }
      ],
      "name": "ERC721InvalidOperator",
      "type": "error"
    },
    {
      "inputs": [
        {
          "internalType": "address",
          "name": "owner",
          "type": "address"
        }
      ],
      "name": "ERC721InvalidOwner",
      "type": "error"
    },
    {
      "inputs": [
        {
          "internalType": "address",
          "name": "receiver",
          "type": "address"
        }
      ],
      "name": "ERC721InvalidReceiver",
      "type": "error"
    },
    {
      "inputs": [
        {
          "internalType": "address",
          "name": "sender",
          "type": "address"
        }
      ],
      "name": "ERC721InvalidSender",
      "type": "error"
    },
    {
      "inputs": [
        {
          "internalType": "uint256",
          "name": "tokenId",
          "type": "uint256"
        }
      ],
      "name": "ERC721NonexistentToken",
      "type": "error"
    },
    {
      "anonymous": false,
      "inputs": [
        {
          "indexed": true,
          "internalType": "address",
          "name": "owner",
          "type": "address"
        },
        {
          "indexed": true,
          "internalType": "address",
          "name": "approved",
          "type": "address"
        },
        {
          "indexed": true,
          "internalType": "uint256",
          "name": "tokenId",
          "type": "uint256"
        }
      ],
      "name": "Approval",
      "type": "event"
    },
    {
      "anonymous": false,
      "inputs": [
        {
          "indexed": true,
          "internalType": "address",
          "name": "owner",
          "type": "address"
        },
        {
          "indexed": true,
          "internalType": "address",
          "name": "operator",
          "type": "address"
        },
        {
          "indexed": false,
          "internalType": "bool",
          "name": "approved",
          "type": "bool"
        }
      ],
      "name": "ApprovalForAll",
      "type": "event"
    },
    {
      "anonymous": false,
      "inputs": [
        {
          "indexed": false,
          "internalType": "uint256",
          "name": "_fromTokenId",
          "type": "uint256"
        },
        {
          "indexed": false,
          "internalType": "uint256",
          "name": "_toTokenId",
          "type": "uint256"
        }
      ],
      "name": "BatchMetadataUpdate",
      "type": "event"
    },
    {
      "anonymous": false,
      "inputs": [
        {
          "indexed": false,
          "internalType": "uint256",
          "name": "_tokenId",
          "type": "uint256"
        }
      ],
      "name": "MetadataUpdate",
      "type": "event"
    },
    {
      "anonymous": false,
      "inputs": [
        {
          "indexed": true,
          "internalType": "address",
          "name": "from",
          "type": "address"
        },
        {
          "indexed": true,
          "internalType": "address",
          "name": "to",
          "type": "address"
        },
        {
          "indexed": true,
          "internalType": "uint256",
          "name": "tokenId",
          "type": "uint256"
        }
      ],
      "name": "Transfer",
      "type": "event"
    },
    {
      "inputs": [
        {
          "internalType": "address",
          "name": "to",
          "type": "address"
        },
        {
          "internalType": "uint256",
          "name": "tokenId",
          "type": "uint256"
        }
      ],
      "name": "approve",
      "outputs": [],
      "stateMutability": "nonpayable",
      "type": "function"
    },
    {
      "inputs": [
        {
          "internalType": "address",
          "name": "owner",
          "type": "address"
        }
      ],
      "name": "balanceOf",
      "outputs": [
        {
          "internalType": "uint256",
          "name": "",
          "type": "uint256"
        }
      ],
      "stateMutability": "view",
      "type": "function"
    },
    {
      "inputs": [
        {
          "internalType": "uint256",
          "name": "tokenId",
          "type": "uint256"
        }
      ],
      "name": "burn",
      "outputs": [],
      "stateMutability": "nonpayable",
      "type": "function"
    },
    {
      "inputs": [
        {
          "internalType": "uint256",
          "name": "tokenId",
          "type": "uint256"
        }
      ],
      "name": "getApproved",
      "outputs": [
        {
          "internalType": "address",
          "name": "",
          "type": "address"
        }
      ],
      "stateMutability": "view",
      "type": "function"
    },
    {
      "inputs": [
        {
          "internalType": "address",
          "name": "user",
          "type": "address"
        }
      ],
      "name": "getURIByUser",
      "outputs": [
        {
          "internalType": "string",
          "name": "",
          "type": "string"
        }
      ],
      "stateMutability": "view",
      "type": "function"
    },
    {
      "inputs": [
        {
          "internalType": "address",
          "name": "owner",
          "type": "address"
        },
        {
          "internalType": "address",
          "name": "operator",
          "type": "address"
        }
      ],
      "name": "isApprovedForAll",
      "outputs": [
        {
          "internalType": "bool",
          "name": "",
          "type": "bool"
        }
      ],
      "stateMutability": "view",
      "type": "function"
    },
    {
      "inputs": [],
      "name": "name",
      "outputs": [
        {
          "internalType": "string",
          "name": "",
          "type": "string"
        }
      ],
      "stateMutability": "view",
      "type": "function"
    },
    {
      "inputs": [
        {
          "internalType": "uint256",
          "name": "tokenId",
          "type": "uint256"
        }
      ],
      "name": "ownerOf",
      "outputs": [
        {
          "internalType": "address",
          "name": "",
          "type": "address"
        }
      ],
      "stateMutability": "view",
      "type": "function"
    },
    {
      "inputs": [
        {
          "internalType": "string",
          "name": "uri",
          "type": "string"
        }
      ],
      "name": "safeMint",
      "outputs": [],
      "stateMutability": "payable",
      "type": "function"
    },
    {
      "inputs": [
        {
          "internalType": "address",
          "name": "from",
          "type": "address"
        },
        {
          "internalType": "address",
          "name": "to",
          "type": "address"
        },
        {
          "internalType": "uint256",
          "name": "tokenId",
          "type": "uint256"
        }
      ],
      "name": "safeTransferFrom",
      "outputs": [],
      "stateMutability": "nonpayable",
      "type": "function"
    },
    {
      "inputs": [
        {
          "internalType": "address",
          "name": "from",
          "type": "address"
        },
        {
          "internalType": "address",
          "name": "to",
          "type": "address"
        },
        {
          "internalType": "uint256",
          "name": "tokenId",
          "type": "uint256"
        },
        {
          "internalType": "bytes",
          "name": "data",
          "type": "bytes"
        }
      ],
      "name": "safeTransferFrom",
      "outputs": [],
      "stateMutability": "nonpayable",
      "type": "function"
    },
    {
      "inputs": [
        {
          "internalType": "address",
          "name": "operator",
          "type": "address"
        },
        {
          "internalType": "bool",
          "name": "approved",
          "type": "bool"
        }
      ],
      "name": "setApprovalForAll",
      "outputs": [],
      "stateMutability": "nonpayable",
      "type": "function"
    },
    {
      "inputs": [
        {
          "internalType": "bytes4",
          "name": "interfaceId",
          "type": "bytes4"
        }
      ],
      "name": "supportsInterface",
      "outputs": [
        {
          "internalType": "bool",
          "name": "",
          "type": "bool"
        }
      ],
      "stateMutability": "view",
      "type": "function"
    },
    {
      "inputs": [],
      "name": "symbol",
      "outputs": [
        {
          "internalType": "string",
          "name": "",
          "type": "string"
        }
      ],
      "stateMutability": "view",
      "type": "function"
    },
    {
      "inputs": [
        {
          "internalType": "uint256",
          "name": "",
          "type": "uint256"
        }
      ],
      "name": "tokenIdToURI",
      "outputs": [
        {
          "internalType": "string",
          "name": "",
          "type": "string"
        }
      ],
      "stateMutability": "view",
      "type": "function"
    },
    {
      "inputs": [
        {
          "internalType": "uint256",
          "name": "tokenId",
          "type": "uint256"
        }
      ],
      "name": "tokenURI",
      "outputs": [
        {
          "internalType": "string",
          "name": "",
          "type": "string"
        }
      ],
      "stateMutability": "view",
      "type": "function"
    },
    {
      "inputs": [
        {
          "internalType": "address",
          "name": "from",
          "type": "address"
        },
        {
          "internalType": "address",
          "name": "to",
          "type": "address"
        },
        {
          "internalType": "uint256",
          "name": "tokenId",
          "type": "uint256"
        }
      ],
      "name": "transferFrom",
      "outputs": [],
      "stateMutability": "nonpayable",
      "type": "function"
    },
    {
      "inputs": [
        {
          "internalType": "address",
          "name": "",
          "type": "address"
        }
      ],
      "name": "userToTokenId",
      "outputs": [
        {
          "internalType": "uint256",
          "name": "",
          "type": "uint256"
        }
      ],
      "stateMutability": "view",
      "type": "function"
    }
  ],
  "bytecode": "0x60806040523480156200001157600080fd5b506040518060400160405280600d81526020017f536b696c6c566f7563684e4654000000000000000000000000000000000000008152506040518060400160405280600381526020017f535654000000000000000000000000000000000000000000000000000000000081525081600090816200008f919062000324565b508060019081620000a1919062000324565b5050506200040b565b600081519050919050565b7f4e487b7100000000000000000000000000000000000000000000000000000000600052604160045260246000fd5b7f4e487b7100000000000000000000000000000000000000000000000000000000600052602260045260246000fd5b600060028204905060018216806200012c57607f821691505b602082108103620001425762000141620000e4565b5b50919050565b60008190508160005260206000209050919050565b60006020601f8301049050919050565b600082821b905092915050565b600060088302620001ac7fffffffffffffffffffffffffffffffffffffffffffffffffffffffffffffffff826200016d565b620001b886836200016d565b95508019841693508086168417925050509392505050565b6000819050919050565b6000819050919050565b600062000205620001ff620001f984620001d0565b620001da565b620001d0565b9050919050565b6000819050919050565b6200022183620001e4565b6200023962000230826200020c565b8484546200017a565b825550505050565b600090565b6200025062000241565b6200025d81848462000216565b505050565b5b8181101562000285576200027960008262000246565b60018101905062000263565b5050565b601f821115620002d4576200029e8162000148565b620002a9846200015d565b81016020851015620002b9578190505b620002d1620002c8856200015d565b83018262000262565b50505b505050565b600082821c905092915050565b6000620002f960001984600802620002d9565b1980831691505092915050565b6000620003148383620002e6565b9150826002028217905092915050565b6200032f82620000aa565b67ffffffffffffffff8111156200034b576200034a620000b5565b5b62000357825462000113565b6200036482828562000289565b600060209050601f8311600181146200039c576000841562000387578287015190505b62000393858262000306565b86555062000403565b601f198416620003ac8662000148565b60005b82811015620003d657848901518255600182019150602085019450602081019050620003af565b86831015620003f65784890151620003f2601f891682620002e6565b8355505b6001600288020188555050505b505050505050565b612845806200041b6000396000f3fe6080604052600436106101095760003560e01c8063695850fb11610095578063af24b07b11610064578063af24b07b1461037e578063b88d4fde146103bb578063c87b56dd146103e4578063ca39fdcd14610421578063e985e9c51461045e57610109565b8063695850fb146102d157806370a08231146102ed57806395d89b411461032a578063a22cb4651461035557610109565b8063095ea7b3116100dc578063095ea7b3146101f057806323b872dd1461021957806342842e0e1461024257806342966c681461026b5780636352211e1461029457610109565b806301ffc9a71461010e5780630221e7851461014b57806306fdde0314610188578063081812fc146101b3575b600080fd5b34801561011a57600080fd5b5061013560048036038101906101309190611c32565b61049b565b6040516101429190611c7a565b60405180910390f35b34801561015757600080fd5b50610172600480360381019061016d9190611ccb565b6104ad565b60405161017f9190611d88565b60405180910390f35b34801561019457600080fd5b5061019d61054d565b6040516101aa9190611d88565b60405180910390f35b3480156101bf57600080fd5b506101da60048036038101906101d59190611ccb565b6105df565b6040516101e79190611deb565b60405180910390f35b3480156101fc57600080fd5b5061021760048036038101906102129190611e32565b6105fb565b005b34801561022557600080fd5b50610240600480360381019061023b9190611e72565b610611565b005b34801561024e57600080fd5b5061026960048036038101906102649190611e72565b610713565b005b34801561027757600080fd5b50610292600480360381019061028d9190611ccb565b610733565b005b3480156102a057600080fd5b506102bb60048036038101906102b69190611ccb565b61074a565b6040516102c89190611deb565b60405180910390f35b6102eb60048036038101906102e69190611ffa565b61075c565b005b3480156102f957600080fd5b50610314600480360381019061030f9190612043565b6107e9565b604051610321919061207f565b60405180910390f35b34801561033657600080fd5b5061033f6108a3565b60405161034c9190611d88565b60405180910390f35b34801561036157600080fd5b5061037c600480360381019061037791906120c6565b610935565b005b34801561038a57600080fd5b506103a560048036038101906103a09190612043565b61094b565b6040516103b2919061207f565b60405180910390f35b3480156103c757600080fd5b506103e260048036038101906103dd91906121a7565b610963565b005b3480156103f057600080fd5b5061040b60048036038101906104069190611ccb565b610980565b6040516104189190611d88565b60405180910390f35b34801561042d57600080fd5b5061044860048036038101906104439190612043565b610992565b6040516104559190611d88565b60405180910390f35b34801561046a57600080fd5b506104856004803603810190610480919061222a565b610af8565b6040516104929190611c7a565b60405180910390f35b60006104a682610b8c565b9050919050565b600960205280600052604060002060009150905080546104cc90612299565b80601f01602080910402602001604051908101604052809291908181526020018280546104f890612299565b80156105455780601f1061051a57610100808354040283529160200191610545565b820191906000526020600020905b81548152906001019060200180831161052857829003601f168201915b505050505081565b60606000805461055c90612299565b80601f016020809104026020016040519081016040528092919081815260200182805461058890612299565b80156105d55780601f106105aa576101008083540402835291602001916105d5565b820191906000526020600020905b8154815290600101906020018083116105b857829003601f168201915b5050505050905090565b60006105ea82610bed565b506105f482610c75565b9050919050565b61060d8282610608610cb2565b610cba565b5050565b600073ffffffffffffffffffffffffffffffffffffffff168273ffffffffffffffffffffffffffffffffffffffff16036106835760006040517f64a0ae9200000000000000000000000000000000000000000000000000000000815260040161067a9190611deb565b60405180910390fd5b60006106978383610692610cb2565b610ccc565b90508373ffffffffffffffffffffffffffffffffffffffff168173ffffffffffffffffffffffffffffffffffffffff161461070d578382826040517f64283d7b000000000000000000000000000000000000000000000000000000008152600401610704939291906122ca565b60405180910390fd5b50505050565b61072e83838360405180602001604052806000815250610963565b505050565b610746600082610741610cb2565b610ccc565b5050565b600061075582610bed565b9050919050565b600160075461076b9190612330565b60078190555061077d33600754610ee6565b600754600860003373ffffffffffffffffffffffffffffffffffffffff1673ffffffffffffffffffffffffffffffffffffffff168152602001908152602001600020819055508060096000600754815260200190815260200160002090816107e59190612510565b5050565b60008073ffffffffffffffffffffffffffffffffffffffff168273ffffffffffffffffffffffffffffffffffffffff160361085c5760006040517f89c62b640000000000000000000000000000000000000000000000000000000081526004016108539190611deb565b60405180910390fd5b600360008373ffffffffffffffffffffffffffffffffffffffff1673ffffffffffffffffffffffffffffffffffffffff168152602001908152602001600020549050919050565b6060600180546108b290612299565b80601f01602080910402602001604051908101604052809291908181526020018280546108de90612299565b801561092b5780601f106109005761010080835404028352916020019161092b565b820191906000526020600020905b81548152906001019060200180831161090e57829003601f168201915b5050505050905090565b610947610940610cb2565b8383610f04565b5050565b60086020528060005260406000206000915090505481565b61096e848484610611565b61097a84848484611073565b50505050565b606061098b8261122a565b9050919050565b60606000600860008473ffffffffffffffffffffffffffffffffffffffff1673ffffffffffffffffffffffffffffffffffffffff1681526020019081526020016000205403610a16576040517f08c379a0000000000000000000000000000000000000000000000000000000008152600401610a0d90612654565b60405180910390fd5b60096000600860008573ffffffffffffffffffffffffffffffffffffffff1673ffffffffffffffffffffffffffffffffffffffff1681526020019081526020016000205481526020019081526020016000208054610a7390612299565b80601f0160208091040260200160405190810160405280929190818152602001828054610a9f90612299565b8015610aec5780601f10610ac157610100808354040283529160200191610aec565b820191906000526020600020905b815481529060010190602001808311610acf57829003601f168201915b50505050509050919050565b6000600560008473ffffffffffffffffffffffffffffffffffffffff1673ffffffffffffffffffffffffffffffffffffffff16815260200190815260200160002060008373ffffffffffffffffffffffffffffffffffffffff1673ffffffffffffffffffffffffffffffffffffffff16815260200190815260200160002060009054906101000a900460ff16905092915050565b6000634906490660e01b7bffffffffffffffffffffffffffffffffffffffffffffffffffffffff1916827bffffffffffffffffffffffffffffffffffffffffffffffffffffffff19161480610be65750610be58261133d565b5b9050919050565b600080610bf98361141f565b9050600073ffffffffffffffffffffffffffffffffffffffff168173ffffffffffffffffffffffffffffffffffffffff1603610c6c57826040517f7e273289000000000000000000000000000000000000000000000000000000008152600401610c63919061207f565b60405180910390fd5b80915050919050565b60006004600083815260200190815260200160002060009054906101000a900473ffffffffffffffffffffffffffffffffffffffff169050919050565b600033905090565b610cc7838383600161145c565b505050565b600080610cd88461141f565b9050600073ffffffffffffffffffffffffffffffffffffffff168373ffffffffffffffffffffffffffffffffffffffff1614610d1a57610d19818486611621565b5b600073ffffffffffffffffffffffffffffffffffffffff168173ffffffffffffffffffffffffffffffffffffffff1614610dab57610d5c60008560008061145c565b6001600360008373ffffffffffffffffffffffffffffffffffffffff1673ffffffffffffffffffffffffffffffffffffffff168152602001908152602001600020600082825403925050819055505b600073ffffffffffffffffffffffffffffffffffffffff168573ffffffffffffffffffffffffffffffffffffffff1614610e2e576001600360008773ffffffffffffffffffffffffffffffffffffffff1673ffffffffffffffffffffffffffffffffffffffff168152602001908152602001600020600082825401925050819055505b846002600086815260200190815260200160002060006101000a81548173ffffffffffffffffffffffffffffffffffffffff021916908373ffffffffffffffffffffffffffffffffffffffff160217905550838573ffffffffffffffffffffffffffffffffffffffff168273ffffffffffffffffffffffffffffffffffffffff167fddf252ad1be2c89b69c2b068fc378daa952ba7f163c4a11628f55a4df523b3ef60405160405180910390a4809150509392505050565b610f008282604051806020016040528060008152506116e5565b5050565b600073ffffffffffffffffffffffffffffffffffffffff168273ffffffffffffffffffffffffffffffffffffffff1603610f7557816040517f5b08ba18000000000000000000000000000000000000000000000000000000008152600401610f6c9190611deb565b60405180910390fd5b80600560008573ffffffffffffffffffffffffffffffffffffffff1673ffffffffffffffffffffffffffffffffffffffff16815260200190815260200160002060008473ffffffffffffffffffffffffffffffffffffffff1673ffffffffffffffffffffffffffffffffffffffff16815260200190815260200160002060006101000a81548160ff0219169083151502179055508173ffffffffffffffffffffffffffffffffffffffff168373ffffffffffffffffffffffffffffffffffffffff167f17307eab39ab6107e8899845ad3d59bd9653f200f220920489ca2b5937696c31836040516110669190611c7a565b60405180910390a3505050565b60008373ffffffffffffffffffffffffffffffffffffffff163b1115611224578273ffffffffffffffffffffffffffffffffffffffff1663150b7a026110b7610cb2565b8685856040518563ffffffff1660e01b81526004016110d994939291906126c9565b6020604051808303816000875af192505050801561111557506040513d601f19601f82011682018060405250810190611112919061272a565b60015b611199573d8060008114611145576040519150601f19603f3d011682016040523d82523d6000602084013e61114a565b606091505b50600081510361119157836040517f64a0ae920000000000000000000000000000000000000000000000000000000081526004016111889190611deb565b60405180910390fd5b805181602001fd5b63150b7a0260e01b7bffffffffffffffffffffffffffffffffffffffffffffffffffffffff1916817bffffffffffffffffffffffffffffffffffffffffffffffffffffffff19161461122257836040517f64a0ae920000000000000000000000000000000000000000000000000000000081526004016112199190611deb565b60405180910390fd5b505b50505050565b606061123582610bed565b50600060066000848152602001908152602001600020805461125690612299565b80601f016020809104026020016040519081016040528092919081815260200182805461128290612299565b80156112cf5780601f106112a4576101008083540402835291602001916112cf565b820191906000526020600020905b8154815290600101906020018083116112b257829003601f168201915b5050505050905060006112e0611701565b905060008151036112f5578192505050611338565b60008251111561132a578082604051602001611312929190612793565b60405160208183030381529060405292505050611338565b61133384611718565b925050505b919050565b60007f80ac58cd000000000000000000000000000000000000000000000000000000007bffffffffffffffffffffffffffffffffffffffffffffffffffffffff1916827bffffffffffffffffffffffffffffffffffffffffffffffffffffffff1916148061140857507f5b5e139f000000000000000000000000000000000000000000000000000000007bffffffffffffffffffffffffffffffffffffffffffffffffffffffff1916827bffffffffffffffffffffffffffffffffffffffffffffffffffffffff1916145b80611418575061141782611781565b5b9050919050565b60006002600083815260200190815260200160002060009054906101000a900473ffffffffffffffffffffffffffffffffffffffff169050919050565b80806114955750600073ffffffffffffffffffffffffffffffffffffffff168273ffffffffffffffffffffffffffffffffffffffff1614155b156115c95760006114a584610bed565b9050600073ffffffffffffffffffffffffffffffffffffffff168373ffffffffffffffffffffffffffffffffffffffff161415801561151057508273ffffffffffffffffffffffffffffffffffffffff168173ffffffffffffffffffffffffffffffffffffffff1614155b801561152357506115218184610af8565b155b1561156557826040517fa9fbf51f00000000000000000000000000000000000000000000000000000000815260040161155c9190611deb565b60405180910390fd5b81156115c757838573ffffffffffffffffffffffffffffffffffffffff168273ffffffffffffffffffffffffffffffffffffffff167f8c5be1e5ebec7d5bd14f71427d1e84f3dd0314c0f7b2291e5b200ac8c7c3b92560405160405180910390a45b505b836004600085815260200190815260200160002060006101000a81548173ffffffffffffffffffffffffffffffffffffffff021916908373ffffffffffffffffffffffffffffffffffffffff16021790555050505050565b61162c8383836117eb565b6116e057600073ffffffffffffffffffffffffffffffffffffffff168373ffffffffffffffffffffffffffffffffffffffff16036116a157806040517f7e273289000000000000000000000000000000000000000000000000000000008152600401611698919061207f565b60405180910390fd5b81816040517f177e802f0000000000000000000000000000000000000000000000000000000081526004016116d79291906127b7565b60405180910390fd5b505050565b6116ef83836118ac565b6116fc6000848484611073565b505050565b606060405180602001604052806000815250905090565b606061172382610bed565b50600061172e611701565b9050600081511161174e5760405180602001604052806000815250611779565b80611758846119a5565b604051602001611769929190612793565b6040516020818303038152906040525b915050919050565b60007f01ffc9a7000000000000000000000000000000000000000000000000000000007bffffffffffffffffffffffffffffffffffffffffffffffffffffffff1916827bffffffffffffffffffffffffffffffffffffffffffffffffffffffff1916149050919050565b60008073ffffffffffffffffffffffffffffffffffffffff168373ffffffffffffffffffffffffffffffffffffffff16141580156118a357508273ffffffffffffffffffffffffffffffffffffffff168473ffffffffffffffffffffffffffffffffffffffff16148061186457506118638484610af8565b5b806118a257508273ffffffffffffffffffffffffffffffffffffffff1661188a83610c75565b73ffffffffffffffffffffffffffffffffffffffff16145b5b90509392505050565b600073ffffffffffffffffffffffffffffffffffffffff168273ffffffffffffffffffffffffffffffffffffffff160361191e5760006040517f64a0ae920000000000000000000000000000000000000000000000000000000081526004016119159190611deb565b60405180910390fd5b600061192c83836000610ccc565b9050600073ffffffffffffffffffffffffffffffffffffffff168173ffffffffffffffffffffffffffffffffffffffff16146119a05760006040517f73c6ac6e0000000000000000000000000000000000000000000000000000000081526004016119979190611deb565b60405180910390fd5b505050565b6060600060016119b484611a73565b01905060008167ffffffffffffffff8111156119d3576119d2611ecf565b5b6040519080825280601f01601f191660200182016040528015611a055781602001600182028036833780820191505090505b509050600082602001820190505b600115611a68578080600190039150507f3031323334353637383961626364656600000000000000000000000000000000600a86061a8153600a8581611a5c57611a5b6127e0565b5b04945060008503611a13575b819350505050919050565b600080600090507a184f03e93ff9f4daa797ed6e38ed64bf6a1f0100000000000000008310611ad1577a184f03e93ff9f4daa797ed6e38ed64bf6a1f0100000000000000008381611ac757611ac66127e0565b5b0492506040810190505b6d04ee2d6d415b85acef81000000008310611b0e576d04ee2d6d415b85acef81000000008381611b0457611b036127e0565b5b0492506020810190505b662386f26fc100008310611b3d57662386f26fc100008381611b3357611b326127e0565b5b0492506010810190505b6305f5e1008310611b66576305f5e1008381611b5c57611b5b6127e0565b5b0492506008810190505b6127108310611b8b576127108381611b8157611b806127e0565b5b0492506004810190505b60648310611bae5760648381611ba457611ba36127e0565b5b0492506002810190505b600a8310611bbd576001810190505b80915050919050565b6000604051905090565b600080fd5b600080fd5b60007fffffffff0000000000000000000000000000000000000000000000000000000082169050919050565b611c0f81611bda565b8114611c1a57600080fd5b50565b600081359050611c2c81611c06565b92915050565b600060208284031215611c4857611c47611bd0565b5b6000611c5684828501611c1d565b91505092915050565b60008115159050919050565b611c7481611c5f565b82525050565b6000602082019050611c8f6000830184611c6b565b92915050565b6000819050919050565b611ca881611c95565b8114611cb357600080fd5b50565b600081359050611cc581611c9f565b92915050565b600060208284031215611ce157611ce0611bd0565b5b6000611cef84828501611cb6565b91505092915050565b600081519050919050565b600082825260208201905092915050565b60005b83811015611d32578082015181840152602081019050611d17565b60008484015250505050565b6000601f19601f8301169050919050565b6000611d5a82611cf8565b611d648185611d03565b9350611d74818560208601611d14565b611d7d81611d3e565b840191505092915050565b60006020820190508181036000830152611da28184611d4f565b905092915050565b600073ffffffffffffffffffffffffffffffffffffffff82169050919050565b6000611dd582611daa565b9050919050565b611de581611dca565b82525050565b6000602082019050611e006000830184611ddc565b92915050565b611e0f81611dca565b8114611e1a57600080fd5b50565b600081359050611e2c81611e06565b92915050565b60008060408385031215611e4957611e48611bd0565b5b6000611e5785828601611e1d565b9250506020611e6885828601611cb6565b9150509250929050565b600080600060608486031215611e8b57611e8a611bd0565b5b6000611e9986828701611e1d565b9350506020611eaa86828701611e1d565b9250506040611ebb86828701611cb6565b9150509250925092565b600080fd5b600080fd5b7f4e487b7100000000000000000000000000000000000000000000000000000000600052604160045260246000fd5b611f0782611d3e565b810181811067ffffffffffffffff82111715611f2657611f25611ecf565b5b80604052505050565b6000611f39611bc6565b9050611f458282611efe565b919050565b600067ffffffffffffffff821115611f6557611f64611ecf565b5b611f6e82611d3e565b9050602081019050919050565b82818337600083830152505050565b6000611f9d611f9884611f4a565b611f2f565b905082815260208101848484011115611fb957611fb8611eca565b5b611fc4848285611f7b565b509392505050565b600082601f830112611fe157611fe0611ec5565b5b8135611ff1848260208601611f8a565b91505092915050565b6000602082840312156120105761200f611bd0565b5b600082013567ffffffffffffffff81111561202e5761202d611bd5565b5b61203a84828501611fcc565b91505092915050565b60006020828403121561205957612058611bd0565b5b600061206784828501611e1d565b91505092915050565b61207981611c95565b82525050565b60006020820190506120946000830184612070565b92915050565b6120a381611c5f565b81146120ae57600080fd5b50565b6000813590506120c08161209a565b92915050565b600080604083850312156120dd576120dc611bd0565b5b60006120eb85828601611e1d565b92505060206120fc858286016120b1565b9150509250929050565b600067ffffffffffffffff82111561212157612120611ecf565b5b61212a82611d3e565b9050602081019050919050565b600061214a61214584612106565b611f2f565b90508281526020810184848401111561216657612165611eca565b5b612171848285611f7b565b509392505050565b600082601f83011261218e5761218d611ec5565b5b813561219e848260208601612137565b91505092915050565b600080600080608085870312156121c1576121c0611bd0565b5b60006121cf87828801611e1d565b94505060206121e087828801611e1d565b93505060406121f187828801611cb6565b925050606085013567ffffffffffffffff81111561221257612211611bd5565b5b61221e87828801612179565b91505092959194509250565b6000806040838503121561224157612240611bd0565b5b600061224f85828601611e1d565b925050602061226085828601611e1d565b9150509250929050565b7f4e487b7100000000000000000000000000000000000000000000000000000000600052602260045260246000fd5b600060028204905060018216806122b157607f821691505b6020821081036122c4576122c361226a565b5b50919050565b60006060820190506122df6000830186611ddc565b6122ec6020830185612070565b6122f96040830184611ddc565b949350505050565b7f4e487b7100000000000000000000000000000000000000000000000000000000600052601160045260246000fd5b600061233b82611c95565b915061234683611c95565b925082820190508082111561235e5761235d612301565b5b92915050565b60008190508160005260206000209050919050565b60006020601f8301049050919050565b600082821b905092915050565b6000600883026123c67fffffffffffffffffffffffffffffffffffffffffffffffffffffffffffffffff82612389565b6123d08683612389565b95508019841693508086168417925050509392505050565b6000819050919050565b600061240d61240861240384611c95565b6123e8565b611c95565b9050919050565b6000819050919050565b612427836123f2565b61243b61243382612414565b848454612396565b825550505050565b600090565b612450612443565b61245b81848461241e565b505050565b5b8181101561247f57612474600082612448565b600181019050612461565b5050565b601f8211156124c45761249581612364565b61249e84612379565b810160208510156124ad578190505b6124c16124b985612379565b830182612460565b50505b505050565b600082821c905092915050565b60006124e7600019846008026124c9565b1980831691505092915050565b600061250083836124d6565b9150826002028217905092915050565b61251982611cf8565b67ffffffffffffffff81111561253257612531611ecf565b5b61253c8254612299565b612547828285612483565b600060209050601f83116001811461257a5760008415612568578287015190505b61257285826124f4565b8655506125da565b601f19841661258886612364565b60005b828110156125b05784890151825560018201915060208501945060208101905061258b565b868310156125cd57848901516125c9601f8916826124d6565b8355505b6001600288020188555050505b505050505050565b7f5573657220646f6573206e6f742068617665206120746f6b656e206d696e746560008201527f642e000000000000000000000000000000000000000000000000000000000000602082015250565b600061263e602283611d03565b9150612649826125e2565b604082019050919050565b6000602082019050818103600083015261266d81612631565b9050919050565b600081519050919050565b600082825260208201905092915050565b600061269b82612674565b6126a5818561267f565b93506126b5818560208601611d14565b6126be81611d3e565b840191505092915050565b60006080820190506126de6000830187611ddc565b6126eb6020830186611ddc565b6126f86040830185612070565b818103606083015261270a8184612690565b905095945050505050565b60008151905061272481611c06565b92915050565b6000602082840312156127405761273f611bd0565b5b600061274e84828501612715565b91505092915050565b600081905092915050565b600061276d82611cf8565b6127778185612757565b9350612787818560208601611d14565b80840191505092915050565b600061279f8285612762565b91506127ab8284612762565b91508190509392505050565b60006040820190506127cc6000830185611ddc565b6127d96020830184612070565b9392505050565b7f4e487b7100000000000000000000000000000000000000000000000000000000600052601260045260246000fdfea2646970667358221220c6102903c209a63bf2d9c7d63ef654ef002977716c64d25bbf0c8e723f30538c64736f6c63430008180033",
  "linkReferences": {},
  "deployedLinkReferences": {}
}