{
  "_format": "hh-sol-artifact-1",
  "contractName": "SkillVouchContract",
  "sourceName": "contracts/SkillVouchContract.sol",
  "abi": [
    {
      "inputs": [
        {
          "internalType": "address",
          "name": "_userRequestStructAddress",
          "type": "address"
        }
      ],
      "stateMutability": "nonpayable",
      "type": "constructor"
    },
    {
      "anonymous": false,
      "inputs": [
        {
          "indexed": false,
          "internalType": "uint256",
          "name": "requestId",
          "type": "uint256"
        },
        {
          "indexed": false,
          "internalType": "bool",
          "name": "accepted",
          "type": "bool"
        }
      ],
      "name": "RequestClosed",
      "type": "event"
    },
    {
      "anonymous": false,
      "inputs": [
        {
          "indexed": false,
          "internalType": "uint256",
          "name": "requestId",
          "type": "uint256"
        },
        {
          "indexed": false,
          "internalType": "address",
          "name": "user",
          "type": "address"
        },
        {
          "indexed": false,
          "internalType": "string",
          "name": "skill",
          "type": "string"
        },
        {
          "indexed": false,
          "internalType": "string",
          "name": "project",
          "type": "string"
        },
        {
          "indexed": false,
          "internalType": "string",
          "name": "experience",
          "type": "string"
        },
        {
          "indexed": false,
          "internalType": "uint256",
          "name": "stakeAmount",
          "type": "uint256"
        }
      ],
      "name": "RequestCreated",
      "type": "event"
    },
    {
      "anonymous": false,
      "inputs": [
        {
          "indexed": false,
          "internalType": "uint256",
          "name": "requestId",
          "type": "uint256"
        },
        {
          "indexed": false,
          "internalType": "uint8",
          "name": "_newStatus",
          "type": "uint8"
        }
      ],
      "name": "RequestStatusChanged",
      "type": "event"
    },
    {
      "anonymous": false,
      "inputs": [
        {
          "indexed": false,
          "internalType": "uint256",
          "name": "requestId",
          "type": "uint256"
        },
        {
          "indexed": false,
          "internalType": "address",
          "name": "vouchor",
          "type": "address"
        },
        {
          "indexed": false,
          "internalType": "uint256",
          "name": "stakedAmount",
          "type": "uint256"
        }
      ],
      "name": "SkillVouched",
      "type": "event"
    },
    {
      "anonymous": false,
      "inputs": [
        {
          "indexed": false,
          "internalType": "uint256",
          "name": "requestId",
          "type": "uint256"
        },
        {
          "indexed": false,
          "internalType": "address",
          "name": "voter",
          "type": "address"
        },
        {
          "indexed": false,
          "internalType": "bool",
          "name": "acceptance",
          "type": "bool"
        }
      ],
      "name": "VoteCasted",
      "type": "event"
    },
    {
      "inputs": [
        {
          "internalType": "uint256",
          "name": "",
          "type": "uint256"
        }
      ],
      "name": "acceptVotes",
      "outputs": [
        {
          "internalType": "uint256",
          "name": "",
          "type": "uint256"
        }
      ],
      "stateMutability": "view",
      "type": "function"
    },
    {
      "inputs": [
        {
          "internalType": "uint256",
          "name": "_requestId",
          "type": "uint256"
        },
        {
          "internalType": "bool",
          "name": "_acceptance",
          "type": "bool"
        }
      ],
      "name": "castVote",
      "outputs": [],
      "stateMutability": "nonpayable",
      "type": "function"
    },
    {
      "inputs": [
        {
          "internalType": "uint256",
          "name": "_requestId",
          "type": "uint256"
        }
      ],
      "name": "closeRequest",
      "outputs": [],
      "stateMutability": "nonpayable",
      "type": "function"
    },
    {
      "inputs": [
        {
          "internalType": "string",
          "name": "_skill",
          "type": "string"
        },
        {
          "internalType": "string",
          "name": "_project",
          "type": "string"
        },
        {
          "internalType": "string",
          "name": "_experience",
          "type": "string"
        },
        {
          "internalType": "uint256",
          "name": "_stakeAmount",
          "type": "uint256"
        }
      ],
      "name": "createRequest",
      "outputs": [],
      "stateMutability": "payable",
      "type": "function"
    },
    {
      "inputs": [],
      "name": "mintTokensToNewUsers",
      "outputs": [],
      "stateMutability": "nonpayable",
      "type": "function"
    },
    {
      "inputs": [
        {
          "internalType": "uint256",
          "name": "_requestId",
          "type": "uint256"
        }
      ],
      "name": "moveRequestToCommunityValidation",
      "outputs": [],
      "stateMutability": "nonpayable",
      "type": "function"
    },
    {
      "inputs": [
        {
          "internalType": "uint256",
          "name": "",
          "type": "uint256"
        }
      ],
      "name": "rejectVotes",
      "outputs": [
        {
          "internalType": "uint256",
          "name": "",
          "type": "uint256"
        }
      ],
      "stateMutability": "view",
      "type": "function"
    },
    {
      "inputs": [],
      "name": "skillVouchState",
      "outputs": [
        {
          "internalType": "contract SkillVouchState",
          "name": "",
          "type": "address"
        }
      ],
      "stateMutability": "view",
      "type": "function"
    },
    {
      "inputs": [
        {
          "internalType": "uint256",
          "name": "",
          "type": "uint256"
        },
        {
          "internalType": "uint256",
          "name": "",
          "type": "uint256"
        }
      ],
      "name": "voted",
      "outputs": [
        {
          "internalType": "address",
          "name": "",
          "type": "address"
        }
      ],
      "stateMutability": "view",
      "type": "function"
    },
    {
      "inputs": [
        {
          "internalType": "uint256",
          "name": "_requestId",
          "type": "uint256"
        }
      ],
      "name": "vouchForSkill",
      "outputs": [],
      "stateMutability": "nonpayable",
      "type": "function"
    }
  ],
  "bytecode": "0x60a06040523480156200001157600080fd5b50604051620035e9380380620035e98339818101604052810190620000379190620001c2565b8073ffffffffffffffffffffffffffffffffffffffff1660808173ffffffffffffffffffffffffffffffffffffffff168152505060805173ffffffffffffffffffffffffffffffffffffffff166355a373d66040518163ffffffff1660e01b8152600401602060405180830381865afa158015620000b9573d6000803e3d6000fd5b505050506040513d601f19601f82011682018060405250810190620000df919062000239565b73ffffffffffffffffffffffffffffffffffffffff1663449a52f8306103e86040518363ffffffff1660e01b81526004016200011d92919062000297565b600060405180830381600087803b1580156200013857600080fd5b505af11580156200014d573d6000803e3d6000fd5b5050505050620002c4565b600080fd5b600073ffffffffffffffffffffffffffffffffffffffff82169050919050565b60006200018a826200015d565b9050919050565b6200019c816200017d565b8114620001a857600080fd5b50565b600081519050620001bc8162000191565b92915050565b600060208284031215620001db57620001da62000158565b5b6000620001eb84828501620001ab565b91505092915050565b600062000201826200017d565b9050919050565b6200021381620001f4565b81146200021f57600080fd5b50565b600081519050620002338162000208565b92915050565b60006020828403121562000252576200025162000158565b5b6000620002628482850162000222565b91505092915050565b62000276816200017d565b82525050565b6000819050919050565b62000291816200027c565b82525050565b6000604082019050620002ae60008301856200026b565b620002bd602083018462000286565b9392505050565b60805161324c6200039d600039600081816102510152818161032c0152818161064d015281816107280152818161080e015281816108f701528181610a0701528181610aed01528181610bf601528181610cd001528181610dcc01528181610e5901528181610f3401528181611122015281816112130152818161136a0152818161140f015281816114ea015281816115cd015281816116990152818161173a0152818161189001528181611a2e01528181611b5301528181611bf401528181611d0301528181611e800152611fa5015261324c6000f3fe6080604052600436106100915760003560e01c8063d966f6af11610059578063d966f6af1461018b578063edc797da146101c8578063f0282b7f146101df578063f82f7bdd14610208578063fed5454e1461022457610091565b806315373e3d146100965780635f287cf2146100bf5780636114fb74146100fc57806362dc825f14610125578063689b820f14610162575b600080fd5b3480156100a257600080fd5b506100bd60048036038101906100b89190612116565b61024f565b005b3480156100cb57600080fd5b506100e660048036038101906100e19190612156565b6105fd565b6040516100f391906121d7565b60405180910390f35b34801561010857600080fd5b50610123600480360381019061011e91906121f2565b61064b565b005b34801561013157600080fd5b5061014c600480360381019061014791906121f2565b610ad1565b604051610159919061222e565b60405180910390f35b34801561016e57600080fd5b50610189600480360381019061018491906121f2565b610ae9565b005b34801561019757600080fd5b506101b260048036038101906101ad91906121f2565b610bdc565b6040516101bf919061222e565b60405180910390f35b3480156101d457600080fd5b506101dd610bf4565b005b3480156101eb57600080fd5b50610206600480360381019061020191906121f2565b610e57565b005b610222600480360381019061021d919061238f565b6110db565b005b34801561023057600080fd5b50610239611368565b60405161024691906124a9565b60405180910390f35b7f000000000000000000000000000000000000000000000000000000000000000073ffffffffffffffffffffffffffffffffffffffff166364cfb408836040518263ffffffff1660e01b81526004016102a8919061222e565b602060405180830381865afa1580156102c5573d6000803e3d6000fd5b505050506040513d601f19601f820116820180604052508101906102e991906124d9565b610328576040517f08c379a000000000000000000000000000000000000000000000000000000000815260040161031f90612563565b60405180910390fd5b60017f000000000000000000000000000000000000000000000000000000000000000073ffffffffffffffffffffffffffffffffffffffff16639507d39a846040518263ffffffff1660e01b8152600401610383919061222e565b600060405180830381865afa1580156103a0573d6000803e3d6000fd5b505050506040513d6000823e3d601f19601f820116820180604052508101906103c99190612854565b60c001511461040d576040517f08c379a00000000000000000000000000000000000000000000000000000000081526004016104049061290f565b60405180910390fd5b6104ad6000808481526020019081526020016000208054806020026020016040519081016040528092919081815260200182805480156104a257602002820191906000526020600020905b8160009054906101000a900473ffffffffffffffffffffffffffffffffffffffff1673ffffffffffffffffffffffffffffffffffffffff1681526020019060010190808311610458575b50505050503361138c565b156104ed576040517f08c379a00000000000000000000000000000000000000000000000000000000081526004016104e4906129a1565b60405180910390fd5b801561052157600160008381526020019081526020016000206000815480929190610517906129f0565b919050555061054b565b600260008381526020019081526020016000206000815480929190610545906129f0565b91905055505b600080838152602001908152602001600020339080600181540180825580915050600190039060005260206000200160009091909190916101000a81548173ffffffffffffffffffffffffffffffffffffffff021916908373ffffffffffffffffffffffffffffffffffffffff1602179055507f5aaa9aad7433112662b9e5ae23b96ed62b00035f413ab908c55607284e0804e28233836040516105f193929190612a47565b60405180910390a15050565b6000602052816000526040600020818154811061061957600080fd5b906000526020600020016000915091509054906101000a900473ffffffffffffffffffffffffffffffffffffffff1681565b7f000000000000000000000000000000000000000000000000000000000000000073ffffffffffffffffffffffffffffffffffffffff166364cfb408826040518263ffffffff1660e01b81526004016106a4919061222e565b602060405180830381865afa1580156106c1573d6000803e3d6000fd5b505050506040513d601f19601f820116820180604052508101906106e591906124d9565b610724576040517f08c379a000000000000000000000000000000000000000000000000000000000815260040161071b90612563565b60405180910390fd5b60007f000000000000000000000000000000000000000000000000000000000000000073ffffffffffffffffffffffffffffffffffffffff16639507d39a836040518263ffffffff1660e01b815260040161077f919061222e565b600060405180830381865afa15801561079c573d6000803e3d6000fd5b505050506040513d6000823e3d601f19601f820116820180604052508101906107c59190612854565b60c0015114610809576040517f08c379a000000000000000000000000000000000000000000000000000000000815260040161080090612af0565b60405180910390fd5b6108b57f000000000000000000000000000000000000000000000000000000000000000073ffffffffffffffffffffffffffffffffffffffff16639507d39a836040518263ffffffff1660e01b8152600401610865919061222e565b600060405180830381865afa158015610882573d6000803e3d6000fd5b505050506040513d6000823e3d601f19601f820116820180604052508101906108ab9190612854565b602001513361138c565b156108f5576040517f08c379a00000000000000000000000000000000000000000000000000000000081526004016108ec90612b82565b60405180910390fd5b7f000000000000000000000000000000000000000000000000000000000000000073ffffffffffffffffffffffffffffffffffffffff166355a373d66040518163ffffffff1660e01b8152600401602060405180830381865afa158015610960573d6000803e3d6000fd5b505050506040513d601f19601f820116820180604052508101906109849190612be0565b73ffffffffffffffffffffffffffffffffffffffff166323b872dd333060146040518463ffffffff1660e01b81526004016109c193929190612c0d565b6020604051808303816000875af11580156109e0573d6000803e3d6000fd5b505050506040513d601f19601f82011682018060405250810190610a0491906124d9565b507f000000000000000000000000000000000000000000000000000000000000000073ffffffffffffffffffffffffffffffffffffffff1663d5ad68d982336040518363ffffffff1660e01b8152600401610a60929190612c44565b600060405180830381600087803b158015610a7a57600080fd5b505af1158015610a8e573d6000803e3d6000fd5b505050507f445eb8a4b28e4b0fe3edb71d9cc1d83433f0a6d135955f476eb0151b31798a3681336014604051610ac693929190612c6d565b60405180910390a150565b60016020528060005260406000206000915090505481565b60007f000000000000000000000000000000000000000000000000000000000000000073ffffffffffffffffffffffffffffffffffffffff16639507d39a836040518263ffffffff1660e01b8152600401610b44919061222e565b600060405180830381865afa158015610b61573d6000803e3d6000fd5b505050506040513d6000823e3d601f19601f82011682018060405250810190610b8a9190612854565b60c0015114610bce576040517f08c379a0000000000000000000000000000000000000000000000000000000008152600401610bc590612d16565b60405180910390fd5b610bd981600161140d565b50565b60026020528060005260406000206000915090505481565b7f000000000000000000000000000000000000000000000000000000000000000073ffffffffffffffffffffffffffffffffffffffff16630ddcfe8e336040518263ffffffff1660e01b8152600401610c4d91906121d7565b602060405180830381865afa158015610c6a573d6000803e3d6000fd5b505050506040513d601f19601f82011682018060405250810190610c8e91906124d9565b15610cce576040517f08c379a0000000000000000000000000000000000000000000000000000000008152600401610cc590612d82565b60405180910390fd5b7f000000000000000000000000000000000000000000000000000000000000000073ffffffffffffffffffffffffffffffffffffffff166355a373d66040518163ffffffff1660e01b8152600401602060405180830381865afa158015610d39573d6000803e3d6000fd5b505050506040513d601f19601f82011682018060405250810190610d5d9190612be0565b73ffffffffffffffffffffffffffffffffffffffff1663449a52f83360326040518363ffffffff1660e01b8152600401610d98929190612da2565b600060405180830381600087803b158015610db257600080fd5b505af1158015610dc6573d6000803e3d6000fd5b505050507f000000000000000000000000000000000000000000000000000000000000000073ffffffffffffffffffffffffffffffffffffffff1663421b2d8b336040518263ffffffff1660e01b8152600401610e2391906121d7565b600060405180830381600087803b158015610e3d57600080fd5b505af1158015610e51573d6000803e3d6000fd5b50505050565b7f000000000000000000000000000000000000000000000000000000000000000073ffffffffffffffffffffffffffffffffffffffff166364cfb408826040518263ffffffff1660e01b8152600401610eb0919061222e565b602060405180830381865afa158015610ecd573d6000803e3d6000fd5b505050506040513d601f19601f82011682018060405250810190610ef191906124d9565b610f30576040517f08c379a0000000000000000000000000000000000000000000000000000000008152600401610f2790612563565b60405180910390fd5b60017f000000000000000000000000000000000000000000000000000000000000000073ffffffffffffffffffffffffffffffffffffffff16639507d39a836040518263ffffffff1660e01b8152600401610f8b919061222e565b600060405180830381865afa158015610fa8573d6000803e3d6000fd5b505050506040513d6000823e3d601f19601f82011682018060405250810190610fd19190612854565b60c0015114611015576040517f08c379a000000000000000000000000000000000000000000000000000000000815260040161100c9061290f565b60405180910390fd5b60026000828152602001908152602001600020546001600083815260200190815260200160002054111561108b5761104c81611695565b7fd204805208bb5b5fea6f63d5baa0b02392e939d9ff87e412b2f2ceacde50e09981600160405161107e929190612dcb565b60405180910390a16110cf565b61109481611b4f565b7fd204805208bb5b5fea6f63d5baa0b02392e939d9ff87e412b2f2ceacde50e0998160006040516110c6929190612dcb565b60405180910390a15b6110d881611fa1565b50565b6014811161111e576040517f08c379a000000000000000000000000000000000000000000000000000000000815260040161111590612e66565b60405180910390fd5b60007f000000000000000000000000000000000000000000000000000000000000000073ffffffffffffffffffffffffffffffffffffffff16630cf908a133600067ffffffffffffffff81111561117857611177612264565b5b6040519080825280602002602001820160405280156111a65781602001602082028036833780820191505090505b50888888886040518763ffffffff1660e01b81526004016111cc96959493929190612f88565b6020604051808303816000875af11580156111eb573d6000803e3d6000fd5b505050506040513d601f19601f8201168201806040525081019061120f9190613005565b90507f000000000000000000000000000000000000000000000000000000000000000073ffffffffffffffffffffffffffffffffffffffff166355a373d66040518163ffffffff1660e01b8152600401602060405180830381865afa15801561127c573d6000803e3d6000fd5b505050506040513d601f19601f820116820180604052508101906112a09190612be0565b73ffffffffffffffffffffffffffffffffffffffff166323b872dd3330856040518463ffffffff1660e01b81526004016112dc93929190612c0d565b6020604051808303816000875af11580156112fb573d6000803e3d6000fd5b505050506040513d601f19601f8201168201806040525081019061131f91906124d9565b507f1a8b22db977f49ec3abea5438326637bc109f2492ee4768f4c9c675a8464eba581338787878760405161135996959493929190613032565b60405180910390a15050505050565b7f000000000000000000000000000000000000000000000000000000000000000081565b600080600090505b8351811015611401578273ffffffffffffffffffffffffffffffffffffffff168482815181106113c7576113c66130a8565b5b602002602001015173ffffffffffffffffffffffffffffffffffffffff16036113f4576001915050611407565b8080600101915050611394565b50600090505b92915050565b7f000000000000000000000000000000000000000000000000000000000000000073ffffffffffffffffffffffffffffffffffffffff166364cfb408836040518263ffffffff1660e01b8152600401611466919061222e565b602060405180830381865afa158015611483573d6000803e3d6000fd5b505050506040513d601f19601f820116820180604052508101906114a791906124d9565b6114e6576040517f08c379a00000000000000000000000000000000000000000000000000000000081526004016114dd90612563565b60405180910390fd5b60027f000000000000000000000000000000000000000000000000000000000000000073ffffffffffffffffffffffffffffffffffffffff16639507d39a846040518263ffffffff1660e01b8152600401611541919061222e565b600060405180830381865afa15801561155e573d6000803e3d6000fd5b505050506040513d6000823e3d601f19601f820116820180604052508101906115879190612854565b60c00151036115cb576040517f08c379a00000000000000000000000000000000000000000000000000000000081526004016115c290613123565b60405180910390fd5b7f000000000000000000000000000000000000000000000000000000000000000073ffffffffffffffffffffffffffffffffffffffff1663e2f3182983836040518363ffffffff1660e01b8152600401611626929190613181565b600060405180830381600087803b15801561164057600080fd5b505af1158015611654573d6000803e3d6000fd5b505050507fc8926ec9c62d9b87ca5e4dfb0b49c1d0797cde714599e2c6d5663e5b813413ab82826040516116899291906131b9565b60405180910390a15050565b60007f000000000000000000000000000000000000000000000000000000000000000073ffffffffffffffffffffffffffffffffffffffff16639507d39a836040518263ffffffff1660e01b81526004016116f0919061222e565b600060405180830381865afa15801561170d573d6000803e3d6000fd5b505050506040513d6000823e3d601f19601f820116820180604052508101906117369190612854565b90507f000000000000000000000000000000000000000000000000000000000000000073ffffffffffffffffffffffffffffffffffffffff166355a373d66040518163ffffffff1660e01b8152600401602060405180830381865afa1580156117a3573d6000803e3d6000fd5b505050506040513d601f19601f820116820180604052508101906117c79190612be0565b73ffffffffffffffffffffffffffffffffffffffff166323b872dd308360000151600a8560a001516117f991906131e2565b6040518463ffffffff1660e01b815260040161181793929190612c0d565b6020604051808303816000875af1158015611836573d6000803e3d6000fd5b505050506040513d601f19601f8201168201806040525081019061185a91906124d9565b5060005b8160200151518110156119b857600082602001518281518110611884576118836130a8565b5b602002602001015190507f000000000000000000000000000000000000000000000000000000000000000073ffffffffffffffffffffffffffffffffffffffff166355a373d66040518163ffffffff1660e01b8152600401602060405180830381865afa1580156118f9573d6000803e3d6000fd5b505050506040513d601f19601f8201168201806040525081019061191d9190612be0565b73ffffffffffffffffffffffffffffffffffffffff166323b872dd3083600a601461194891906131e2565b6040518463ffffffff1660e01b815260040161196693929190612c0d565b6020604051808303816000875af1158015611985573d6000803e3d6000fd5b505050506040513d601f19601f820116820180604052508101906119a991906124d9565b5050808060010191505061185e565b5060005b60008084815260200190815260200160002080549050811015611b4a57600080600085815260200190815260200160002082815481106119ff576119fe6130a8565b5b9060005260206000200160009054906101000a900473ffffffffffffffffffffffffffffffffffffffff1690507f000000000000000000000000000000000000000000000000000000000000000073ffffffffffffffffffffffffffffffffffffffff166355a373d66040518163ffffffff1660e01b8152600401602060405180830381865afa158015611a97573d6000803e3d6000fd5b505050506040513d601f19601f82011682018060405250810190611abb9190612be0565b73ffffffffffffffffffffffffffffffffffffffff166323b872dd3083600a6040518463ffffffff1660e01b8152600401611af893929190612c0d565b6020604051808303816000875af1158015611b17573d6000803e3d6000fd5b505050506040513d601f19601f82011682018060405250810190611b3b91906124d9565b505080806001019150506119bc565b505050565b60007f000000000000000000000000000000000000000000000000000000000000000073ffffffffffffffffffffffffffffffffffffffff16639507d39a836040518263ffffffff1660e01b8152600401611baa919061222e565b600060405180830381865afa158015611bc7573d6000803e3d6000fd5b505050506040513d6000823e3d601f19601f82011682018060405250810190611bf09190612854565b90507f000000000000000000000000000000000000000000000000000000000000000073ffffffffffffffffffffffffffffffffffffffff166355a373d66040518163ffffffff1660e01b8152600401602060405180830381865afa158015611c5d573d6000803e3d6000fd5b505050506040513d601f19601f82011682018060405250810190611c819190612be0565b73ffffffffffffffffffffffffffffffffffffffff166379cc6790308360a001516040518363ffffffff1660e01b8152600401611cbf929190612da2565b600060405180830381600087803b158015611cd957600080fd5b505af1158015611ced573d6000803e3d6000fd5b5050505060005b816020015151811015611e0a577f000000000000000000000000000000000000000000000000000000000000000073ffffffffffffffffffffffffffffffffffffffff166355a373d66040518163ffffffff1660e01b8152600401602060405180830381865afa158015611d6c573d6000803e3d6000fd5b505050506040513d601f19601f82011682018060405250810190611d909190612be0565b73ffffffffffffffffffffffffffffffffffffffff166379cc67903060146040518363ffffffff1660e01b8152600401611dcb929190612da2565b600060405180830381600087803b158015611de557600080fd5b505af1158015611df9573d6000803e3d6000fd5b505050508080600101915050611cf4565b5060005b60008084815260200190815260200160002080549050811015611f9c5760008060008581526020019081526020016000208281548110611e5157611e506130a8565b5b9060005260206000200160009054906101000a900473ffffffffffffffffffffffffffffffffffffffff1690507f000000000000000000000000000000000000000000000000000000000000000073ffffffffffffffffffffffffffffffffffffffff166355a373d66040518163ffffffff1660e01b8152600401602060405180830381865afa158015611ee9573d6000803e3d6000fd5b505050506040513d601f19601f82011682018060405250810190611f0d9190612be0565b73ffffffffffffffffffffffffffffffffffffffff166323b872dd3083600a6040518463ffffffff1660e01b8152600401611f4a93929190612c0d565b6020604051808303816000875af1158015611f69573d6000803e3d6000fd5b505050506040513d601f19601f82011682018060405250810190611f8d91906124d9565b50508080600101915050611e0e565b505050565b60017f000000000000000000000000000000000000000000000000000000000000000073ffffffffffffffffffffffffffffffffffffffff16639507d39a836040518263ffffffff1660e01b8152600401611ffc919061222e565b600060405180830381865afa158015612019573d6000803e3d6000fd5b505050506040513d6000823e3d601f19601f820116820180604052508101906120429190612854565b60c0015114612086576040517f08c379a000000000000000000000000000000000000000000000000000000000815260040161207d9061290f565b60405180910390fd5b61209181600261140d565b50565b6000604051905090565b600080fd5b600080fd5b6000819050919050565b6120bb816120a8565b81146120c657600080fd5b50565b6000813590506120d8816120b2565b92915050565b60008115159050919050565b6120f3816120de565b81146120fe57600080fd5b50565b600081359050612110816120ea565b92915050565b6000806040838503121561212d5761212c61209e565b5b600061213b858286016120c9565b925050602061214c85828601612101565b9150509250929050565b6000806040838503121561216d5761216c61209e565b5b600061217b858286016120c9565b925050602061218c858286016120c9565b9150509250929050565b600073ffffffffffffffffffffffffffffffffffffffff82169050919050565b60006121c182612196565b9050919050565b6121d1816121b6565b82525050565b60006020820190506121ec60008301846121c8565b92915050565b6000602082840312156122085761220761209e565b5b6000612216848285016120c9565b91505092915050565b612228816120a8565b82525050565b6000602082019050612243600083018461221f565b92915050565b600080fd5b600080fd5b6000601f19601f8301169050919050565b7f4e487b7100000000000000000000000000000000000000000000000000000000600052604160045260246000fd5b61229c82612253565b810181811067ffffffffffffffff821117156122bb576122ba612264565b5b80604052505050565b60006122ce612094565b90506122da8282612293565b919050565b600067ffffffffffffffff8211156122fa576122f9612264565b5b61230382612253565b9050602081019050919050565b82818337600083830152505050565b600061233261232d846122df565b6122c4565b90508281526020810184848401111561234e5761234d61224e565b5b612359848285612310565b509392505050565b600082601f83011261237657612375612249565b5b813561238684826020860161231f565b91505092915050565b600080600080608085870312156123a9576123a861209e565b5b600085013567ffffffffffffffff8111156123c7576123c66120a3565b5b6123d387828801612361565b945050602085013567ffffffffffffffff8111156123f4576123f36120a3565b5b61240087828801612361565b935050604085013567ffffffffffffffff811115612421576124206120a3565b5b61242d87828801612361565b925050606061243e878288016120c9565b91505092959194509250565b6000819050919050565b600061246f61246a61246584612196565b61244a565b612196565b9050919050565b600061248182612454565b9050919050565b600061249382612476565b9050919050565b6124a381612488565b82525050565b60006020820190506124be600083018461249a565b92915050565b6000815190506124d3816120ea565b92915050565b6000602082840312156124ef576124ee61209e565b5b60006124fd848285016124c4565b91505092915050565b600082825260208201905092915050565b7f52657175657374206e6f7420666f756e64000000000000000000000000000000600082015250565b600061254d601183612506565b915061255882612517565b602082019050919050565b6000602082019050818103600083015261257c81612540565b9050919050565b600080fd5b600080fd5b612596816121b6565b81146125a157600080fd5b50565b6000815190506125b38161258d565b92915050565b600067ffffffffffffffff8211156125d4576125d3612264565b5b602082029050602081019050919050565b600080fd5b60006125fd6125f8846125b9565b6122c4565b905080838252602082019050602084028301858111156126205761261f6125e5565b5b835b81811015612649578061263588826125a4565b845260208401935050602081019050612622565b5050509392505050565b600082601f83011261266857612667612249565b5b81516126788482602086016125ea565b91505092915050565b60005b8381101561269f578082015181840152602081019050612684565b60008484015250505050565b60006126be6126b9846122df565b6122c4565b9050828152602081018484840111156126da576126d961224e565b5b6126e5848285612681565b509392505050565b600082601f83011261270257612701612249565b5b81516127128482602086016126ab565b91505092915050565b60008151905061272a816120b2565b92915050565b600060e0828403121561274657612745612583565b5b61275060e06122c4565b90506000612760848285016125a4565b600083015250602082015167ffffffffffffffff81111561278457612783612588565b5b61279084828501612653565b602083015250604082015167ffffffffffffffff8111156127b4576127b3612588565b5b6127c0848285016126ed565b604083015250606082015167ffffffffffffffff8111156127e4576127e3612588565b5b6127f0848285016126ed565b606083015250608082015167ffffffffffffffff81111561281457612813612588565b5b612820848285016126ed565b60808301525060a06128348482850161271b565b60a08301525060c06128488482850161271b565b60c08301525092915050565b60006020828403121561286a5761286961209e565b5b600082015167ffffffffffffffff811115612888576128876120a3565b5b61289484828501612730565b91505092915050565b7f52657175657374206973206e6f7420696e20436f6d6d756e6974792056616c6960008201527f646174696f6e2070686173650000000000000000000000000000000000000000602082015250565b60006128f9602c83612506565b91506129048261289d565b604082019050919050565b60006020820190508181036000830152612928816128ec565b9050919050565b7f566f7465722068617320616c72656164792063617374656420766f746520666f60008201527f7220746869732072657175657374000000000000000000000000000000000000602082015250565b600061298b602e83612506565b91506129968261292f565b604082019050919050565b600060208201905081810360008301526129ba8161297e565b9050919050565b7f4e487b7100000000000000000000000000000000000000000000000000000000600052601160045260246000fd5b60006129fb826120a8565b91507fffffffffffffffffffffffffffffffffffffffffffffffffffffffffffffffff8203612a2d57612a2c6129c1565b5b600182019050919050565b612a41816120de565b82525050565b6000606082019050612a5c600083018661221f565b612a6960208301856121c8565b612a766040830184612a38565b949350505050565b7f52657175657374206973206e6f7420696e20566f756368696e672050726f636560008201527f7373000000000000000000000000000000000000000000000000000000000000602082015250565b6000612ada602283612506565b9150612ae582612a7e565b604082019050919050565b60006020820190508181036000830152612b0981612acd565b9050919050565b7f566f75636865722068617320616c726561647920766f756368656420666f722060008201527f7468697320726571756573740000000000000000000000000000000000000000602082015250565b6000612b6c602c83612506565b9150612b7782612b10565b604082019050919050565b60006020820190508181036000830152612b9b81612b5f565b9050919050565b6000612bad826121b6565b9050919050565b612bbd81612ba2565b8114612bc857600080fd5b50565b600081519050612bda81612bb4565b92915050565b600060208284031215612bf657612bf561209e565b5b6000612c0484828501612bcb565b91505092915050565b6000606082019050612c2260008301866121c8565b612c2f60208301856121c8565b612c3c604083018461221f565b949350505050565b6000604082019050612c59600083018561221f565b612c6660208301846121c8565b9392505050565b6000606082019050612c82600083018661221f565b612c8f60208301856121c8565b612c9c604083018461221f565b949350505050565b7f52657175657374206973206e6f7420696e20566f756368696e672050726f636560008201527f7373207068617365000000000000000000000000000000000000000000000000602082015250565b6000612d00602883612506565b9150612d0b82612ca4565b604082019050919050565b60006020820190508181036000830152612d2f81612cf3565b9050919050565b7f416c7265616479206d696e74656420746f207468697320757365720000000000600082015250565b6000612d6c601b83612506565b9150612d7782612d36565b602082019050919050565b60006020820190508181036000830152612d9b81612d5f565b9050919050565b6000604082019050612db760008301856121c8565b612dc4602083018461221f565b9392505050565b6000604082019050612de0600083018561221f565b612ded6020830184612a38565b9392505050565b7f5374616b6520616d6f756e74206d75737420626520677265617465722074686160008201527f6e20323000000000000000000000000000000000000000000000000000000000602082015250565b6000612e50602483612506565b9150612e5b82612df4565b604082019050919050565b60006020820190508181036000830152612e7f81612e43565b9050919050565b600081519050919050565b600082825260208201905092915050565b6000819050602082019050919050565b612ebb816121b6565b82525050565b6000612ecd8383612eb2565b60208301905092915050565b6000602082019050919050565b6000612ef182612e86565b612efb8185612e91565b9350612f0683612ea2565b8060005b83811015612f37578151612f1e8882612ec1565b9750612f2983612ed9565b925050600181019050612f0a565b5085935050505092915050565b600081519050919050565b6000612f5a82612f44565b612f648185612506565b9350612f74818560208601612681565b612f7d81612253565b840191505092915050565b600060c082019050612f9d60008301896121c8565b8181036020830152612faf8188612ee6565b90508181036040830152612fc38187612f4f565b90508181036060830152612fd78186612f4f565b90508181036080830152612feb8185612f4f565b9050612ffa60a083018461221f565b979650505050505050565b60006020828403121561301b5761301a61209e565b5b60006130298482850161271b565b91505092915050565b600060c082019050613047600083018961221f565b61305460208301886121c8565b81810360408301526130668187612f4f565b9050818103606083015261307a8186612f4f565b9050818103608083015261308e8185612f4f565b905061309d60a083018461221f565b979650505050505050565b7f4e487b7100000000000000000000000000000000000000000000000000000000600052603260045260246000fd5b7f5265717565737420697320636c6f736564000000000000000000000000000000600082015250565b600061310d601183612506565b9150613118826130d7565b602082019050919050565b6000602082019050818103600083015261313c81613100565b9050919050565b600060ff82169050919050565b600061316b61316661316184613143565b61244a565b6120a8565b9050919050565b61317b81613150565b82525050565b6000604082019050613196600083018561221f565b6131a36020830184613172565b9392505050565b6131b381613143565b82525050565b60006040820190506131ce600083018561221f565b6131db60208301846131aa565b9392505050565b60006131ed826120a8565b91506131f8836120a8565b92508282019050808211156132105761320f6129c1565b5b9291505056fea264697066735822122043b078d1d9f3e54b283215013a0d6c0676d285c02645bba93c38655ec551c14e64736f6c63430008180033",
  "linkReferences": {},
  "deployedLinkReferences": {}
}