{
  "_format": "hh-sol-artifact-1",
  "contractName": "SkillVouchContract",
  "sourceName": "contracts/SkillVouchContract.sol",
  "abi": [
    {
      "inputs": [
        {
          "internalType": "address",
          "name": "_userRequestStructAddress",
          "type": "address"
        }
      ],
      "stateMutability": "nonpayable",
      "type": "constructor"
    },
    {
      "anonymous": false,
      "inputs": [
        {
          "indexed": false,
          "internalType": "uint256",
          "name": "requestId",
          "type": "uint256"
        },
        {
          "indexed": false,
          "internalType": "bool",
          "name": "accepted",
          "type": "bool"
        }
      ],
      "name": "RequestClosed",
      "type": "event"
    },
    {
      "anonymous": false,
      "inputs": [
        {
          "indexed": false,
          "internalType": "uint256",
          "name": "requestId",
          "type": "uint256"
        },
        {
          "indexed": false,
          "internalType": "address",
          "name": "user",
          "type": "address"
        },
        {
          "indexed": false,
          "internalType": "string",
          "name": "skill",
          "type": "string"
        },
        {
          "indexed": false,
          "internalType": "string",
          "name": "project",
          "type": "string"
        },
        {
          "indexed": false,
          "internalType": "string",
          "name": "experience",
          "type": "string"
        },
        {
          "indexed": false,
          "internalType": "uint256",
          "name": "stakeAmount",
          "type": "uint256"
        }
      ],
      "name": "RequestCreated",
      "type": "event"
    },
    {
      "anonymous": false,
      "inputs": [
        {
          "indexed": false,
          "internalType": "uint256",
          "name": "requestId",
          "type": "uint256"
        }
      ],
      "name": "RequestMovedToClosedPhase",
      "type": "event"
    },
    {
      "anonymous": false,
      "inputs": [
        {
          "indexed": false,
          "internalType": "uint256",
          "name": "requestId",
          "type": "uint256"
        }
      ],
      "name": "RequestMovedToCommunityValidation",
      "type": "event"
    },
    {
      "anonymous": false,
      "inputs": [
        {
          "indexed": false,
          "internalType": "uint256",
          "name": "requestId",
          "type": "uint256"
        },
        {
          "indexed": false,
          "internalType": "uint8",
          "name": "_newStatus",
          "type": "uint8"
        }
      ],
      "name": "RequestStatusChanged",
      "type": "event"
    },
    {
      "anonymous": false,
      "inputs": [
        {
          "indexed": false,
          "internalType": "uint256",
          "name": "requestId",
          "type": "uint256"
        },
        {
          "indexed": false,
          "internalType": "address",
          "name": "vouchor",
          "type": "address"
        },
        {
          "indexed": false,
          "internalType": "uint256",
          "name": "stakedAmount",
          "type": "uint256"
        }
      ],
      "name": "SkillVouched",
      "type": "event"
    },
    {
      "anonymous": false,
      "inputs": [
        {
          "indexed": false,
          "internalType": "uint256",
          "name": "requestId",
          "type": "uint256"
        },
        {
          "indexed": false,
          "internalType": "address",
          "name": "voter",
          "type": "address"
        },
        {
          "indexed": false,
          "internalType": "bool",
          "name": "acceptance",
          "type": "bool"
        }
      ],
      "name": "VoteCasted",
      "type": "event"
    },
    {
      "inputs": [
        {
          "internalType": "uint256",
          "name": "",
          "type": "uint256"
        }
      ],
      "name": "acceptVotes",
      "outputs": [
        {
          "internalType": "uint256",
          "name": "",
          "type": "uint256"
        }
      ],
      "stateMutability": "view",
      "type": "function"
    },
    {
      "inputs": [
        {
          "internalType": "uint256",
          "name": "_requestId",
          "type": "uint256"
        },
        {
          "internalType": "bool",
          "name": "_acceptance",
          "type": "bool"
        }
      ],
      "name": "castVote",
      "outputs": [],
      "stateMutability": "nonpayable",
      "type": "function"
    },
    {
      "inputs": [
        {
          "internalType": "uint256",
          "name": "_requestId",
          "type": "uint256"
        }
      ],
      "name": "closeRequest",
      "outputs": [],
      "stateMutability": "nonpayable",
      "type": "function"
    },
    {
      "inputs": [
        {
          "internalType": "string",
          "name": "_skill",
          "type": "string"
        },
        {
          "internalType": "string",
          "name": "_project",
          "type": "string"
        },
        {
          "internalType": "string",
          "name": "_experience",
          "type": "string"
        },
        {
          "internalType": "uint256",
          "name": "_stakeAmount",
          "type": "uint256"
        }
      ],
      "name": "createRequest",
      "outputs": [],
      "stateMutability": "payable",
      "type": "function"
    },
    {
      "inputs": [],
      "name": "mintTokensToNewUsers",
      "outputs": [],
      "stateMutability": "nonpayable",
      "type": "function"
    },
    {
      "inputs": [
        {
          "internalType": "uint256",
          "name": "_requestId",
          "type": "uint256"
        }
      ],
      "name": "moveRequestToCommunityValidation",
      "outputs": [],
      "stateMutability": "nonpayable",
      "type": "function"
    },
    {
      "inputs": [
        {
          "internalType": "uint256",
          "name": "",
          "type": "uint256"
        }
      ],
      "name": "rejectVotes",
      "outputs": [
        {
          "internalType": "uint256",
          "name": "",
          "type": "uint256"
        }
      ],
      "stateMutability": "view",
      "type": "function"
    },
    {
      "inputs": [
        {
          "internalType": "address",
          "name": "",
          "type": "address"
        },
        {
          "internalType": "uint256",
          "name": "",
          "type": "uint256"
        }
      ],
      "name": "userToRequests",
      "outputs": [
        {
          "internalType": "uint256",
          "name": "",
          "type": "uint256"
        }
      ],
      "stateMutability": "view",
      "type": "function"
    },
    {
      "inputs": [
        {
          "internalType": "uint256",
          "name": "",
          "type": "uint256"
        },
        {
          "internalType": "uint256",
          "name": "",
          "type": "uint256"
        }
      ],
      "name": "voted",
      "outputs": [
        {
          "internalType": "address",
          "name": "",
          "type": "address"
        }
      ],
      "stateMutability": "view",
      "type": "function"
    },
    {
      "inputs": [
        {
          "internalType": "uint256",
          "name": "_requestId",
          "type": "uint256"
        }
      ],
      "name": "vouchForSkill",
      "outputs": [],
      "stateMutability": "nonpayable",
      "type": "function"
    },
    {
      "inputs": [],
      "name": "vouchingTimeLimit",
      "outputs": [
        {
          "internalType": "uint256",
          "name": "",
          "type": "uint256"
        }
      ],
      "stateMutability": "view",
      "type": "function"
    }
  ],
  "bytecode": "0x60806040523480156200001157600080fd5b506040516200368c3803806200368c8339818101604052810190620000379190620001ec565b806000806101000a81548173ffffffffffffffffffffffffffffffffffffffff021916908373ffffffffffffffffffffffffffffffffffffffff16021790555060008054906101000a900473ffffffffffffffffffffffffffffffffffffffff1673ffffffffffffffffffffffffffffffffffffffff166355a373d66040518163ffffffff1660e01b8152600401602060405180830381865afa158015620000e3573d6000803e3d6000fd5b505050506040513d601f19601f8201168201806040525081019062000109919062000263565b73ffffffffffffffffffffffffffffffffffffffff1663449a52f8306103e86040518363ffffffff1660e01b815260040162000147929190620002c1565b600060405180830381600087803b1580156200016257600080fd5b505af115801562000177573d6000803e3d6000fd5b5050505050620002ee565b600080fd5b600073ffffffffffffffffffffffffffffffffffffffff82169050919050565b6000620001b48262000187565b9050919050565b620001c681620001a7565b8114620001d257600080fd5b50565b600081519050620001e681620001bb565b92915050565b60006020828403121562000205576200020462000182565b5b60006200021584828501620001d5565b91505092915050565b60006200022b82620001a7565b9050919050565b6200023d816200021e565b81146200024957600080fd5b50565b6000815190506200025d8162000232565b92915050565b6000602082840312156200027c576200027b62000182565b5b60006200028c848285016200024c565b91505092915050565b620002a081620001a7565b82525050565b6000819050919050565b620002bb81620002a6565b82525050565b6000604082019050620002d8600083018562000295565b620002e76020830184620002b0565b9392505050565b61338e80620002fe6000396000f3fe60806040526004361061009c5760003560e01c8063689b820f11610064578063689b820f14610198578063a1e995db146101c1578063d966f6af146101fe578063edc797da1461023b578063f0282b7f14610252578063f82f7bdd1461027b5761009c565b806315373e3d146100a15780632fe18ad6146100ca5780635f287cf2146100f55780636114fb741461013257806362dc825f1461015b575b600080fd5b3480156100ad57600080fd5b506100c860048036038101906100c391906121ef565b610297565b005b3480156100d657600080fd5b506100df610647565b6040516100ec919061223e565b60405180910390f35b34801561010157600080fd5b5061011c60048036038101906101179190612259565b61064d565b60405161012991906122da565b60405180910390f35b34801561013e57600080fd5b50610159600480360381019061015491906122f5565b61069b565b005b34801561016757600080fd5b50610182600480360381019061017d91906122f5565b610b22565b60405161018f919061223e565b60405180910390f35b3480156101a457600080fd5b506101bf60048036038101906101ba91906122f5565b610b3a565b005b3480156101cd57600080fd5b506101e860048036038101906101e3919061234e565b610c65565b6040516101f5919061223e565b60405180910390f35b34801561020a57600080fd5b50610225600480360381019061022091906122f5565b610c96565b604051610232919061223e565b60405180910390f35b34801561024757600080fd5b50610250610cae565b005b34801561025e57600080fd5b50610279600480360381019061027491906122f5565b610f11565b005b610295600480360381019061029091906124d4565b611195565b005b60008054906101000a900473ffffffffffffffffffffffffffffffffffffffff1673ffffffffffffffffffffffffffffffffffffffff166364cfb408836040518263ffffffff1660e01b81526004016102f0919061223e565b602060405180830381865afa15801561030d573d6000803e3d6000fd5b505050506040513d601f19601f8201168201806040525081019061033191906125a4565b610370576040517f08c379a00000000000000000000000000000000000000000000000000000000081526004016103679061262e565b60405180910390fd5b600160008054906101000a900473ffffffffffffffffffffffffffffffffffffffff1673ffffffffffffffffffffffffffffffffffffffff16639507d39a846040518263ffffffff1660e01b81526004016103cb919061223e565b600060405180830381865afa1580156103e8573d6000803e3d6000fd5b505050506040513d6000823e3d601f19601f820116820180604052508101906104119190612934565b60e0015114610455576040517f08c379a000000000000000000000000000000000000000000000000000000000815260040161044c906129ef565b60405180910390fd5b6104f6600360008481526020019081526020016000208054806020026020016040519081016040528092919081815260200182805480156104eb57602002820191906000526020600020905b8160009054906101000a900473ffffffffffffffffffffffffffffffffffffffff1673ffffffffffffffffffffffffffffffffffffffff16815260200190600101908083116104a1575b505050505033611428565b15610536576040517f08c379a000000000000000000000000000000000000000000000000000000000815260040161052d90612a81565b60405180910390fd5b801561056a5760046000838152602001908152602001600020600081548092919061056090612ad0565b9190505550610594565b60056000838152602001908152602001600020600081548092919061058e90612ad0565b91905055505b60036000838152602001908152602001600020339080600181540180825580915050600190039060005260206000200160009091909190916101000a81548173ffffffffffffffffffffffffffffffffffffffff021916908373ffffffffffffffffffffffffffffffffffffffff1602179055507f5aaa9aad7433112662b9e5ae23b96ed62b00035f413ab908c55607284e0804e282338360405161063b93929190612b27565b60405180910390a15050565b60025481565b6003602052816000526040600020818154811061066957600080fd5b906000526020600020016000915091509054906101000a900473ffffffffffffffffffffffffffffffffffffffff1681565b60008054906101000a900473ffffffffffffffffffffffffffffffffffffffff1673ffffffffffffffffffffffffffffffffffffffff166364cfb408826040518263ffffffff1660e01b81526004016106f4919061223e565b602060405180830381865afa158015610711573d6000803e3d6000fd5b505050506040513d601f19601f8201168201806040525081019061073591906125a4565b610774576040517f08c379a000000000000000000000000000000000000000000000000000000000815260040161076b9061262e565b60405180910390fd5b60008060009054906101000a900473ffffffffffffffffffffffffffffffffffffffff1673ffffffffffffffffffffffffffffffffffffffff16639507d39a836040518263ffffffff1660e01b81526004016107d0919061223e565b600060405180830381865afa1580156107ed573d6000803e3d6000fd5b505050506040513d6000823e3d601f19601f820116820180604052508101906108169190612934565b60e001511461085a576040517f08c379a000000000000000000000000000000000000000000000000000000000815260040161085190612bd0565b60405180910390fd5b61090660008054906101000a900473ffffffffffffffffffffffffffffffffffffffff1673ffffffffffffffffffffffffffffffffffffffff16639507d39a836040518263ffffffff1660e01b81526004016108b6919061223e565b600060405180830381865afa1580156108d3573d6000803e3d6000fd5b505050506040513d6000823e3d601f19601f820116820180604052508101906108fc9190612934565b6020015133611428565b15610946576040517f08c379a000000000000000000000000000000000000000000000000000000000815260040161093d90612c62565b60405180910390fd5b60008054906101000a900473ffffffffffffffffffffffffffffffffffffffff1673ffffffffffffffffffffffffffffffffffffffff166355a373d66040518163ffffffff1660e01b8152600401602060405180830381865afa1580156109b1573d6000803e3d6000fd5b505050506040513d601f19601f820116820180604052508101906109d59190612cc0565b73ffffffffffffffffffffffffffffffffffffffff166323b872dd333060146040518463ffffffff1660e01b8152600401610a1293929190612ced565b6020604051808303816000875af1158015610a31573d6000803e3d6000fd5b505050506040513d601f19601f82011682018060405250810190610a5591906125a4565b5060008054906101000a900473ffffffffffffffffffffffffffffffffffffffff1673ffffffffffffffffffffffffffffffffffffffff1663d5ad68d982336040518363ffffffff1660e01b8152600401610ab1929190612d24565b600060405180830381600087803b158015610acb57600080fd5b505af1158015610adf573d6000803e3d6000fd5b505050507f445eb8a4b28e4b0fe3edb71d9cc1d83433f0a6d135955f476eb0151b31798a3681336014604051610b1793929190612d4d565b60405180910390a150565b60046020528060005260406000206000915090505481565b60008060009054906101000a900473ffffffffffffffffffffffffffffffffffffffff1673ffffffffffffffffffffffffffffffffffffffff16639507d39a836040518263ffffffff1660e01b8152600401610b96919061223e565b600060405180830381865afa158015610bb3573d6000803e3d6000fd5b505050506040513d6000823e3d601f19601f82011682018060405250810190610bdc9190612934565b60e0015114610c20576040517f08c379a0000000000000000000000000000000000000000000000000000000008152600401610c1790612df6565b60405180910390fd5b610c2b8160016114a9565b7f39e8425a08a567142b123f2e024900926ba4733a3e293d75cd245e9db772133881604051610c5a919061223e565b60405180910390a150565b60016020528160005260406000208181548110610c8157600080fd5b90600052602060002001600091509150505481565b60056020528060005260406000206000915090505481565b60008054906101000a900473ffffffffffffffffffffffffffffffffffffffff1673ffffffffffffffffffffffffffffffffffffffff16630ddcfe8e336040518263ffffffff1660e01b8152600401610d0791906122da565b602060405180830381865afa158015610d24573d6000803e3d6000fd5b505050506040513d601f19601f82011682018060405250810190610d4891906125a4565b15610d88576040517f08c379a0000000000000000000000000000000000000000000000000000000008152600401610d7f90612e62565b60405180910390fd5b60008054906101000a900473ffffffffffffffffffffffffffffffffffffffff1673ffffffffffffffffffffffffffffffffffffffff166355a373d66040518163ffffffff1660e01b8152600401602060405180830381865afa158015610df3573d6000803e3d6000fd5b505050506040513d601f19601f82011682018060405250810190610e179190612cc0565b73ffffffffffffffffffffffffffffffffffffffff1663449a52f83360326040518363ffffffff1660e01b8152600401610e52929190612e82565b600060405180830381600087803b158015610e6c57600080fd5b505af1158015610e80573d6000803e3d6000fd5b5050505060008054906101000a900473ffffffffffffffffffffffffffffffffffffffff1673ffffffffffffffffffffffffffffffffffffffff1663421b2d8b336040518263ffffffff1660e01b8152600401610edd91906122da565b600060405180830381600087803b158015610ef757600080fd5b505af1158015610f0b573d6000803e3d6000fd5b50505050565b60008054906101000a900473ffffffffffffffffffffffffffffffffffffffff1673ffffffffffffffffffffffffffffffffffffffff166364cfb408826040518263ffffffff1660e01b8152600401610f6a919061223e565b602060405180830381865afa158015610f87573d6000803e3d6000fd5b505050506040513d601f19601f82011682018060405250810190610fab91906125a4565b610fea576040517f08c379a0000000000000000000000000000000000000000000000000000000008152600401610fe19061262e565b60405180910390fd5b600160008054906101000a900473ffffffffffffffffffffffffffffffffffffffff1673ffffffffffffffffffffffffffffffffffffffff16639507d39a836040518263ffffffff1660e01b8152600401611045919061223e565b600060405180830381865afa158015611062573d6000803e3d6000fd5b505050506040513d6000823e3d601f19601f8201168201806040525081019061108b9190612934565b60e00151146110cf576040517f08c379a00000000000000000000000000000000000000000000000000000000081526004016110c6906129ef565b60405180910390fd5b6005600082815260200190815260200160002054600460008381526020019081526020016000205411156111455761110681611731565b7fd204805208bb5b5fea6f63d5baa0b02392e939d9ff87e412b2f2ceacde50e099816001604051611138929190612eab565b60405180910390a1611189565b61114e81611bee565b7fd204805208bb5b5fea6f63d5baa0b02392e939d9ff87e412b2f2ceacde50e099816000604051611180929190612eab565b60405180910390a15b61119281612043565b50565b601481116111d8576040517f08c379a00000000000000000000000000000000000000000000000000000000081526004016111cf90612f46565b60405180910390fd5b60008060009054906101000a900473ffffffffffffffffffffffffffffffffffffffff1673ffffffffffffffffffffffffffffffffffffffff1663216cef4633600067ffffffffffffffff811115611233576112326123a9565b5b6040519080825280602002602001820160405280156112615781602001602082028036833780820191505090505b50600089898989426040518963ffffffff1660e01b815260040161128c9897969594939291906130ad565b6020604051808303816000875af11580156112ab573d6000803e3d6000fd5b505050506040513d601f19601f820116820180604052508101906112cf9190613147565b905060008054906101000a900473ffffffffffffffffffffffffffffffffffffffff1673ffffffffffffffffffffffffffffffffffffffff166355a373d66040518163ffffffff1660e01b8152600401602060405180830381865afa15801561133c573d6000803e3d6000fd5b505050506040513d601f19601f820116820180604052508101906113609190612cc0565b73ffffffffffffffffffffffffffffffffffffffff166323b872dd3330856040518463ffffffff1660e01b815260040161139c93929190612ced565b6020604051808303816000875af11580156113bb573d6000803e3d6000fd5b505050506040513d601f19601f820116820180604052508101906113df91906125a4565b507f1a8b22db977f49ec3abea5438326637bc109f2492ee4768f4c9c675a8464eba581338787878760405161141996959493929190613174565b60405180910390a15050505050565b600080600090505b835181101561149d578273ffffffffffffffffffffffffffffffffffffffff16848281518110611463576114626131ea565b5b602002602001015173ffffffffffffffffffffffffffffffffffffffff16036114905760019150506114a3565b8080600101915050611430565b50600090505b92915050565b60008054906101000a900473ffffffffffffffffffffffffffffffffffffffff1673ffffffffffffffffffffffffffffffffffffffff166364cfb408836040518263ffffffff1660e01b8152600401611502919061223e565b602060405180830381865afa15801561151f573d6000803e3d6000fd5b505050506040513d601f19601f8201168201806040525081019061154391906125a4565b611582576040517f08c379a00000000000000000000000000000000000000000000000000000000081526004016115799061262e565b60405180910390fd5b600260008054906101000a900473ffffffffffffffffffffffffffffffffffffffff1673ffffffffffffffffffffffffffffffffffffffff16639507d39a846040518263ffffffff1660e01b81526004016115dd919061223e565b600060405180830381865afa1580156115fa573d6000803e3d6000fd5b505050506040513d6000823e3d601f19601f820116820180604052508101906116239190612934565b60e0015103611667576040517f08c379a000000000000000000000000000000000000000000000000000000000815260040161165e90613265565b60405180910390fd5b60008054906101000a900473ffffffffffffffffffffffffffffffffffffffff1673ffffffffffffffffffffffffffffffffffffffff1663e2f3182983836040518363ffffffff1660e01b81526004016116c29291906132c3565b600060405180830381600087803b1580156116dc57600080fd5b505af11580156116f0573d6000803e3d6000fd5b505050507fc8926ec9c62d9b87ca5e4dfb0b49c1d0797cde714599e2c6d5663e5b813413ab82826040516117259291906132fb565b60405180910390a15050565b60008060009054906101000a900473ffffffffffffffffffffffffffffffffffffffff1673ffffffffffffffffffffffffffffffffffffffff16639507d39a836040518263ffffffff1660e01b815260040161178d919061223e565b600060405180830381865afa1580156117aa573d6000803e3d6000fd5b505050506040513d6000823e3d601f19601f820116820180604052508101906117d39190612934565b905060008054906101000a900473ffffffffffffffffffffffffffffffffffffffff1673ffffffffffffffffffffffffffffffffffffffff166355a373d66040518163ffffffff1660e01b8152600401602060405180830381865afa158015611840573d6000803e3d6000fd5b505050506040513d601f19601f820116820180604052508101906118649190612cc0565b73ffffffffffffffffffffffffffffffffffffffff166323b872dd308360000151600a8560c001516118969190613324565b6040518463ffffffff1660e01b81526004016118b493929190612ced565b6020604051808303816000875af11580156118d3573d6000803e3d6000fd5b505050506040513d601f19601f820116820180604052508101906118f791906125a4565b5060005b816020015151811015611a5557600082602001518281518110611921576119206131ea565b5b6020026020010151905060008054906101000a900473ffffffffffffffffffffffffffffffffffffffff1673ffffffffffffffffffffffffffffffffffffffff166355a373d66040518163ffffffff1660e01b8152600401602060405180830381865afa158015611996573d6000803e3d6000fd5b505050506040513d601f19601f820116820180604052508101906119ba9190612cc0565b73ffffffffffffffffffffffffffffffffffffffff166323b872dd3083600a60146119e59190613324565b6040518463ffffffff1660e01b8152600401611a0393929190612ced565b6020604051808303816000875af1158015611a22573d6000803e3d6000fd5b505050506040513d601f19601f82011682018060405250810190611a4691906125a4565b505080806001019150506118fb565b5060005b6003600084815260200190815260200160002080549050811015611be9576000600360008581526020019081526020016000208281548110611a9e57611a9d6131ea565b5b9060005260206000200160009054906101000a900473ffffffffffffffffffffffffffffffffffffffff16905060008054906101000a900473ffffffffffffffffffffffffffffffffffffffff1673ffffffffffffffffffffffffffffffffffffffff166355a373d66040518163ffffffff1660e01b8152600401602060405180830381865afa158015611b36573d6000803e3d6000fd5b505050506040513d601f19601f82011682018060405250810190611b5a9190612cc0565b73ffffffffffffffffffffffffffffffffffffffff166323b872dd3083600a6040518463ffffffff1660e01b8152600401611b9793929190612ced565b6020604051808303816000875af1158015611bb6573d6000803e3d6000fd5b505050506040513d601f19601f82011682018060405250810190611bda91906125a4565b50508080600101915050611a59565b505050565b60008060009054906101000a900473ffffffffffffffffffffffffffffffffffffffff1673ffffffffffffffffffffffffffffffffffffffff16639507d39a836040518263ffffffff1660e01b8152600401611c4a919061223e565b600060405180830381865afa158015611c67573d6000803e3d6000fd5b505050506040513d6000823e3d601f19601f82011682018060405250810190611c909190612934565b905060008054906101000a900473ffffffffffffffffffffffffffffffffffffffff1673ffffffffffffffffffffffffffffffffffffffff166355a373d66040518163ffffffff1660e01b8152600401602060405180830381865afa158015611cfd573d6000803e3d6000fd5b505050506040513d601f19601f82011682018060405250810190611d219190612cc0565b73ffffffffffffffffffffffffffffffffffffffff166379cc6790308360c001516040518363ffffffff1660e01b8152600401611d5f929190612e82565b600060405180830381600087803b158015611d7957600080fd5b505af1158015611d8d573d6000803e3d6000fd5b5050505060005b816020015151811015611eaa5760008054906101000a900473ffffffffffffffffffffffffffffffffffffffff1673ffffffffffffffffffffffffffffffffffffffff166355a373d66040518163ffffffff1660e01b8152600401602060405180830381865afa158015611e0c573d6000803e3d6000fd5b505050506040513d601f19601f82011682018060405250810190611e309190612cc0565b73ffffffffffffffffffffffffffffffffffffffff166379cc67903060146040518363ffffffff1660e01b8152600401611e6b929190612e82565b600060405180830381600087803b158015611e8557600080fd5b505af1158015611e99573d6000803e3d6000fd5b505050508080600101915050611d94565b5060005b600360008481526020019081526020016000208054905081101561203e576000600360008581526020019081526020016000208281548110611ef357611ef26131ea565b5b9060005260206000200160009054906101000a900473ffffffffffffffffffffffffffffffffffffffff16905060008054906101000a900473ffffffffffffffffffffffffffffffffffffffff1673ffffffffffffffffffffffffffffffffffffffff166355a373d66040518163ffffffff1660e01b8152600401602060405180830381865afa158015611f8b573d6000803e3d6000fd5b505050506040513d601f19601f82011682018060405250810190611faf9190612cc0565b73ffffffffffffffffffffffffffffffffffffffff166323b872dd3083600a6040518463ffffffff1660e01b8152600401611fec93929190612ced565b6020604051808303816000875af115801561200b573d6000803e3d6000fd5b505050506040513d601f19601f8201168201806040525081019061202f91906125a4565b50508080600101915050611eae565b505050565b600160008054906101000a900473ffffffffffffffffffffffffffffffffffffffff1673ffffffffffffffffffffffffffffffffffffffff16639507d39a836040518263ffffffff1660e01b815260040161209e919061223e565b600060405180830381865afa1580156120bb573d6000803e3d6000fd5b505050506040513d6000823e3d601f19601f820116820180604052508101906120e49190612934565b60e0015114612128576040517f08c379a000000000000000000000000000000000000000000000000000000000815260040161211f906129ef565b60405180910390fd5b6121338160026114a9565b7fdda2d1c0aa38f30cce7aabd96b3c102ea55b892054b6312823ef90636afb718481604051612162919061223e565b60405180910390a150565b6000604051905090565b600080fd5b600080fd5b6000819050919050565b61219481612181565b811461219f57600080fd5b50565b6000813590506121b18161218b565b92915050565b60008115159050919050565b6121cc816121b7565b81146121d757600080fd5b50565b6000813590506121e9816121c3565b92915050565b6000806040838503121561220657612205612177565b5b6000612214858286016121a2565b9250506020612225858286016121da565b9150509250929050565b61223881612181565b82525050565b6000602082019050612253600083018461222f565b92915050565b600080604083850312156122705761226f612177565b5b600061227e858286016121a2565b925050602061228f858286016121a2565b9150509250929050565b600073ffffffffffffffffffffffffffffffffffffffff82169050919050565b60006122c482612299565b9050919050565b6122d4816122b9565b82525050565b60006020820190506122ef60008301846122cb565b92915050565b60006020828403121561230b5761230a612177565b5b6000612319848285016121a2565b91505092915050565b61232b816122b9565b811461233657600080fd5b50565b60008135905061234881612322565b92915050565b6000806040838503121561236557612364612177565b5b600061237385828601612339565b9250506020612384858286016121a2565b9150509250929050565b600080fd5b600080fd5b6000601f19601f8301169050919050565b7f4e487b7100000000000000000000000000000000000000000000000000000000600052604160045260246000fd5b6123e182612398565b810181811067ffffffffffffffff82111715612400576123ff6123a9565b5b80604052505050565b600061241361216d565b905061241f82826123d8565b919050565b600067ffffffffffffffff82111561243f5761243e6123a9565b5b61244882612398565b9050602081019050919050565b82818337600083830152505050565b600061247761247284612424565b612409565b90508281526020810184848401111561249357612492612393565b5b61249e848285612455565b509392505050565b600082601f8301126124bb576124ba61238e565b5b81356124cb848260208601612464565b91505092915050565b600080600080608085870312156124ee576124ed612177565b5b600085013567ffffffffffffffff81111561250c5761250b61217c565b5b612518878288016124a6565b945050602085013567ffffffffffffffff8111156125395761253861217c565b5b612545878288016124a6565b935050604085013567ffffffffffffffff8111156125665761256561217c565b5b612572878288016124a6565b9250506060612583878288016121a2565b91505092959194509250565b60008151905061259e816121c3565b92915050565b6000602082840312156125ba576125b9612177565b5b60006125c88482850161258f565b91505092915050565b600082825260208201905092915050565b7f52657175657374206e6f7420666f756e64000000000000000000000000000000600082015250565b60006126186011836125d1565b9150612623826125e2565b602082019050919050565b600060208201905081810360008301526126478161260b565b9050919050565b600080fd5b600080fd5b60008151905061266781612322565b92915050565b600067ffffffffffffffff821115612688576126876123a9565b5b602082029050602081019050919050565b600080fd5b60006126b16126ac8461266d565b612409565b905080838252602082019050602084028301858111156126d4576126d3612699565b5b835b818110156126fd57806126e98882612658565b8452602084019350506020810190506126d6565b5050509392505050565b600082601f83011261271c5761271b61238e565b5b815161272c84826020860161269e565b91505092915050565b6000815190506127448161218b565b92915050565b60005b8381101561276857808201518184015260208101905061274d565b60008484015250505050565b600061278761278284612424565b612409565b9050828152602081018484840111156127a3576127a2612393565b5b6127ae84828561274a565b509392505050565b600082601f8301126127cb576127ca61238e565b5b81516127db848260208601612774565b91505092915050565b600061012082840312156127fb576127fa61264e565b5b612806610120612409565b9050600061281684828501612658565b600083015250602082015167ffffffffffffffff81111561283a57612839612653565b5b61284684828501612707565b602083015250604061285a84828501612735565b604083015250606082015167ffffffffffffffff81111561287e5761287d612653565b5b61288a848285016127b6565b606083015250608082015167ffffffffffffffff8111156128ae576128ad612653565b5b6128ba848285016127b6565b60808301525060a082015167ffffffffffffffff8111156128de576128dd612653565b5b6128ea848285016127b6565b60a08301525060c06128fe84828501612735565b60c08301525060e061291284828501612735565b60e08301525061010061292784828501612735565b6101008301525092915050565b60006020828403121561294a57612949612177565b5b600082015167ffffffffffffffff8111156129685761296761217c565b5b612974848285016127e4565b91505092915050565b7f52657175657374206973206e6f7420696e20436f6d6d756e6974792056616c6960008201527f646174696f6e2070686173650000000000000000000000000000000000000000602082015250565b60006129d9602c836125d1565b91506129e48261297d565b604082019050919050565b60006020820190508181036000830152612a08816129cc565b9050919050565b7f566f7465722068617320616c72656164792063617374656420766f746520666f60008201527f7220746869732072657175657374000000000000000000000000000000000000602082015250565b6000612a6b602e836125d1565b9150612a7682612a0f565b604082019050919050565b60006020820190508181036000830152612a9a81612a5e565b9050919050565b7f4e487b7100000000000000000000000000000000000000000000000000000000600052601160045260246000fd5b6000612adb82612181565b91507fffffffffffffffffffffffffffffffffffffffffffffffffffffffffffffffff8203612b0d57612b0c612aa1565b5b600182019050919050565b612b21816121b7565b82525050565b6000606082019050612b3c600083018661222f565b612b4960208301856122cb565b612b566040830184612b18565b949350505050565b7f52657175657374206973206e6f7420696e20566f756368696e672050726f636560008201527f7373000000000000000000000000000000000000000000000000000000000000602082015250565b6000612bba6022836125d1565b9150612bc582612b5e565b604082019050919050565b60006020820190508181036000830152612be981612bad565b9050919050565b7f566f75636865722068617320616c726561647920766f756368656420666f722060008201527f7468697320726571756573740000000000000000000000000000000000000000602082015250565b6000612c4c602c836125d1565b9150612c5782612bf0565b604082019050919050565b60006020820190508181036000830152612c7b81612c3f565b9050919050565b6000612c8d826122b9565b9050919050565b612c9d81612c82565b8114612ca857600080fd5b50565b600081519050612cba81612c94565b92915050565b600060208284031215612cd657612cd5612177565b5b6000612ce484828501612cab565b91505092915050565b6000606082019050612d0260008301866122cb565b612d0f60208301856122cb565b612d1c604083018461222f565b949350505050565b6000604082019050612d39600083018561222f565b612d4660208301846122cb565b9392505050565b6000606082019050612d62600083018661222f565b612d6f60208301856122cb565b612d7c604083018461222f565b949350505050565b7f52657175657374206973206e6f7420696e20566f756368696e672050726f636560008201527f7373207068617365000000000000000000000000000000000000000000000000602082015250565b6000612de06028836125d1565b9150612deb82612d84565b604082019050919050565b60006020820190508181036000830152612e0f81612dd3565b9050919050565b7f416c7265616479206d696e74656420746f207468697320757365720000000000600082015250565b6000612e4c601b836125d1565b9150612e5782612e16565b602082019050919050565b60006020820190508181036000830152612e7b81612e3f565b9050919050565b6000604082019050612e9760008301856122cb565b612ea4602083018461222f565b9392505050565b6000604082019050612ec0600083018561222f565b612ecd6020830184612b18565b9392505050565b7f5374616b6520616d6f756e74206d75737420626520677265617465722074686160008201527f6e20323000000000000000000000000000000000000000000000000000000000602082015250565b6000612f306024836125d1565b9150612f3b82612ed4565b604082019050919050565b60006020820190508181036000830152612f5f81612f23565b9050919050565b600081519050919050565b600082825260208201905092915050565b6000819050602082019050919050565b612f9b816122b9565b82525050565b6000612fad8383612f92565b60208301905092915050565b6000602082019050919050565b6000612fd182612f66565b612fdb8185612f71565b9350612fe683612f82565b8060005b83811015613017578151612ffe8882612fa1565b975061300983612fb9565b925050600181019050612fea565b5085935050505092915050565b6000819050919050565b6000819050919050565b600061305361304e61304984613024565b61302e565b612181565b9050919050565b61306381613038565b82525050565b600081519050919050565b600061307f82613069565b61308981856125d1565b935061309981856020860161274a565b6130a281612398565b840191505092915050565b6000610100820190506130c3600083018b6122cb565b81810360208301526130d5818a612fc6565b90506130e4604083018961305a565b81810360608301526130f68188613074565b9050818103608083015261310a8187613074565b905081810360a083015261311e8186613074565b905061312d60c083018561222f565b61313a60e083018461222f565b9998505050505050505050565b60006020828403121561315d5761315c612177565b5b600061316b84828501612735565b91505092915050565b600060c082019050613189600083018961222f565b61319660208301886122cb565b81810360408301526131a88187613074565b905081810360608301526131bc8186613074565b905081810360808301526131d08185613074565b90506131df60a083018461222f565b979650505050505050565b7f4e487b7100000000000000000000000000000000000000000000000000000000600052603260045260246000fd5b7f5265717565737420697320636c6f736564000000000000000000000000000000600082015250565b600061324f6011836125d1565b915061325a82613219565b602082019050919050565b6000602082019050818103600083015261327e81613242565b9050919050565b600060ff82169050919050565b60006132ad6132a86132a384613285565b61302e565b612181565b9050919050565b6132bd81613292565b82525050565b60006040820190506132d8600083018561222f565b6132e560208301846132b4565b9392505050565b6132f581613285565b82525050565b6000604082019050613310600083018561222f565b61331d60208301846132ec565b9392505050565b600061332f82612181565b915061333a83612181565b925082820190508082111561335257613351612aa1565b5b9291505056fea264697066735822122056125a8e01167404cbd56864e77cb78d5874c912db1df6afcfd47c7c9c2487f664736f6c63430008180033",
  "linkReferences": {},
  "deployedLinkReferences": {}
}