{
  "_format": "hh-sol-artifact-1",
  "contractName": "SkillVouchState",
  "sourceName": "contracts/SkillVouchState.sol",
  "abi": [
    {
      "inputs": [
        {
          "internalType": "address",
          "name": "_tokenContractAddress",
          "type": "address"
        }
      ],
      "stateMutability": "nonpayable",
      "type": "constructor"
    },
    {
      "inputs": [
        {
          "internalType": "address",
          "name": "_user",
          "type": "address"
        },
        {
          "internalType": "address[]",
          "name": "_vouched",
          "type": "address[]"
        },
        {
          "internalType": "uint256",
          "name": "_vouchedCount",
          "type": "uint256"
        },
        {
          "internalType": "string",
          "name": "_skill",
          "type": "string"
        },
        {
          "internalType": "string",
          "name": "_project",
          "type": "string"
        },
        {
          "internalType": "string",
          "name": "_experience",
          "type": "string"
        },
        {
          "internalType": "uint256",
          "name": "_stakeAmountByUser",
          "type": "uint256"
        },
        {
          "internalType": "uint256",
          "name": "_creationTime",
          "type": "uint256"
        }
      ],
      "name": "add",
      "outputs": [
        {
          "internalType": "uint256",
          "name": "requestId",
          "type": "uint256"
        }
      ],
      "stateMutability": "nonpayable",
      "type": "function"
    },
    {
      "inputs": [
        {
          "internalType": "address",
          "name": "user",
          "type": "address"
        }
      ],
      "name": "addUser",
      "outputs": [],
      "stateMutability": "nonpayable",
      "type": "function"
    },
    {
      "inputs": [
        {
          "internalType": "uint256",
          "name": "_requestId",
          "type": "uint256"
        },
        {
          "internalType": "address",
          "name": "voucher",
          "type": "address"
        }
      ],
      "name": "addVoucher",
      "outputs": [],
      "stateMutability": "nonpayable",
      "type": "function"
    },
    {
      "inputs": [
        {
          "internalType": "address",
          "name": "_addressToFind",
          "type": "address"
        }
      ],
      "name": "checkAddress",
      "outputs": [
        {
          "internalType": "bool",
          "name": "",
          "type": "bool"
        }
      ],
      "stateMutability": "view",
      "type": "function"
    },
    {
      "inputs": [
        {
          "internalType": "uint256",
          "name": "requestId",
          "type": "uint256"
        }
      ],
      "name": "get",
      "outputs": [
        {
          "components": [
            {
              "internalType": "address",
              "name": "user",
              "type": "address"
            },
            {
              "internalType": "address[]",
              "name": "vouched",
              "type": "address[]"
            },
            {
              "internalType": "uint256",
              "name": "vouchedCount",
              "type": "uint256"
            },
            {
              "internalType": "string",
              "name": "skill",
              "type": "string"
            },
            {
              "internalType": "string",
              "name": "project",
              "type": "string"
            },
            {
              "internalType": "string",
              "name": "experience",
              "type": "string"
            },
            {
              "internalType": "uint256",
              "name": "stakeAmountByUser",
              "type": "uint256"
            },
            {
              "internalType": "uint256",
              "name": "status",
              "type": "uint256"
            },
            {
              "internalType": "uint256",
              "name": "creationTime",
              "type": "uint256"
            }
          ],
          "internalType": "struct SkillVouchState.UserRequest",
          "name": "",
          "type": "tuple"
        }
      ],
      "stateMutability": "view",
      "type": "function"
    },
    {
      "inputs": [
        {
          "internalType": "uint256",
          "name": "requestId",
          "type": "uint256"
        }
      ],
      "name": "isRequestPresent",
      "outputs": [
        {
          "internalType": "bool",
          "name": "",
          "type": "bool"
        }
      ],
      "stateMutability": "view",
      "type": "function"
    },
    {
      "inputs": [],
      "name": "nextRequestId",
      "outputs": [
        {
          "internalType": "uint256",
          "name": "",
          "type": "uint256"
        }
      ],
      "stateMutability": "view",
      "type": "function"
    },
    {
      "inputs": [],
      "name": "tokenContract",
      "outputs": [
        {
          "internalType": "contract TokenContract",
          "name": "",
          "type": "address"
        }
      ],
      "stateMutability": "view",
      "type": "function"
    },
    {
      "inputs": [
        {
          "internalType": "uint256",
          "name": "requestId",
          "type": "uint256"
        },
        {
          "internalType": "uint256",
          "name": "newStatus",
          "type": "uint256"
        }
      ],
      "name": "updateStatus",
      "outputs": [],
      "stateMutability": "nonpayable",
      "type": "function"
    },
    {
      "inputs": [
        {
          "internalType": "uint256",
          "name": "",
          "type": "uint256"
        }
      ],
      "name": "userRequests",
      "outputs": [
        {
          "internalType": "address",
          "name": "user",
          "type": "address"
        },
        {
          "internalType": "uint256",
          "name": "vouchedCount",
          "type": "uint256"
        },
        {
          "internalType": "string",
          "name": "skill",
          "type": "string"
        },
        {
          "internalType": "string",
          "name": "project",
          "type": "string"
        },
        {
          "internalType": "string",
          "name": "experience",
          "type": "string"
        },
        {
          "internalType": "uint256",
          "name": "stakeAmountByUser",
          "type": "uint256"
        },
        {
          "internalType": "uint256",
          "name": "status",
          "type": "uint256"
        },
        {
          "internalType": "uint256",
          "name": "creationTime",
          "type": "uint256"
        }
      ],
      "stateMutability": "view",
      "type": "function"
    },
    {
      "inputs": [
        {
          "internalType": "address",
          "name": "",
          "type": "address"
        },
        {
          "internalType": "uint256",
          "name": "",
          "type": "uint256"
        }
      ],
      "name": "userToRequests",
      "outputs": [
        {
          "internalType": "uint256",
          "name": "",
          "type": "uint256"
        }
      ],
      "stateMutability": "view",
      "type": "function"
    },
    {
      "inputs": [
        {
          "internalType": "uint256",
          "name": "",
          "type": "uint256"
        }
      ],
      "name": "users",
      "outputs": [
        {
          "internalType": "address",
          "name": "",
          "type": "address"
        }
      ],
      "stateMutability": "view",
      "type": "function"
    }
  ],
  "bytecode": "0x60806040523480156200001157600080fd5b5060405162001b4438038062001b448339818101604052810190620000379190620000f0565b6001600381905550806000806101000a81548173ffffffffffffffffffffffffffffffffffffffff021916908373ffffffffffffffffffffffffffffffffffffffff1602179055505062000122565b600080fd5b600073ffffffffffffffffffffffffffffffffffffffff82169050919050565b6000620000b8826200008b565b9050919050565b620000ca81620000ab565b8114620000d657600080fd5b50565b600081519050620000ea81620000bf565b92915050565b60006020828403121562000109576200010862000086565b5b60006200011984828501620000d9565b91505092915050565b611a1280620001326000396000f3fe608060405234801561001057600080fd5b50600436106100b45760003560e01c80636a84a985116100715780636a84a985146101b357806394169656146101d15780639507d39a14610208578063a1e995db14610238578063d5ad68d914610268578063e2f3182914610284576100b4565b80630ddcfe8e146100b9578063216cef46146100e9578063365b98b214610119578063421b2d8b1461014957806355a373d61461016557806364cfb40814610183575b600080fd5b6100d360048036038101906100ce9190610db5565b6102a0565b6040516100e09190610dfd565b60405180910390f35b61010360048036038101906100fe919061105c565b610348565b6040516101109190611191565b60405180910390f35b610133600480360381019061012e91906111ac565b610515565b60405161014091906111e8565b60405180910390f35b610163600480360381019061015e9190610db5565b610554565b005b61016d6105ba565b60405161017a9190611262565b60405180910390f35b61019d600480360381019061019891906111ac565b6105de565b6040516101aa9190610dfd565b60405180910390f35b6101bb61064d565b6040516101c89190611191565b60405180910390f35b6101eb60048036038101906101e691906111ac565b610653565b6040516101ff9897969594939291906112fc565b60405180910390f35b610222600480360381019061021d91906111ac565b610853565b60405161022f9190611580565b60405180910390f35b610252600480360381019061024d91906115a2565b610b43565b60405161025f9190611191565b60405180910390f35b610282600480360381019061027d91906115e2565b610b74565b005b61029e60048036038101906102999190611622565b610c1b565b005b600080600090505b60048054905081101561033d578273ffffffffffffffffffffffffffffffffffffffff16600482815481106102e0576102df611662565b5b9060005260206000200160009054906101000a900473ffffffffffffffffffffffffffffffffffffffff1673ffffffffffffffffffffffffffffffffffffffff1603610330576001915050610343565b80806001019150506102a8565b50600090505b919050565b600060035490506040518061012001604052808a73ffffffffffffffffffffffffffffffffffffffff16815260200189815260200188815260200187815260200186815260200185815260200184815260200160008152602001838152506001600083815260200190815260200160002060008201518160000160006101000a81548173ffffffffffffffffffffffffffffffffffffffff021916908373ffffffffffffffffffffffffffffffffffffffff160217905550602082015181600101908051906020019061041c929190610c3a565b5060408201518160020155606082015181600301908161043c9190611893565b5060808201518160040190816104529190611893565b5060a08201518160050190816104689190611893565b5060c0820151816006015560e082015181600701556101008201518160080155905050600260008a73ffffffffffffffffffffffffffffffffffffffff1673ffffffffffffffffffffffffffffffffffffffff1681526020019081526020016000208190806001815401808255809150506001900390600052602060002001600090919091909150556003600081548092919061050490611994565b919050555098975050505050505050565b6004818154811061052557600080fd5b906000526020600020016000915054906101000a900473ffffffffffffffffffffffffffffffffffffffff1681565b6004819080600181540180825580915050600190039060005260206000200160009091909190916101000a81548173ffffffffffffffffffffffffffffffffffffffff021916908373ffffffffffffffffffffffffffffffffffffffff16021790555050565b60008054906101000a900473ffffffffffffffffffffffffffffffffffffffff1681565b60008073ffffffffffffffffffffffffffffffffffffffff166001600084815260200190815260200160002060000160009054906101000a900473ffffffffffffffffffffffffffffffffffffffff1673ffffffffffffffffffffffffffffffffffffffff1614159050919050565b60035481565b60016020528060005260406000206000915090508060000160009054906101000a900473ffffffffffffffffffffffffffffffffffffffff16908060020154908060030180546106a2906116c0565b80601f01602080910402602001604051908101604052809291908181526020018280546106ce906116c0565b801561071b5780601f106106f05761010080835404028352916020019161071b565b820191906000526020600020905b8154815290600101906020018083116106fe57829003601f168201915b505050505090806004018054610730906116c0565b80601f016020809104026020016040519081016040528092919081815260200182805461075c906116c0565b80156107a95780601f1061077e576101008083540402835291602001916107a9565b820191906000526020600020905b81548152906001019060200180831161078c57829003601f168201915b5050505050908060050180546107be906116c0565b80601f01602080910402602001604051908101604052809291908181526020018280546107ea906116c0565b80156108375780601f1061080c57610100808354040283529160200191610837565b820191906000526020600020905b81548152906001019060200180831161081a57829003601f168201915b5050505050908060060154908060070154908060080154905088565b61085b610cc4565b60016000838152602001908152602001600020604051806101200160405290816000820160009054906101000a900473ffffffffffffffffffffffffffffffffffffffff1673ffffffffffffffffffffffffffffffffffffffff1673ffffffffffffffffffffffffffffffffffffffff1681526020016001820180548060200260200160405190810160405280929190818152602001828054801561095557602002820191906000526020600020905b8160009054906101000a900473ffffffffffffffffffffffffffffffffffffffff1673ffffffffffffffffffffffffffffffffffffffff168152602001906001019080831161090b575b5050505050815260200160028201548152602001600382018054610978906116c0565b80601f01602080910402602001604051908101604052809291908181526020018280546109a4906116c0565b80156109f15780601f106109c6576101008083540402835291602001916109f1565b820191906000526020600020905b8154815290600101906020018083116109d457829003601f168201915b50505050508152602001600482018054610a0a906116c0565b80601f0160208091040260200160405190810160405280929190818152602001828054610a36906116c0565b8015610a835780601f10610a5857610100808354040283529160200191610a83565b820191906000526020600020905b815481529060010190602001808311610a6657829003601f168201915b50505050508152602001600582018054610a9c906116c0565b80601f0160208091040260200160405190810160405280929190818152602001828054610ac8906116c0565b8015610b155780601f10610aea57610100808354040283529160200191610b15565b820191906000526020600020905b815481529060010190602001808311610af857829003601f168201915b5050505050815260200160068201548152602001600782015481526020016008820154815250509050919050565b60026020528160005260406000208181548110610b5f57600080fd5b90600052602060002001600091509150505481565b60016000838152602001908152602001600020600101819080600181540180825580915050600190039060005260206000200160009091909190916101000a81548173ffffffffffffffffffffffffffffffffffffffff021916908373ffffffffffffffffffffffffffffffffffffffff160217905550600160008381526020019081526020016000206002016000815480929190610c1290611994565b91905055505050565b8060016000848152602001908152602001600020600701819055505050565b828054828255906000526020600020908101928215610cb3579160200282015b82811115610cb25782518260006101000a81548173ffffffffffffffffffffffffffffffffffffffff021916908373ffffffffffffffffffffffffffffffffffffffff16021790555091602001919060010190610c5a565b5b509050610cc09190610d26565b5090565b604051806101200160405280600073ffffffffffffffffffffffffffffffffffffffff16815260200160608152602001600081526020016060815260200160608152602001606081526020016000815260200160008152602001600081525090565b5b80821115610d3f576000816000905550600101610d27565b5090565b6000604051905090565b600080fd5b600080fd5b600073ffffffffffffffffffffffffffffffffffffffff82169050919050565b6000610d8282610d57565b9050919050565b610d9281610d77565b8114610d9d57600080fd5b50565b600081359050610daf81610d89565b92915050565b600060208284031215610dcb57610dca610d4d565b5b6000610dd984828501610da0565b91505092915050565b60008115159050919050565b610df781610de2565b82525050565b6000602082019050610e126000830184610dee565b92915050565b600080fd5b6000601f19601f8301169050919050565b7f4e487b7100000000000000000000000000000000000000000000000000000000600052604160045260246000fd5b610e6682610e1d565b810181811067ffffffffffffffff82111715610e8557610e84610e2e565b5b80604052505050565b6000610e98610d43565b9050610ea48282610e5d565b919050565b600067ffffffffffffffff821115610ec457610ec3610e2e565b5b602082029050602081019050919050565b600080fd5b6000610eed610ee884610ea9565b610e8e565b90508083825260208201905060208402830185811115610f1057610f0f610ed5565b5b835b81811015610f395780610f258882610da0565b845260208401935050602081019050610f12565b5050509392505050565b600082601f830112610f5857610f57610e18565b5b8135610f68848260208601610eda565b91505092915050565b6000819050919050565b610f8481610f71565b8114610f8f57600080fd5b50565b600081359050610fa181610f7b565b92915050565b600080fd5b600067ffffffffffffffff821115610fc757610fc6610e2e565b5b610fd082610e1d565b9050602081019050919050565b82818337600083830152505050565b6000610fff610ffa84610fac565b610e8e565b90508281526020810184848401111561101b5761101a610fa7565b5b611026848285610fdd565b509392505050565b600082601f83011261104357611042610e18565b5b8135611053848260208601610fec565b91505092915050565b600080600080600080600080610100898b03121561107d5761107c610d4d565b5b600061108b8b828c01610da0565b985050602089013567ffffffffffffffff8111156110ac576110ab610d52565b5b6110b88b828c01610f43565b97505060406110c98b828c01610f92565b965050606089013567ffffffffffffffff8111156110ea576110e9610d52565b5b6110f68b828c0161102e565b955050608089013567ffffffffffffffff81111561111757611116610d52565b5b6111238b828c0161102e565b94505060a089013567ffffffffffffffff81111561114457611143610d52565b5b6111508b828c0161102e565b93505060c06111618b828c01610f92565b92505060e06111728b828c01610f92565b9150509295985092959890939650565b61118b81610f71565b82525050565b60006020820190506111a66000830184611182565b92915050565b6000602082840312156111c2576111c1610d4d565b5b60006111d084828501610f92565b91505092915050565b6111e281610d77565b82525050565b60006020820190506111fd60008301846111d9565b92915050565b6000819050919050565b600061122861122361121e84610d57565b611203565b610d57565b9050919050565b600061123a8261120d565b9050919050565b600061124c8261122f565b9050919050565b61125c81611241565b82525050565b60006020820190506112776000830184611253565b92915050565b600081519050919050565b600082825260208201905092915050565b60005b838110156112b757808201518184015260208101905061129c565b60008484015250505050565b60006112ce8261127d565b6112d88185611288565b93506112e8818560208601611299565b6112f181610e1d565b840191505092915050565b600061010082019050611312600083018b6111d9565b61131f602083018a611182565b818103604083015261133181896112c3565b9050818103606083015261134581886112c3565b9050818103608083015261135981876112c3565b905061136860a0830186611182565b61137560c0830185611182565b61138260e0830184611182565b9998505050505050505050565b61139881610d77565b82525050565b600081519050919050565b600082825260208201905092915050565b6000819050602082019050919050565b60006113d6838361138f565b60208301905092915050565b6000602082019050919050565b60006113fa8261139e565b61140481856113a9565b935061140f836113ba565b8060005b8381101561144057815161142788826113ca565b9750611432836113e2565b925050600181019050611413565b5085935050505092915050565b61145681610f71565b82525050565b600082825260208201905092915050565b60006114788261127d565b611482818561145c565b9350611492818560208601611299565b61149b81610e1d565b840191505092915050565b6000610120830160008301516114bf600086018261138f565b50602083015184820360208601526114d782826113ef565b91505060408301516114ec604086018261144d565b5060608301518482036060860152611504828261146d565b9150506080830151848203608086015261151e828261146d565b91505060a083015184820360a0860152611538828261146d565b91505060c083015161154d60c086018261144d565b5060e083015161156060e086018261144d565b5061010083015161157561010086018261144d565b508091505092915050565b6000602082019050818103600083015261159a81846114a6565b905092915050565b600080604083850312156115b9576115b8610d4d565b5b60006115c785828601610da0565b92505060206115d885828601610f92565b9150509250929050565b600080604083850312156115f9576115f8610d4d565b5b600061160785828601610f92565b925050602061161885828601610da0565b9150509250929050565b6000806040838503121561163957611638610d4d565b5b600061164785828601610f92565b925050602061165885828601610f92565b9150509250929050565b7f4e487b7100000000000000000000000000000000000000000000000000000000600052603260045260246000fd5b7f4e487b7100000000000000000000000000000000000000000000000000000000600052602260045260246000fd5b600060028204905060018216806116d857607f821691505b6020821081036116eb576116ea611691565b5b50919050565b60008190508160005260206000209050919050565b60006020601f8301049050919050565b600082821b905092915050565b6000600883026117537fffffffffffffffffffffffffffffffffffffffffffffffffffffffffffffffff82611716565b61175d8683611716565b95508019841693508086168417925050509392505050565b600061179061178b61178684610f71565b611203565b610f71565b9050919050565b6000819050919050565b6117aa83611775565b6117be6117b682611797565b848454611723565b825550505050565b600090565b6117d36117c6565b6117de8184846117a1565b505050565b5b81811015611802576117f76000826117cb565b6001810190506117e4565b5050565b601f82111561184757611818816116f1565b61182184611706565b81016020851015611830578190505b61184461183c85611706565b8301826117e3565b50505b505050565b600082821c905092915050565b600061186a6000198460080261184c565b1980831691505092915050565b60006118838383611859565b9150826002028217905092915050565b61189c8261127d565b67ffffffffffffffff8111156118b5576118b4610e2e565b5b6118bf82546116c0565b6118ca828285611806565b600060209050601f8311600181146118fd57600084156118eb578287015190505b6118f58582611877565b86555061195d565b601f19841661190b866116f1565b60005b828110156119335784890151825560018201915060208501945060208101905061190e565b86831015611950578489015161194c601f891682611859565b8355505b6001600288020188555050505b505050505050565b7f4e487b7100000000000000000000000000000000000000000000000000000000600052601160045260246000fd5b600061199f82610f71565b91507fffffffffffffffffffffffffffffffffffffffffffffffffffffffffffffffff82036119d1576119d0611965565b5b60018201905091905056fea2646970667358221220d7daf777015116d3d4d5449b648b892a2819f6c8ede630cd11253086e9bbb75f64736f6c63430008180033",
  "linkReferences": {},
  "deployedLinkReferences": {}
}