{
  "_format": "hh-sol-artifact-1",
  "contractName": "UserRequestContract",
  "sourceName": "contracts/UserRequestContract.sol",
  "abi": [
    {
      "inputs": [
        {
          "internalType": "address",
          "name": "_userRequestStructAddress",
          "type": "address"
        }
      ],
      "stateMutability": "nonpayable",
      "type": "constructor"
    },
    {
      "anonymous": false,
      "inputs": [
        {
          "indexed": false,
          "internalType": "uint256",
          "name": "requestId",
          "type": "uint256"
        },
        {
          "indexed": false,
          "internalType": "address",
          "name": "user",
          "type": "address"
        },
        {
          "indexed": false,
          "internalType": "string",
          "name": "skill",
          "type": "string"
        },
        {
          "indexed": false,
          "internalType": "string",
          "name": "project",
          "type": "string"
        },
        {
          "indexed": false,
          "internalType": "string",
          "name": "experience",
          "type": "string"
        },
        {
          "indexed": false,
          "internalType": "uint256",
          "name": "stakeAmount",
          "type": "uint256"
        }
      ],
      "name": "RequestCreated",
      "type": "event"
    },
    {
      "anonymous": false,
      "inputs": [
        {
          "indexed": false,
          "internalType": "uint256",
          "name": "requestId",
          "type": "uint256"
        },
        {
          "indexed": false,
          "internalType": "uint8",
          "name": "_newStatus",
          "type": "uint8"
        }
      ],
      "name": "RequestStatusChanged",
      "type": "event"
    },
    {
      "inputs": [
        {
          "internalType": "string",
          "name": "_skill",
          "type": "string"
        },
        {
          "internalType": "string",
          "name": "_project",
          "type": "string"
        },
        {
          "internalType": "string",
          "name": "_experience",
          "type": "string"
        },
        {
          "internalType": "uint256",
          "name": "_stakeAmount",
          "type": "uint256"
        }
      ],
      "name": "createRequest",
      "outputs": [],
      "stateMutability": "payable",
      "type": "function"
    },
    {
      "inputs": [],
      "name": "mintTokensToNewUsers",
      "outputs": [],
      "stateMutability": "nonpayable",
      "type": "function"
    },
    {
      "inputs": [
        {
          "internalType": "uint256",
          "name": "_requestId",
          "type": "uint256"
        },
        {
          "internalType": "uint8",
          "name": "_newStatus",
          "type": "uint8"
        }
      ],
      "name": "transitionRequestStatus",
      "outputs": [],
      "stateMutability": "nonpayable",
      "type": "function"
    },
    {
      "inputs": [
        {
          "internalType": "address",
          "name": "",
          "type": "address"
        },
        {
          "internalType": "uint256",
          "name": "",
          "type": "uint256"
        }
      ],
      "name": "userToRequests",
      "outputs": [
        {
          "internalType": "uint256",
          "name": "",
          "type": "uint256"
        }
      ],
      "stateMutability": "view",
      "type": "function"
    }
  ],
  "bytecode": "0x60806040523480156200001157600080fd5b50604051620016fe380380620016fe8339818101604052810190620000379190620000e8565b806000806101000a81548173ffffffffffffffffffffffffffffffffffffffff021916908373ffffffffffffffffffffffffffffffffffffffff160217905550506200011a565b600080fd5b600073ffffffffffffffffffffffffffffffffffffffff82169050919050565b6000620000b08262000083565b9050919050565b620000c281620000a3565b8114620000ce57600080fd5b50565b600081519050620000e281620000b7565b92915050565b6000602082840312156200010157620001006200007e565b5b60006200011184828501620000d1565b91505092915050565b6115d4806200012a6000396000f3fe60806040526004361061003f5760003560e01c80635a32194714610044578063a1e995db1461006d578063edc797da146100aa578063f82f7bdd146100c1575b600080fd5b34801561005057600080fd5b5061006b6004803603810190610066919061090f565b6100dd565b005b34801561007957600080fd5b50610094600480360381019061008f91906109ad565b610365565b6040516100a191906109fc565b60405180910390f35b3480156100b657600080fd5b506100bf610396565b005b6100db60048036038101906100d69190610b5d565b6105f9565b005b60008054906101000a900473ffffffffffffffffffffffffffffffffffffffff1673ffffffffffffffffffffffffffffffffffffffff166364cfb408836040518263ffffffff1660e01b815260040161013691906109fc565b602060405180830381865afa158015610153573d6000803e3d6000fd5b505050506040513d601f19601f820116820180604052508101906101779190610c50565b6101b6576040517f08c379a00000000000000000000000000000000000000000000000000000000081526004016101ad90610cda565b60405180910390fd5b600260008054906101000a900473ffffffffffffffffffffffffffffffffffffffff1673ffffffffffffffffffffffffffffffffffffffff16639507d39a846040518263ffffffff1660e01b815260040161021191906109fc565b600060405180830381865afa15801561022e573d6000803e3d6000fd5b505050506040513d6000823e3d601f19601f820116820180604052508101906102579190610fe0565b60e001510361029b576040517f08c379a000000000000000000000000000000000000000000000000000000000815260040161029290611075565b60405180910390fd5b60008054906101000a900473ffffffffffffffffffffffffffffffffffffffff1673ffffffffffffffffffffffffffffffffffffffff1663e2f3182983836040518363ffffffff1660e01b81526004016102f69291906110d0565b600060405180830381600087803b15801561031057600080fd5b505af1158015610324573d6000803e3d6000fd5b505050507fc8926ec9c62d9b87ca5e4dfb0b49c1d0797cde714599e2c6d5663e5b813413ab8282604051610359929190611108565b60405180910390a15050565b6001602052816000526040600020818154811061038157600080fd5b90600052602060002001600091509150505481565b60008054906101000a900473ffffffffffffffffffffffffffffffffffffffff1673ffffffffffffffffffffffffffffffffffffffff16630ddcfe8e336040518263ffffffff1660e01b81526004016103ef9190611140565b602060405180830381865afa15801561040c573d6000803e3d6000fd5b505050506040513d601f19601f820116820180604052508101906104309190610c50565b15610470576040517f08c379a0000000000000000000000000000000000000000000000000000000008152600401610467906111a7565b60405180910390fd5b60008054906101000a900473ffffffffffffffffffffffffffffffffffffffff1673ffffffffffffffffffffffffffffffffffffffff166355a373d66040518163ffffffff1660e01b8152600401602060405180830381865afa1580156104db573d6000803e3d6000fd5b505050506040513d601f19601f820116820180604052508101906104ff9190611205565b73ffffffffffffffffffffffffffffffffffffffff16630d517ac93360326040518363ffffffff1660e01b815260040161053a929190611232565b600060405180830381600087803b15801561055457600080fd5b505af1158015610568573d6000803e3d6000fd5b5050505060008054906101000a900473ffffffffffffffffffffffffffffffffffffffff1673ffffffffffffffffffffffffffffffffffffffff1663421b2d8b336040518263ffffffff1660e01b81526004016105c59190611140565b600060405180830381600087803b1580156105df57600080fd5b505af11580156105f3573d6000803e3d6000fd5b50505050565b6014811161063c576040517f08c379a0000000000000000000000000000000000000000000000000000000008152600401610633906112cd565b60405180910390fd5b60008060009054906101000a900473ffffffffffffffffffffffffffffffffffffffff1673ffffffffffffffffffffffffffffffffffffffff1663216cef4633600067ffffffffffffffff81111561069757610696610a32565b5b6040519080825280602002602001820160405280156106c55781602001602082028036833780820191505090505b50600089898989426040518963ffffffff1660e01b81526004016106f098979695949392919061142a565b6020604051808303816000875af115801561070f573d6000803e3d6000fd5b505050506040513d601f19601f8201168201806040525081019061073391906114c4565b905060008054906101000a900473ffffffffffffffffffffffffffffffffffffffff1673ffffffffffffffffffffffffffffffffffffffff166355a373d66040518163ffffffff1660e01b8152600401602060405180830381865afa1580156107a0573d6000803e3d6000fd5b505050506040513d601f19601f820116820180604052508101906107c49190611205565b73ffffffffffffffffffffffffffffffffffffffff166323b872dd3330856040518463ffffffff1660e01b8152600401610800939291906114f1565b6020604051808303816000875af115801561081f573d6000803e3d6000fd5b505050506040513d601f19601f820116820180604052508101906108439190610c50565b507f1a8b22db977f49ec3abea5438326637bc109f2492ee4768f4c9c675a8464eba581338787878760405161087d96959493929190611528565b60405180910390a15050505050565b6000604051905090565b600080fd5b600080fd5b6000819050919050565b6108b3816108a0565b81146108be57600080fd5b50565b6000813590506108d0816108aa565b92915050565b600060ff82169050919050565b6108ec816108d6565b81146108f757600080fd5b50565b600081359050610909816108e3565b92915050565b6000806040838503121561092657610925610896565b5b6000610934858286016108c1565b9250506020610945858286016108fa565b9150509250929050565b600073ffffffffffffffffffffffffffffffffffffffff82169050919050565b600061097a8261094f565b9050919050565b61098a8161096f565b811461099557600080fd5b50565b6000813590506109a781610981565b92915050565b600080604083850312156109c4576109c3610896565b5b60006109d285828601610998565b92505060206109e3858286016108c1565b9150509250929050565b6109f6816108a0565b82525050565b6000602082019050610a1160008301846109ed565b92915050565b600080fd5b600080fd5b6000601f19601f8301169050919050565b7f4e487b7100000000000000000000000000000000000000000000000000000000600052604160045260246000fd5b610a6a82610a21565b810181811067ffffffffffffffff82111715610a8957610a88610a32565b5b80604052505050565b6000610a9c61088c565b9050610aa88282610a61565b919050565b600067ffffffffffffffff821115610ac857610ac7610a32565b5b610ad182610a21565b9050602081019050919050565b82818337600083830152505050565b6000610b00610afb84610aad565b610a92565b905082815260208101848484011115610b1c57610b1b610a1c565b5b610b27848285610ade565b509392505050565b600082601f830112610b4457610b43610a17565b5b8135610b54848260208601610aed565b91505092915050565b60008060008060808587031215610b7757610b76610896565b5b600085013567ffffffffffffffff811115610b9557610b9461089b565b5b610ba187828801610b2f565b945050602085013567ffffffffffffffff811115610bc257610bc161089b565b5b610bce87828801610b2f565b935050604085013567ffffffffffffffff811115610bef57610bee61089b565b5b610bfb87828801610b2f565b9250506060610c0c878288016108c1565b91505092959194509250565b60008115159050919050565b610c2d81610c18565b8114610c3857600080fd5b50565b600081519050610c4a81610c24565b92915050565b600060208284031215610c6657610c65610896565b5b6000610c7484828501610c3b565b91505092915050565b600082825260208201905092915050565b7f52657175657374206e6f7420666f756e64000000000000000000000000000000600082015250565b6000610cc4601183610c7d565b9150610ccf82610c8e565b602082019050919050565b60006020820190508181036000830152610cf381610cb7565b9050919050565b600080fd5b600080fd5b600081519050610d1381610981565b92915050565b600067ffffffffffffffff821115610d3457610d33610a32565b5b602082029050602081019050919050565b600080fd5b6000610d5d610d5884610d19565b610a92565b90508083825260208201905060208402830185811115610d8057610d7f610d45565b5b835b81811015610da95780610d958882610d04565b845260208401935050602081019050610d82565b5050509392505050565b600082601f830112610dc857610dc7610a17565b5b8151610dd8848260208601610d4a565b91505092915050565b600081519050610df0816108aa565b92915050565b60005b83811015610e14578082015181840152602081019050610df9565b60008484015250505050565b6000610e33610e2e84610aad565b610a92565b905082815260208101848484011115610e4f57610e4e610a1c565b5b610e5a848285610df6565b509392505050565b600082601f830112610e7757610e76610a17565b5b8151610e87848260208601610e20565b91505092915050565b60006101208284031215610ea757610ea6610cfa565b5b610eb2610120610a92565b90506000610ec284828501610d04565b600083015250602082015167ffffffffffffffff811115610ee657610ee5610cff565b5b610ef284828501610db3565b6020830152506040610f0684828501610de1565b604083015250606082015167ffffffffffffffff811115610f2a57610f29610cff565b5b610f3684828501610e62565b606083015250608082015167ffffffffffffffff811115610f5a57610f59610cff565b5b610f6684828501610e62565b60808301525060a082015167ffffffffffffffff811115610f8a57610f89610cff565b5b610f9684828501610e62565b60a08301525060c0610faa84828501610de1565b60c08301525060e0610fbe84828501610de1565b60e083015250610100610fd384828501610de1565b6101008301525092915050565b600060208284031215610ff657610ff5610896565b5b600082015167ffffffffffffffff8111156110145761101361089b565b5b61102084828501610e90565b91505092915050565b7f5265717565737420697320636c6f736564000000000000000000000000000000600082015250565b600061105f601183610c7d565b915061106a82611029565b602082019050919050565b6000602082019050818103600083015261108e81611052565b9050919050565b6000819050919050565b60006110ba6110b56110b0846108d6565b611095565b6108a0565b9050919050565b6110ca8161109f565b82525050565b60006040820190506110e560008301856109ed565b6110f260208301846110c1565b9392505050565b611102816108d6565b82525050565b600060408201905061111d60008301856109ed565b61112a60208301846110f9565b9392505050565b61113a8161096f565b82525050565b60006020820190506111556000830184611131565b92915050565b7f416c7265616479206d696e74656420746f207468697320757365720000000000600082015250565b6000611191601b83610c7d565b915061119c8261115b565b602082019050919050565b600060208201905081810360008301526111c081611184565b9050919050565b60006111d28261096f565b9050919050565b6111e2816111c7565b81146111ed57600080fd5b50565b6000815190506111ff816111d9565b92915050565b60006020828403121561121b5761121a610896565b5b6000611229848285016111f0565b91505092915050565b60006040820190506112476000830185611131565b61125460208301846109ed565b9392505050565b7f5374616b6520616d6f756e74206d75737420626520677265617465722074686160008201527f6e20323000000000000000000000000000000000000000000000000000000000602082015250565b60006112b7602483610c7d565b91506112c28261125b565b604082019050919050565b600060208201905081810360008301526112e6816112aa565b9050919050565b600081519050919050565b600082825260208201905092915050565b6000819050602082019050919050565b6113228161096f565b82525050565b60006113348383611319565b60208301905092915050565b6000602082019050919050565b6000611358826112ed565b61136281856112f8565b935061136d83611309565b8060005b8381101561139e5781516113858882611328565b975061139083611340565b925050600181019050611371565b5085935050505092915050565b6000819050919050565b60006113d06113cb6113c6846113ab565b611095565b6108a0565b9050919050565b6113e0816113b5565b82525050565b600081519050919050565b60006113fc826113e6565b6114068185610c7d565b9350611416818560208601610df6565b61141f81610a21565b840191505092915050565b600061010082019050611440600083018b611131565b8181036020830152611452818a61134d565b905061146160408301896113d7565b818103606083015261147381886113f1565b9050818103608083015261148781876113f1565b905081810360a083015261149b81866113f1565b90506114aa60c08301856109ed565b6114b760e08301846109ed565b9998505050505050505050565b6000602082840312156114da576114d9610896565b5b60006114e884828501610de1565b91505092915050565b60006060820190506115066000830186611131565b6115136020830185611131565b61152060408301846109ed565b949350505050565b600060c08201905061153d60008301896109ed565b61154a6020830188611131565b818103604083015261155c81876113f1565b9050818103606083015261157081866113f1565b9050818103608083015261158481856113f1565b905061159360a08301846109ed565b97965050505050505056fea264697066735822122097beca4e18696c31a8ea6bc7bf4a75f3942a2c6f1da01a7cb8f0624691a8e4aa64736f6c63430008180033",
  "linkReferences": {},
  "deployedLinkReferences": {}
}