{
  "_format": "hh-sol-artifact-1",
  "contractName": "CommunityValidationContract",
  "sourceName": "contracts/CommunityValidationContract.sol",
  "abi": [
    {
      "inputs": [
        {
          "internalType": "address",
          "name": "_userRequestContractAddress",
          "type": "address"
        },
        {
          "internalType": "address",
          "name": "_userRequestStructAddress",
          "type": "address"
        }
      ],
      "stateMutability": "nonpayable",
      "type": "constructor"
    },
    {
      "anonymous": false,
      "inputs": [
        {
          "indexed": false,
          "internalType": "uint256",
          "name": "requestId",
          "type": "uint256"
        },
        {
          "indexed": false,
          "internalType": "bool",
          "name": "accepted",
          "type": "bool"
        }
      ],
      "name": "RequestClosed",
      "type": "event"
    },
    {
      "anonymous": false,
      "inputs": [
        {
          "indexed": false,
          "internalType": "uint256",
          "name": "requestId",
          "type": "uint256"
        }
      ],
      "name": "RequestMovedToClosedPhase",
      "type": "event"
    },
    {
      "anonymous": false,
      "inputs": [
        {
          "indexed": false,
          "internalType": "uint256",
          "name": "requestId",
          "type": "uint256"
        },
        {
          "indexed": false,
          "internalType": "address",
          "name": "voter",
          "type": "address"
        },
        {
          "indexed": false,
          "internalType": "bool",
          "name": "acceptance",
          "type": "bool"
        }
      ],
      "name": "VoteCasted",
      "type": "event"
    },
    {
      "inputs": [
        {
          "internalType": "uint256",
          "name": "",
          "type": "uint256"
        }
      ],
      "name": "acceptVotes",
      "outputs": [
        {
          "internalType": "uint256",
          "name": "",
          "type": "uint256"
        }
      ],
      "stateMutability": "view",
      "type": "function"
    },
    {
      "inputs": [
        {
          "internalType": "uint256",
          "name": "_requestId",
          "type": "uint256"
        },
        {
          "internalType": "bool",
          "name": "_acceptance",
          "type": "bool"
        }
      ],
      "name": "castVote",
      "outputs": [],
      "stateMutability": "nonpayable",
      "type": "function"
    },
    {
      "inputs": [
        {
          "internalType": "uint256",
          "name": "_requestId",
          "type": "uint256"
        }
      ],
      "name": "closeRequest",
      "outputs": [],
      "stateMutability": "nonpayable",
      "type": "function"
    },
    {
      "inputs": [],
      "name": "issueVotingTimeLimit",
      "outputs": [
        {
          "internalType": "uint256",
          "name": "",
          "type": "uint256"
        }
      ],
      "stateMutability": "view",
      "type": "function"
    },
    {
      "inputs": [
        {
          "internalType": "uint256",
          "name": "_requestId",
          "type": "uint256"
        }
      ],
      "name": "moveRequestToClosedPhase",
      "outputs": [],
      "stateMutability": "nonpayable",
      "type": "function"
    },
    {
      "inputs": [
        {
          "internalType": "uint256",
          "name": "",
          "type": "uint256"
        }
      ],
      "name": "rejectVotes",
      "outputs": [
        {
          "internalType": "uint256",
          "name": "",
          "type": "uint256"
        }
      ],
      "stateMutability": "view",
      "type": "function"
    },
    {
      "inputs": [
        {
          "internalType": "uint256",
          "name": "",
          "type": "uint256"
        },
        {
          "internalType": "address",
          "name": "",
          "type": "address"
        }
      ],
      "name": "voted",
      "outputs": [
        {
          "internalType": "bool",
          "name": "",
          "type": "bool"
        }
      ],
      "stateMutability": "view",
      "type": "function"
    },
    {
      "inputs": [],
      "name": "votingTimeLimit",
      "outputs": [
        {
          "internalType": "uint256",
          "name": "",
          "type": "uint256"
        }
      ],
      "stateMutability": "view",
      "type": "function"
    }
  ],
  "bytecode": "0x608060405260146007553480156200001657600080fd5b5060405162001c6638038062001c6683398181016040528101906200003c91906200012f565b816000806101000a81548173ffffffffffffffffffffffffffffffffffffffff021916908373ffffffffffffffffffffffffffffffffffffffff16021790555080600160006101000a81548173ffffffffffffffffffffffffffffffffffffffff021916908373ffffffffffffffffffffffffffffffffffffffff160217905550505062000176565b600080fd5b600073ffffffffffffffffffffffffffffffffffffffff82169050919050565b6000620000f782620000ca565b9050919050565b6200010981620000ea565b81146200011557600080fd5b50565b6000815190506200012981620000fe565b92915050565b60008060408385031215620001495762000148620000c5565b5b6000620001598582860162000118565b92505060206200016c8582860162000118565b9150509250929050565b611ae080620001866000396000f3fe608060405234801561001057600080fd5b50600436106100885760003560e01c8063750962491161005b5780637509624914610127578063ba9b91f514610143578063d966f6af14610161578063f0282b7f1461019157610088565b806315373e3d1461008d5780635277b4ae146100a957806361be2610146100d957806362dc825f146100f7575b600080fd5b6100a760048036038101906100a29190611117565b6101ad565b005b6100c360048036038101906100be91906111b5565b610512565b6040516100d09190611204565b60405180910390f35b6100e1610541565b6040516100ee919061122e565b60405180910390f35b610111600480360381019061010c9190611249565b610547565b60405161011e919061122e565b60405180910390f35b610141600480360381019061013c9190611249565b61055f565b005b61014b61070d565b604051610158919061122e565b60405180910390f35b61017b60048036038101906101769190611249565b610713565b604051610188919061122e565b60405180910390f35b6101ab60048036038101906101a69190611249565b61072b565b005b600160009054906101000a900473ffffffffffffffffffffffffffffffffffffffff1673ffffffffffffffffffffffffffffffffffffffff166364cfb408836040518263ffffffff1660e01b8152600401610208919061122e565b602060405180830381865afa158015610225573d6000803e3d6000fd5b505050506040513d601f19601f82011682018060405250810190610249919061128b565b610288576040517f08c379a000000000000000000000000000000000000000000000000000000000815260040161027f90611315565b60405180910390fd5b60018060009054906101000a900473ffffffffffffffffffffffffffffffffffffffff1673ffffffffffffffffffffffffffffffffffffffff16639507d39a846040518263ffffffff1660e01b81526004016102e4919061122e565b600060405180830381865afa158015610301573d6000803e3d6000fd5b505050506040513d6000823e3d601f19601f8201168201806040525081019061032a91906116e2565b60e001511461036e576040517f08c379a00000000000000000000000000000000000000000000000000000000081526004016103659061179d565b60405180910390fd5b6002600083815260200190815260200160002060003373ffffffffffffffffffffffffffffffffffffffff1673ffffffffffffffffffffffffffffffffffffffff16815260200190815260200160002060009054906101000a900460ff161561040c576040517f08c379a00000000000000000000000000000000000000000000000000000000081526004016104039061182f565b60405180910390fd5b8015610440576003600083815260200190815260200160002060008154809291906104369061187e565b919050555061046a565b6004600083815260200190815260200160002060008154809291906104649061187e565b91905055505b60016002600084815260200190815260200160002060003373ffffffffffffffffffffffffffffffffffffffff1673ffffffffffffffffffffffffffffffffffffffff16815260200190815260200160002060006101000a81548160ff0219169083151502179055507f5aaa9aad7433112662b9e5ae23b96ed62b00035f413ab908c55607284e0804e2823383604051610506939291906118d5565b60405180910390a15050565b60026020528160005260406000206020528060005260406000206000915091509054906101000a900460ff1681565b60065481565b60036020528060005260406000206000915090505481565b60018060009054906101000a900473ffffffffffffffffffffffffffffffffffffffff1673ffffffffffffffffffffffffffffffffffffffff16639507d39a836040518263ffffffff1660e01b81526004016105bb919061122e565b600060405180830381865afa1580156105d8573d6000803e3d6000fd5b505050506040513d6000823e3d601f19601f8201168201806040525081019061060191906116e2565b60e0015114610645576040517f08c379a000000000000000000000000000000000000000000000000000000000815260040161063c9061179d565b60405180910390fd5b60008054906101000a900473ffffffffffffffffffffffffffffffffffffffff1673ffffffffffffffffffffffffffffffffffffffff16635a3219478260026040518363ffffffff1660e01b81526004016106a192919061195e565b600060405180830381600087803b1580156106bb57600080fd5b505af11580156106cf573d6000803e3d6000fd5b505050507fdda2d1c0aa38f30cce7aabd96b3c102ea55b892054b6312823ef90636afb718481604051610702919061122e565b60405180910390a150565b60055481565b60046020528060005260406000206000915090505481565b600160009054906101000a900473ffffffffffffffffffffffffffffffffffffffff1673ffffffffffffffffffffffffffffffffffffffff166364cfb408826040518263ffffffff1660e01b8152600401610786919061122e565b602060405180830381865afa1580156107a3573d6000803e3d6000fd5b505050506040513d601f19601f820116820180604052508101906107c7919061128b565b610806576040517f08c379a00000000000000000000000000000000000000000000000000000000081526004016107fd90611315565b60405180910390fd5b60018060009054906101000a900473ffffffffffffffffffffffffffffffffffffffff1673ffffffffffffffffffffffffffffffffffffffff16639507d39a836040518263ffffffff1660e01b8152600401610862919061122e565b600060405180830381865afa15801561087f573d6000803e3d6000fd5b505050506040513d6000823e3d601f19601f820116820180604052508101906108a891906116e2565b60e00151146108ec576040517f08c379a00000000000000000000000000000000000000000000000000000000081526004016108e39061179d565b60405180910390fd5b6004600082815260200190815260200160002054600360008381526020019081526020016000205411156109625761092381610a37565b7fd204805208bb5b5fea6f63d5baa0b02392e939d9ff87e412b2f2ceacde50e099816001604051610955929190611987565b60405180910390a16109a6565b61096b81610d8e565b7fd204805208bb5b5fea6f63d5baa0b02392e939d9ff87e412b2f2ceacde50e09981600060405161099d929190611987565b60405180910390a15b60008054906101000a900473ffffffffffffffffffffffffffffffffffffffff1673ffffffffffffffffffffffffffffffffffffffff16635a3219478260026040518363ffffffff1660e01b8152600401610a0292919061195e565b600060405180830381600087803b158015610a1c57600080fd5b505af1158015610a30573d6000803e3d6000fd5b5050505050565b6000600160009054906101000a900473ffffffffffffffffffffffffffffffffffffffff1673ffffffffffffffffffffffffffffffffffffffff16639507d39a836040518263ffffffff1660e01b8152600401610a94919061122e565b600060405180830381865afa158015610ab1573d6000803e3d6000fd5b505050506040513d6000823e3d601f19601f82011682018060405250810190610ada91906116e2565b9050600160009054906101000a900473ffffffffffffffffffffffffffffffffffffffff1673ffffffffffffffffffffffffffffffffffffffff166355a373d66040518163ffffffff1660e01b8152600401602060405180830381865afa158015610b49573d6000803e3d6000fd5b505050506040513d601f19601f82011682018060405250810190610b6d91906119ee565b73ffffffffffffffffffffffffffffffffffffffff166323b872dd60008054906101000a900473ffffffffffffffffffffffffffffffffffffffff1683600001518460c001516040518463ffffffff1660e01b8152600401610bd193929190611a1b565b6020604051808303816000875af1158015610bf0573d6000803e3d6000fd5b505050506040513d601f19601f82011682018060405250810190610c14919061128b565b5060005b816020015151811015610d8957600082602001518281518110610c3e57610c3d611a52565b5b60200260200101519050600160009054906101000a900473ffffffffffffffffffffffffffffffffffffffff1673ffffffffffffffffffffffffffffffffffffffff166355a373d66040518163ffffffff1660e01b8152600401602060405180830381865afa158015610cb5573d6000803e3d6000fd5b505050506040513d601f19601f82011682018060405250810190610cd991906119ee565b73ffffffffffffffffffffffffffffffffffffffff166323b872dd60008054906101000a900473ffffffffffffffffffffffffffffffffffffffff16836007546040518463ffffffff1660e01b8152600401610d3793929190611a1b565b6020604051808303816000875af1158015610d56573d6000803e3d6000fd5b505050506040513d601f19601f82011682018060405250810190610d7a919061128b565b50508080600101915050610c18565b505050565b6000600160009054906101000a900473ffffffffffffffffffffffffffffffffffffffff1673ffffffffffffffffffffffffffffffffffffffff16639507d39a836040518263ffffffff1660e01b8152600401610deb919061122e565b600060405180830381865afa158015610e08573d6000803e3d6000fd5b505050506040513d6000823e3d601f19601f82011682018060405250810190610e3191906116e2565b9050600160009054906101000a900473ffffffffffffffffffffffffffffffffffffffff1673ffffffffffffffffffffffffffffffffffffffff166355a373d66040518163ffffffff1660e01b8152600401602060405180830381865afa158015610ea0573d6000803e3d6000fd5b505050506040513d601f19601f82011682018060405250810190610ec491906119ee565b73ffffffffffffffffffffffffffffffffffffffff166379cc679060008054906101000a900473ffffffffffffffffffffffffffffffffffffffff168360c001516040518363ffffffff1660e01b8152600401610f22929190611a81565b600060405180830381600087803b158015610f3c57600080fd5b505af1158015610f50573d6000803e3d6000fd5b5050505060005b81602001515181101561109057600160009054906101000a900473ffffffffffffffffffffffffffffffffffffffff1673ffffffffffffffffffffffffffffffffffffffff166355a373d66040518163ffffffff1660e01b8152600401602060405180830381865afa158015610fd1573d6000803e3d6000fd5b505050506040513d601f19601f82011682018060405250810190610ff591906119ee565b73ffffffffffffffffffffffffffffffffffffffff166379cc679060008054906101000a900473ffffffffffffffffffffffffffffffffffffffff166007546040518363ffffffff1660e01b8152600401611051929190611a81565b600060405180830381600087803b15801561106b57600080fd5b505af115801561107f573d6000803e3d6000fd5b505050508080600101915050610f57565b505050565b6000604051905090565b600080fd5b600080fd5b6000819050919050565b6110bc816110a9565b81146110c757600080fd5b50565b6000813590506110d9816110b3565b92915050565b60008115159050919050565b6110f4816110df565b81146110ff57600080fd5b50565b600081359050611111816110eb565b92915050565b6000806040838503121561112e5761112d61109f565b5b600061113c858286016110ca565b925050602061114d85828601611102565b9150509250929050565b600073ffffffffffffffffffffffffffffffffffffffff82169050919050565b600061118282611157565b9050919050565b61119281611177565b811461119d57600080fd5b50565b6000813590506111af81611189565b92915050565b600080604083850312156111cc576111cb61109f565b5b60006111da858286016110ca565b92505060206111eb858286016111a0565b9150509250929050565b6111fe816110df565b82525050565b600060208201905061121960008301846111f5565b92915050565b611228816110a9565b82525050565b6000602082019050611243600083018461121f565b92915050565b60006020828403121561125f5761125e61109f565b5b600061126d848285016110ca565b91505092915050565b600081519050611285816110eb565b92915050565b6000602082840312156112a1576112a061109f565b5b60006112af84828501611276565b91505092915050565b600082825260208201905092915050565b7f52657175657374206e6f7420666f756e64000000000000000000000000000000600082015250565b60006112ff6011836112b8565b915061130a826112c9565b602082019050919050565b6000602082019050818103600083015261132e816112f2565b9050919050565b600080fd5b6000601f19601f8301169050919050565b7f4e487b7100000000000000000000000000000000000000000000000000000000600052604160045260246000fd5b6113838261133a565b810181811067ffffffffffffffff821117156113a2576113a161134b565b5b80604052505050565b60006113b5611095565b90506113c1828261137a565b919050565b600080fd5b6000815190506113da81611189565b92915050565b600080fd5b600067ffffffffffffffff821115611400576113ff61134b565b5b602082029050602081019050919050565b600080fd5b6000611429611424846113e5565b6113ab565b9050808382526020820190506020840283018581111561144c5761144b611411565b5b835b81811015611475578061146188826113cb565b84526020840193505060208101905061144e565b5050509392505050565b600082601f830112611494576114936113e0565b5b81516114a4848260208601611416565b91505092915050565b6000815190506114bc816110b3565b92915050565b600080fd5b600067ffffffffffffffff8211156114e2576114e161134b565b5b6114eb8261133a565b9050602081019050919050565b60005b838110156115165780820151818401526020810190506114fb565b60008484015250505050565b6000611535611530846114c7565b6113ab565b905082815260208101848484011115611551576115506114c2565b5b61155c8482856114f8565b509392505050565b600082601f830112611579576115786113e0565b5b8151611589848260208601611522565b91505092915050565b600061012082840312156115a9576115a8611335565b5b6115b46101206113ab565b905060006115c4848285016113cb565b600083015250602082015167ffffffffffffffff8111156115e8576115e76113c6565b5b6115f48482850161147f565b6020830152506040611608848285016114ad565b604083015250606082015167ffffffffffffffff81111561162c5761162b6113c6565b5b61163884828501611564565b606083015250608082015167ffffffffffffffff81111561165c5761165b6113c6565b5b61166884828501611564565b60808301525060a082015167ffffffffffffffff81111561168c5761168b6113c6565b5b61169884828501611564565b60a08301525060c06116ac848285016114ad565b60c08301525060e06116c0848285016114ad565b60e0830152506101006116d5848285016114ad565b6101008301525092915050565b6000602082840312156116f8576116f761109f565b5b600082015167ffffffffffffffff811115611716576117156110a4565b5b61172284828501611592565b91505092915050565b7f52657175657374206973206e6f7420696e20436f6d6d756e6974792056616c6960008201527f646174696f6e2070686173650000000000000000000000000000000000000000602082015250565b6000611787602c836112b8565b91506117928261172b565b604082019050919050565b600060208201905081810360008301526117b68161177a565b9050919050565b7f566f7465722068617320616c72656164792063617374656420766f746520666f60008201527f7220746869732072657175657374000000000000000000000000000000000000602082015250565b6000611819602e836112b8565b9150611824826117bd565b604082019050919050565b600060208201905081810360008301526118488161180c565b9050919050565b7f4e487b7100000000000000000000000000000000000000000000000000000000600052601160045260246000fd5b6000611889826110a9565b91507fffffffffffffffffffffffffffffffffffffffffffffffffffffffffffffffff82036118bb576118ba61184f565b5b600182019050919050565b6118cf81611177565b82525050565b60006060820190506118ea600083018661121f565b6118f760208301856118c6565b61190460408301846111f5565b949350505050565b6000819050919050565b600060ff82169050919050565b6000819050919050565b600061194861194361193e8461190c565b611923565b611916565b9050919050565b6119588161192d565b82525050565b6000604082019050611973600083018561121f565b611980602083018461194f565b9392505050565b600060408201905061199c600083018561121f565b6119a960208301846111f5565b9392505050565b60006119bb82611177565b9050919050565b6119cb816119b0565b81146119d657600080fd5b50565b6000815190506119e8816119c2565b92915050565b600060208284031215611a0457611a0361109f565b5b6000611a12848285016119d9565b91505092915050565b6000606082019050611a3060008301866118c6565b611a3d60208301856118c6565b611a4a604083018461121f565b949350505050565b7f4e487b7100000000000000000000000000000000000000000000000000000000600052603260045260246000fd5b6000604082019050611a9660008301856118c6565b611aa3602083018461121f565b939250505056fea2646970667358221220e137cb7c55dd26be23d3ff35877b7bfcdd31864955de28f336862bf92ce1741764736f6c63430008180033",
  "linkReferences": {},
  "deployedLinkReferences": {}
}