{
  "_format": "hh-sol-artifact-1",
  "contractName": "VouchingProcessContract",
  "sourceName": "contracts/VouchingProcessContract.sol",
  "abi": [
    {
      "inputs": [
        {
          "internalType": "address",
          "name": "_userRequestContractAddress",
          "type": "address"
        },
        {
          "internalType": "address",
          "name": "_userRequestStructAddress",
          "type": "address"
        }
      ],
      "stateMutability": "nonpayable",
      "type": "constructor"
    },
    {
      "anonymous": false,
      "inputs": [
        {
          "indexed": false,
          "internalType": "uint256",
          "name": "requestId",
          "type": "uint256"
        }
      ],
      "name": "RequestMovedToCommunityValidation",
      "type": "event"
    },
    {
      "anonymous": false,
      "inputs": [
        {
          "indexed": false,
          "internalType": "uint256",
          "name": "requestId",
          "type": "uint256"
        },
        {
          "indexed": false,
          "internalType": "address",
          "name": "vouchor",
          "type": "address"
        },
        {
          "indexed": false,
          "internalType": "uint256",
          "name": "stakedAmount",
          "type": "uint256"
        }
      ],
      "name": "SkillVouched",
      "type": "event"
    },
    {
      "inputs": [
        {
          "internalType": "uint256",
          "name": "_requestId",
          "type": "uint256"
        }
      ],
      "name": "moveRequestToCommunityValidation",
      "outputs": [],
      "stateMutability": "nonpayable",
      "type": "function"
    },
    {
      "inputs": [
        {
          "internalType": "uint256",
          "name": "_requestId",
          "type": "uint256"
        }
      ],
      "name": "vouchForSkill",
      "outputs": [],
      "stateMutability": "nonpayable",
      "type": "function"
    },
    {
      "inputs": [
        {
          "internalType": "uint256",
          "name": "",
          "type": "uint256"
        },
        {
          "internalType": "address",
          "name": "",
          "type": "address"
        }
      ],
      "name": "vouched",
      "outputs": [
        {
          "internalType": "bool",
          "name": "",
          "type": "bool"
        }
      ],
      "stateMutability": "view",
      "type": "function"
    },
    {
      "inputs": [
        {
          "internalType": "uint256",
          "name": "",
          "type": "uint256"
        }
      ],
      "name": "vouchedCount",
      "outputs": [
        {
          "internalType": "uint256",
          "name": "",
          "type": "uint256"
        }
      ],
      "stateMutability": "view",
      "type": "function"
    },
    {
      "inputs": [],
      "name": "vouchingTimeLimit",
      "outputs": [
        {
          "internalType": "uint256",
          "name": "",
          "type": "uint256"
        }
      ],
      "stateMutability": "view",
      "type": "function"
    }
  ],
  "bytecode": "0x608060405260146002553480156200001657600080fd5b50604051620013af380380620013af83398181016040528101906200003c91906200012f565b816000806101000a81548173ffffffffffffffffffffffffffffffffffffffff021916908373ffffffffffffffffffffffffffffffffffffffff16021790555080600160006101000a81548173ffffffffffffffffffffffffffffffffffffffff021916908373ffffffffffffffffffffffffffffffffffffffff160217905550505062000176565b600080fd5b600073ffffffffffffffffffffffffffffffffffffffff82169050919050565b6000620000f782620000ca565b9050919050565b6200010981620000ea565b81146200011557600080fd5b50565b6000815190506200012981620000fe565b92915050565b60008060408385031215620001495762000148620000c5565b5b6000620001598582860162000118565b92505060206200016c8582860162000118565b9150509250929050565b61122980620001866000396000f3fe608060405234801561001057600080fd5b50600436106100575760003560e01c80632fe18ad61461005c5780636114fb741461007a578063689b820f14610096578063920e4eea146100b2578063daec3895146100e2575b600080fd5b610064610112565b604051610071919061085a565b60405180910390f35b610094600480360381019061008f91906108b5565b610118565b005b6100b060048036038101906100ab91906108b5565b6105ca565b005b6100cc60048036038101906100c791906108b5565b610779565b6040516100d9919061085a565b60405180910390f35b6100fc60048036038101906100f79190610940565b610791565b604051610109919061099b565b60405180910390f35b60035481565b600160009054906101000a900473ffffffffffffffffffffffffffffffffffffffff1673ffffffffffffffffffffffffffffffffffffffff166364cfb408826040518263ffffffff1660e01b8152600401610173919061085a565b602060405180830381865afa158015610190573d6000803e3d6000fd5b505050506040513d601f19601f820116820180604052508101906101b491906109e2565b6101f3576040517f08c379a00000000000000000000000000000000000000000000000000000000081526004016101ea90610a6c565b60405180910390fd5b6000600160009054906101000a900473ffffffffffffffffffffffffffffffffffffffff1673ffffffffffffffffffffffffffffffffffffffff16639507d39a836040518263ffffffff1660e01b8152600401610250919061085a565b600060405180830381865afa15801561026d573d6000803e3d6000fd5b505050506040513d6000823e3d601f19601f820116820180604052508101906102969190610e39565b60e00151146102da576040517f08c379a00000000000000000000000000000000000000000000000000000000081526004016102d190610ef4565b60405180910390fd5b610388600160009054906101000a900473ffffffffffffffffffffffffffffffffffffffff1673ffffffffffffffffffffffffffffffffffffffff16639507d39a836040518263ffffffff1660e01b8152600401610338919061085a565b600060405180830381865afa158015610355573d6000803e3d6000fd5b505050506040513d6000823e3d601f19601f8201168201806040525081019061037e9190610e39565b60200151336107c0565b156103c8576040517f08c379a00000000000000000000000000000000000000000000000000000000081526004016103bf90610f86565b60405180910390fd5b600160009054906101000a900473ffffffffffffffffffffffffffffffffffffffff1673ffffffffffffffffffffffffffffffffffffffff166355a373d66040518163ffffffff1660e01b8152600401602060405180830381865afa158015610435573d6000803e3d6000fd5b505050506040513d601f19601f820116820180604052508101906104599190610fe4565b73ffffffffffffffffffffffffffffffffffffffff166323b872dd3360008054906101000a900473ffffffffffffffffffffffffffffffffffffffff166002546040518463ffffffff1660e01b81526004016104b793929190611020565b6020604051808303816000875af11580156104d6573d6000803e3d6000fd5b505050506040513d601f19601f820116820180604052508101906104fa91906109e2565b50600160009054906101000a900473ffffffffffffffffffffffffffffffffffffffff1673ffffffffffffffffffffffffffffffffffffffff1663d5ad68d982336040518363ffffffff1660e01b8152600401610558929190611057565b600060405180830381600087803b15801561057257600080fd5b505af1158015610586573d6000803e3d6000fd5b505050507f445eb8a4b28e4b0fe3edb71d9cc1d83433f0a6d135955f476eb0151b31798a3681336002546040516105bf93929190611080565b60405180910390a150565b6000600160009054906101000a900473ffffffffffffffffffffffffffffffffffffffff1673ffffffffffffffffffffffffffffffffffffffff16639507d39a836040518263ffffffff1660e01b8152600401610627919061085a565b600060405180830381865afa158015610644573d6000803e3d6000fd5b505050506040513d6000823e3d601f19601f8201168201806040525081019061066d9190610e39565b60e00151146106b1576040517f08c379a00000000000000000000000000000000000000000000000000000000081526004016106a890611129565b60405180910390fd5b60008054906101000a900473ffffffffffffffffffffffffffffffffffffffff1673ffffffffffffffffffffffffffffffffffffffff16635a3219478260016040518363ffffffff1660e01b815260040161070d92919061119b565b600060405180830381600087803b15801561072757600080fd5b505af115801561073b573d6000803e3d6000fd5b505050507f39e8425a08a567142b123f2e024900926ba4733a3e293d75cd245e9db77213388160405161076e919061085a565b60405180910390a150565b60056020528060005260406000206000915090505481565b60046020528160005260406000206020528060005260406000206000915091509054906101000a900460ff1681565b600080600090505b8351811015610835578273ffffffffffffffffffffffffffffffffffffffff168482815181106107fb576107fa6111c4565b5b602002602001015173ffffffffffffffffffffffffffffffffffffffff160361082857600191505061083b565b80806001019150506107c8565b50600090505b92915050565b6000819050919050565b61085481610841565b82525050565b600060208201905061086f600083018461084b565b92915050565b6000604051905090565b600080fd5b600080fd5b61089281610841565b811461089d57600080fd5b50565b6000813590506108af81610889565b92915050565b6000602082840312156108cb576108ca61087f565b5b60006108d9848285016108a0565b91505092915050565b600073ffffffffffffffffffffffffffffffffffffffff82169050919050565b600061090d826108e2565b9050919050565b61091d81610902565b811461092857600080fd5b50565b60008135905061093a81610914565b92915050565b600080604083850312156109575761095661087f565b5b6000610965858286016108a0565b92505060206109768582860161092b565b9150509250929050565b60008115159050919050565b61099581610980565b82525050565b60006020820190506109b0600083018461098c565b92915050565b6109bf81610980565b81146109ca57600080fd5b50565b6000815190506109dc816109b6565b92915050565b6000602082840312156109f8576109f761087f565b5b6000610a06848285016109cd565b91505092915050565b600082825260208201905092915050565b7f52657175657374206e6f7420666f756e64000000000000000000000000000000600082015250565b6000610a56601183610a0f565b9150610a6182610a20565b602082019050919050565b60006020820190508181036000830152610a8581610a49565b9050919050565b600080fd5b6000601f19601f8301169050919050565b7f4e487b7100000000000000000000000000000000000000000000000000000000600052604160045260246000fd5b610ada82610a91565b810181811067ffffffffffffffff82111715610af957610af8610aa2565b5b80604052505050565b6000610b0c610875565b9050610b188282610ad1565b919050565b600080fd5b600081519050610b3181610914565b92915050565b600080fd5b600067ffffffffffffffff821115610b5757610b56610aa2565b5b602082029050602081019050919050565b600080fd5b6000610b80610b7b84610b3c565b610b02565b90508083825260208201905060208402830185811115610ba357610ba2610b68565b5b835b81811015610bcc5780610bb88882610b22565b845260208401935050602081019050610ba5565b5050509392505050565b600082601f830112610beb57610bea610b37565b5b8151610bfb848260208601610b6d565b91505092915050565b600081519050610c1381610889565b92915050565b600080fd5b600067ffffffffffffffff821115610c3957610c38610aa2565b5b610c4282610a91565b9050602081019050919050565b60005b83811015610c6d578082015181840152602081019050610c52565b60008484015250505050565b6000610c8c610c8784610c1e565b610b02565b905082815260208101848484011115610ca857610ca7610c19565b5b610cb3848285610c4f565b509392505050565b600082601f830112610cd057610ccf610b37565b5b8151610ce0848260208601610c79565b91505092915050565b60006101208284031215610d0057610cff610a8c565b5b610d0b610120610b02565b90506000610d1b84828501610b22565b600083015250602082015167ffffffffffffffff811115610d3f57610d3e610b1d565b5b610d4b84828501610bd6565b6020830152506040610d5f84828501610c04565b604083015250606082015167ffffffffffffffff811115610d8357610d82610b1d565b5b610d8f84828501610cbb565b606083015250608082015167ffffffffffffffff811115610db357610db2610b1d565b5b610dbf84828501610cbb565b60808301525060a082015167ffffffffffffffff811115610de357610de2610b1d565b5b610def84828501610cbb565b60a08301525060c0610e0384828501610c04565b60c08301525060e0610e1784828501610c04565b60e083015250610100610e2c84828501610c04565b6101008301525092915050565b600060208284031215610e4f57610e4e61087f565b5b600082015167ffffffffffffffff811115610e6d57610e6c610884565b5b610e7984828501610ce9565b91505092915050565b7f52657175657374206973206e6f7420696e20566f756368696e672050726f636560008201527f7373000000000000000000000000000000000000000000000000000000000000602082015250565b6000610ede602283610a0f565b9150610ee982610e82565b604082019050919050565b60006020820190508181036000830152610f0d81610ed1565b9050919050565b7f566f75636865722068617320616c726561647920766f756368656420666f722060008201527f7468697320726571756573740000000000000000000000000000000000000000602082015250565b6000610f70602c83610a0f565b9150610f7b82610f14565b604082019050919050565b60006020820190508181036000830152610f9f81610f63565b9050919050565b6000610fb182610902565b9050919050565b610fc181610fa6565b8114610fcc57600080fd5b50565b600081519050610fde81610fb8565b92915050565b600060208284031215610ffa57610ff961087f565b5b600061100884828501610fcf565b91505092915050565b61101a81610902565b82525050565b60006060820190506110356000830186611011565b6110426020830185611011565b61104f604083018461084b565b949350505050565b600060408201905061106c600083018561084b565b6110796020830184611011565b9392505050565b6000606082019050611095600083018661084b565b6110a26020830185611011565b6110af604083018461084b565b949350505050565b7f52657175657374206973206e6f7420696e20566f756368696e672050726f636560008201527f7373207068617365000000000000000000000000000000000000000000000000602082015250565b6000611113602883610a0f565b915061111e826110b7565b604082019050919050565b6000602082019050818103600083015261114281611106565b9050919050565b6000819050919050565b600060ff82169050919050565b6000819050919050565b600061118561118061117b84611149565b611160565b611153565b9050919050565b6111958161116a565b82525050565b60006040820190506111b0600083018561084b565b6111bd602083018461118c565b9392505050565b7f4e487b7100000000000000000000000000000000000000000000000000000000600052603260045260246000fdfea2646970667358221220ed129bf5fafb08bb1b901ffdd34eb16cc33cafcdf9e7e93e5410c016183ae51464736f6c63430008180033",
  "linkReferences": {},
  "deployedLinkReferences": {}
}