{
  "_format": "hh-sol-artifact-1",
  "contractName": "SkillVouchState",
  "sourceName": "contracts/SkillVouchState.sol",
  "abi": [
    {
      "inputs": [
        {
          "internalType": "address",
          "name": "_tokenContractAddress",
          "type": "address"
        }
      ],
      "stateMutability": "nonpayable",
      "type": "constructor"
    },
    {
      "inputs": [
        {
          "internalType": "address",
          "name": "_user",
          "type": "address"
        },
        {
          "internalType": "address[]",
          "name": "_vouched",
          "type": "address[]"
        },
        {
          "internalType": "string",
          "name": "_skill",
          "type": "string"
        },
        {
          "internalType": "string",
          "name": "_project",
          "type": "string"
        },
        {
          "internalType": "string",
          "name": "_experience",
          "type": "string"
        },
        {
          "internalType": "uint256",
          "name": "_stakeAmountByUser",
          "type": "uint256"
        },
        {
          "internalType": "string",
          "name": "_linkedInLink",
          "type": "string"
        },
        {
          "internalType": "string",
          "name": "_gitHubLink",
          "type": "string"
        }
      ],
      "name": "add",
      "outputs": [
        {
          "internalType": "uint256",
          "name": "requestId",
          "type": "uint256"
        }
      ],
      "stateMutability": "nonpayable",
      "type": "function"
    },
    {
      "inputs": [
        {
          "internalType": "address",
          "name": "user",
          "type": "address"
        }
      ],
      "name": "addUser",
      "outputs": [],
      "stateMutability": "nonpayable",
      "type": "function"
    },
    {
      "inputs": [
        {
          "internalType": "uint256",
          "name": "_requestId",
          "type": "uint256"
        },
        {
          "internalType": "address",
          "name": "voucher",
          "type": "address"
        }
      ],
      "name": "addVoucher",
      "outputs": [],
      "stateMutability": "nonpayable",
      "type": "function"
    },
    {
      "inputs": [
        {
          "internalType": "address",
          "name": "_addressToFind",
          "type": "address"
        }
      ],
      "name": "checkAddress",
      "outputs": [
        {
          "internalType": "bool",
          "name": "",
          "type": "bool"
        }
      ],
      "stateMutability": "view",
      "type": "function"
    },
    {
      "inputs": [
        {
          "internalType": "uint256",
          "name": "requestId",
          "type": "uint256"
        }
      ],
      "name": "get",
      "outputs": [
        {
          "components": [
            {
              "internalType": "address",
              "name": "user",
              "type": "address"
            },
            {
              "internalType": "address[]",
              "name": "vouched",
              "type": "address[]"
            },
            {
              "internalType": "string",
              "name": "skill",
              "type": "string"
            },
            {
              "internalType": "string",
              "name": "project",
              "type": "string"
            },
            {
              "internalType": "string",
              "name": "experience",
              "type": "string"
            },
            {
              "internalType": "uint256",
              "name": "stakeAmountByUser",
              "type": "uint256"
            },
            {
              "internalType": "uint256",
              "name": "status",
              "type": "uint256"
            },
            {
              "internalType": "string",
              "name": "linkedInLink",
              "type": "string"
            },
            {
              "internalType": "string",
              "name": "gitHubLink",
              "type": "string"
            }
          ],
          "internalType": "struct SkillVouchState.UserRequest",
          "name": "",
          "type": "tuple"
        }
      ],
      "stateMutability": "view",
      "type": "function"
    },
    {
      "inputs": [
        {
          "internalType": "uint256",
          "name": "requestId",
          "type": "uint256"
        }
      ],
      "name": "isRequestPresent",
      "outputs": [
        {
          "internalType": "bool",
          "name": "",
          "type": "bool"
        }
      ],
      "stateMutability": "view",
      "type": "function"
    },
    {
      "inputs": [],
      "name": "nextRequestId",
      "outputs": [
        {
          "internalType": "uint256",
          "name": "",
          "type": "uint256"
        }
      ],
      "stateMutability": "view",
      "type": "function"
    },
    {
      "inputs": [],
      "name": "tokenContract",
      "outputs": [
        {
          "internalType": "contract TokenContract",
          "name": "",
          "type": "address"
        }
      ],
      "stateMutability": "view",
      "type": "function"
    },
    {
      "inputs": [
        {
          "internalType": "uint256",
          "name": "requestId",
          "type": "uint256"
        },
        {
          "internalType": "uint256",
          "name": "newStatus",
          "type": "uint256"
        }
      ],
      "name": "updateStatus",
      "outputs": [],
      "stateMutability": "nonpayable",
      "type": "function"
    },
    {
      "inputs": [
        {
          "internalType": "uint256",
          "name": "",
          "type": "uint256"
        }
      ],
      "name": "userRequests",
      "outputs": [
        {
          "internalType": "address",
          "name": "user",
          "type": "address"
        },
        {
          "internalType": "string",
          "name": "skill",
          "type": "string"
        },
        {
          "internalType": "string",
          "name": "project",
          "type": "string"
        },
        {
          "internalType": "string",
          "name": "experience",
          "type": "string"
        },
        {
          "internalType": "uint256",
          "name": "stakeAmountByUser",
          "type": "uint256"
        },
        {
          "internalType": "uint256",
          "name": "status",
          "type": "uint256"
        },
        {
          "internalType": "string",
          "name": "linkedInLink",
          "type": "string"
        },
        {
          "internalType": "string",
          "name": "gitHubLink",
          "type": "string"
        }
      ],
      "stateMutability": "view",
      "type": "function"
    },
    {
      "inputs": [
        {
          "internalType": "address",
          "name": "",
          "type": "address"
        },
        {
          "internalType": "uint256",
          "name": "",
          "type": "uint256"
        }
      ],
      "name": "userToRequests",
      "outputs": [
        {
          "internalType": "uint256",
          "name": "",
          "type": "uint256"
        }
      ],
      "stateMutability": "view",
      "type": "function"
    },
    {
      "inputs": [
        {
          "internalType": "address",
          "name": "",
          "type": "address"
        }
      ],
      "name": "users",
      "outputs": [
        {
          "internalType": "bool",
          "name": "",
          "type": "bool"
        }
      ],
      "stateMutability": "view",
      "type": "function"
    }
  ],
  "bytecode": "0x60a06040523480156200001157600080fd5b5060405162001d3738038062001d378339818101604052810190620000379190620000e4565b60016003819055508073ffffffffffffffffffffffffffffffffffffffff1660808173ffffffffffffffffffffffffffffffffffffffff16815250505062000116565b600080fd5b600073ffffffffffffffffffffffffffffffffffffffff82169050919050565b6000620000ac826200007f565b9050919050565b620000be816200009f565b8114620000ca57600080fd5b50565b600081519050620000de81620000b3565b92915050565b600060208284031215620000fd57620000fc6200007a565b5b60006200010d84828501620000cd565b91505092915050565b608051611c056200013260003960006103a50152611c056000f3fe608060405234801561001057600080fd5b50600436106100b45760003560e01c8063941696561161007157806394169656146101a15780639507d39a146101d8578063a1e995db14610208578063a87430ba14610238578063d5ad68d914610268578063e2f3182914610284576100b4565b80630ddcfe8e146100b9578063421b2d8b146100e957806355a373d61461010557806364cfb408146101235780636a84a9851461015357806372e09a2714610171575b600080fd5b6100d360048036038101906100ce9190610f9e565b6102a0565b6040516100e09190610fe6565b60405180910390f35b61010360048036038101906100fe9190610f9e565b6102f6565b005b61010d6103a3565b60405161011a9190611060565b60405180910390f35b61013d600480360381019061013891906110b1565b6103c7565b60405161014a9190610fe6565b60405180910390f35b61015b610435565b60405161016891906110ed565b60405180910390f35b61018b60048036038101906101869190611316565b61043b565b60405161019891906110ed565b60405180910390f35b6101bb60048036038101906101b691906110b1565b610625565b6040516101cf989796959493929190611502565b60405180910390f35b6101f260048036038101906101ed91906110b1565b610935565b6040516101ff91906117a2565b60405180910390f35b610222600480360381019061021d91906117c4565b610d34565b60405161022f91906110ed565b60405180910390f35b610252600480360381019061024d9190610f9e565b610d65565b60405161025f9190610fe6565b60405180910390f35b610282600480360381019061027d9190611804565b610d85565b005b61029e60048036038101906102999190611844565b610e05565b005b6000600260008373ffffffffffffffffffffffffffffffffffffffff1673ffffffffffffffffffffffffffffffffffffffff16815260200190815260200160002060009054906101000a900460ff169050919050565b600260008273ffffffffffffffffffffffffffffffffffffffff1673ffffffffffffffffffffffffffffffffffffffff16815260200190815260200160002060009054906101000a900460ff166103a0576001600260008373ffffffffffffffffffffffffffffffffffffffff1673ffffffffffffffffffffffffffffffffffffffff16815260200190815260200160002060006101000a81548160ff0219169083151502179055505b50565b7f000000000000000000000000000000000000000000000000000000000000000081565b60008073ffffffffffffffffffffffffffffffffffffffff1660008084815260200190815260200160002060000160009054906101000a900473ffffffffffffffffffffffffffffffffffffffff1673ffffffffffffffffffffffffffffffffffffffff1614159050919050565b60035481565b6000600354905060006040518061012001604052808b73ffffffffffffffffffffffffffffffffffffffff1681526020018a8152602001898152602001888152602001878152602001868152602001600081526020018581526020018481525090508060008084815260200190815260200160002060008201518160000160006101000a81548173ffffffffffffffffffffffffffffffffffffffff021916908373ffffffffffffffffffffffffffffffffffffffff1602179055506020820151816001019080519060200190610513929190610e23565b5060408201518160020190816105299190611a86565b50606082015181600301908161053f9190611a86565b5060808201518160040190816105559190611a86565b5060a0820151816005015560c0820151816006015560e082015181600701908161057f9190611a86565b506101008201518160080190816105969190611a86565b50905050600160008b73ffffffffffffffffffffffffffffffffffffffff1673ffffffffffffffffffffffffffffffffffffffff1681526020019081526020016000208290806001815401808255809150506001900390600052602060002001600090919091909150556003600081548092919061061390611b87565b91905055505098975050505050505050565b60006020528060005260406000206000915090508060000160009054906101000a900473ffffffffffffffffffffffffffffffffffffffff169080600201805461066e906118b3565b80601f016020809104026020016040519081016040528092919081815260200182805461069a906118b3565b80156106e75780601f106106bc576101008083540402835291602001916106e7565b820191906000526020600020905b8154815290600101906020018083116106ca57829003601f168201915b5050505050908060030180546106fc906118b3565b80601f0160208091040260200160405190810160405280929190818152602001828054610728906118b3565b80156107755780601f1061074a57610100808354040283529160200191610775565b820191906000526020600020905b81548152906001019060200180831161075857829003601f168201915b50505050509080600401805461078a906118b3565b80601f01602080910402602001604051908101604052809291908181526020018280546107b6906118b3565b80156108035780601f106107d857610100808354040283529160200191610803565b820191906000526020600020905b8154815290600101906020018083116107e657829003601f168201915b505050505090806005015490806006015490806007018054610824906118b3565b80601f0160208091040260200160405190810160405280929190818152602001828054610850906118b3565b801561089d5780601f106108725761010080835404028352916020019161089d565b820191906000526020600020905b81548152906001019060200180831161088057829003601f168201915b5050505050908060080180546108b2906118b3565b80601f01602080910402602001604051908101604052809291908181526020018280546108de906118b3565b801561092b5780601f106109005761010080835404028352916020019161092b565b820191906000526020600020905b81548152906001019060200180831161090e57829003601f168201915b5050505050905088565b61093d610ead565b600080838152602001908152602001600020604051806101200160405290816000820160009054906101000a900473ffffffffffffffffffffffffffffffffffffffff1673ffffffffffffffffffffffffffffffffffffffff1673ffffffffffffffffffffffffffffffffffffffff16815260200160018201805480602002602001604051908101604052809291908181526020018280548015610a3657602002820191906000526020600020905b8160009054906101000a900473ffffffffffffffffffffffffffffffffffffffff1673ffffffffffffffffffffffffffffffffffffffff16815260200190600101908083116109ec575b50505050508152602001600282018054610a4f906118b3565b80601f0160208091040260200160405190810160405280929190818152602001828054610a7b906118b3565b8015610ac85780601f10610a9d57610100808354040283529160200191610ac8565b820191906000526020600020905b815481529060010190602001808311610aab57829003601f168201915b50505050508152602001600382018054610ae1906118b3565b80601f0160208091040260200160405190810160405280929190818152602001828054610b0d906118b3565b8015610b5a5780601f10610b2f57610100808354040283529160200191610b5a565b820191906000526020600020905b815481529060010190602001808311610b3d57829003601f168201915b50505050508152602001600482018054610b73906118b3565b80601f0160208091040260200160405190810160405280929190818152602001828054610b9f906118b3565b8015610bec5780601f10610bc157610100808354040283529160200191610bec565b820191906000526020600020905b815481529060010190602001808311610bcf57829003601f168201915b505050505081526020016005820154815260200160068201548152602001600782018054610c19906118b3565b80601f0160208091040260200160405190810160405280929190818152602001828054610c45906118b3565b8015610c925780601f10610c6757610100808354040283529160200191610c92565b820191906000526020600020905b815481529060010190602001808311610c7557829003601f168201915b50505050508152602001600882018054610cab906118b3565b80601f0160208091040260200160405190810160405280929190818152602001828054610cd7906118b3565b8015610d245780601f10610cf957610100808354040283529160200191610d24565b820191906000526020600020905b815481529060010190602001808311610d0757829003601f168201915b5050505050815250509050919050565b60016020528160005260406000208181548110610d5057600080fd5b90600052602060002001600091509150505481565b60026020528060005260406000206000915054906101000a900460ff1681565b6000806000848152602001908152602001600020905080600101829080600181540180825580915050600190039060005260206000200160009091909190916101000a81548173ffffffffffffffffffffffffffffffffffffffff021916908373ffffffffffffffffffffffffffffffffffffffff160217905550505050565b80600080848152602001908152602001600020600601819055505050565b828054828255906000526020600020908101928215610e9c579160200282015b82811115610e9b5782518260006101000a81548173ffffffffffffffffffffffffffffffffffffffff021916908373ffffffffffffffffffffffffffffffffffffffff16021790555091602001919060010190610e43565b5b509050610ea99190610f0f565b5090565b604051806101200160405280600073ffffffffffffffffffffffffffffffffffffffff16815260200160608152602001606081526020016060815260200160608152602001600081526020016000815260200160608152602001606081525090565b5b80821115610f28576000816000905550600101610f10565b5090565b6000604051905090565b600080fd5b600080fd5b600073ffffffffffffffffffffffffffffffffffffffff82169050919050565b6000610f6b82610f40565b9050919050565b610f7b81610f60565b8114610f8657600080fd5b50565b600081359050610f9881610f72565b92915050565b600060208284031215610fb457610fb3610f36565b5b6000610fc284828501610f89565b91505092915050565b60008115159050919050565b610fe081610fcb565b82525050565b6000602082019050610ffb6000830184610fd7565b92915050565b6000819050919050565b600061102661102161101c84610f40565b611001565b610f40565b9050919050565b60006110388261100b565b9050919050565b600061104a8261102d565b9050919050565b61105a8161103f565b82525050565b60006020820190506110756000830184611051565b92915050565b6000819050919050565b61108e8161107b565b811461109957600080fd5b50565b6000813590506110ab81611085565b92915050565b6000602082840312156110c7576110c6610f36565b5b60006110d58482850161109c565b91505092915050565b6110e78161107b565b82525050565b600060208201905061110260008301846110de565b92915050565b600080fd5b6000601f19601f8301169050919050565b7f4e487b7100000000000000000000000000000000000000000000000000000000600052604160045260246000fd5b6111568261110d565b810181811067ffffffffffffffff821117156111755761117461111e565b5b80604052505050565b6000611188610f2c565b9050611194828261114d565b919050565b600067ffffffffffffffff8211156111b4576111b361111e565b5b602082029050602081019050919050565b600080fd5b60006111dd6111d884611199565b61117e565b90508083825260208201905060208402830185811115611200576111ff6111c5565b5b835b8181101561122957806112158882610f89565b845260208401935050602081019050611202565b5050509392505050565b600082601f83011261124857611247611108565b5b81356112588482602086016111ca565b91505092915050565b600080fd5b600067ffffffffffffffff8211156112815761128061111e565b5b61128a8261110d565b9050602081019050919050565b82818337600083830152505050565b60006112b96112b484611266565b61117e565b9050828152602081018484840111156112d5576112d4611261565b5b6112e0848285611297565b509392505050565b600082601f8301126112fd576112fc611108565b5b813561130d8482602086016112a6565b91505092915050565b600080600080600080600080610100898b03121561133757611336610f36565b5b60006113458b828c01610f89565b985050602089013567ffffffffffffffff81111561136657611365610f3b565b5b6113728b828c01611233565b975050604089013567ffffffffffffffff81111561139357611392610f3b565b5b61139f8b828c016112e8565b965050606089013567ffffffffffffffff8111156113c0576113bf610f3b565b5b6113cc8b828c016112e8565b955050608089013567ffffffffffffffff8111156113ed576113ec610f3b565b5b6113f98b828c016112e8565b94505060a061140a8b828c0161109c565b93505060c089013567ffffffffffffffff81111561142b5761142a610f3b565b5b6114378b828c016112e8565b92505060e089013567ffffffffffffffff81111561145857611457610f3b565b5b6114648b828c016112e8565b9150509295985092959890939650565b61147d81610f60565b82525050565b600081519050919050565b600082825260208201905092915050565b60005b838110156114bd5780820151818401526020810190506114a2565b60008484015250505050565b60006114d482611483565b6114de818561148e565b93506114ee81856020860161149f565b6114f78161110d565b840191505092915050565b600061010082019050611518600083018b611474565b818103602083015261152a818a6114c9565b9050818103604083015261153e81896114c9565b9050818103606083015261155281886114c9565b905061156160808301876110de565b61156e60a08301866110de565b81810360c083015261158081856114c9565b905081810360e083015261159481846114c9565b90509998505050505050505050565b6115ac81610f60565b82525050565b600081519050919050565b600082825260208201905092915050565b6000819050602082019050919050565b60006115ea83836115a3565b60208301905092915050565b6000602082019050919050565b600061160e826115b2565b61161881856115bd565b9350611623836115ce565b8060005b8381101561165457815161163b88826115de565b9750611646836115f6565b925050600181019050611627565b5085935050505092915050565b600082825260208201905092915050565b600061167d82611483565b6116878185611661565b935061169781856020860161149f565b6116a08161110d565b840191505092915050565b6116b48161107b565b82525050565b6000610120830160008301516116d360008601826115a3565b50602083015184820360208601526116eb8282611603565b915050604083015184820360408601526117058282611672565b9150506060830151848203606086015261171f8282611672565b915050608083015184820360808601526117398282611672565b91505060a083015161174e60a08601826116ab565b5060c083015161176160c08601826116ab565b5060e083015184820360e08601526117798282611672565b9150506101008301518482036101008601526117958282611672565b9150508091505092915050565b600060208201905081810360008301526117bc81846116ba565b905092915050565b600080604083850312156117db576117da610f36565b5b60006117e985828601610f89565b92505060206117fa8582860161109c565b9150509250929050565b6000806040838503121561181b5761181a610f36565b5b60006118298582860161109c565b925050602061183a85828601610f89565b9150509250929050565b6000806040838503121561185b5761185a610f36565b5b60006118698582860161109c565b925050602061187a8582860161109c565b9150509250929050565b7f4e487b7100000000000000000000000000000000000000000000000000000000600052602260045260246000fd5b600060028204905060018216806118cb57607f821691505b6020821081036118de576118dd611884565b5b50919050565b60008190508160005260206000209050919050565b60006020601f8301049050919050565b600082821b905092915050565b6000600883026119467fffffffffffffffffffffffffffffffffffffffffffffffffffffffffffffffff82611909565b6119508683611909565b95508019841693508086168417925050509392505050565b600061198361197e6119798461107b565b611001565b61107b565b9050919050565b6000819050919050565b61199d83611968565b6119b16119a98261198a565b848454611916565b825550505050565b600090565b6119c66119b9565b6119d1818484611994565b505050565b5b818110156119f5576119ea6000826119be565b6001810190506119d7565b5050565b601f821115611a3a57611a0b816118e4565b611a14846118f9565b81016020851015611a23578190505b611a37611a2f856118f9565b8301826119d6565b50505b505050565b600082821c905092915050565b6000611a5d60001984600802611a3f565b1980831691505092915050565b6000611a768383611a4c565b9150826002028217905092915050565b611a8f82611483565b67ffffffffffffffff811115611aa857611aa761111e565b5b611ab282546118b3565b611abd8282856119f9565b600060209050601f831160018114611af05760008415611ade578287015190505b611ae88582611a6a565b865550611b50565b601f198416611afe866118e4565b60005b82811015611b2657848901518255600182019150602085019450602081019050611b01565b86831015611b435784890151611b3f601f891682611a4c565b8355505b6001600288020188555050505b505050505050565b7f4e487b7100000000000000000000000000000000000000000000000000000000600052601160045260246000fd5b6000611b928261107b565b91507fffffffffffffffffffffffffffffffffffffffffffffffffffffffffffffffff8203611bc457611bc3611b58565b5b60018201905091905056fea26469706673582212202ef7e6c8dcc0c209e1a22fa717bdc986599eaa8a1bba599c0b99dcf7b94e72c364736f6c63430008180033",
  "linkReferences": {},
  "deployedLinkReferences": {}
}