{
  "_format": "hh-sol-artifact-1",
  "contractName": "SkillVouchState",
  "sourceName": "contracts/SkillVouchState.sol",
  "abi": [
    {
      "inputs": [
        {
          "internalType": "address",
          "name": "_tokenContractAddress",
          "type": "address"
        }
      ],
      "stateMutability": "nonpayable",
      "type": "constructor"
    },
    {
      "inputs": [
        {
          "internalType": "address",
          "name": "_user",
          "type": "address"
        },
        {
          "internalType": "address[]",
          "name": "_vouched",
          "type": "address[]"
        },
        {
          "internalType": "string",
          "name": "_skill",
          "type": "string"
        },
        {
          "internalType": "string",
          "name": "_project",
          "type": "string"
        },
        {
          "internalType": "string",
          "name": "_experience",
          "type": "string"
        },
        {
          "internalType": "uint256",
          "name": "_stakeAmountByUser",
          "type": "uint256"
        }
      ],
      "name": "add",
      "outputs": [
        {
          "internalType": "uint256",
          "name": "requestId",
          "type": "uint256"
        }
      ],
      "stateMutability": "nonpayable",
      "type": "function"
    },
    {
      "inputs": [
        {
          "internalType": "address",
          "name": "user",
          "type": "address"
        }
      ],
      "name": "addUser",
      "outputs": [],
      "stateMutability": "nonpayable",
      "type": "function"
    },
    {
      "inputs": [
        {
          "internalType": "uint256",
          "name": "_requestId",
          "type": "uint256"
        },
        {
          "internalType": "address",
          "name": "voucher",
          "type": "address"
        }
      ],
      "name": "addVoucher",
      "outputs": [],
      "stateMutability": "nonpayable",
      "type": "function"
    },
    {
      "inputs": [
        {
          "internalType": "address",
          "name": "_addressToFind",
          "type": "address"
        }
      ],
      "name": "checkAddress",
      "outputs": [
        {
          "internalType": "bool",
          "name": "",
          "type": "bool"
        }
      ],
      "stateMutability": "view",
      "type": "function"
    },
    {
      "inputs": [
        {
          "internalType": "uint256",
          "name": "requestId",
          "type": "uint256"
        }
      ],
      "name": "get",
      "outputs": [
        {
          "components": [
            {
              "internalType": "address",
              "name": "user",
              "type": "address"
            },
            {
              "internalType": "address[]",
              "name": "vouched",
              "type": "address[]"
            },
            {
              "internalType": "string",
              "name": "skill",
              "type": "string"
            },
            {
              "internalType": "string",
              "name": "project",
              "type": "string"
            },
            {
              "internalType": "string",
              "name": "experience",
              "type": "string"
            },
            {
              "internalType": "uint256",
              "name": "stakeAmountByUser",
              "type": "uint256"
            },
            {
              "internalType": "uint256",
              "name": "status",
              "type": "uint256"
            }
          ],
          "internalType": "struct SkillVouchState.UserRequest",
          "name": "",
          "type": "tuple"
        }
      ],
      "stateMutability": "view",
      "type": "function"
    },
    {
      "inputs": [
        {
          "internalType": "uint256",
          "name": "requestId",
          "type": "uint256"
        }
      ],
      "name": "isRequestPresent",
      "outputs": [
        {
          "internalType": "bool",
          "name": "",
          "type": "bool"
        }
      ],
      "stateMutability": "view",
      "type": "function"
    },
    {
      "inputs": [],
      "name": "nextRequestId",
      "outputs": [
        {
          "internalType": "uint256",
          "name": "",
          "type": "uint256"
        }
      ],
      "stateMutability": "view",
      "type": "function"
    },
    {
      "inputs": [],
      "name": "tokenContract",
      "outputs": [
        {
          "internalType": "contract TokenContract",
          "name": "",
          "type": "address"
        }
      ],
      "stateMutability": "view",
      "type": "function"
    },
    {
      "inputs": [
        {
          "internalType": "uint256",
          "name": "requestId",
          "type": "uint256"
        },
        {
          "internalType": "uint256",
          "name": "newStatus",
          "type": "uint256"
        }
      ],
      "name": "updateStatus",
      "outputs": [],
      "stateMutability": "nonpayable",
      "type": "function"
    },
    {
      "inputs": [
        {
          "internalType": "uint256",
          "name": "",
          "type": "uint256"
        }
      ],
      "name": "userRequests",
      "outputs": [
        {
          "internalType": "address",
          "name": "user",
          "type": "address"
        },
        {
          "internalType": "string",
          "name": "skill",
          "type": "string"
        },
        {
          "internalType": "string",
          "name": "project",
          "type": "string"
        },
        {
          "internalType": "string",
          "name": "experience",
          "type": "string"
        },
        {
          "internalType": "uint256",
          "name": "stakeAmountByUser",
          "type": "uint256"
        },
        {
          "internalType": "uint256",
          "name": "status",
          "type": "uint256"
        }
      ],
      "stateMutability": "view",
      "type": "function"
    },
    {
      "inputs": [
        {
          "internalType": "address",
          "name": "",
          "type": "address"
        },
        {
          "internalType": "uint256",
          "name": "",
          "type": "uint256"
        }
      ],
      "name": "userToRequests",
      "outputs": [
        {
          "internalType": "uint256",
          "name": "",
          "type": "uint256"
        }
      ],
      "stateMutability": "view",
      "type": "function"
    },
    {
      "inputs": [
        {
          "internalType": "address",
          "name": "",
          "type": "address"
        }
      ],
      "name": "users",
      "outputs": [
        {
          "internalType": "bool",
          "name": "",
          "type": "bool"
        }
      ],
      "stateMutability": "view",
      "type": "function"
    }
  ],
  "bytecode": "0x60a06040523480156200001157600080fd5b50604051620019e6380380620019e68339818101604052810190620000379190620000e4565b60016003819055508073ffffffffffffffffffffffffffffffffffffffff1660808173ffffffffffffffffffffffffffffffffffffffff16815250505062000116565b600080fd5b600073ffffffffffffffffffffffffffffffffffffffff82169050919050565b6000620000ac826200007f565b9050919050565b620000be816200009f565b8114620000ca57600080fd5b50565b600081519050620000de81620000b3565b92915050565b600060208284031215620000fd57620000fc6200007a565b5b60006200010d84828501620000cd565b91505092915050565b6080516118b462000132600039600061055101526118b46000f3fe608060405234801561001057600080fd5b50600436106100b45760003560e01c8063941696561161007157806394169656146101a15780639507d39a146101d6578063a1e995db14610206578063a87430ba14610236578063d5ad68d914610266578063e2f3182914610282576100b4565b80630cf908a1146100b95780630ddcfe8e146100e9578063421b2d8b1461011957806355a373d61461013557806364cfb408146101535780636a84a98514610183575b600080fd5b6100d360048036038101906100ce9190610f54565b61029e565b6040516100e09190611060565b60405180910390f35b61010360048036038101906100fe919061107b565b61044c565b60405161011091906110c3565b60405180910390f35b610133600480360381019061012e919061107b565b6104a2565b005b61013d61054f565b60405161014a919061113d565b60405180910390f35b61016d60048036038101906101689190611158565b610573565b60405161017a91906110c3565b60405180910390f35b61018b6105e1565b6040516101989190611060565b60405180910390f35b6101bb60048036038101906101b69190611158565b6105e7565b6040516101cd96959493929190611213565b60405180910390f35b6101f060048036038101906101eb9190611158565b6107db565b6040516101fd9190611451565b60405180910390f35b610220600480360381019061021b9190611473565b610ab5565b60405161022d9190611060565b60405180910390f35b610250600480360381019061024b919061107b565b610ae6565b60405161025d91906110c3565b60405180910390f35b610280600480360381019061027b91906114b3565b610b06565b005b61029c600480360381019061029791906114f3565b610b86565b005b6000600354905060006040518060e001604052808973ffffffffffffffffffffffffffffffffffffffff168152602001888152602001878152602001868152602001858152602001848152602001600081525090508060008084815260200190815260200160002060008201518160000160006101000a81548173ffffffffffffffffffffffffffffffffffffffff021916908373ffffffffffffffffffffffffffffffffffffffff1602179055506020820151816001019080519060200190610369929190610ba4565b50604082015181600201908161037f9190611735565b5060608201518160030190816103959190611735565b5060808201518160040190816103ab9190611735565b5060a0820151816005015560c08201518160060155905050600160008973ffffffffffffffffffffffffffffffffffffffff1673ffffffffffffffffffffffffffffffffffffffff1681526020019081526020016000208290806001815401808255809150506001900390600052602060002001600090919091909150556003600081548092919061043c90611836565b9190505550509695505050505050565b6000600260008373ffffffffffffffffffffffffffffffffffffffff1673ffffffffffffffffffffffffffffffffffffffff16815260200190815260200160002060009054906101000a900460ff169050919050565b600260008273ffffffffffffffffffffffffffffffffffffffff1673ffffffffffffffffffffffffffffffffffffffff16815260200190815260200160002060009054906101000a900460ff1661054c576001600260008373ffffffffffffffffffffffffffffffffffffffff1673ffffffffffffffffffffffffffffffffffffffff16815260200190815260200160002060006101000a81548160ff0219169083151502179055505b50565b7f000000000000000000000000000000000000000000000000000000000000000081565b60008073ffffffffffffffffffffffffffffffffffffffff1660008084815260200190815260200160002060000160009054906101000a900473ffffffffffffffffffffffffffffffffffffffff1673ffffffffffffffffffffffffffffffffffffffff1614159050919050565b60035481565b60006020528060005260406000206000915090508060000160009054906101000a900473ffffffffffffffffffffffffffffffffffffffff169080600201805461063090611562565b80601f016020809104026020016040519081016040528092919081815260200182805461065c90611562565b80156106a95780601f1061067e576101008083540402835291602001916106a9565b820191906000526020600020905b81548152906001019060200180831161068c57829003601f168201915b5050505050908060030180546106be90611562565b80601f01602080910402602001604051908101604052809291908181526020018280546106ea90611562565b80156107375780601f1061070c57610100808354040283529160200191610737565b820191906000526020600020905b81548152906001019060200180831161071a57829003601f168201915b50505050509080600401805461074c90611562565b80601f016020809104026020016040519081016040528092919081815260200182805461077890611562565b80156107c55780601f1061079a576101008083540402835291602001916107c5565b820191906000526020600020905b8154815290600101906020018083116107a857829003601f168201915b5050505050908060050154908060060154905086565b6107e3610c2e565b6000808381526020019081526020016000206040518060e00160405290816000820160009054906101000a900473ffffffffffffffffffffffffffffffffffffffff1673ffffffffffffffffffffffffffffffffffffffff1673ffffffffffffffffffffffffffffffffffffffff168152602001600182018054806020026020016040519081016040528092919081815260200182805480156108db57602002820191906000526020600020905b8160009054906101000a900473ffffffffffffffffffffffffffffffffffffffff1673ffffffffffffffffffffffffffffffffffffffff1681526020019060010190808311610891575b505050505081526020016002820180546108f490611562565b80601f016020809104026020016040519081016040528092919081815260200182805461092090611562565b801561096d5780601f106109425761010080835404028352916020019161096d565b820191906000526020600020905b81548152906001019060200180831161095057829003601f168201915b5050505050815260200160038201805461098690611562565b80601f01602080910402602001604051908101604052809291908181526020018280546109b290611562565b80156109ff5780601f106109d4576101008083540402835291602001916109ff565b820191906000526020600020905b8154815290600101906020018083116109e257829003601f168201915b50505050508152602001600482018054610a1890611562565b80601f0160208091040260200160405190810160405280929190818152602001828054610a4490611562565b8015610a915780601f10610a6657610100808354040283529160200191610a91565b820191906000526020600020905b815481529060010190602001808311610a7457829003601f168201915b50505050508152602001600582015481526020016006820154815250509050919050565b60016020528160005260406000208181548110610ad157600080fd5b90600052602060002001600091509150505481565b60026020528060005260406000206000915054906101000a900460ff1681565b6000806000848152602001908152602001600020905080600101829080600181540180825580915050600190039060005260206000200160009091909190916101000a81548173ffffffffffffffffffffffffffffffffffffffff021916908373ffffffffffffffffffffffffffffffffffffffff160217905550505050565b80600080848152602001908152602001600020600601819055505050565b828054828255906000526020600020908101928215610c1d579160200282015b82811115610c1c5782518260006101000a81548173ffffffffffffffffffffffffffffffffffffffff021916908373ffffffffffffffffffffffffffffffffffffffff16021790555091602001919060010190610bc4565b5b509050610c2a9190610c81565b5090565b6040518060e00160405280600073ffffffffffffffffffffffffffffffffffffffff1681526020016060815260200160608152602001606081526020016060815260200160008152602001600081525090565b5b80821115610c9a576000816000905550600101610c82565b5090565b6000604051905090565b600080fd5b600080fd5b600073ffffffffffffffffffffffffffffffffffffffff82169050919050565b6000610cdd82610cb2565b9050919050565b610ced81610cd2565b8114610cf857600080fd5b50565b600081359050610d0a81610ce4565b92915050565b600080fd5b6000601f19601f8301169050919050565b7f4e487b7100000000000000000000000000000000000000000000000000000000600052604160045260246000fd5b610d5e82610d15565b810181811067ffffffffffffffff82111715610d7d57610d7c610d26565b5b80604052505050565b6000610d90610c9e565b9050610d9c8282610d55565b919050565b600067ffffffffffffffff821115610dbc57610dbb610d26565b5b602082029050602081019050919050565b600080fd5b6000610de5610de084610da1565b610d86565b90508083825260208201905060208402830185811115610e0857610e07610dcd565b5b835b81811015610e315780610e1d8882610cfb565b845260208401935050602081019050610e0a565b5050509392505050565b600082601f830112610e5057610e4f610d10565b5b8135610e60848260208601610dd2565b91505092915050565b600080fd5b600067ffffffffffffffff821115610e8957610e88610d26565b5b610e9282610d15565b9050602081019050919050565b82818337600083830152505050565b6000610ec1610ebc84610e6e565b610d86565b905082815260208101848484011115610edd57610edc610e69565b5b610ee8848285610e9f565b509392505050565b600082601f830112610f0557610f04610d10565b5b8135610f15848260208601610eae565b91505092915050565b6000819050919050565b610f3181610f1e565b8114610f3c57600080fd5b50565b600081359050610f4e81610f28565b92915050565b60008060008060008060c08789031215610f7157610f70610ca8565b5b6000610f7f89828a01610cfb565b965050602087013567ffffffffffffffff811115610fa057610f9f610cad565b5b610fac89828a01610e3b565b955050604087013567ffffffffffffffff811115610fcd57610fcc610cad565b5b610fd989828a01610ef0565b945050606087013567ffffffffffffffff811115610ffa57610ff9610cad565b5b61100689828a01610ef0565b935050608087013567ffffffffffffffff81111561102757611026610cad565b5b61103389828a01610ef0565b92505060a061104489828a01610f3f565b9150509295509295509295565b61105a81610f1e565b82525050565b60006020820190506110756000830184611051565b92915050565b60006020828403121561109157611090610ca8565b5b600061109f84828501610cfb565b91505092915050565b60008115159050919050565b6110bd816110a8565b82525050565b60006020820190506110d860008301846110b4565b92915050565b6000819050919050565b60006111036110fe6110f984610cb2565b6110de565b610cb2565b9050919050565b6000611115826110e8565b9050919050565b60006111278261110a565b9050919050565b6111378161111c565b82525050565b6000602082019050611152600083018461112e565b92915050565b60006020828403121561116e5761116d610ca8565b5b600061117c84828501610f3f565b91505092915050565b61118e81610cd2565b82525050565b600081519050919050565b600082825260208201905092915050565b60005b838110156111ce5780820151818401526020810190506111b3565b60008484015250505050565b60006111e582611194565b6111ef818561119f565b93506111ff8185602086016111b0565b61120881610d15565b840191505092915050565b600060c0820190506112286000830189611185565b818103602083015261123a81886111da565b9050818103604083015261124e81876111da565b9050818103606083015261126281866111da565b90506112716080830185611051565b61127e60a0830184611051565b979650505050505050565b61129281610cd2565b82525050565b600081519050919050565b600082825260208201905092915050565b6000819050602082019050919050565b60006112d08383611289565b60208301905092915050565b6000602082019050919050565b60006112f482611298565b6112fe81856112a3565b9350611309836112b4565b8060005b8381101561133a57815161132188826112c4565b975061132c836112dc565b92505060018101905061130d565b5085935050505092915050565b600082825260208201905092915050565b600061136382611194565b61136d8185611347565b935061137d8185602086016111b0565b61138681610d15565b840191505092915050565b61139a81610f1e565b82525050565b600060e0830160008301516113b86000860182611289565b50602083015184820360208601526113d082826112e9565b915050604083015184820360408601526113ea8282611358565b915050606083015184820360608601526114048282611358565b9150506080830151848203608086015261141e8282611358565b91505060a083015161143360a0860182611391565b5060c083015161144660c0860182611391565b508091505092915050565b6000602082019050818103600083015261146b81846113a0565b905092915050565b6000806040838503121561148a57611489610ca8565b5b600061149885828601610cfb565b92505060206114a985828601610f3f565b9150509250929050565b600080604083850312156114ca576114c9610ca8565b5b60006114d885828601610f3f565b92505060206114e985828601610cfb565b9150509250929050565b6000806040838503121561150a57611509610ca8565b5b600061151885828601610f3f565b925050602061152985828601610f3f565b9150509250929050565b7f4e487b7100000000000000000000000000000000000000000000000000000000600052602260045260246000fd5b6000600282049050600182168061157a57607f821691505b60208210810361158d5761158c611533565b5b50919050565b60008190508160005260206000209050919050565b60006020601f8301049050919050565b600082821b905092915050565b6000600883026115f57fffffffffffffffffffffffffffffffffffffffffffffffffffffffffffffffff826115b8565b6115ff86836115b8565b95508019841693508086168417925050509392505050565b600061163261162d61162884610f1e565b6110de565b610f1e565b9050919050565b6000819050919050565b61164c83611617565b61166061165882611639565b8484546115c5565b825550505050565b600090565b611675611668565b611680818484611643565b505050565b5b818110156116a45761169960008261166d565b600181019050611686565b5050565b601f8211156116e9576116ba81611593565b6116c3846115a8565b810160208510156116d2578190505b6116e66116de856115a8565b830182611685565b50505b505050565b600082821c905092915050565b600061170c600019846008026116ee565b1980831691505092915050565b600061172583836116fb565b9150826002028217905092915050565b61173e82611194565b67ffffffffffffffff81111561175757611756610d26565b5b6117618254611562565b61176c8282856116a8565b600060209050601f83116001811461179f576000841561178d578287015190505b6117978582611719565b8655506117ff565b601f1984166117ad86611593565b60005b828110156117d5578489015182556001820191506020850194506020810190506117b0565b868310156117f257848901516117ee601f8916826116fb565b8355505b6001600288020188555050505b505050505050565b7f4e487b7100000000000000000000000000000000000000000000000000000000600052601160045260246000fd5b600061184182610f1e565b91507fffffffffffffffffffffffffffffffffffffffffffffffffffffffffffffffff820361187357611872611807565b5b60018201905091905056fea264697066735822122053e7c1e66fbd24adb5415df6c82eff725c025fa0b694d9ac9c35e457c236d72564736f6c63430008180033",
  "linkReferences": {},
  "deployedLinkReferences": {}
}