{"contracts/SkillVouchContract.sol":{"SkillVouchContract":{"abi":[{"inputs":[{"internalType":"address","name":"_userRequestStructAddress","type":"address"}],"stateMutability":"nonpayable","type":"constructor"},{"anonymous":false,"inputs":[{"indexed":false,"internalType":"uint256","name":"requestId","type":"uint256"},{"indexed":false,"internalType":"bool","name":"accepted","type":"bool"}],"name":"RequestClosed","type":"event"},{"anonymous":false,"inputs":[{"indexed":false,"internalType":"uint256","name":"requestId","type":"uint256"},{"indexed":false,"internalType":"address","name":"user","type":"address"},{"indexed":false,"internalType":"string","name":"skill","type":"string"},{"indexed":false,"internalType":"string","name":"project","type":"string"},{"indexed":false,"internalType":"string","name":"experience","type":"string"},{"indexed":false,"internalType":"uint256","name":"stakeAmount","type":"uint256"},{"indexed":false,"internalType":"string","name":"linkedInLink","type":"string"},{"indexed":false,"internalType":"string","name":"gitHubLink","type":"string"}],"name":"RequestCreated","type":"event"},{"anonymous":false,"inputs":[{"indexed":false,"internalType":"uint256","name":"requestId","type":"uint256"},{"indexed":false,"internalType":"uint8","name":"_newStatus","type":"uint8"}],"name":"RequestStatusChanged","type":"event"},{"anonymous":false,"inputs":[{"indexed":false,"internalType":"uint256","name":"requestId","type":"uint256"},{"indexed":false,"internalType":"address","name":"vouchor","type":"address"},{"indexed":false,"internalType":"uint256","name":"stakedAmount","type":"uint256"}],"name":"SkillVouched","type":"event"},{"anonymous":false,"inputs":[{"indexed":false,"internalType":"uint256","name":"requestId","type":"uint256"},{"indexed":false,"internalType":"address","name":"voter","type":"address"},{"indexed":false,"internalType":"bool","name":"acceptance","type":"bool"}],"name":"VoteCasted","type":"event"},{"inputs":[{"internalType":"uint256","name":"","type":"uint256"}],"name":"acceptVotes","outputs":[{"internalType":"uint256","name":"","type":"uint256"}],"stateMutability":"view","type":"function"},{"inputs":[{"internalType":"uint256","name":"_requestId","type":"uint256"},{"internalType":"bool","name":"_acceptance","type":"bool"}],"name":"castVote","outputs":[],"stateMutability":"nonpayable","type":"function"},{"inputs":[{"internalType":"uint256","name":"_requestId","type":"uint256"}],"name":"closeRequest","outputs":[],"stateMutability":"nonpayable","type":"function"},{"inputs":[{"internalType":"string","name":"_skill","type":"string"},{"internalType":"string","name":"_project","type":"string"},{"internalType":"string","name":"_experience","type":"string"},{"internalType":"uint256","name":"_stakeAmount","type":"uint256"},{"internalType":"string","name":"_linkedInLink","type":"string"},{"internalType":"string","name":"_gitHubLink","type":"string"}],"name":"createRequest","outputs":[],"stateMutability":"payable","type":"function"},{"inputs":[],"name":"mintTokensToNewUsers","outputs":[],"stateMutability":"nonpayable","type":"function"},{"inputs":[{"internalType":"uint256","name":"_requestId","type":"uint256"}],"name":"moveRequestToCommunityValidation","outputs":[],"stateMutability":"nonpayable","type":"function"},{"inputs":[{"internalType":"uint256","name":"","type":"uint256"}],"name":"rejectVotes","outputs":[{"internalType":"uint256","name":"","type":"uint256"}],"stateMutability":"view","type":"function"},{"inputs":[],"name":"skillVouchState","outputs":[{"internalType":"contract SkillVouchState","name":"","type":"address"}],"stateMutability":"view","type":"function"},{"inputs":[{"internalType":"uint256","name":"","type":"uint256"},{"internalType":"uint256","name":"","type":"uint256"}],"name":"voted","outputs":[{"internalType":"address","name":"","type":"address"}],"stateMutability":"view","type":"function"},{"inputs":[{"internalType":"uint256","name":"_requestId","type":"uint256"}],"name":"vouchForSkill","outputs":[],"stateMutability":"nonpayable","type":"function"}],"evm":{"bytecode":{"linkReferences":{},"object":"60a06040523480156200001157600080fd5b5060405162003f2b38038062003f2b8339818101604052810190620000379190620001d7565b8073ffffffffffffffffffffffffffffffffffffffff1660808173ffffffffffffffffffffffffffffffffffffffff168152505060805173ffffffffffffffffffffffffffffffffffffffff166355a373d66040518163ffffffff1660e01b8152600401602060405180830381865afa158015620000b9573d6000803e3d6000fd5b505050506040513d601f19601f82011682018060405250810190620000df91906200024e565b73ffffffffffffffffffffffffffffffffffffffff1663449a52f830670de0b6b3a76400006103e8620001139190620002b9565b6040518363ffffffff1660e01b81526004016200013292919062000326565b600060405180830381600087803b1580156200014d57600080fd5b505af115801562000162573d6000803e3d6000fd5b505050505062000353565b600080fd5b600073ffffffffffffffffffffffffffffffffffffffff82169050919050565b60006200019f8262000172565b9050919050565b620001b18162000192565b8114620001bd57600080fd5b50565b600081519050620001d181620001a6565b92915050565b600060208284031215620001f057620001ef6200016d565b5b60006200020084828501620001c0565b91505092915050565b6000620002168262000192565b9050919050565b620002288162000209565b81146200023457600080fd5b50565b60008151905062000248816200021d565b92915050565b6000602082840312156200026757620002666200016d565b5b6000620002778482850162000237565b91505092915050565b6000819050919050565b7f4e487b7100000000000000000000000000000000000000000000000000000000600052601160045260246000fd5b6000620002c68262000280565b9150620002d38362000280565b9250828202620002e38162000280565b91508282048414831517620002fd57620002fc6200028a565b5b5092915050565b6200030f8162000192565b82525050565b620003208162000280565b82525050565b60006040820190506200033d600083018562000304565b6200034c602083018462000315565b9392505050565b608051613ae36200044860003960008181610268015281816103610152818161043c015281816107740152818161086d0152818161094801528181610a2e01528181610b1701528181610c3a01528181610d4801528181610e4301528181610f790152818161106e015281816111e3015281816112bd015281816113cc015281816114700152818161156901528181611644015281816117ed015281816118920152818161196d01528181611a5001528181611b1c01528181611bbd01528181611d2601528181611eea01528181612022015281816120c3015281816121d201528181612362015261249a0152613ae36000f3fe6080604052600436106100915760003560e01c8063b02a317e11610059578063b02a317e1461018b578063d966f6af146101a7578063edc797da146101e4578063f0282b7f146101fb578063fed5454e1461022457610091565b806315373e3d146100965780635f287cf2146100bf5780636114fb74146100fc57806362dc825f14610125578063689b820f14610162575b600080fd5b3480156100a257600080fd5b506100bd60048036038101906100b8919061260b565b61024f565b005b3480156100cb57600080fd5b506100e660048036038101906100e1919061264b565b61070d565b6040516100f391906126cc565b60405180910390f35b34801561010857600080fd5b50610123600480360381019061011e91906126e7565b61075b565b005b34801561013157600080fd5b5061014c600480360381019061014791906126e7565b610d17565b6040516101599190612723565b60405180910390f35b34801561016e57600080fd5b50610189600480360381019061018491906126e7565b610d2f565b005b6101a560048036038101906101a09190612884565b610f32565b005b3480156101b357600080fd5b506101ce60048036038101906101c991906126e7565b6111c9565b6040516101db9190612723565b60405180910390f35b3480156101f057600080fd5b506101f96111e1565b005b34801561020757600080fd5b50610222600480360381019061021d91906126e7565b611457565b005b34801561023057600080fd5b506102396117eb565b60405161024691906129fc565b60405180910390f35b3373ffffffffffffffffffffffffffffffffffffffff167f000000000000000000000000000000000000000000000000000000000000000073ffffffffffffffffffffffffffffffffffffffff16639507d39a846040518263ffffffff1660e01b81526004016102bf9190612723565b600060405180830381865afa1580156102dc573d6000803e3d6000fd5b505050506040513d6000823e3d601f19601f820116820180604052508101906103059190612d4c565b6000015173ffffffffffffffffffffffffffffffffffffffff160361035f576040517f08c379a000000000000000000000000000000000000000000000000000000000815260040161035690612e18565b60405180910390fd5b7f000000000000000000000000000000000000000000000000000000000000000073ffffffffffffffffffffffffffffffffffffffff166364cfb408836040518263ffffffff1660e01b81526004016103b89190612723565b602060405180830381865afa1580156103d5573d6000803e3d6000fd5b505050506040513d601f19601f820116820180604052508101906103f99190612e4d565b610438576040517f08c379a000000000000000000000000000000000000000000000000000000000815260040161042f90612ec6565b60405180910390fd5b60017f000000000000000000000000000000000000000000000000000000000000000073ffffffffffffffffffffffffffffffffffffffff16639507d39a846040518263ffffffff1660e01b81526004016104939190612723565b600060405180830381865afa1580156104b0573d6000803e3d6000fd5b505050506040513d6000823e3d601f19601f820116820180604052508101906104d99190612d4c565b60c001511461051d576040517f08c379a000000000000000000000000000000000000000000000000000000000815260040161051490612f58565b60405180910390fd5b6105bd6000808481526020019081526020016000208054806020026020016040519081016040528092919081815260200182805480156105b257602002820191906000526020600020905b8160009054906101000a900473ffffffffffffffffffffffffffffffffffffffff1673ffffffffffffffffffffffffffffffffffffffff1681526020019060010190808311610568575b50505050503361180f565b156105fd576040517f08c379a00000000000000000000000000000000000000000000000000000000081526004016105f490612fea565b60405180910390fd5b80156106315760016000838152602001908152602001600020600081548092919061062790613039565b919050555061065b565b60026000838152602001908152602001600020600081548092919061065590613039565b91905055505b600080838152602001908152602001600020339080600181540180825580915050600190039060005260206000200160009091909190916101000a81548173ffffffffffffffffffffffffffffffffffffffff021916908373ffffffffffffffffffffffffffffffffffffffff1602179055507f5aaa9aad7433112662b9e5ae23b96ed62b00035f413ab908c55607284e0804e282338360405161070193929190613090565b60405180910390a15050565b6000602052816000526040600020818154811061072957600080fd5b906000526020600020016000915091509054906101000a900473ffffffffffffffffffffffffffffffffffffffff1681565b3373ffffffffffffffffffffffffffffffffffffffff167f000000000000000000000000000000000000000000000000000000000000000073ffffffffffffffffffffffffffffffffffffffff16639507d39a836040518263ffffffff1660e01b81526004016107cb9190612723565b600060405180830381865afa1580156107e8573d6000803e3d6000fd5b505050506040513d6000823e3d601f19601f820116820180604052508101906108119190612d4c565b6000015173ffffffffffffffffffffffffffffffffffffffff160361086b576040517f08c379a000000000000000000000000000000000000000000000000000000000815260040161086290613139565b60405180910390fd5b7f000000000000000000000000000000000000000000000000000000000000000073ffffffffffffffffffffffffffffffffffffffff166364cfb408826040518263ffffffff1660e01b81526004016108c49190612723565b602060405180830381865afa1580156108e1573d6000803e3d6000fd5b505050506040513d601f19601f820116820180604052508101906109059190612e4d565b610944576040517f08c379a000000000000000000000000000000000000000000000000000000000815260040161093b90612ec6565b60405180910390fd5b60007f000000000000000000000000000000000000000000000000000000000000000073ffffffffffffffffffffffffffffffffffffffff16639507d39a836040518263ffffffff1660e01b815260040161099f9190612723565b600060405180830381865afa1580156109bc573d6000803e3d6000fd5b505050506040513d6000823e3d601f19601f820116820180604052508101906109e59190612d4c565b60c0015114610a29576040517f08c379a0000000000000000000000000000000000000000000000000000000008152600401610a20906131cb565b60405180910390fd5b610ad57f000000000000000000000000000000000000000000000000000000000000000073ffffffffffffffffffffffffffffffffffffffff16639507d39a836040518263ffffffff1660e01b8152600401610a859190612723565b600060405180830381865afa158015610aa2573d6000803e3d6000fd5b505050506040513d6000823e3d601f19601f82011682018060405250810190610acb9190612d4c565b602001513361180f565b15610b15576040517f08c379a0000000000000000000000000000000000000000000000000000000008152600401610b0c9061325d565b60405180910390fd5b7f000000000000000000000000000000000000000000000000000000000000000073ffffffffffffffffffffffffffffffffffffffff166355a373d66040518163ffffffff1660e01b8152600401602060405180830381865afa158015610b80573d6000803e3d6000fd5b505050506040513d601f19601f82011682018060405250810190610ba491906132bb565b73ffffffffffffffffffffffffffffffffffffffff166323b872dd3330670de0b6b3a76400006014610bd691906132e8565b6040518463ffffffff1660e01b8152600401610bf49392919061332a565b6020604051808303816000875af1158015610c13573d6000803e3d6000fd5b505050506040513d601f19601f82011682018060405250810190610c379190612e4d565b507f000000000000000000000000000000000000000000000000000000000000000073ffffffffffffffffffffffffffffffffffffffff1663d5ad68d982336040518363ffffffff1660e01b8152600401610c93929190613361565b600060405180830381600087803b158015610cad57600080fd5b505af1158015610cc1573d6000803e3d6000fd5b505050507f445eb8a4b28e4b0fe3edb71d9cc1d83433f0a6d135955f476eb0151b31798a368133670de0b6b3a76400006014610cfd91906132e8565b604051610d0c9392919061338a565b60405180910390a150565b60016020528060005260406000206000915090505481565b3373ffffffffffffffffffffffffffffffffffffffff167f000000000000000000000000000000000000000000000000000000000000000073ffffffffffffffffffffffffffffffffffffffff16639507d39a836040518263ffffffff1660e01b8152600401610d9f9190612723565b600060405180830381865afa158015610dbc573d6000803e3d6000fd5b505050506040513d6000823e3d601f19601f82011682018060405250810190610de59190612d4c565b6000015173ffffffffffffffffffffffffffffffffffffffff1614610e3f576040517f08c379a0000000000000000000000000000000000000000000000000000000008152600401610e3690613433565b60405180910390fd5b60007f000000000000000000000000000000000000000000000000000000000000000073ffffffffffffffffffffffffffffffffffffffff16639507d39a836040518263ffffffff1660e01b8152600401610e9a9190612723565b600060405180830381865afa158015610eb7573d6000803e3d6000fd5b505050506040513d6000823e3d601f19601f82011682018060405250810190610ee09190612d4c565b60c0015114610f24576040517f08c379a0000000000000000000000000000000000000000000000000000000008152600401610f1b906134c5565b60405180910390fd5b610f2f816001611890565b50565b60148311610f75576040517f08c379a0000000000000000000000000000000000000000000000000000000008152600401610f6c90613557565b60405180910390fd5b60007f000000000000000000000000000000000000000000000000000000000000000073ffffffffffffffffffffffffffffffffffffffff166372e09a2733600067ffffffffffffffff811115610fcf57610fce612759565b5b604051908082528060200260200182016040528015610ffd5781602001602082028036833780820191505090505b508a8a8a8a8a8a6040518963ffffffff1660e01b8152600401611027989796959493929190613679565b6020604051808303816000875af1158015611046573d6000803e3d6000fd5b505050506040513d601f19601f8201168201806040525081019061106a9190613721565b90507f000000000000000000000000000000000000000000000000000000000000000073ffffffffffffffffffffffffffffffffffffffff166355a373d66040518163ffffffff1660e01b8152600401602060405180830381865afa1580156110d7573d6000803e3d6000fd5b505050506040513d601f19601f820116820180604052508101906110fb91906132bb565b73ffffffffffffffffffffffffffffffffffffffff166323b872dd3330876040518463ffffffff1660e01b81526004016111379392919061332a565b6020604051808303816000875af1158015611156573d6000803e3d6000fd5b505050506040513d601f19601f8201168201806040525081019061117a9190612e4d565b507f6ddb80b071ca0374fa884700bb539c6b6ab1368661b6ad972461dff3ff8e106281338989898989896040516111b898979695949392919061374e565b60405180910390a150505050505050565b60026020528060005260406000206000915090505481565b7f000000000000000000000000000000000000000000000000000000000000000073ffffffffffffffffffffffffffffffffffffffff16630ddcfe8e336040518263ffffffff1660e01b815260040161123a91906126cc565b602060405180830381865afa158015611257573d6000803e3d6000fd5b505050506040513d601f19601f8201168201806040525081019061127b9190612e4d565b156112bb576040517f08c379a00000000000000000000000000000000000000000000000000000000081526004016112b29061383b565b60405180910390fd5b7f000000000000000000000000000000000000000000000000000000000000000073ffffffffffffffffffffffffffffffffffffffff166355a373d66040518163ffffffff1660e01b8152600401602060405180830381865afa158015611326573d6000803e3d6000fd5b505050506040513d601f19601f8201168201806040525081019061134a91906132bb565b73ffffffffffffffffffffffffffffffffffffffff1663449a52f833670de0b6b3a7640000603261137b91906132e8565b6040518363ffffffff1660e01b815260040161139892919061385b565b600060405180830381600087803b1580156113b257600080fd5b505af11580156113c6573d6000803e3d6000fd5b505050507f000000000000000000000000000000000000000000000000000000000000000073ffffffffffffffffffffffffffffffffffffffff1663421b2d8b336040518263ffffffff1660e01b815260040161142391906126cc565b600060405180830381600087803b15801561143d57600080fd5b505af1158015611451573d6000803e3d6000fd5b50505050565b3373ffffffffffffffffffffffffffffffffffffffff167f000000000000000000000000000000000000000000000000000000000000000073ffffffffffffffffffffffffffffffffffffffff16639507d39a836040518263ffffffff1660e01b81526004016114c79190612723565b600060405180830381865afa1580156114e4573d6000803e3d6000fd5b505050506040513d6000823e3d601f19601f8201168201806040525081019061150d9190612d4c565b6000015173ffffffffffffffffffffffffffffffffffffffff1614611567576040517f08c379a000000000000000000000000000000000000000000000000000000000815260040161155e906138f6565b60405180910390fd5b7f000000000000000000000000000000000000000000000000000000000000000073ffffffffffffffffffffffffffffffffffffffff166364cfb408826040518263ffffffff1660e01b81526004016115c09190612723565b602060405180830381865afa1580156115dd573d6000803e3d6000fd5b505050506040513d601f19601f820116820180604052508101906116019190612e4d565b611640576040517f08c379a000000000000000000000000000000000000000000000000000000000815260040161163790612ec6565b60405180910390fd5b60017f000000000000000000000000000000000000000000000000000000000000000073ffffffffffffffffffffffffffffffffffffffff16639507d39a836040518263ffffffff1660e01b815260040161169b9190612723565b600060405180830381865afa1580156116b8573d6000803e3d6000fd5b505050506040513d6000823e3d601f19601f820116820180604052508101906116e19190612d4c565b60c0015114611725576040517f08c379a000000000000000000000000000000000000000000000000000000000815260040161171c90612f58565b60405180910390fd5b60026000828152602001908152602001600020546001600083815260200190815260200160002054111561179b5761175c81611b18565b7fd204805208bb5b5fea6f63d5baa0b02392e939d9ff87e412b2f2ceacde50e09981600160405161178e929190613916565b60405180910390a16117df565b6117a48161201e565b7fd204805208bb5b5fea6f63d5baa0b02392e939d9ff87e412b2f2ceacde50e0998160006040516117d6929190613916565b60405180910390a15b6117e881612496565b50565b7f000000000000000000000000000000000000000000000000000000000000000081565b600080600090505b8351811015611884578273ffffffffffffffffffffffffffffffffffffffff1684828151811061184a5761184961393f565b5b602002602001015173ffffffffffffffffffffffffffffffffffffffff160361187757600191505061188a565b8080600101915050611817565b50600090505b92915050565b7f000000000000000000000000000000000000000000000000000000000000000073ffffffffffffffffffffffffffffffffffffffff166364cfb408836040518263ffffffff1660e01b81526004016118e99190612723565b602060405180830381865afa158015611906573d6000803e3d6000fd5b505050506040513d601f19601f8201168201806040525081019061192a9190612e4d565b611969576040517f08c379a000000000000000000000000000000000000000000000000000000000815260040161196090612ec6565b60405180910390fd5b60027f000000000000000000000000000000000000000000000000000000000000000073ffffffffffffffffffffffffffffffffffffffff16639507d39a846040518263ffffffff1660e01b81526004016119c49190612723565b600060405180830381865afa1580156119e1573d6000803e3d6000fd5b505050506040513d6000823e3d601f19601f82011682018060405250810190611a0a9190612d4c565b60c0015103611a4e576040517f08c379a0000000000000000000000000000000000000000000000000000000008152600401611a45906139ba565b60405180910390fd5b7f000000000000000000000000000000000000000000000000000000000000000073ffffffffffffffffffffffffffffffffffffffff1663e2f3182983836040518363ffffffff1660e01b8152600401611aa9929190613a18565b600060405180830381600087803b158015611ac357600080fd5b505af1158015611ad7573d6000803e3d6000fd5b505050507fc8926ec9c62d9b87ca5e4dfb0b49c1d0797cde714599e2c6d5663e5b813413ab8282604051611b0c929190613a50565b60405180910390a15050565b60007f000000000000000000000000000000000000000000000000000000000000000073ffffffffffffffffffffffffffffffffffffffff16639507d39a836040518263ffffffff1660e01b8152600401611b739190612723565b600060405180830381865afa158015611b90573d6000803e3d6000fd5b505050506040513d6000823e3d601f19601f82011682018060405250810190611bb99190612d4c565b90507f000000000000000000000000000000000000000000000000000000000000000073ffffffffffffffffffffffffffffffffffffffff166355a373d66040518163ffffffff1660e01b8152600401602060405180830381865afa158015611c26573d6000803e3d6000fd5b505050506040513d601f19601f82011682018060405250810190611c4a91906132bb565b73ffffffffffffffffffffffffffffffffffffffff166323b872dd308360000151670de0b6b3a7640000600a611c8091906132e8565b8560a00151611c8f9190613a79565b6040518463ffffffff1660e01b8152600401611cad9392919061332a565b6020604051808303816000875af1158015611ccc573d6000803e3d6000fd5b505050506040513d601f19601f82011682018060405250810190611cf09190612e4d565b5060005b816020015151811015611e7457600082602001518281518110611d1a57611d1961393f565b5b602002602001015190507f000000000000000000000000000000000000000000000000000000000000000073ffffffffffffffffffffffffffffffffffffffff166355a373d66040518163ffffffff1660e01b8152600401602060405180830381865afa158015611d8f573d6000803e3d6000fd5b505050506040513d601f19601f82011682018060405250810190611db391906132bb565b73ffffffffffffffffffffffffffffffffffffffff166323b872dd3083670de0b6b3a7640000600a611de591906132e8565b670de0b6b3a76400006014611dfa91906132e8565b611e049190613a79565b6040518463ffffffff1660e01b8152600401611e229392919061332a565b6020604051808303816000875af1158015611e41573d6000803e3d6000fd5b505050506040513d601f19601f82011682018060405250810190611e659190612e4d565b50508080600101915050611cf4565b5060005b600080848152602001908152602001600020805490508110156120195760008060008581526020019081526020016000208281548110611ebb57611eba61393f565b5b9060005260206000200160009054906101000a900473ffffffffffffffffffffffffffffffffffffffff1690507f000000000000000000000000000000000000000000000000000000000000000073ffffffffffffffffffffffffffffffffffffffff166355a373d66040518163ffffffff1660e01b8152600401602060405180830381865afa158015611f53573d6000803e3d6000fd5b505050506040513d601f19601f82011682018060405250810190611f7791906132bb565b73ffffffffffffffffffffffffffffffffffffffff166323b872dd3083670de0b6b3a7640000600a611fa991906132e8565b6040518463ffffffff1660e01b8152600401611fc79392919061332a565b6020604051808303816000875af1158015611fe6573d6000803e3d6000fd5b505050506040513d601f19601f8201168201806040525081019061200a9190612e4d565b50508080600101915050611e78565b505050565b60007f000000000000000000000000000000000000000000000000000000000000000073ffffffffffffffffffffffffffffffffffffffff16639507d39a836040518263ffffffff1660e01b81526004016120799190612723565b600060405180830381865afa158015612096573d6000803e3d6000fd5b505050506040513d6000823e3d601f19601f820116820180604052508101906120bf9190612d4c565b90507f000000000000000000000000000000000000000000000000000000000000000073ffffffffffffffffffffffffffffffffffffffff166355a373d66040518163ffffffff1660e01b8152600401602060405180830381865afa15801561212c573d6000803e3d6000fd5b505050506040513d601f19601f8201168201806040525081019061215091906132bb565b73ffffffffffffffffffffffffffffffffffffffff166379cc6790308360a001516040518363ffffffff1660e01b815260040161218e92919061385b565b600060405180830381600087803b1580156121a857600080fd5b505af11580156121bc573d6000803e3d6000fd5b5050505060005b8160200151518110156122ec577f000000000000000000000000000000000000000000000000000000000000000073ffffffffffffffffffffffffffffffffffffffff166355a373d66040518163ffffffff1660e01b8152600401602060405180830381865afa15801561223b573d6000803e3d6000fd5b505050506040513d601f19601f8201168201806040525081019061225f91906132bb565b73ffffffffffffffffffffffffffffffffffffffff166379cc679030670de0b6b3a7640000601461229091906132e8565b6040518363ffffffff1660e01b81526004016122ad92919061385b565b600060405180830381600087803b1580156122c757600080fd5b505af11580156122db573d6000803e3d6000fd5b5050505080806001019150506121c3565b5060005b6000808481526020019081526020016000208054905081101561249157600080600085815260200190815260200160002082815481106123335761233261393f565b5b9060005260206000200160009054906101000a900473ffffffffffffffffffffffffffffffffffffffff1690507f000000000000000000000000000000000000000000000000000000000000000073ffffffffffffffffffffffffffffffffffffffff166355a373d66040518163ffffffff1660e01b8152600401602060405180830381865afa1580156123cb573d6000803e3d6000fd5b505050506040513d601f19601f820116820180604052508101906123ef91906132bb565b73ffffffffffffffffffffffffffffffffffffffff166323b872dd3083670de0b6b3a7640000600a61242191906132e8565b6040518463ffffffff1660e01b815260040161243f9392919061332a565b6020604051808303816000875af115801561245e573d6000803e3d6000fd5b505050506040513d601f19601f820116820180604052508101906124829190612e4d565b505080806001019150506122f0565b505050565b60017f000000000000000000000000000000000000000000000000000000000000000073ffffffffffffffffffffffffffffffffffffffff16639507d39a836040518263ffffffff1660e01b81526004016124f19190612723565b600060405180830381865afa15801561250e573d6000803e3d6000fd5b505050506040513d6000823e3d601f19601f820116820180604052508101906125379190612d4c565b60c001511461257b576040517f08c379a000000000000000000000000000000000000000000000000000000000815260040161257290612f58565b60405180910390fd5b612586816002611890565b50565b6000604051905090565b600080fd5b600080fd5b6000819050919050565b6125b08161259d565b81146125bb57600080fd5b50565b6000813590506125cd816125a7565b92915050565b60008115159050919050565b6125e8816125d3565b81146125f357600080fd5b50565b600081359050612605816125df565b92915050565b6000806040838503121561262257612621612593565b5b6000612630858286016125be565b9250506020612641858286016125f6565b9150509250929050565b6000806040838503121561266257612661612593565b5b6000612670858286016125be565b9250506020612681858286016125be565b9150509250929050565b600073ffffffffffffffffffffffffffffffffffffffff82169050919050565b60006126b68261268b565b9050919050565b6126c6816126ab565b82525050565b60006020820190506126e160008301846126bd565b92915050565b6000602082840312156126fd576126fc612593565b5b600061270b848285016125be565b91505092915050565b61271d8161259d565b82525050565b60006020820190506127386000830184612714565b92915050565b600080fd5b600080fd5b6000601f19601f8301169050919050565b7f4e487b7100000000000000000000000000000000000000000000000000000000600052604160045260246000fd5b61279182612748565b810181811067ffffffffffffffff821117156127b0576127af612759565b5b80604052505050565b60006127c3612589565b90506127cf8282612788565b919050565b600067ffffffffffffffff8211156127ef576127ee612759565b5b6127f882612748565b9050602081019050919050565b82818337600083830152505050565b6000612827612822846127d4565b6127b9565b90508281526020810184848401111561284357612842612743565b5b61284e848285612805565b509392505050565b600082601f83011261286b5761286a61273e565b5b813561287b848260208601612814565b91505092915050565b60008060008060008060c087890312156128a1576128a0612593565b5b600087013567ffffffffffffffff8111156128bf576128be612598565b5b6128cb89828a01612856565b965050602087013567ffffffffffffffff8111156128ec576128eb612598565b5b6128f889828a01612856565b955050604087013567ffffffffffffffff81111561291957612918612598565b5b61292589828a01612856565b945050606061293689828a016125be565b935050608087013567ffffffffffffffff81111561295757612956612598565b5b61296389828a01612856565b92505060a087013567ffffffffffffffff81111561298457612983612598565b5b61299089828a01612856565b9150509295509295509295565b6000819050919050565b60006129c26129bd6129b88461268b565b61299d565b61268b565b9050919050565b60006129d4826129a7565b9050919050565b60006129e6826129c9565b9050919050565b6129f6816129db565b82525050565b6000602082019050612a1160008301846129ed565b92915050565b600080fd5b600080fd5b612a2a816126ab565b8114612a3557600080fd5b50565b600081519050612a4781612a21565b92915050565b600067ffffffffffffffff821115612a6857612a67612759565b5b602082029050602081019050919050565b600080fd5b6000612a91612a8c84612a4d565b6127b9565b90508083825260208201905060208402830185811115612ab457612ab3612a79565b5b835b81811015612add5780612ac98882612a38565b845260208401935050602081019050612ab6565b5050509392505050565b600082601f830112612afc57612afb61273e565b5b8151612b0c848260208601612a7e565b91505092915050565b60005b83811015612b33578082015181840152602081019050612b18565b60008484015250505050565b6000612b52612b4d846127d4565b6127b9565b905082815260208101848484011115612b6e57612b6d612743565b5b612b79848285612b15565b509392505050565b600082601f830112612b9657612b9561273e565b5b8151612ba6848260208601612b3f565b91505092915050565b600081519050612bbe816125a7565b92915050565b60006101208284031215612bdb57612bda612a17565b5b612be66101206127b9565b90506000612bf684828501612a38565b600083015250602082015167ffffffffffffffff811115612c1a57612c19612a1c565b5b612c2684828501612ae7565b602083015250604082015167ffffffffffffffff811115612c4a57612c49612a1c565b5b612c5684828501612b81565b604083015250606082015167ffffffffffffffff811115612c7a57612c79612a1c565b5b612c8684828501612b81565b606083015250608082015167ffffffffffffffff811115612caa57612ca9612a1c565b5b612cb684828501612b81565b60808301525060a0612cca84828501612baf565b60a08301525060c0612cde84828501612baf565b60c08301525060e082015167ffffffffffffffff811115612d0257612d01612a1c565b5b612d0e84828501612b81565b60e08301525061010082015167ffffffffffffffff811115612d3357612d32612a1c565b5b612d3f84828501612b81565b6101008301525092915050565b600060208284031215612d6257612d61612593565b5b600082015167ffffffffffffffff811115612d8057612d7f612598565b5b612d8c84828501612bc4565b91505092915050565b600082825260208201905092915050565b7f4e6f742066616972206d616e2120796f752063616e6e6f7420766f746520796f60008201527f757273656c660000000000000000000000000000000000000000000000000000602082015250565b6000612e02602683612d95565b9150612e0d82612da6565b604082019050919050565b60006020820190508181036000830152612e3181612df5565b9050919050565b600081519050612e47816125df565b92915050565b600060208284031215612e6357612e62612593565b5b6000612e7184828501612e38565b91505092915050565b7f52657175657374206e6f7420666f756e64000000000000000000000000000000600082015250565b6000612eb0601183612d95565b9150612ebb82612e7a565b602082019050919050565b60006020820190508181036000830152612edf81612ea3565b9050919050565b7f52657175657374206973206e6f7420696e20436f6d6d756e6974792056616c6960008201527f646174696f6e2070686173650000000000000000000000000000000000000000602082015250565b6000612f42602c83612d95565b9150612f4d82612ee6565b604082019050919050565b60006020820190508181036000830152612f7181612f35565b9050919050565b7f566f7465722068617320616c72656164792063617374656420766f746520666f60008201527f7220746869732072657175657374000000000000000000000000000000000000602082015250565b6000612fd4602e83612d95565b9150612fdf82612f78565b604082019050919050565b6000602082019050818103600083015261300381612fc7565b9050919050565b7f4e487b7100000000000000000000000000000000000000000000000000000000600052601160045260246000fd5b60006130448261259d565b91507fffffffffffffffffffffffffffffffffffffffffffffffffffffffffffffffff82036130765761307561300a565b5b600182019050919050565b61308a816125d3565b82525050565b60006060820190506130a56000830186612714565b6130b260208301856126bd565b6130bf6040830184613081565b949350505050565b7f4e6f742066616972206d616e2120796f752063616e6e6f7420766f756368207960008201527f6f757273656c6600000000000000000000000000000000000000000000000000602082015250565b6000613123602783612d95565b915061312e826130c7565b604082019050919050565b6000602082019050818103600083015261315281613116565b9050919050565b7f52657175657374206973206e6f7420696e20566f756368696e672050726f636560008201527f7373000000000000000000000000000000000000000000000000000000000000602082015250565b60006131b5602283612d95565b91506131c082613159565b604082019050919050565b600060208201905081810360008301526131e4816131a8565b9050919050565b7f566f75636865722068617320616c726561647920766f756368656420666f722060008201527f7468697320726571756573740000000000000000000000000000000000000000602082015250565b6000613247602c83612d95565b9150613252826131eb565b604082019050919050565b600060208201905081810360008301526132768161323a565b9050919050565b6000613288826126ab565b9050919050565b6132988161327d565b81146132a357600080fd5b50565b6000815190506132b58161328f565b92915050565b6000602082840312156132d1576132d0612593565b5b60006132df848285016132a6565b91505092915050565b60006132f38261259d565b91506132fe8361259d565b925082820261330c8161259d565b915082820484148315176133235761332261300a565b5b5092915050565b600060608201905061333f60008301866126bd565b61334c60208301856126bd565b6133596040830184612714565b949350505050565b60006040820190506133766000830185612714565b61338360208301846126bd565b9392505050565b600060608201905061339f6000830186612714565b6133ac60208301856126bd565b6133b96040830184612714565b949350505050565b7f4f74686572207468616e207265717565737420617574686f722063616e6e6f7460008201527f206d6f7665207265717565737400000000000000000000000000000000000000602082015250565b600061341d602d83612d95565b9150613428826133c1565b604082019050919050565b6000602082019050818103600083015261344c81613410565b9050919050565b7f52657175657374206973206e6f7420696e20566f756368696e672050726f636560008201527f7373207068617365000000000000000000000000000000000000000000000000602082015250565b60006134af602883612d95565b91506134ba82613453565b604082019050919050565b600060208201905081810360008301526134de816134a2565b9050919050565b7f5374616b6520616d6f756e74206d75737420626520677265617465722074686160008201527f6e20323000000000000000000000000000000000000000000000000000000000602082015250565b6000613541602483612d95565b915061354c826134e5565b604082019050919050565b6000602082019050818103600083015261357081613534565b9050919050565b600081519050919050565b600082825260208201905092915050565b6000819050602082019050919050565b6135ac816126ab565b82525050565b60006135be83836135a3565b60208301905092915050565b6000602082019050919050565b60006135e282613577565b6135ec8185613582565b93506135f783613593565b8060005b8381101561362857815161360f88826135b2565b975061361a836135ca565b9250506001810190506135fb565b5085935050505092915050565b600081519050919050565b600061364b82613635565b6136558185612d95565b9350613665818560208601612b15565b61366e81612748565b840191505092915050565b60006101008201905061368f600083018b6126bd565b81810360208301526136a1818a6135d7565b905081810360408301526136b58189613640565b905081810360608301526136c98188613640565b905081810360808301526136dd8187613640565b90506136ec60a0830186612714565b81810360c08301526136fe8185613640565b905081810360e08301526137128184613640565b90509998505050505050505050565b60006020828403121561373757613736612593565b5b600061374584828501612baf565b91505092915050565b600061010082019050613764600083018b612714565b613771602083018a6126bd565b81810360408301526137838189613640565b905081810360608301526137978188613640565b905081810360808301526137ab8187613640565b90506137ba60a0830186612714565b81810360c08301526137cc8185613640565b905081810360e08301526137e08184613640565b90509998505050505050505050565b7f416c7265616479206d696e74656420746f207468697320757365720000000000600082015250565b6000613825601b83612d95565b9150613830826137ef565b602082019050919050565b6000602082019050818103600083015261385481613818565b9050919050565b600060408201905061387060008301856126bd565b61387d6020830184612714565b9392505050565b7f4f74686572207468616e207265717565737420617574686f722063616e6e6f7460008201527f20636c6f73652072657175657374000000000000000000000000000000000000602082015250565b60006138e0602e83612d95565b91506138eb82613884565b604082019050919050565b6000602082019050818103600083015261390f816138d3565b9050919050565b600060408201905061392b6000830185612714565b6139386020830184613081565b9392505050565b7f4e487b7100000000000000000000000000000000000000000000000000000000600052603260045260246000fd5b7f5265717565737420697320636c6f736564000000000000000000000000000000600082015250565b60006139a4601183612d95565b91506139af8261396e565b602082019050919050565b600060208201905081810360008301526139d381613997565b9050919050565b600060ff82169050919050565b6000613a026139fd6139f8846139da565b61299d565b61259d565b9050919050565b613a12816139e7565b82525050565b6000604082019050613a2d6000830185612714565b613a3a6020830184613a09565b9392505050565b613a4a816139da565b82525050565b6000604082019050613a656000830185612714565b613a726020830184613a41565b9392505050565b6000613a848261259d565b9150613a8f8361259d565b9250828201905080821115613aa757613aa661300a565b5b9291505056fea26469706673582212204c8768e0d88de906efdda725ef3f7c74e2c8182438cd9ea2f6d5ef341d7aa62164736f6c63430008180033","opcodes":"PUSH1 0xA0 PUSH1 0x40 MSTORE CALLVALUE DUP1 ISZERO PUSH3 0x11 JUMPI PUSH1 0x0 DUP1 REVERT JUMPDEST POP PUSH1 0x40 MLOAD PUSH3 0x3F2B CODESIZE SUB DUP1 PUSH3 0x3F2B DUP4 CODECOPY DUP2 DUP2 ADD PUSH1 0x40 MSTORE DUP2 ADD SWAP1 PUSH3 0x37 SWAP2 SWAP1 PUSH3 0x1D7 JUMP JUMPDEST DUP1 PUSH20 0xFFFFFFFFFFFFFFFFFFFFFFFFFFFFFFFFFFFFFFFF AND PUSH1 0x80 DUP2 PUSH20 0xFFFFFFFFFFFFFFFFFFFFFFFFFFFFFFFFFFFFFFFF AND DUP2 MSTORE POP POP PUSH1 0x80 MLOAD PUSH20 0xFFFFFFFFFFFFFFFFFFFFFFFFFFFFFFFFFFFFFFFF AND PUSH4 0x55A373D6 PUSH1 0x40 MLOAD DUP2 PUSH4 0xFFFFFFFF AND PUSH1 0xE0 SHL DUP2 MSTORE PUSH1 0x4 ADD PUSH1 0x20 PUSH1 0x40 MLOAD DUP1 DUP4 SUB DUP2 DUP7 GAS STATICCALL ISZERO DUP1 ISZERO PUSH3 0xB9 JUMPI RETURNDATASIZE PUSH1 0x0 DUP1 RETURNDATACOPY RETURNDATASIZE PUSH1 0x0 REVERT JUMPDEST POP POP POP POP PUSH1 0x40 MLOAD RETURNDATASIZE PUSH1 0x1F NOT PUSH1 0x1F DUP3 ADD AND DUP3 ADD DUP1 PUSH1 0x40 MSTORE POP DUP2 ADD SWAP1 PUSH3 0xDF SWAP2 SWAP1 PUSH3 0x24E JUMP JUMPDEST PUSH20 0xFFFFFFFFFFFFFFFFFFFFFFFFFFFFFFFFFFFFFFFF AND PUSH4 0x449A52F8 ADDRESS PUSH8 0xDE0B6B3A7640000 PUSH2 0x3E8 PUSH3 0x113 SWAP2 SWAP1 PUSH3 0x2B9 JUMP JUMPDEST PUSH1 0x40 MLOAD DUP4 PUSH4 0xFFFFFFFF AND PUSH1 0xE0 SHL DUP2 MSTORE PUSH1 0x4 ADD PUSH3 0x132 SWAP3 SWAP2 SWAP1 PUSH3 0x326 JUMP JUMPDEST PUSH1 0x0 PUSH1 0x40 MLOAD DUP1 DUP4 SUB DUP2 PUSH1 0x0 DUP8 DUP1 EXTCODESIZE ISZERO DUP1 ISZERO PUSH3 0x14D JUMPI PUSH1 0x0 DUP1 REVERT JUMPDEST POP GAS CALL ISZERO DUP1 ISZERO PUSH3 0x162 JUMPI RETURNDATASIZE PUSH1 0x0 DUP1 RETURNDATACOPY RETURNDATASIZE PUSH1 0x0 REVERT JUMPDEST POP POP POP POP POP PUSH3 0x353 JUMP JUMPDEST PUSH1 0x0 DUP1 REVERT JUMPDEST PUSH1 0x0 PUSH20 0xFFFFFFFFFFFFFFFFFFFFFFFFFFFFFFFFFFFFFFFF DUP3 AND SWAP1 POP SWAP2 SWAP1 POP JUMP JUMPDEST PUSH1 0x0 PUSH3 0x19F DUP3 PUSH3 0x172 JUMP JUMPDEST SWAP1 POP SWAP2 SWAP1 POP JUMP JUMPDEST PUSH3 0x1B1 DUP2 PUSH3 0x192 JUMP JUMPDEST DUP2 EQ PUSH3 0x1BD JUMPI PUSH1 0x0 DUP1 REVERT JUMPDEST POP JUMP JUMPDEST PUSH1 0x0 DUP2 MLOAD SWAP1 POP PUSH3 0x1D1 DUP2 PUSH3 0x1A6 JUMP JUMPDEST SWAP3 SWAP2 POP POP JUMP JUMPDEST PUSH1 0x0 PUSH1 0x20 DUP3 DUP5 SUB SLT ISZERO PUSH3 0x1F0 JUMPI PUSH3 0x1EF PUSH3 0x16D JUMP JUMPDEST JUMPDEST PUSH1 0x0 PUSH3 0x200 DUP5 DUP3 DUP6 ADD PUSH3 0x1C0 JUMP JUMPDEST SWAP2 POP POP SWAP3 SWAP2 POP POP JUMP JUMPDEST PUSH1 0x0 PUSH3 0x216 DUP3 PUSH3 0x192 JUMP JUMPDEST SWAP1 POP SWAP2 SWAP1 POP JUMP JUMPDEST PUSH3 0x228 DUP2 PUSH3 0x209 JUMP JUMPDEST DUP2 EQ PUSH3 0x234 JUMPI PUSH1 0x0 DUP1 REVERT JUMPDEST POP JUMP JUMPDEST PUSH1 0x0 DUP2 MLOAD SWAP1 POP PUSH3 0x248 DUP2 PUSH3 0x21D JUMP JUMPDEST SWAP3 SWAP2 POP POP JUMP JUMPDEST PUSH1 0x0 PUSH1 0x20 DUP3 DUP5 SUB SLT ISZERO PUSH3 0x267 JUMPI PUSH3 0x266 PUSH3 0x16D JUMP JUMPDEST JUMPDEST PUSH1 0x0 PUSH3 0x277 DUP5 DUP3 DUP6 ADD PUSH3 0x237 JUMP JUMPDEST SWAP2 POP POP SWAP3 SWAP2 POP POP JUMP JUMPDEST PUSH1 0x0 DUP2 SWAP1 POP SWAP2 SWAP1 POP JUMP JUMPDEST PUSH32 0x4E487B7100000000000000000000000000000000000000000000000000000000 PUSH1 0x0 MSTORE PUSH1 0x11 PUSH1 0x4 MSTORE PUSH1 0x24 PUSH1 0x0 REVERT JUMPDEST PUSH1 0x0 PUSH3 0x2C6 DUP3 PUSH3 0x280 JUMP JUMPDEST SWAP2 POP PUSH3 0x2D3 DUP4 PUSH3 0x280 JUMP JUMPDEST SWAP3 POP DUP3 DUP3 MUL PUSH3 0x2E3 DUP2 PUSH3 0x280 JUMP JUMPDEST SWAP2 POP DUP3 DUP3 DIV DUP5 EQ DUP4 ISZERO OR PUSH3 0x2FD JUMPI PUSH3 0x2FC PUSH3 0x28A JUMP JUMPDEST JUMPDEST POP SWAP3 SWAP2 POP POP JUMP JUMPDEST PUSH3 0x30F DUP2 PUSH3 0x192 JUMP JUMPDEST DUP3 MSTORE POP POP JUMP JUMPDEST PUSH3 0x320 DUP2 PUSH3 0x280 JUMP JUMPDEST DUP3 MSTORE POP POP JUMP JUMPDEST PUSH1 0x0 PUSH1 0x40 DUP3 ADD SWAP1 POP PUSH3 0x33D PUSH1 0x0 DUP4 ADD DUP6 PUSH3 0x304 JUMP JUMPDEST PUSH3 0x34C PUSH1 0x20 DUP4 ADD DUP5 PUSH3 0x315 JUMP JUMPDEST SWAP4 SWAP3 POP POP POP JUMP JUMPDEST PUSH1 0x80 MLOAD PUSH2 0x3AE3 PUSH3 0x448 PUSH1 0x0 CODECOPY PUSH1 0x0 DUP2 DUP2 PUSH2 0x268 ADD MSTORE DUP2 DUP2 PUSH2 0x361 ADD MSTORE DUP2 DUP2 PUSH2 0x43C ADD MSTORE DUP2 DUP2 PUSH2 0x774 ADD MSTORE DUP2 DUP2 PUSH2 0x86D ADD MSTORE DUP2 DUP2 PUSH2 0x948 ADD MSTORE DUP2 DUP2 PUSH2 0xA2E ADD MSTORE DUP2 DUP2 PUSH2 0xB17 ADD MSTORE DUP2 DUP2 PUSH2 0xC3A ADD MSTORE DUP2 DUP2 PUSH2 0xD48 ADD MSTORE DUP2 DUP2 PUSH2 0xE43 ADD MSTORE DUP2 DUP2 PUSH2 0xF79 ADD MSTORE DUP2 DUP2 PUSH2 0x106E ADD MSTORE DUP2 DUP2 PUSH2 0x11E3 ADD MSTORE DUP2 DUP2 PUSH2 0x12BD ADD MSTORE DUP2 DUP2 PUSH2 0x13CC ADD MSTORE DUP2 DUP2 PUSH2 0x1470 ADD MSTORE DUP2 DUP2 PUSH2 0x1569 ADD MSTORE DUP2 DUP2 PUSH2 0x1644 ADD MSTORE DUP2 DUP2 PUSH2 0x17ED ADD MSTORE DUP2 DUP2 PUSH2 0x1892 ADD MSTORE DUP2 DUP2 PUSH2 0x196D ADD MSTORE DUP2 DUP2 PUSH2 0x1A50 ADD MSTORE DUP2 DUP2 PUSH2 0x1B1C ADD MSTORE DUP2 DUP2 PUSH2 0x1BBD ADD MSTORE DUP2 DUP2 PUSH2 0x1D26 ADD MSTORE DUP2 DUP2 PUSH2 0x1EEA ADD MSTORE DUP2 DUP2 PUSH2 0x2022 ADD MSTORE DUP2 DUP2 PUSH2 0x20C3 ADD MSTORE DUP2 DUP2 PUSH2 0x21D2 ADD MSTORE DUP2 DUP2 PUSH2 0x2362 ADD MSTORE PUSH2 0x249A ADD MSTORE PUSH2 0x3AE3 PUSH1 0x0 RETURN INVALID PUSH1 0x80 PUSH1 0x40 MSTORE PUSH1 0x4 CALLDATASIZE LT PUSH2 0x91 JUMPI PUSH1 0x0 CALLDATALOAD PUSH1 0xE0 SHR DUP1 PUSH4 0xB02A317E GT PUSH2 0x59 JUMPI DUP1 PUSH4 0xB02A317E EQ PUSH2 0x18B JUMPI DUP1 PUSH4 0xD966F6AF EQ PUSH2 0x1A7 JUMPI DUP1 PUSH4 0xEDC797DA EQ PUSH2 0x1E4 JUMPI DUP1 PUSH4 0xF0282B7F EQ PUSH2 0x1FB JUMPI DUP1 PUSH4 0xFED5454E EQ PUSH2 0x224 JUMPI PUSH2 0x91 JUMP JUMPDEST DUP1 PUSH4 0x15373E3D EQ PUSH2 0x96 JUMPI DUP1 PUSH4 0x5F287CF2 EQ PUSH2 0xBF JUMPI DUP1 PUSH4 0x6114FB74 EQ PUSH2 0xFC JUMPI DUP1 PUSH4 0x62DC825F EQ PUSH2 0x125 JUMPI DUP1 PUSH4 0x689B820F EQ PUSH2 0x162 JUMPI JUMPDEST PUSH1 0x0 DUP1 REVERT JUMPDEST CALLVALUE DUP1 ISZERO PUSH2 0xA2 JUMPI PUSH1 0x0 DUP1 REVERT JUMPDEST POP PUSH2 0xBD PUSH1 0x4 DUP1 CALLDATASIZE SUB DUP2 ADD SWAP1 PUSH2 0xB8 SWAP2 SWAP1 PUSH2 0x260B JUMP JUMPDEST PUSH2 0x24F JUMP JUMPDEST STOP JUMPDEST CALLVALUE DUP1 ISZERO PUSH2 0xCB JUMPI PUSH1 0x0 DUP1 REVERT JUMPDEST POP PUSH2 0xE6 PUSH1 0x4 DUP1 CALLDATASIZE SUB DUP2 ADD SWAP1 PUSH2 0xE1 SWAP2 SWAP1 PUSH2 0x264B JUMP JUMPDEST PUSH2 0x70D JUMP JUMPDEST PUSH1 0x40 MLOAD PUSH2 0xF3 SWAP2 SWAP1 PUSH2 0x26CC JUMP JUMPDEST PUSH1 0x40 MLOAD DUP1 SWAP2 SUB SWAP1 RETURN JUMPDEST CALLVALUE DUP1 ISZERO PUSH2 0x108 JUMPI PUSH1 0x0 DUP1 REVERT JUMPDEST POP PUSH2 0x123 PUSH1 0x4 DUP1 CALLDATASIZE SUB DUP2 ADD SWAP1 PUSH2 0x11E SWAP2 SWAP1 PUSH2 0x26E7 JUMP JUMPDEST PUSH2 0x75B JUMP JUMPDEST STOP JUMPDEST CALLVALUE DUP1 ISZERO PUSH2 0x131 JUMPI PUSH1 0x0 DUP1 REVERT JUMPDEST POP PUSH2 0x14C PUSH1 0x4 DUP1 CALLDATASIZE SUB DUP2 ADD SWAP1 PUSH2 0x147 SWAP2 SWAP1 PUSH2 0x26E7 JUMP JUMPDEST PUSH2 0xD17 JUMP JUMPDEST PUSH1 0x40 MLOAD PUSH2 0x159 SWAP2 SWAP1 PUSH2 0x2723 JUMP JUMPDEST PUSH1 0x40 MLOAD DUP1 SWAP2 SUB SWAP1 RETURN JUMPDEST CALLVALUE DUP1 ISZERO PUSH2 0x16E JUMPI PUSH1 0x0 DUP1 REVERT JUMPDEST POP PUSH2 0x189 PUSH1 0x4 DUP1 CALLDATASIZE SUB DUP2 ADD SWAP1 PUSH2 0x184 SWAP2 SWAP1 PUSH2 0x26E7 JUMP JUMPDEST PUSH2 0xD2F JUMP JUMPDEST STOP JUMPDEST PUSH2 0x1A5 PUSH1 0x4 DUP1 CALLDATASIZE SUB DUP2 ADD SWAP1 PUSH2 0x1A0 SWAP2 SWAP1 PUSH2 0x2884 JUMP JUMPDEST PUSH2 0xF32 JUMP JUMPDEST STOP JUMPDEST CALLVALUE DUP1 ISZERO PUSH2 0x1B3 JUMPI PUSH1 0x0 DUP1 REVERT JUMPDEST POP PUSH2 0x1CE PUSH1 0x4 DUP1 CALLDATASIZE SUB DUP2 ADD SWAP1 PUSH2 0x1C9 SWAP2 SWAP1 PUSH2 0x26E7 JUMP JUMPDEST PUSH2 0x11C9 JUMP JUMPDEST PUSH1 0x40 MLOAD PUSH2 0x1DB SWAP2 SWAP1 PUSH2 0x2723 JUMP JUMPDEST PUSH1 0x40 MLOAD DUP1 SWAP2 SUB SWAP1 RETURN JUMPDEST CALLVALUE DUP1 ISZERO PUSH2 0x1F0 JUMPI PUSH1 0x0 DUP1 REVERT JUMPDEST POP PUSH2 0x1F9 PUSH2 0x11E1 JUMP JUMPDEST STOP JUMPDEST CALLVALUE DUP1 ISZERO PUSH2 0x207 JUMPI PUSH1 0x0 DUP1 REVERT JUMPDEST POP PUSH2 0x222 PUSH1 0x4 DUP1 CALLDATASIZE SUB DUP2 ADD SWAP1 PUSH2 0x21D SWAP2 SWAP1 PUSH2 0x26E7 JUMP JUMPDEST PUSH2 0x1457 JUMP JUMPDEST STOP JUMPDEST CALLVALUE DUP1 ISZERO PUSH2 0x230 JUMPI PUSH1 0x0 DUP1 REVERT JUMPDEST POP PUSH2 0x239 PUSH2 0x17EB JUMP JUMPDEST PUSH1 0x40 MLOAD PUSH2 0x246 SWAP2 SWAP1 PUSH2 0x29FC JUMP JUMPDEST PUSH1 0x40 MLOAD DUP1 SWAP2 SUB SWAP1 RETURN JUMPDEST CALLER PUSH20 0xFFFFFFFFFFFFFFFFFFFFFFFFFFFFFFFFFFFFFFFF AND PUSH32 0x0 PUSH20 0xFFFFFFFFFFFFFFFFFFFFFFFFFFFFFFFFFFFFFFFF AND PUSH4 0x9507D39A DUP5 PUSH1 0x40 MLOAD DUP3 PUSH4 0xFFFFFFFF AND PUSH1 0xE0 SHL DUP2 MSTORE PUSH1 0x4 ADD PUSH2 0x2BF SWAP2 SWAP1 PUSH2 0x2723 JUMP JUMPDEST PUSH1 0x0 PUSH1 0x40 MLOAD DUP1 DUP4 SUB DUP2 DUP7 GAS STATICCALL ISZERO DUP1 ISZERO PUSH2 0x2DC JUMPI RETURNDATASIZE PUSH1 0x0 DUP1 RETURNDATACOPY RETURNDATASIZE PUSH1 0x0 REVERT JUMPDEST POP POP POP POP PUSH1 0x40 MLOAD RETURNDATASIZE PUSH1 0x0 DUP3 RETURNDATACOPY RETURNDATASIZE PUSH1 0x1F NOT PUSH1 0x1F DUP3 ADD AND DUP3 ADD DUP1 PUSH1 0x40 MSTORE POP DUP2 ADD SWAP1 PUSH2 0x305 SWAP2 SWAP1 PUSH2 0x2D4C JUMP JUMPDEST PUSH1 0x0 ADD MLOAD PUSH20 0xFFFFFFFFFFFFFFFFFFFFFFFFFFFFFFFFFFFFFFFF AND SUB PUSH2 0x35F JUMPI PUSH1 0x40 MLOAD PUSH32 0x8C379A000000000000000000000000000000000000000000000000000000000 DUP2 MSTORE PUSH1 0x4 ADD PUSH2 0x356 SWAP1 PUSH2 0x2E18 JUMP JUMPDEST PUSH1 0x40 MLOAD DUP1 SWAP2 SUB SWAP1 REVERT JUMPDEST PUSH32 0x0 PUSH20 0xFFFFFFFFFFFFFFFFFFFFFFFFFFFFFFFFFFFFFFFF AND PUSH4 0x64CFB408 DUP4 PUSH1 0x40 MLOAD DUP3 PUSH4 0xFFFFFFFF AND PUSH1 0xE0 SHL DUP2 MSTORE PUSH1 0x4 ADD PUSH2 0x3B8 SWAP2 SWAP1 PUSH2 0x2723 JUMP JUMPDEST PUSH1 0x20 PUSH1 0x40 MLOAD DUP1 DUP4 SUB DUP2 DUP7 GAS STATICCALL ISZERO DUP1 ISZERO PUSH2 0x3D5 JUMPI RETURNDATASIZE PUSH1 0x0 DUP1 RETURNDATACOPY RETURNDATASIZE PUSH1 0x0 REVERT JUMPDEST POP POP POP POP PUSH1 0x40 MLOAD RETURNDATASIZE PUSH1 0x1F NOT PUSH1 0x1F DUP3 ADD AND DUP3 ADD DUP1 PUSH1 0x40 MSTORE POP DUP2 ADD SWAP1 PUSH2 0x3F9 SWAP2 SWAP1 PUSH2 0x2E4D JUMP JUMPDEST PUSH2 0x438 JUMPI PUSH1 0x40 MLOAD PUSH32 0x8C379A000000000000000000000000000000000000000000000000000000000 DUP2 MSTORE PUSH1 0x4 ADD PUSH2 0x42F SWAP1 PUSH2 0x2EC6 JUMP JUMPDEST PUSH1 0x40 MLOAD DUP1 SWAP2 SUB SWAP1 REVERT JUMPDEST PUSH1 0x1 PUSH32 0x0 PUSH20 0xFFFFFFFFFFFFFFFFFFFFFFFFFFFFFFFFFFFFFFFF AND PUSH4 0x9507D39A DUP5 PUSH1 0x40 MLOAD DUP3 PUSH4 0xFFFFFFFF AND PUSH1 0xE0 SHL DUP2 MSTORE PUSH1 0x4 ADD PUSH2 0x493 SWAP2 SWAP1 PUSH2 0x2723 JUMP JUMPDEST PUSH1 0x0 PUSH1 0x40 MLOAD DUP1 DUP4 SUB DUP2 DUP7 GAS STATICCALL ISZERO DUP1 ISZERO PUSH2 0x4B0 JUMPI RETURNDATASIZE PUSH1 0x0 DUP1 RETURNDATACOPY RETURNDATASIZE PUSH1 0x0 REVERT JUMPDEST POP POP POP POP PUSH1 0x40 MLOAD RETURNDATASIZE PUSH1 0x0 DUP3 RETURNDATACOPY RETURNDATASIZE PUSH1 0x1F NOT PUSH1 0x1F DUP3 ADD AND DUP3 ADD DUP1 PUSH1 0x40 MSTORE POP DUP2 ADD SWAP1 PUSH2 0x4D9 SWAP2 SWAP1 PUSH2 0x2D4C JUMP JUMPDEST PUSH1 0xC0 ADD MLOAD EQ PUSH2 0x51D JUMPI PUSH1 0x40 MLOAD PUSH32 0x8C379A000000000000000000000000000000000000000000000000000000000 DUP2 MSTORE PUSH1 0x4 ADD PUSH2 0x514 SWAP1 PUSH2 0x2F58 JUMP JUMPDEST PUSH1 0x40 MLOAD DUP1 SWAP2 SUB SWAP1 REVERT JUMPDEST PUSH2 0x5BD PUSH1 0x0 DUP1 DUP5 DUP2 MSTORE PUSH1 0x20 ADD SWAP1 DUP2 MSTORE PUSH1 0x20 ADD PUSH1 0x0 KECCAK256 DUP1 SLOAD DUP1 PUSH1 0x20 MUL PUSH1 0x20 ADD PUSH1 0x40 MLOAD SWAP1 DUP2 ADD PUSH1 0x40 MSTORE DUP1 SWAP3 SWAP2 SWAP1 DUP2 DUP2 MSTORE PUSH1 0x20 ADD DUP3 DUP1 SLOAD DUP1 ISZERO PUSH2 0x5B2 JUMPI PUSH1 0x20 MUL DUP3 ADD SWAP2 SWAP1 PUSH1 0x0 MSTORE PUSH1 0x20 PUSH1 0x0 KECCAK256 SWAP1 JUMPDEST DUP2 PUSH1 0x0 SWAP1 SLOAD SWAP1 PUSH2 0x100 EXP SWAP1 DIV PUSH20 0xFFFFFFFFFFFFFFFFFFFFFFFFFFFFFFFFFFFFFFFF AND PUSH20 0xFFFFFFFFFFFFFFFFFFFFFFFFFFFFFFFFFFFFFFFF AND DUP2 MSTORE PUSH1 0x20 ADD SWAP1 PUSH1 0x1 ADD SWAP1 DUP1 DUP4 GT PUSH2 0x568 JUMPI JUMPDEST POP POP POP POP POP CALLER PUSH2 0x180F JUMP JUMPDEST ISZERO PUSH2 0x5FD JUMPI PUSH1 0x40 MLOAD PUSH32 0x8C379A000000000000000000000000000000000000000000000000000000000 DUP2 MSTORE PUSH1 0x4 ADD PUSH2 0x5F4 SWAP1 PUSH2 0x2FEA JUMP JUMPDEST PUSH1 0x40 MLOAD DUP1 SWAP2 SUB SWAP1 REVERT JUMPDEST DUP1 ISZERO PUSH2 0x631 JUMPI PUSH1 0x1 PUSH1 0x0 DUP4 DUP2 MSTORE PUSH1 0x20 ADD SWAP1 DUP2 MSTORE PUSH1 0x20 ADD PUSH1 0x0 KECCAK256 PUSH1 0x0 DUP2 SLOAD DUP1 SWAP3 SWAP2 SWAP1 PUSH2 0x627 SWAP1 PUSH2 0x3039 JUMP JUMPDEST SWAP2 SWAP1 POP SSTORE POP PUSH2 0x65B JUMP JUMPDEST PUSH1 0x2 PUSH1 0x0 DUP4 DUP2 MSTORE PUSH1 0x20 ADD SWAP1 DUP2 MSTORE PUSH1 0x20 ADD PUSH1 0x0 KECCAK256 PUSH1 0x0 DUP2 SLOAD DUP1 SWAP3 SWAP2 SWAP1 PUSH2 0x655 SWAP1 PUSH2 0x3039 JUMP JUMPDEST SWAP2 SWAP1 POP SSTORE POP JUMPDEST PUSH1 0x0 DUP1 DUP4 DUP2 MSTORE PUSH1 0x20 ADD SWAP1 DUP2 MSTORE PUSH1 0x20 ADD PUSH1 0x0 KECCAK256 CALLER SWAP1 DUP1 PUSH1 0x1 DUP2 SLOAD ADD DUP1 DUP3 SSTORE DUP1 SWAP2 POP POP PUSH1 0x1 SWAP1 SUB SWAP1 PUSH1 0x0 MSTORE PUSH1 0x20 PUSH1 0x0 KECCAK256 ADD PUSH1 0x0 SWAP1 SWAP2 SWAP1 SWAP2 SWAP1 SWAP2 PUSH2 0x100 EXP DUP2 SLOAD DUP2 PUSH20 0xFFFFFFFFFFFFFFFFFFFFFFFFFFFFFFFFFFFFFFFF MUL NOT AND SWAP1 DUP4 PUSH20 0xFFFFFFFFFFFFFFFFFFFFFFFFFFFFFFFFFFFFFFFF AND MUL OR SWAP1 SSTORE POP PUSH32 0x5AAA9AAD7433112662B9E5AE23B96ED62B00035F413AB908C55607284E0804E2 DUP3 CALLER DUP4 PUSH1 0x40 MLOAD PUSH2 0x701 SWAP4 SWAP3 SWAP2 SWAP1 PUSH2 0x3090 JUMP JUMPDEST PUSH1 0x40 MLOAD DUP1 SWAP2 SUB SWAP1 LOG1 POP POP JUMP JUMPDEST PUSH1 0x0 PUSH1 0x20 MSTORE DUP2 PUSH1 0x0 MSTORE PUSH1 0x40 PUSH1 0x0 KECCAK256 DUP2 DUP2 SLOAD DUP2 LT PUSH2 0x729 JUMPI PUSH1 0x0 DUP1 REVERT JUMPDEST SWAP1 PUSH1 0x0 MSTORE PUSH1 0x20 PUSH1 0x0 KECCAK256 ADD PUSH1 0x0 SWAP2 POP SWAP2 POP SWAP1 SLOAD SWAP1 PUSH2 0x100 EXP SWAP1 DIV PUSH20 0xFFFFFFFFFFFFFFFFFFFFFFFFFFFFFFFFFFFFFFFF AND DUP2 JUMP JUMPDEST CALLER PUSH20 0xFFFFFFFFFFFFFFFFFFFFFFFFFFFFFFFFFFFFFFFF AND PUSH32 0x0 PUSH20 0xFFFFFFFFFFFFFFFFFFFFFFFFFFFFFFFFFFFFFFFF AND PUSH4 0x9507D39A DUP4 PUSH1 0x40 MLOAD DUP3 PUSH4 0xFFFFFFFF AND PUSH1 0xE0 SHL DUP2 MSTORE PUSH1 0x4 ADD PUSH2 0x7CB SWAP2 SWAP1 PUSH2 0x2723 JUMP JUMPDEST PUSH1 0x0 PUSH1 0x40 MLOAD DUP1 DUP4 SUB DUP2 DUP7 GAS STATICCALL ISZERO DUP1 ISZERO PUSH2 0x7E8 JUMPI RETURNDATASIZE PUSH1 0x0 DUP1 RETURNDATACOPY RETURNDATASIZE PUSH1 0x0 REVERT JUMPDEST POP POP POP POP PUSH1 0x40 MLOAD RETURNDATASIZE PUSH1 0x0 DUP3 RETURNDATACOPY RETURNDATASIZE PUSH1 0x1F NOT PUSH1 0x1F DUP3 ADD AND DUP3 ADD DUP1 PUSH1 0x40 MSTORE POP DUP2 ADD SWAP1 PUSH2 0x811 SWAP2 SWAP1 PUSH2 0x2D4C JUMP JUMPDEST PUSH1 0x0 ADD MLOAD PUSH20 0xFFFFFFFFFFFFFFFFFFFFFFFFFFFFFFFFFFFFFFFF AND SUB PUSH2 0x86B JUMPI PUSH1 0x40 MLOAD PUSH32 0x8C379A000000000000000000000000000000000000000000000000000000000 DUP2 MSTORE PUSH1 0x4 ADD PUSH2 0x862 SWAP1 PUSH2 0x3139 JUMP JUMPDEST PUSH1 0x40 MLOAD DUP1 SWAP2 SUB SWAP1 REVERT JUMPDEST PUSH32 0x0 PUSH20 0xFFFFFFFFFFFFFFFFFFFFFFFFFFFFFFFFFFFFFFFF AND PUSH4 0x64CFB408 DUP3 PUSH1 0x40 MLOAD DUP3 PUSH4 0xFFFFFFFF AND PUSH1 0xE0 SHL DUP2 MSTORE PUSH1 0x4 ADD PUSH2 0x8C4 SWAP2 SWAP1 PUSH2 0x2723 JUMP JUMPDEST PUSH1 0x20 PUSH1 0x40 MLOAD DUP1 DUP4 SUB DUP2 DUP7 GAS STATICCALL ISZERO DUP1 ISZERO PUSH2 0x8E1 JUMPI RETURNDATASIZE PUSH1 0x0 DUP1 RETURNDATACOPY RETURNDATASIZE PUSH1 0x0 REVERT JUMPDEST POP POP POP POP PUSH1 0x40 MLOAD RETURNDATASIZE PUSH1 0x1F NOT PUSH1 0x1F DUP3 ADD AND DUP3 ADD DUP1 PUSH1 0x40 MSTORE POP DUP2 ADD SWAP1 PUSH2 0x905 SWAP2 SWAP1 PUSH2 0x2E4D JUMP JUMPDEST PUSH2 0x944 JUMPI PUSH1 0x40 MLOAD PUSH32 0x8C379A000000000000000000000000000000000000000000000000000000000 DUP2 MSTORE PUSH1 0x4 ADD PUSH2 0x93B SWAP1 PUSH2 0x2EC6 JUMP JUMPDEST PUSH1 0x40 MLOAD DUP1 SWAP2 SUB SWAP1 REVERT JUMPDEST PUSH1 0x0 PUSH32 0x0 PUSH20 0xFFFFFFFFFFFFFFFFFFFFFFFFFFFFFFFFFFFFFFFF AND PUSH4 0x9507D39A DUP4 PUSH1 0x40 MLOAD DUP3 PUSH4 0xFFFFFFFF AND PUSH1 0xE0 SHL DUP2 MSTORE PUSH1 0x4 ADD PUSH2 0x99F SWAP2 SWAP1 PUSH2 0x2723 JUMP JUMPDEST PUSH1 0x0 PUSH1 0x40 MLOAD DUP1 DUP4 SUB DUP2 DUP7 GAS STATICCALL ISZERO DUP1 ISZERO PUSH2 0x9BC JUMPI RETURNDATASIZE PUSH1 0x0 DUP1 RETURNDATACOPY RETURNDATASIZE PUSH1 0x0 REVERT JUMPDEST POP POP POP POP PUSH1 0x40 MLOAD RETURNDATASIZE PUSH1 0x0 DUP3 RETURNDATACOPY RETURNDATASIZE PUSH1 0x1F NOT PUSH1 0x1F DUP3 ADD AND DUP3 ADD DUP1 PUSH1 0x40 MSTORE POP DUP2 ADD SWAP1 PUSH2 0x9E5 SWAP2 SWAP1 PUSH2 0x2D4C JUMP JUMPDEST PUSH1 0xC0 ADD MLOAD EQ PUSH2 0xA29 JUMPI PUSH1 0x40 MLOAD PUSH32 0x8C379A000000000000000000000000000000000000000000000000000000000 DUP2 MSTORE PUSH1 0x4 ADD PUSH2 0xA20 SWAP1 PUSH2 0x31CB JUMP JUMPDEST PUSH1 0x40 MLOAD DUP1 SWAP2 SUB SWAP1 REVERT JUMPDEST PUSH2 0xAD5 PUSH32 0x0 PUSH20 0xFFFFFFFFFFFFFFFFFFFFFFFFFFFFFFFFFFFFFFFF AND PUSH4 0x9507D39A DUP4 PUSH1 0x40 MLOAD DUP3 PUSH4 0xFFFFFFFF AND PUSH1 0xE0 SHL DUP2 MSTORE PUSH1 0x4 ADD PUSH2 0xA85 SWAP2 SWAP1 PUSH2 0x2723 JUMP JUMPDEST PUSH1 0x0 PUSH1 0x40 MLOAD DUP1 DUP4 SUB DUP2 DUP7 GAS STATICCALL ISZERO DUP1 ISZERO PUSH2 0xAA2 JUMPI RETURNDATASIZE PUSH1 0x0 DUP1 RETURNDATACOPY RETURNDATASIZE PUSH1 0x0 REVERT JUMPDEST POP POP POP POP PUSH1 0x40 MLOAD RETURNDATASIZE PUSH1 0x0 DUP3 RETURNDATACOPY RETURNDATASIZE PUSH1 0x1F NOT PUSH1 0x1F DUP3 ADD AND DUP3 ADD DUP1 PUSH1 0x40 MSTORE POP DUP2 ADD SWAP1 PUSH2 0xACB SWAP2 SWAP1 PUSH2 0x2D4C JUMP JUMPDEST PUSH1 0x20 ADD MLOAD CALLER PUSH2 0x180F JUMP JUMPDEST ISZERO PUSH2 0xB15 JUMPI PUSH1 0x40 MLOAD PUSH32 0x8C379A000000000000000000000000000000000000000000000000000000000 DUP2 MSTORE PUSH1 0x4 ADD PUSH2 0xB0C SWAP1 PUSH2 0x325D JUMP JUMPDEST PUSH1 0x40 MLOAD DUP1 SWAP2 SUB SWAP1 REVERT JUMPDEST PUSH32 0x0 PUSH20 0xFFFFFFFFFFFFFFFFFFFFFFFFFFFFFFFFFFFFFFFF AND PUSH4 0x55A373D6 PUSH1 0x40 MLOAD DUP2 PUSH4 0xFFFFFFFF AND PUSH1 0xE0 SHL DUP2 MSTORE PUSH1 0x4 ADD PUSH1 0x20 PUSH1 0x40 MLOAD DUP1 DUP4 SUB DUP2 DUP7 GAS STATICCALL ISZERO DUP1 ISZERO PUSH2 0xB80 JUMPI RETURNDATASIZE PUSH1 0x0 DUP1 RETURNDATACOPY RETURNDATASIZE PUSH1 0x0 REVERT JUMPDEST POP POP POP POP PUSH1 0x40 MLOAD RETURNDATASIZE PUSH1 0x1F NOT PUSH1 0x1F DUP3 ADD AND DUP3 ADD DUP1 PUSH1 0x40 MSTORE POP DUP2 ADD SWAP1 PUSH2 0xBA4 SWAP2 SWAP1 PUSH2 0x32BB JUMP JUMPDEST PUSH20 0xFFFFFFFFFFFFFFFFFFFFFFFFFFFFFFFFFFFFFFFF AND PUSH4 0x23B872DD CALLER ADDRESS PUSH8 0xDE0B6B3A7640000 PUSH1 0x14 PUSH2 0xBD6 SWAP2 SWAP1 PUSH2 0x32E8 JUMP JUMPDEST PUSH1 0x40 MLOAD DUP5 PUSH4 0xFFFFFFFF AND PUSH1 0xE0 SHL DUP2 MSTORE PUSH1 0x4 ADD PUSH2 0xBF4 SWAP4 SWAP3 SWAP2 SWAP1 PUSH2 0x332A JUMP JUMPDEST PUSH1 0x20 PUSH1 0x40 MLOAD DUP1 DUP4 SUB DUP2 PUSH1 0x0 DUP8 GAS CALL ISZERO DUP1 ISZERO PUSH2 0xC13 JUMPI RETURNDATASIZE PUSH1 0x0 DUP1 RETURNDATACOPY RETURNDATASIZE PUSH1 0x0 REVERT JUMPDEST POP POP POP POP PUSH1 0x40 MLOAD RETURNDATASIZE PUSH1 0x1F NOT PUSH1 0x1F DUP3 ADD AND DUP3 ADD DUP1 PUSH1 0x40 MSTORE POP DUP2 ADD SWAP1 PUSH2 0xC37 SWAP2 SWAP1 PUSH2 0x2E4D JUMP JUMPDEST POP PUSH32 0x0 PUSH20 0xFFFFFFFFFFFFFFFFFFFFFFFFFFFFFFFFFFFFFFFF AND PUSH4 0xD5AD68D9 DUP3 CALLER PUSH1 0x40 MLOAD DUP4 PUSH4 0xFFFFFFFF AND PUSH1 0xE0 SHL DUP2 MSTORE PUSH1 0x4 ADD PUSH2 0xC93 SWAP3 SWAP2 SWAP1 PUSH2 0x3361 JUMP JUMPDEST PUSH1 0x0 PUSH1 0x40 MLOAD DUP1 DUP4 SUB DUP2 PUSH1 0x0 DUP8 DUP1 EXTCODESIZE ISZERO DUP1 ISZERO PUSH2 0xCAD JUMPI PUSH1 0x0 DUP1 REVERT JUMPDEST POP GAS CALL ISZERO DUP1 ISZERO PUSH2 0xCC1 JUMPI RETURNDATASIZE PUSH1 0x0 DUP1 RETURNDATACOPY RETURNDATASIZE PUSH1 0x0 REVERT JUMPDEST POP POP POP POP PUSH32 0x445EB8A4B28E4B0FE3EDB71D9CC1D83433F0A6D135955F476EB0151B31798A36 DUP2 CALLER PUSH8 0xDE0B6B3A7640000 PUSH1 0x14 PUSH2 0xCFD SWAP2 SWAP1 PUSH2 0x32E8 JUMP JUMPDEST PUSH1 0x40 MLOAD PUSH2 0xD0C SWAP4 SWAP3 SWAP2 SWAP1 PUSH2 0x338A JUMP JUMPDEST PUSH1 0x40 MLOAD DUP1 SWAP2 SUB SWAP1 LOG1 POP JUMP JUMPDEST PUSH1 0x1 PUSH1 0x20 MSTORE DUP1 PUSH1 0x0 MSTORE PUSH1 0x40 PUSH1 0x0 KECCAK256 PUSH1 0x0 SWAP2 POP SWAP1 POP SLOAD DUP2 JUMP JUMPDEST CALLER PUSH20 0xFFFFFFFFFFFFFFFFFFFFFFFFFFFFFFFFFFFFFFFF AND PUSH32 0x0 PUSH20 0xFFFFFFFFFFFFFFFFFFFFFFFFFFFFFFFFFFFFFFFF AND PUSH4 0x9507D39A DUP4 PUSH1 0x40 MLOAD DUP3 PUSH4 0xFFFFFFFF AND PUSH1 0xE0 SHL DUP2 MSTORE PUSH1 0x4 ADD PUSH2 0xD9F SWAP2 SWAP1 PUSH2 0x2723 JUMP JUMPDEST PUSH1 0x0 PUSH1 0x40 MLOAD DUP1 DUP4 SUB DUP2 DUP7 GAS STATICCALL ISZERO DUP1 ISZERO PUSH2 0xDBC JUMPI RETURNDATASIZE PUSH1 0x0 DUP1 RETURNDATACOPY RETURNDATASIZE PUSH1 0x0 REVERT JUMPDEST POP POP POP POP PUSH1 0x40 MLOAD RETURNDATASIZE PUSH1 0x0 DUP3 RETURNDATACOPY RETURNDATASIZE PUSH1 0x1F NOT PUSH1 0x1F DUP3 ADD AND DUP3 ADD DUP1 PUSH1 0x40 MSTORE POP DUP2 ADD SWAP1 PUSH2 0xDE5 SWAP2 SWAP1 PUSH2 0x2D4C JUMP JUMPDEST PUSH1 0x0 ADD MLOAD PUSH20 0xFFFFFFFFFFFFFFFFFFFFFFFFFFFFFFFFFFFFFFFF AND EQ PUSH2 0xE3F JUMPI PUSH1 0x40 MLOAD PUSH32 0x8C379A000000000000000000000000000000000000000000000000000000000 DUP2 MSTORE PUSH1 0x4 ADD PUSH2 0xE36 SWAP1 PUSH2 0x3433 JUMP JUMPDEST PUSH1 0x40 MLOAD DUP1 SWAP2 SUB SWAP1 REVERT JUMPDEST PUSH1 0x0 PUSH32 0x0 PUSH20 0xFFFFFFFFFFFFFFFFFFFFFFFFFFFFFFFFFFFFFFFF AND PUSH4 0x9507D39A DUP4 PUSH1 0x40 MLOAD DUP3 PUSH4 0xFFFFFFFF AND PUSH1 0xE0 SHL DUP2 MSTORE PUSH1 0x4 ADD PUSH2 0xE9A SWAP2 SWAP1 PUSH2 0x2723 JUMP JUMPDEST PUSH1 0x0 PUSH1 0x40 MLOAD DUP1 DUP4 SUB DUP2 DUP7 GAS STATICCALL ISZERO DUP1 ISZERO PUSH2 0xEB7 JUMPI RETURNDATASIZE PUSH1 0x0 DUP1 RETURNDATACOPY RETURNDATASIZE PUSH1 0x0 REVERT JUMPDEST POP POP POP POP PUSH1 0x40 MLOAD RETURNDATASIZE PUSH1 0x0 DUP3 RETURNDATACOPY RETURNDATASIZE PUSH1 0x1F NOT PUSH1 0x1F DUP3 ADD AND DUP3 ADD DUP1 PUSH1 0x40 MSTORE POP DUP2 ADD SWAP1 PUSH2 0xEE0 SWAP2 SWAP1 PUSH2 0x2D4C JUMP JUMPDEST PUSH1 0xC0 ADD MLOAD EQ PUSH2 0xF24 JUMPI PUSH1 0x40 MLOAD PUSH32 0x8C379A000000000000000000000000000000000000000000000000000000000 DUP2 MSTORE PUSH1 0x4 ADD PUSH2 0xF1B SWAP1 PUSH2 0x34C5 JUMP JUMPDEST PUSH1 0x40 MLOAD DUP1 SWAP2 SUB SWAP1 REVERT JUMPDEST PUSH2 0xF2F DUP2 PUSH1 0x1 PUSH2 0x1890 JUMP JUMPDEST POP JUMP JUMPDEST PUSH1 0x14 DUP4 GT PUSH2 0xF75 JUMPI PUSH1 0x40 MLOAD PUSH32 0x8C379A000000000000000000000000000000000000000000000000000000000 DUP2 MSTORE PUSH1 0x4 ADD PUSH2 0xF6C SWAP1 PUSH2 0x3557 JUMP JUMPDEST PUSH1 0x40 MLOAD DUP1 SWAP2 SUB SWAP1 REVERT JUMPDEST PUSH1 0x0 PUSH32 0x0 PUSH20 0xFFFFFFFFFFFFFFFFFFFFFFFFFFFFFFFFFFFFFFFF AND PUSH4 0x72E09A27 CALLER PUSH1 0x0 PUSH8 0xFFFFFFFFFFFFFFFF DUP2 GT ISZERO PUSH2 0xFCF JUMPI PUSH2 0xFCE PUSH2 0x2759 JUMP JUMPDEST JUMPDEST PUSH1 0x40 MLOAD SWAP1 DUP1 DUP3 MSTORE DUP1 PUSH1 0x20 MUL PUSH1 0x20 ADD DUP3 ADD PUSH1 0x40 MSTORE DUP1 ISZERO PUSH2 0xFFD JUMPI DUP2 PUSH1 0x20 ADD PUSH1 0x20 DUP3 MUL DUP1 CALLDATASIZE DUP4 CALLDATACOPY DUP1 DUP3 ADD SWAP2 POP POP SWAP1 POP JUMPDEST POP DUP11 DUP11 DUP11 DUP11 DUP11 DUP11 PUSH1 0x40 MLOAD DUP10 PUSH4 0xFFFFFFFF AND PUSH1 0xE0 SHL DUP2 MSTORE PUSH1 0x4 ADD PUSH2 0x1027 SWAP9 SWAP8 SWAP7 SWAP6 SWAP5 SWAP4 SWAP3 SWAP2 SWAP1 PUSH2 0x3679 JUMP JUMPDEST PUSH1 0x20 PUSH1 0x40 MLOAD DUP1 DUP4 SUB DUP2 PUSH1 0x0 DUP8 GAS CALL ISZERO DUP1 ISZERO PUSH2 0x1046 JUMPI RETURNDATASIZE PUSH1 0x0 DUP1 RETURNDATACOPY RETURNDATASIZE PUSH1 0x0 REVERT JUMPDEST POP POP POP POP PUSH1 0x40 MLOAD RETURNDATASIZE PUSH1 0x1F NOT PUSH1 0x1F DUP3 ADD AND DUP3 ADD DUP1 PUSH1 0x40 MSTORE POP DUP2 ADD SWAP1 PUSH2 0x106A SWAP2 SWAP1 PUSH2 0x3721 JUMP JUMPDEST SWAP1 POP PUSH32 0x0 PUSH20 0xFFFFFFFFFFFFFFFFFFFFFFFFFFFFFFFFFFFFFFFF AND PUSH4 0x55A373D6 PUSH1 0x40 MLOAD DUP2 PUSH4 0xFFFFFFFF AND PUSH1 0xE0 SHL DUP2 MSTORE PUSH1 0x4 ADD PUSH1 0x20 PUSH1 0x40 MLOAD DUP1 DUP4 SUB DUP2 DUP7 GAS STATICCALL ISZERO DUP1 ISZERO PUSH2 0x10D7 JUMPI RETURNDATASIZE PUSH1 0x0 DUP1 RETURNDATACOPY RETURNDATASIZE PUSH1 0x0 REVERT JUMPDEST POP POP POP POP PUSH1 0x40 MLOAD RETURNDATASIZE PUSH1 0x1F NOT PUSH1 0x1F DUP3 ADD AND DUP3 ADD DUP1 PUSH1 0x40 MSTORE POP DUP2 ADD SWAP1 PUSH2 0x10FB SWAP2 SWAP1 PUSH2 0x32BB JUMP JUMPDEST PUSH20 0xFFFFFFFFFFFFFFFFFFFFFFFFFFFFFFFFFFFFFFFF AND PUSH4 0x23B872DD CALLER ADDRESS DUP8 PUSH1 0x40 MLOAD DUP5 PUSH4 0xFFFFFFFF AND PUSH1 0xE0 SHL DUP2 MSTORE PUSH1 0x4 ADD PUSH2 0x1137 SWAP4 SWAP3 SWAP2 SWAP1 PUSH2 0x332A JUMP JUMPDEST PUSH1 0x20 PUSH1 0x40 MLOAD DUP1 DUP4 SUB DUP2 PUSH1 0x0 DUP8 GAS CALL ISZERO DUP1 ISZERO PUSH2 0x1156 JUMPI RETURNDATASIZE PUSH1 0x0 DUP1 RETURNDATACOPY RETURNDATASIZE PUSH1 0x0 REVERT JUMPDEST POP POP POP POP PUSH1 0x40 MLOAD RETURNDATASIZE PUSH1 0x1F NOT PUSH1 0x1F DUP3 ADD AND DUP3 ADD DUP1 PUSH1 0x40 MSTORE POP DUP2 ADD SWAP1 PUSH2 0x117A SWAP2 SWAP1 PUSH2 0x2E4D JUMP JUMPDEST POP PUSH32 0x6DDB80B071CA0374FA884700BB539C6B6AB1368661B6AD972461DFF3FF8E1062 DUP2 CALLER DUP10 DUP10 DUP10 DUP10 DUP10 DUP10 PUSH1 0x40 MLOAD PUSH2 0x11B8 SWAP9 SWAP8 SWAP7 SWAP6 SWAP5 SWAP4 SWAP3 SWAP2 SWAP1 PUSH2 0x374E JUMP JUMPDEST PUSH1 0x40 MLOAD DUP1 SWAP2 SUB SWAP1 LOG1 POP POP POP POP POP POP POP JUMP JUMPDEST PUSH1 0x2 PUSH1 0x20 MSTORE DUP1 PUSH1 0x0 MSTORE PUSH1 0x40 PUSH1 0x0 KECCAK256 PUSH1 0x0 SWAP2 POP SWAP1 POP SLOAD DUP2 JUMP JUMPDEST PUSH32 0x0 PUSH20 0xFFFFFFFFFFFFFFFFFFFFFFFFFFFFFFFFFFFFFFFF AND PUSH4 0xDDCFE8E CALLER PUSH1 0x40 MLOAD DUP3 PUSH4 0xFFFFFFFF AND PUSH1 0xE0 SHL DUP2 MSTORE PUSH1 0x4 ADD PUSH2 0x123A SWAP2 SWAP1 PUSH2 0x26CC JUMP JUMPDEST PUSH1 0x20 PUSH1 0x40 MLOAD DUP1 DUP4 SUB DUP2 DUP7 GAS STATICCALL ISZERO DUP1 ISZERO PUSH2 0x1257 JUMPI RETURNDATASIZE PUSH1 0x0 DUP1 RETURNDATACOPY RETURNDATASIZE PUSH1 0x0 REVERT JUMPDEST POP POP POP POP PUSH1 0x40 MLOAD RETURNDATASIZE PUSH1 0x1F NOT PUSH1 0x1F DUP3 ADD AND DUP3 ADD DUP1 PUSH1 0x40 MSTORE POP DUP2 ADD SWAP1 PUSH2 0x127B SWAP2 SWAP1 PUSH2 0x2E4D JUMP JUMPDEST ISZERO PUSH2 0x12BB JUMPI PUSH1 0x40 MLOAD PUSH32 0x8C379A000000000000000000000000000000000000000000000000000000000 DUP2 MSTORE PUSH1 0x4 ADD PUSH2 0x12B2 SWAP1 PUSH2 0x383B JUMP JUMPDEST PUSH1 0x40 MLOAD DUP1 SWAP2 SUB SWAP1 REVERT JUMPDEST PUSH32 0x0 PUSH20 0xFFFFFFFFFFFFFFFFFFFFFFFFFFFFFFFFFFFFFFFF AND PUSH4 0x55A373D6 PUSH1 0x40 MLOAD DUP2 PUSH4 0xFFFFFFFF AND PUSH1 0xE0 SHL DUP2 MSTORE PUSH1 0x4 ADD PUSH1 0x20 PUSH1 0x40 MLOAD DUP1 DUP4 SUB DUP2 DUP7 GAS STATICCALL ISZERO DUP1 ISZERO PUSH2 0x1326 JUMPI RETURNDATASIZE PUSH1 0x0 DUP1 RETURNDATACOPY RETURNDATASIZE PUSH1 0x0 REVERT JUMPDEST POP POP POP POP PUSH1 0x40 MLOAD RETURNDATASIZE PUSH1 0x1F NOT PUSH1 0x1F DUP3 ADD AND DUP3 ADD DUP1 PUSH1 0x40 MSTORE POP DUP2 ADD SWAP1 PUSH2 0x134A SWAP2 SWAP1 PUSH2 0x32BB JUMP JUMPDEST PUSH20 0xFFFFFFFFFFFFFFFFFFFFFFFFFFFFFFFFFFFFFFFF AND PUSH4 0x449A52F8 CALLER PUSH8 0xDE0B6B3A7640000 PUSH1 0x32 PUSH2 0x137B SWAP2 SWAP1 PUSH2 0x32E8 JUMP JUMPDEST PUSH1 0x40 MLOAD DUP4 PUSH4 0xFFFFFFFF AND PUSH1 0xE0 SHL DUP2 MSTORE PUSH1 0x4 ADD PUSH2 0x1398 SWAP3 SWAP2 SWAP1 PUSH2 0x385B JUMP JUMPDEST PUSH1 0x0 PUSH1 0x40 MLOAD DUP1 DUP4 SUB DUP2 PUSH1 0x0 DUP8 DUP1 EXTCODESIZE ISZERO DUP1 ISZERO PUSH2 0x13B2 JUMPI PUSH1 0x0 DUP1 REVERT JUMPDEST POP GAS CALL ISZERO DUP1 ISZERO PUSH2 0x13C6 JUMPI RETURNDATASIZE PUSH1 0x0 DUP1 RETURNDATACOPY RETURNDATASIZE PUSH1 0x0 REVERT JUMPDEST POP POP POP POP PUSH32 0x0 PUSH20 0xFFFFFFFFFFFFFFFFFFFFFFFFFFFFFFFFFFFFFFFF AND PUSH4 0x421B2D8B CALLER PUSH1 0x40 MLOAD DUP3 PUSH4 0xFFFFFFFF AND PUSH1 0xE0 SHL DUP2 MSTORE PUSH1 0x4 ADD PUSH2 0x1423 SWAP2 SWAP1 PUSH2 0x26CC JUMP JUMPDEST PUSH1 0x0 PUSH1 0x40 MLOAD DUP1 DUP4 SUB DUP2 PUSH1 0x0 DUP8 DUP1 EXTCODESIZE ISZERO DUP1 ISZERO PUSH2 0x143D JUMPI PUSH1 0x0 DUP1 REVERT JUMPDEST POP GAS CALL ISZERO DUP1 ISZERO PUSH2 0x1451 JUMPI RETURNDATASIZE PUSH1 0x0 DUP1 RETURNDATACOPY RETURNDATASIZE PUSH1 0x0 REVERT JUMPDEST POP POP POP POP JUMP JUMPDEST CALLER PUSH20 0xFFFFFFFFFFFFFFFFFFFFFFFFFFFFFFFFFFFFFFFF AND PUSH32 0x0 PUSH20 0xFFFFFFFFFFFFFFFFFFFFFFFFFFFFFFFFFFFFFFFF AND PUSH4 0x9507D39A DUP4 PUSH1 0x40 MLOAD DUP3 PUSH4 0xFFFFFFFF AND PUSH1 0xE0 SHL DUP2 MSTORE PUSH1 0x4 ADD PUSH2 0x14C7 SWAP2 SWAP1 PUSH2 0x2723 JUMP JUMPDEST PUSH1 0x0 PUSH1 0x40 MLOAD DUP1 DUP4 SUB DUP2 DUP7 GAS STATICCALL ISZERO DUP1 ISZERO PUSH2 0x14E4 JUMPI RETURNDATASIZE PUSH1 0x0 DUP1 RETURNDATACOPY RETURNDATASIZE PUSH1 0x0 REVERT JUMPDEST POP POP POP POP PUSH1 0x40 MLOAD RETURNDATASIZE PUSH1 0x0 DUP3 RETURNDATACOPY RETURNDATASIZE PUSH1 0x1F NOT PUSH1 0x1F DUP3 ADD AND DUP3 ADD DUP1 PUSH1 0x40 MSTORE POP DUP2 ADD SWAP1 PUSH2 0x150D SWAP2 SWAP1 PUSH2 0x2D4C JUMP JUMPDEST PUSH1 0x0 ADD MLOAD PUSH20 0xFFFFFFFFFFFFFFFFFFFFFFFFFFFFFFFFFFFFFFFF AND EQ PUSH2 0x1567 JUMPI PUSH1 0x40 MLOAD PUSH32 0x8C379A000000000000000000000000000000000000000000000000000000000 DUP2 MSTORE PUSH1 0x4 ADD PUSH2 0x155E SWAP1 PUSH2 0x38F6 JUMP JUMPDEST PUSH1 0x40 MLOAD DUP1 SWAP2 SUB SWAP1 REVERT JUMPDEST PUSH32 0x0 PUSH20 0xFFFFFFFFFFFFFFFFFFFFFFFFFFFFFFFFFFFFFFFF AND PUSH4 0x64CFB408 DUP3 PUSH1 0x40 MLOAD DUP3 PUSH4 0xFFFFFFFF AND PUSH1 0xE0 SHL DUP2 MSTORE PUSH1 0x4 ADD PUSH2 0x15C0 SWAP2 SWAP1 PUSH2 0x2723 JUMP JUMPDEST PUSH1 0x20 PUSH1 0x40 MLOAD DUP1 DUP4 SUB DUP2 DUP7 GAS STATICCALL ISZERO DUP1 ISZERO PUSH2 0x15DD JUMPI RETURNDATASIZE PUSH1 0x0 DUP1 RETURNDATACOPY RETURNDATASIZE PUSH1 0x0 REVERT JUMPDEST POP POP POP POP PUSH1 0x40 MLOAD RETURNDATASIZE PUSH1 0x1F NOT PUSH1 0x1F DUP3 ADD AND DUP3 ADD DUP1 PUSH1 0x40 MSTORE POP DUP2 ADD SWAP1 PUSH2 0x1601 SWAP2 SWAP1 PUSH2 0x2E4D JUMP JUMPDEST PUSH2 0x1640 JUMPI PUSH1 0x40 MLOAD PUSH32 0x8C379A000000000000000000000000000000000000000000000000000000000 DUP2 MSTORE PUSH1 0x4 ADD PUSH2 0x1637 SWAP1 PUSH2 0x2EC6 JUMP JUMPDEST PUSH1 0x40 MLOAD DUP1 SWAP2 SUB SWAP1 REVERT JUMPDEST PUSH1 0x1 PUSH32 0x0 PUSH20 0xFFFFFFFFFFFFFFFFFFFFFFFFFFFFFFFFFFFFFFFF AND PUSH4 0x9507D39A DUP4 PUSH1 0x40 MLOAD DUP3 PUSH4 0xFFFFFFFF AND PUSH1 0xE0 SHL DUP2 MSTORE PUSH1 0x4 ADD PUSH2 0x169B SWAP2 SWAP1 PUSH2 0x2723 JUMP JUMPDEST PUSH1 0x0 PUSH1 0x40 MLOAD DUP1 DUP4 SUB DUP2 DUP7 GAS STATICCALL ISZERO DUP1 ISZERO PUSH2 0x16B8 JUMPI RETURNDATASIZE PUSH1 0x0 DUP1 RETURNDATACOPY RETURNDATASIZE PUSH1 0x0 REVERT JUMPDEST POP POP POP POP PUSH1 0x40 MLOAD RETURNDATASIZE PUSH1 0x0 DUP3 RETURNDATACOPY RETURNDATASIZE PUSH1 0x1F NOT PUSH1 0x1F DUP3 ADD AND DUP3 ADD DUP1 PUSH1 0x40 MSTORE POP DUP2 ADD SWAP1 PUSH2 0x16E1 SWAP2 SWAP1 PUSH2 0x2D4C JUMP JUMPDEST PUSH1 0xC0 ADD MLOAD EQ PUSH2 0x1725 JUMPI PUSH1 0x40 MLOAD PUSH32 0x8C379A000000000000000000000000000000000000000000000000000000000 DUP2 MSTORE PUSH1 0x4 ADD PUSH2 0x171C SWAP1 PUSH2 0x2F58 JUMP JUMPDEST PUSH1 0x40 MLOAD DUP1 SWAP2 SUB SWAP1 REVERT JUMPDEST PUSH1 0x2 PUSH1 0x0 DUP3 DUP2 MSTORE PUSH1 0x20 ADD SWAP1 DUP2 MSTORE PUSH1 0x20 ADD PUSH1 0x0 KECCAK256 SLOAD PUSH1 0x1 PUSH1 0x0 DUP4 DUP2 MSTORE PUSH1 0x20 ADD SWAP1 DUP2 MSTORE PUSH1 0x20 ADD PUSH1 0x0 KECCAK256 SLOAD GT ISZERO PUSH2 0x179B JUMPI PUSH2 0x175C DUP2 PUSH2 0x1B18 JUMP JUMPDEST PUSH32 0xD204805208BB5B5FEA6F63D5BAA0B02392E939D9FF87E412B2F2CEACDE50E099 DUP2 PUSH1 0x1 PUSH1 0x40 MLOAD PUSH2 0x178E SWAP3 SWAP2 SWAP1 PUSH2 0x3916 JUMP JUMPDEST PUSH1 0x40 MLOAD DUP1 SWAP2 SUB SWAP1 LOG1 PUSH2 0x17DF JUMP JUMPDEST PUSH2 0x17A4 DUP2 PUSH2 0x201E JUMP JUMPDEST PUSH32 0xD204805208BB5B5FEA6F63D5BAA0B02392E939D9FF87E412B2F2CEACDE50E099 DUP2 PUSH1 0x0 PUSH1 0x40 MLOAD PUSH2 0x17D6 SWAP3 SWAP2 SWAP1 PUSH2 0x3916 JUMP JUMPDEST PUSH1 0x40 MLOAD DUP1 SWAP2 SUB SWAP1 LOG1 JUMPDEST PUSH2 0x17E8 DUP2 PUSH2 0x2496 JUMP JUMPDEST POP JUMP JUMPDEST PUSH32 0x0 DUP2 JUMP JUMPDEST PUSH1 0x0 DUP1 PUSH1 0x0 SWAP1 POP JUMPDEST DUP4 MLOAD DUP2 LT ISZERO PUSH2 0x1884 JUMPI DUP3 PUSH20 0xFFFFFFFFFFFFFFFFFFFFFFFFFFFFFFFFFFFFFFFF AND DUP5 DUP3 DUP2 MLOAD DUP2 LT PUSH2 0x184A JUMPI PUSH2 0x1849 PUSH2 0x393F JUMP JUMPDEST JUMPDEST PUSH1 0x20 MUL PUSH1 0x20 ADD ADD MLOAD PUSH20 0xFFFFFFFFFFFFFFFFFFFFFFFFFFFFFFFFFFFFFFFF AND SUB PUSH2 0x1877 JUMPI PUSH1 0x1 SWAP2 POP POP PUSH2 0x188A JUMP JUMPDEST DUP1 DUP1 PUSH1 0x1 ADD SWAP2 POP POP PUSH2 0x1817 JUMP JUMPDEST POP PUSH1 0x0 SWAP1 POP JUMPDEST SWAP3 SWAP2 POP POP JUMP JUMPDEST PUSH32 0x0 PUSH20 0xFFFFFFFFFFFFFFFFFFFFFFFFFFFFFFFFFFFFFFFF AND PUSH4 0x64CFB408 DUP4 PUSH1 0x40 MLOAD DUP3 PUSH4 0xFFFFFFFF AND PUSH1 0xE0 SHL DUP2 MSTORE PUSH1 0x4 ADD PUSH2 0x18E9 SWAP2 SWAP1 PUSH2 0x2723 JUMP JUMPDEST PUSH1 0x20 PUSH1 0x40 MLOAD DUP1 DUP4 SUB DUP2 DUP7 GAS STATICCALL ISZERO DUP1 ISZERO PUSH2 0x1906 JUMPI RETURNDATASIZE PUSH1 0x0 DUP1 RETURNDATACOPY RETURNDATASIZE PUSH1 0x0 REVERT JUMPDEST POP POP POP POP PUSH1 0x40 MLOAD RETURNDATASIZE PUSH1 0x1F NOT PUSH1 0x1F DUP3 ADD AND DUP3 ADD DUP1 PUSH1 0x40 MSTORE POP DUP2 ADD SWAP1 PUSH2 0x192A SWAP2 SWAP1 PUSH2 0x2E4D JUMP JUMPDEST PUSH2 0x1969 JUMPI PUSH1 0x40 MLOAD PUSH32 0x8C379A000000000000000000000000000000000000000000000000000000000 DUP2 MSTORE PUSH1 0x4 ADD PUSH2 0x1960 SWAP1 PUSH2 0x2EC6 JUMP JUMPDEST PUSH1 0x40 MLOAD DUP1 SWAP2 SUB SWAP1 REVERT JUMPDEST PUSH1 0x2 PUSH32 0x0 PUSH20 0xFFFFFFFFFFFFFFFFFFFFFFFFFFFFFFFFFFFFFFFF AND PUSH4 0x9507D39A DUP5 PUSH1 0x40 MLOAD DUP3 PUSH4 0xFFFFFFFF AND PUSH1 0xE0 SHL DUP2 MSTORE PUSH1 0x4 ADD PUSH2 0x19C4 SWAP2 SWAP1 PUSH2 0x2723 JUMP JUMPDEST PUSH1 0x0 PUSH1 0x40 MLOAD DUP1 DUP4 SUB DUP2 DUP7 GAS STATICCALL ISZERO DUP1 ISZERO PUSH2 0x19E1 JUMPI RETURNDATASIZE PUSH1 0x0 DUP1 RETURNDATACOPY RETURNDATASIZE PUSH1 0x0 REVERT JUMPDEST POP POP POP POP PUSH1 0x40 MLOAD RETURNDATASIZE PUSH1 0x0 DUP3 RETURNDATACOPY RETURNDATASIZE PUSH1 0x1F NOT PUSH1 0x1F DUP3 ADD AND DUP3 ADD DUP1 PUSH1 0x40 MSTORE POP DUP2 ADD SWAP1 PUSH2 0x1A0A SWAP2 SWAP1 PUSH2 0x2D4C JUMP JUMPDEST PUSH1 0xC0 ADD MLOAD SUB PUSH2 0x1A4E JUMPI PUSH1 0x40 MLOAD PUSH32 0x8C379A000000000000000000000000000000000000000000000000000000000 DUP2 MSTORE PUSH1 0x4 ADD PUSH2 0x1A45 SWAP1 PUSH2 0x39BA JUMP JUMPDEST PUSH1 0x40 MLOAD DUP1 SWAP2 SUB SWAP1 REVERT JUMPDEST PUSH32 0x0 PUSH20 0xFFFFFFFFFFFFFFFFFFFFFFFFFFFFFFFFFFFFFFFF AND PUSH4 0xE2F31829 DUP4 DUP4 PUSH1 0x40 MLOAD DUP4 PUSH4 0xFFFFFFFF AND PUSH1 0xE0 SHL DUP2 MSTORE PUSH1 0x4 ADD PUSH2 0x1AA9 SWAP3 SWAP2 SWAP1 PUSH2 0x3A18 JUMP JUMPDEST PUSH1 0x0 PUSH1 0x40 MLOAD DUP1 DUP4 SUB DUP2 PUSH1 0x0 DUP8 DUP1 EXTCODESIZE ISZERO DUP1 ISZERO PUSH2 0x1AC3 JUMPI PUSH1 0x0 DUP1 REVERT JUMPDEST POP GAS CALL ISZERO DUP1 ISZERO PUSH2 0x1AD7 JUMPI RETURNDATASIZE PUSH1 0x0 DUP1 RETURNDATACOPY RETURNDATASIZE PUSH1 0x0 REVERT JUMPDEST POP POP POP POP PUSH32 0xC8926EC9C62D9B87CA5E4DFB0B49C1D0797CDE714599E2C6D5663E5B813413AB DUP3 DUP3 PUSH1 0x40 MLOAD PUSH2 0x1B0C SWAP3 SWAP2 SWAP1 PUSH2 0x3A50 JUMP JUMPDEST PUSH1 0x40 MLOAD DUP1 SWAP2 SUB SWAP1 LOG1 POP POP JUMP JUMPDEST PUSH1 0x0 PUSH32 0x0 PUSH20 0xFFFFFFFFFFFFFFFFFFFFFFFFFFFFFFFFFFFFFFFF AND PUSH4 0x9507D39A DUP4 PUSH1 0x40 MLOAD DUP3 PUSH4 0xFFFFFFFF AND PUSH1 0xE0 SHL DUP2 MSTORE PUSH1 0x4 ADD PUSH2 0x1B73 SWAP2 SWAP1 PUSH2 0x2723 JUMP JUMPDEST PUSH1 0x0 PUSH1 0x40 MLOAD DUP1 DUP4 SUB DUP2 DUP7 GAS STATICCALL ISZERO DUP1 ISZERO PUSH2 0x1B90 JUMPI RETURNDATASIZE PUSH1 0x0 DUP1 RETURNDATACOPY RETURNDATASIZE PUSH1 0x0 REVERT JUMPDEST POP POP POP POP PUSH1 0x40 MLOAD RETURNDATASIZE PUSH1 0x0 DUP3 RETURNDATACOPY RETURNDATASIZE PUSH1 0x1F NOT PUSH1 0x1F DUP3 ADD AND DUP3 ADD DUP1 PUSH1 0x40 MSTORE POP DUP2 ADD SWAP1 PUSH2 0x1BB9 SWAP2 SWAP1 PUSH2 0x2D4C JUMP JUMPDEST SWAP1 POP PUSH32 0x0 PUSH20 0xFFFFFFFFFFFFFFFFFFFFFFFFFFFFFFFFFFFFFFFF AND PUSH4 0x55A373D6 PUSH1 0x40 MLOAD DUP2 PUSH4 0xFFFFFFFF AND PUSH1 0xE0 SHL DUP2 MSTORE PUSH1 0x4 ADD PUSH1 0x20 PUSH1 0x40 MLOAD DUP1 DUP4 SUB DUP2 DUP7 GAS STATICCALL ISZERO DUP1 ISZERO PUSH2 0x1C26 JUMPI RETURNDATASIZE PUSH1 0x0 DUP1 RETURNDATACOPY RETURNDATASIZE PUSH1 0x0 REVERT JUMPDEST POP POP POP POP PUSH1 0x40 MLOAD RETURNDATASIZE PUSH1 0x1F NOT PUSH1 0x1F DUP3 ADD AND DUP3 ADD DUP1 PUSH1 0x40 MSTORE POP DUP2 ADD SWAP1 PUSH2 0x1C4A SWAP2 SWAP1 PUSH2 0x32BB JUMP JUMPDEST PUSH20 0xFFFFFFFFFFFFFFFFFFFFFFFFFFFFFFFFFFFFFFFF AND PUSH4 0x23B872DD ADDRESS DUP4 PUSH1 0x0 ADD MLOAD PUSH8 0xDE0B6B3A7640000 PUSH1 0xA PUSH2 0x1C80 SWAP2 SWAP1 PUSH2 0x32E8 JUMP JUMPDEST DUP6 PUSH1 0xA0 ADD MLOAD PUSH2 0x1C8F SWAP2 SWAP1 PUSH2 0x3A79 JUMP JUMPDEST PUSH1 0x40 MLOAD DUP5 PUSH4 0xFFFFFFFF AND PUSH1 0xE0 SHL DUP2 MSTORE PUSH1 0x4 ADD PUSH2 0x1CAD SWAP4 SWAP3 SWAP2 SWAP1 PUSH2 0x332A JUMP JUMPDEST PUSH1 0x20 PUSH1 0x40 MLOAD DUP1 DUP4 SUB DUP2 PUSH1 0x0 DUP8 GAS CALL ISZERO DUP1 ISZERO PUSH2 0x1CCC JUMPI RETURNDATASIZE PUSH1 0x0 DUP1 RETURNDATACOPY RETURNDATASIZE PUSH1 0x0 REVERT JUMPDEST POP POP POP POP PUSH1 0x40 MLOAD RETURNDATASIZE PUSH1 0x1F NOT PUSH1 0x1F DUP3 ADD AND DUP3 ADD DUP1 PUSH1 0x40 MSTORE POP DUP2 ADD SWAP1 PUSH2 0x1CF0 SWAP2 SWAP1 PUSH2 0x2E4D JUMP JUMPDEST POP PUSH1 0x0 JUMPDEST DUP2 PUSH1 0x20 ADD MLOAD MLOAD DUP2 LT ISZERO PUSH2 0x1E74 JUMPI PUSH1 0x0 DUP3 PUSH1 0x20 ADD MLOAD DUP3 DUP2 MLOAD DUP2 LT PUSH2 0x1D1A JUMPI PUSH2 0x1D19 PUSH2 0x393F JUMP JUMPDEST JUMPDEST PUSH1 0x20 MUL PUSH1 0x20 ADD ADD MLOAD SWAP1 POP PUSH32 0x0 PUSH20 0xFFFFFFFFFFFFFFFFFFFFFFFFFFFFFFFFFFFFFFFF AND PUSH4 0x55A373D6 PUSH1 0x40 MLOAD DUP2 PUSH4 0xFFFFFFFF AND PUSH1 0xE0 SHL DUP2 MSTORE PUSH1 0x4 ADD PUSH1 0x20 PUSH1 0x40 MLOAD DUP1 DUP4 SUB DUP2 DUP7 GAS STATICCALL ISZERO DUP1 ISZERO PUSH2 0x1D8F JUMPI RETURNDATASIZE PUSH1 0x0 DUP1 RETURNDATACOPY RETURNDATASIZE PUSH1 0x0 REVERT JUMPDEST POP POP POP POP PUSH1 0x40 MLOAD RETURNDATASIZE PUSH1 0x1F NOT PUSH1 0x1F DUP3 ADD AND DUP3 ADD DUP1 PUSH1 0x40 MSTORE POP DUP2 ADD SWAP1 PUSH2 0x1DB3 SWAP2 SWAP1 PUSH2 0x32BB JUMP JUMPDEST PUSH20 0xFFFFFFFFFFFFFFFFFFFFFFFFFFFFFFFFFFFFFFFF AND PUSH4 0x23B872DD ADDRESS DUP4 PUSH8 0xDE0B6B3A7640000 PUSH1 0xA PUSH2 0x1DE5 SWAP2 SWAP1 PUSH2 0x32E8 JUMP JUMPDEST PUSH8 0xDE0B6B3A7640000 PUSH1 0x14 PUSH2 0x1DFA SWAP2 SWAP1 PUSH2 0x32E8 JUMP JUMPDEST PUSH2 0x1E04 SWAP2 SWAP1 PUSH2 0x3A79 JUMP JUMPDEST PUSH1 0x40 MLOAD DUP5 PUSH4 0xFFFFFFFF AND PUSH1 0xE0 SHL DUP2 MSTORE PUSH1 0x4 ADD PUSH2 0x1E22 SWAP4 SWAP3 SWAP2 SWAP1 PUSH2 0x332A JUMP JUMPDEST PUSH1 0x20 PUSH1 0x40 MLOAD DUP1 DUP4 SUB DUP2 PUSH1 0x0 DUP8 GAS CALL ISZERO DUP1 ISZERO PUSH2 0x1E41 JUMPI RETURNDATASIZE PUSH1 0x0 DUP1 RETURNDATACOPY RETURNDATASIZE PUSH1 0x0 REVERT JUMPDEST POP POP POP POP PUSH1 0x40 MLOAD RETURNDATASIZE PUSH1 0x1F NOT PUSH1 0x1F DUP3 ADD AND DUP3 ADD DUP1 PUSH1 0x40 MSTORE POP DUP2 ADD SWAP1 PUSH2 0x1E65 SWAP2 SWAP1 PUSH2 0x2E4D JUMP JUMPDEST POP POP DUP1 DUP1 PUSH1 0x1 ADD SWAP2 POP POP PUSH2 0x1CF4 JUMP JUMPDEST POP PUSH1 0x0 JUMPDEST PUSH1 0x0 DUP1 DUP5 DUP2 MSTORE PUSH1 0x20 ADD SWAP1 DUP2 MSTORE PUSH1 0x20 ADD PUSH1 0x0 KECCAK256 DUP1 SLOAD SWAP1 POP DUP2 LT ISZERO PUSH2 0x2019 JUMPI PUSH1 0x0 DUP1 PUSH1 0x0 DUP6 DUP2 MSTORE PUSH1 0x20 ADD SWAP1 DUP2 MSTORE PUSH1 0x20 ADD PUSH1 0x0 KECCAK256 DUP3 DUP2 SLOAD DUP2 LT PUSH2 0x1EBB JUMPI PUSH2 0x1EBA PUSH2 0x393F JUMP JUMPDEST JUMPDEST SWAP1 PUSH1 0x0 MSTORE PUSH1 0x20 PUSH1 0x0 KECCAK256 ADD PUSH1 0x0 SWAP1 SLOAD SWAP1 PUSH2 0x100 EXP SWAP1 DIV PUSH20 0xFFFFFFFFFFFFFFFFFFFFFFFFFFFFFFFFFFFFFFFF AND SWAP1 POP PUSH32 0x0 PUSH20 0xFFFFFFFFFFFFFFFFFFFFFFFFFFFFFFFFFFFFFFFF AND PUSH4 0x55A373D6 PUSH1 0x40 MLOAD DUP2 PUSH4 0xFFFFFFFF AND PUSH1 0xE0 SHL DUP2 MSTORE PUSH1 0x4 ADD PUSH1 0x20 PUSH1 0x40 MLOAD DUP1 DUP4 SUB DUP2 DUP7 GAS STATICCALL ISZERO DUP1 ISZERO PUSH2 0x1F53 JUMPI RETURNDATASIZE PUSH1 0x0 DUP1 RETURNDATACOPY RETURNDATASIZE PUSH1 0x0 REVERT JUMPDEST POP POP POP POP PUSH1 0x40 MLOAD RETURNDATASIZE PUSH1 0x1F NOT PUSH1 0x1F DUP3 ADD AND DUP3 ADD DUP1 PUSH1 0x40 MSTORE POP DUP2 ADD SWAP1 PUSH2 0x1F77 SWAP2 SWAP1 PUSH2 0x32BB JUMP JUMPDEST PUSH20 0xFFFFFFFFFFFFFFFFFFFFFFFFFFFFFFFFFFFFFFFF AND PUSH4 0x23B872DD ADDRESS DUP4 PUSH8 0xDE0B6B3A7640000 PUSH1 0xA PUSH2 0x1FA9 SWAP2 SWAP1 PUSH2 0x32E8 JUMP JUMPDEST PUSH1 0x40 MLOAD DUP5 PUSH4 0xFFFFFFFF AND PUSH1 0xE0 SHL DUP2 MSTORE PUSH1 0x4 ADD PUSH2 0x1FC7 SWAP4 SWAP3 SWAP2 SWAP1 PUSH2 0x332A JUMP JUMPDEST PUSH1 0x20 PUSH1 0x40 MLOAD DUP1 DUP4 SUB DUP2 PUSH1 0x0 DUP8 GAS CALL ISZERO DUP1 ISZERO PUSH2 0x1FE6 JUMPI RETURNDATASIZE PUSH1 0x0 DUP1 RETURNDATACOPY RETURNDATASIZE PUSH1 0x0 REVERT JUMPDEST POP POP POP POP PUSH1 0x40 MLOAD RETURNDATASIZE PUSH1 0x1F NOT PUSH1 0x1F DUP3 ADD AND DUP3 ADD DUP1 PUSH1 0x40 MSTORE POP DUP2 ADD SWAP1 PUSH2 0x200A SWAP2 SWAP1 PUSH2 0x2E4D JUMP JUMPDEST POP POP DUP1 DUP1 PUSH1 0x1 ADD SWAP2 POP POP PUSH2 0x1E78 JUMP JUMPDEST POP POP POP JUMP JUMPDEST PUSH1 0x0 PUSH32 0x0 PUSH20 0xFFFFFFFFFFFFFFFFFFFFFFFFFFFFFFFFFFFFFFFF AND PUSH4 0x9507D39A DUP4 PUSH1 0x40 MLOAD DUP3 PUSH4 0xFFFFFFFF AND PUSH1 0xE0 SHL DUP2 MSTORE PUSH1 0x4 ADD PUSH2 0x2079 SWAP2 SWAP1 PUSH2 0x2723 JUMP JUMPDEST PUSH1 0x0 PUSH1 0x40 MLOAD DUP1 DUP4 SUB DUP2 DUP7 GAS STATICCALL ISZERO DUP1 ISZERO PUSH2 0x2096 JUMPI RETURNDATASIZE PUSH1 0x0 DUP1 RETURNDATACOPY RETURNDATASIZE PUSH1 0x0 REVERT JUMPDEST POP POP POP POP PUSH1 0x40 MLOAD RETURNDATASIZE PUSH1 0x0 DUP3 RETURNDATACOPY RETURNDATASIZE PUSH1 0x1F NOT PUSH1 0x1F DUP3 ADD AND DUP3 ADD DUP1 PUSH1 0x40 MSTORE POP DUP2 ADD SWAP1 PUSH2 0x20BF SWAP2 SWAP1 PUSH2 0x2D4C JUMP JUMPDEST SWAP1 POP PUSH32 0x0 PUSH20 0xFFFFFFFFFFFFFFFFFFFFFFFFFFFFFFFFFFFFFFFF AND PUSH4 0x55A373D6 PUSH1 0x40 MLOAD DUP2 PUSH4 0xFFFFFFFF AND PUSH1 0xE0 SHL DUP2 MSTORE PUSH1 0x4 ADD PUSH1 0x20 PUSH1 0x40 MLOAD DUP1 DUP4 SUB DUP2 DUP7 GAS STATICCALL ISZERO DUP1 ISZERO PUSH2 0x212C JUMPI RETURNDATASIZE PUSH1 0x0 DUP1 RETURNDATACOPY RETURNDATASIZE PUSH1 0x0 REVERT JUMPDEST POP POP POP POP PUSH1 0x40 MLOAD RETURNDATASIZE PUSH1 0x1F NOT PUSH1 0x1F DUP3 ADD AND DUP3 ADD DUP1 PUSH1 0x40 MSTORE POP DUP2 ADD SWAP1 PUSH2 0x2150 SWAP2 SWAP1 PUSH2 0x32BB JUMP JUMPDEST PUSH20 0xFFFFFFFFFFFFFFFFFFFFFFFFFFFFFFFFFFFFFFFF AND PUSH4 0x79CC6790 ADDRESS DUP4 PUSH1 0xA0 ADD MLOAD PUSH1 0x40 MLOAD DUP4 PUSH4 0xFFFFFFFF AND PUSH1 0xE0 SHL DUP2 MSTORE PUSH1 0x4 ADD PUSH2 0x218E SWAP3 SWAP2 SWAP1 PUSH2 0x385B JUMP JUMPDEST PUSH1 0x0 PUSH1 0x40 MLOAD DUP1 DUP4 SUB DUP2 PUSH1 0x0 DUP8 DUP1 EXTCODESIZE ISZERO DUP1 ISZERO PUSH2 0x21A8 JUMPI PUSH1 0x0 DUP1 REVERT JUMPDEST POP GAS CALL ISZERO DUP1 ISZERO PUSH2 0x21BC JUMPI RETURNDATASIZE PUSH1 0x0 DUP1 RETURNDATACOPY RETURNDATASIZE PUSH1 0x0 REVERT JUMPDEST POP POP POP POP PUSH1 0x0 JUMPDEST DUP2 PUSH1 0x20 ADD MLOAD MLOAD DUP2 LT ISZERO PUSH2 0x22EC JUMPI PUSH32 0x0 PUSH20 0xFFFFFFFFFFFFFFFFFFFFFFFFFFFFFFFFFFFFFFFF AND PUSH4 0x55A373D6 PUSH1 0x40 MLOAD DUP2 PUSH4 0xFFFFFFFF AND PUSH1 0xE0 SHL DUP2 MSTORE PUSH1 0x4 ADD PUSH1 0x20 PUSH1 0x40 MLOAD DUP1 DUP4 SUB DUP2 DUP7 GAS STATICCALL ISZERO DUP1 ISZERO PUSH2 0x223B JUMPI RETURNDATASIZE PUSH1 0x0 DUP1 RETURNDATACOPY RETURNDATASIZE PUSH1 0x0 REVERT JUMPDEST POP POP POP POP PUSH1 0x40 MLOAD RETURNDATASIZE PUSH1 0x1F NOT PUSH1 0x1F DUP3 ADD AND DUP3 ADD DUP1 PUSH1 0x40 MSTORE POP DUP2 ADD SWAP1 PUSH2 0x225F SWAP2 SWAP1 PUSH2 0x32BB JUMP JUMPDEST PUSH20 0xFFFFFFFFFFFFFFFFFFFFFFFFFFFFFFFFFFFFFFFF AND PUSH4 0x79CC6790 ADDRESS PUSH8 0xDE0B6B3A7640000 PUSH1 0x14 PUSH2 0x2290 SWAP2 SWAP1 PUSH2 0x32E8 JUMP JUMPDEST PUSH1 0x40 MLOAD DUP4 PUSH4 0xFFFFFFFF AND PUSH1 0xE0 SHL DUP2 MSTORE PUSH1 0x4 ADD PUSH2 0x22AD SWAP3 SWAP2 SWAP1 PUSH2 0x385B JUMP JUMPDEST PUSH1 0x0 PUSH1 0x40 MLOAD DUP1 DUP4 SUB DUP2 PUSH1 0x0 DUP8 DUP1 EXTCODESIZE ISZERO DUP1 ISZERO PUSH2 0x22C7 JUMPI PUSH1 0x0 DUP1 REVERT JUMPDEST POP GAS CALL ISZERO DUP1 ISZERO PUSH2 0x22DB JUMPI RETURNDATASIZE PUSH1 0x0 DUP1 RETURNDATACOPY RETURNDATASIZE PUSH1 0x0 REVERT JUMPDEST POP POP POP POP DUP1 DUP1 PUSH1 0x1 ADD SWAP2 POP POP PUSH2 0x21C3 JUMP JUMPDEST POP PUSH1 0x0 JUMPDEST PUSH1 0x0 DUP1 DUP5 DUP2 MSTORE PUSH1 0x20 ADD SWAP1 DUP2 MSTORE PUSH1 0x20 ADD PUSH1 0x0 KECCAK256 DUP1 SLOAD SWAP1 POP DUP2 LT ISZERO PUSH2 0x2491 JUMPI PUSH1 0x0 DUP1 PUSH1 0x0 DUP6 DUP2 MSTORE PUSH1 0x20 ADD SWAP1 DUP2 MSTORE PUSH1 0x20 ADD PUSH1 0x0 KECCAK256 DUP3 DUP2 SLOAD DUP2 LT PUSH2 0x2333 JUMPI PUSH2 0x2332 PUSH2 0x393F JUMP JUMPDEST JUMPDEST SWAP1 PUSH1 0x0 MSTORE PUSH1 0x20 PUSH1 0x0 KECCAK256 ADD PUSH1 0x0 SWAP1 SLOAD SWAP1 PUSH2 0x100 EXP SWAP1 DIV PUSH20 0xFFFFFFFFFFFFFFFFFFFFFFFFFFFFFFFFFFFFFFFF AND SWAP1 POP PUSH32 0x0 PUSH20 0xFFFFFFFFFFFFFFFFFFFFFFFFFFFFFFFFFFFFFFFF AND PUSH4 0x55A373D6 PUSH1 0x40 MLOAD DUP2 PUSH4 0xFFFFFFFF AND PUSH1 0xE0 SHL DUP2 MSTORE PUSH1 0x4 ADD PUSH1 0x20 PUSH1 0x40 MLOAD DUP1 DUP4 SUB DUP2 DUP7 GAS STATICCALL ISZERO DUP1 ISZERO PUSH2 0x23CB JUMPI RETURNDATASIZE PUSH1 0x0 DUP1 RETURNDATACOPY RETURNDATASIZE PUSH1 0x0 REVERT JUMPDEST POP POP POP POP PUSH1 0x40 MLOAD RETURNDATASIZE PUSH1 0x1F NOT PUSH1 0x1F DUP3 ADD AND DUP3 ADD DUP1 PUSH1 0x40 MSTORE POP DUP2 ADD SWAP1 PUSH2 0x23EF SWAP2 SWAP1 PUSH2 0x32BB JUMP JUMPDEST PUSH20 0xFFFFFFFFFFFFFFFFFFFFFFFFFFFFFFFFFFFFFFFF AND PUSH4 0x23B872DD ADDRESS DUP4 PUSH8 0xDE0B6B3A7640000 PUSH1 0xA PUSH2 0x2421 SWAP2 SWAP1 PUSH2 0x32E8 JUMP JUMPDEST PUSH1 0x40 MLOAD DUP5 PUSH4 0xFFFFFFFF AND PUSH1 0xE0 SHL DUP2 MSTORE PUSH1 0x4 ADD PUSH2 0x243F SWAP4 SWAP3 SWAP2 SWAP1 PUSH2 0x332A JUMP JUMPDEST PUSH1 0x20 PUSH1 0x40 MLOAD DUP1 DUP4 SUB DUP2 PUSH1 0x0 DUP8 GAS CALL ISZERO DUP1 ISZERO PUSH2 0x245E JUMPI RETURNDATASIZE PUSH1 0x0 DUP1 RETURNDATACOPY RETURNDATASIZE PUSH1 0x0 REVERT JUMPDEST POP POP POP POP PUSH1 0x40 MLOAD RETURNDATASIZE PUSH1 0x1F NOT PUSH1 0x1F DUP3 ADD AND DUP3 ADD DUP1 PUSH1 0x40 MSTORE POP DUP2 ADD SWAP1 PUSH2 0x2482 SWAP2 SWAP1 PUSH2 0x2E4D JUMP JUMPDEST POP POP DUP1 DUP1 PUSH1 0x1 ADD SWAP2 POP POP PUSH2 0x22F0 JUMP JUMPDEST POP POP POP JUMP JUMPDEST PUSH1 0x1 PUSH32 0x0 PUSH20 0xFFFFFFFFFFFFFFFFFFFFFFFFFFFFFFFFFFFFFFFF AND PUSH4 0x9507D39A DUP4 PUSH1 0x40 MLOAD DUP3 PUSH4 0xFFFFFFFF AND PUSH1 0xE0 SHL DUP2 MSTORE PUSH1 0x4 ADD PUSH2 0x24F1 SWAP2 SWAP1 PUSH2 0x2723 JUMP JUMPDEST PUSH1 0x0 PUSH1 0x40 MLOAD DUP1 DUP4 SUB DUP2 DUP7 GAS STATICCALL ISZERO DUP1 ISZERO PUSH2 0x250E JUMPI RETURNDATASIZE PUSH1 0x0 DUP1 RETURNDATACOPY RETURNDATASIZE PUSH1 0x0 REVERT JUMPDEST POP POP POP POP PUSH1 0x40 MLOAD RETURNDATASIZE PUSH1 0x0 DUP3 RETURNDATACOPY RETURNDATASIZE PUSH1 0x1F NOT PUSH1 0x1F DUP3 ADD AND DUP3 ADD DUP1 PUSH1 0x40 MSTORE POP DUP2 ADD SWAP1 PUSH2 0x2537 SWAP2 SWAP1 PUSH2 0x2D4C JUMP JUMPDEST PUSH1 0xC0 ADD MLOAD EQ PUSH2 0x257B JUMPI PUSH1 0x40 MLOAD PUSH32 0x8C379A000000000000000000000000000000000000000000000000000000000 DUP2 MSTORE PUSH1 0x4 ADD PUSH2 0x2572 SWAP1 PUSH2 0x2F58 JUMP JUMPDEST PUSH1 0x40 MLOAD DUP1 SWAP2 SUB SWAP1 REVERT JUMPDEST PUSH2 0x2586 DUP2 PUSH1 0x2 PUSH2 0x1890 JUMP JUMPDEST POP JUMP JUMPDEST PUSH1 0x0 PUSH1 0x40 MLOAD SWAP1 POP SWAP1 JUMP JUMPDEST PUSH1 0x0 DUP1 REVERT JUMPDEST PUSH1 0x0 DUP1 REVERT JUMPDEST PUSH1 0x0 DUP2 SWAP1 POP SWAP2 SWAP1 POP JUMP JUMPDEST PUSH2 0x25B0 DUP2 PUSH2 0x259D JUMP JUMPDEST DUP2 EQ PUSH2 0x25BB JUMPI PUSH1 0x0 DUP1 REVERT JUMPDEST POP JUMP JUMPDEST PUSH1 0x0 DUP2 CALLDATALOAD SWAP1 POP PUSH2 0x25CD DUP2 PUSH2 0x25A7 JUMP JUMPDEST SWAP3 SWAP2 POP POP JUMP JUMPDEST PUSH1 0x0 DUP2 ISZERO ISZERO SWAP1 POP SWAP2 SWAP1 POP JUMP JUMPDEST PUSH2 0x25E8 DUP2 PUSH2 0x25D3 JUMP JUMPDEST DUP2 EQ PUSH2 0x25F3 JUMPI PUSH1 0x0 DUP1 REVERT JUMPDEST POP JUMP JUMPDEST PUSH1 0x0 DUP2 CALLDATALOAD SWAP1 POP PUSH2 0x2605 DUP2 PUSH2 0x25DF JUMP JUMPDEST SWAP3 SWAP2 POP POP JUMP JUMPDEST PUSH1 0x0 DUP1 PUSH1 0x40 DUP4 DUP6 SUB SLT ISZERO PUSH2 0x2622 JUMPI PUSH2 0x2621 PUSH2 0x2593 JUMP JUMPDEST JUMPDEST PUSH1 0x0 PUSH2 0x2630 DUP6 DUP3 DUP7 ADD PUSH2 0x25BE JUMP JUMPDEST SWAP3 POP POP PUSH1 0x20 PUSH2 0x2641 DUP6 DUP3 DUP7 ADD PUSH2 0x25F6 JUMP JUMPDEST SWAP2 POP POP SWAP3 POP SWAP3 SWAP1 POP JUMP JUMPDEST PUSH1 0x0 DUP1 PUSH1 0x40 DUP4 DUP6 SUB SLT ISZERO PUSH2 0x2662 JUMPI PUSH2 0x2661 PUSH2 0x2593 JUMP JUMPDEST JUMPDEST PUSH1 0x0 PUSH2 0x2670 DUP6 DUP3 DUP7 ADD PUSH2 0x25BE JUMP JUMPDEST SWAP3 POP POP PUSH1 0x20 PUSH2 0x2681 DUP6 DUP3 DUP7 ADD PUSH2 0x25BE JUMP JUMPDEST SWAP2 POP POP SWAP3 POP SWAP3 SWAP1 POP JUMP JUMPDEST PUSH1 0x0 PUSH20 0xFFFFFFFFFFFFFFFFFFFFFFFFFFFFFFFFFFFFFFFF DUP3 AND SWAP1 POP SWAP2 SWAP1 POP JUMP JUMPDEST PUSH1 0x0 PUSH2 0x26B6 DUP3 PUSH2 0x268B JUMP JUMPDEST SWAP1 POP SWAP2 SWAP1 POP JUMP JUMPDEST PUSH2 0x26C6 DUP2 PUSH2 0x26AB JUMP JUMPDEST DUP3 MSTORE POP POP JUMP JUMPDEST PUSH1 0x0 PUSH1 0x20 DUP3 ADD SWAP1 POP PUSH2 0x26E1 PUSH1 0x0 DUP4 ADD DUP5 PUSH2 0x26BD JUMP JUMPDEST SWAP3 SWAP2 POP POP JUMP JUMPDEST PUSH1 0x0 PUSH1 0x20 DUP3 DUP5 SUB SLT ISZERO PUSH2 0x26FD JUMPI PUSH2 0x26FC PUSH2 0x2593 JUMP JUMPDEST JUMPDEST PUSH1 0x0 PUSH2 0x270B DUP5 DUP3 DUP6 ADD PUSH2 0x25BE JUMP JUMPDEST SWAP2 POP POP SWAP3 SWAP2 POP POP JUMP JUMPDEST PUSH2 0x271D DUP2 PUSH2 0x259D JUMP JUMPDEST DUP3 MSTORE POP POP JUMP JUMPDEST PUSH1 0x0 PUSH1 0x20 DUP3 ADD SWAP1 POP PUSH2 0x2738 PUSH1 0x0 DUP4 ADD DUP5 PUSH2 0x2714 JUMP JUMPDEST SWAP3 SWAP2 POP POP JUMP JUMPDEST PUSH1 0x0 DUP1 REVERT JUMPDEST PUSH1 0x0 DUP1 REVERT JUMPDEST PUSH1 0x0 PUSH1 0x1F NOT PUSH1 0x1F DUP4 ADD AND SWAP1 POP SWAP2 SWAP1 POP JUMP JUMPDEST PUSH32 0x4E487B7100000000000000000000000000000000000000000000000000000000 PUSH1 0x0 MSTORE PUSH1 0x41 PUSH1 0x4 MSTORE PUSH1 0x24 PUSH1 0x0 REVERT JUMPDEST PUSH2 0x2791 DUP3 PUSH2 0x2748 JUMP JUMPDEST DUP2 ADD DUP2 DUP2 LT PUSH8 0xFFFFFFFFFFFFFFFF DUP3 GT OR ISZERO PUSH2 0x27B0 JUMPI PUSH2 0x27AF PUSH2 0x2759 JUMP JUMPDEST JUMPDEST DUP1 PUSH1 0x40 MSTORE POP POP POP JUMP JUMPDEST PUSH1 0x0 PUSH2 0x27C3 PUSH2 0x2589 JUMP JUMPDEST SWAP1 POP PUSH2 0x27CF DUP3 DUP3 PUSH2 0x2788 JUMP JUMPDEST SWAP2 SWAP1 POP JUMP JUMPDEST PUSH1 0x0 PUSH8 0xFFFFFFFFFFFFFFFF DUP3 GT ISZERO PUSH2 0x27EF JUMPI PUSH2 0x27EE PUSH2 0x2759 JUMP JUMPDEST JUMPDEST PUSH2 0x27F8 DUP3 PUSH2 0x2748 JUMP JUMPDEST SWAP1 POP PUSH1 0x20 DUP2 ADD SWAP1 POP SWAP2 SWAP1 POP JUMP JUMPDEST DUP3 DUP2 DUP4 CALLDATACOPY PUSH1 0x0 DUP4 DUP4 ADD MSTORE POP POP POP JUMP JUMPDEST PUSH1 0x0 PUSH2 0x2827 PUSH2 0x2822 DUP5 PUSH2 0x27D4 JUMP JUMPDEST PUSH2 0x27B9 JUMP JUMPDEST SWAP1 POP DUP3 DUP2 MSTORE PUSH1 0x20 DUP2 ADD DUP5 DUP5 DUP5 ADD GT ISZERO PUSH2 0x2843 JUMPI PUSH2 0x2842 PUSH2 0x2743 JUMP JUMPDEST JUMPDEST PUSH2 0x284E DUP5 DUP3 DUP6 PUSH2 0x2805 JUMP JUMPDEST POP SWAP4 SWAP3 POP POP POP JUMP JUMPDEST PUSH1 0x0 DUP3 PUSH1 0x1F DUP4 ADD SLT PUSH2 0x286B JUMPI PUSH2 0x286A PUSH2 0x273E JUMP JUMPDEST JUMPDEST DUP2 CALLDATALOAD PUSH2 0x287B DUP5 DUP3 PUSH1 0x20 DUP7 ADD PUSH2 0x2814 JUMP JUMPDEST SWAP2 POP POP SWAP3 SWAP2 POP POP JUMP JUMPDEST PUSH1 0x0 DUP1 PUSH1 0x0 DUP1 PUSH1 0x0 DUP1 PUSH1 0xC0 DUP8 DUP10 SUB SLT ISZERO PUSH2 0x28A1 JUMPI PUSH2 0x28A0 PUSH2 0x2593 JUMP JUMPDEST JUMPDEST PUSH1 0x0 DUP8 ADD CALLDATALOAD PUSH8 0xFFFFFFFFFFFFFFFF DUP2 GT ISZERO PUSH2 0x28BF JUMPI PUSH2 0x28BE PUSH2 0x2598 JUMP JUMPDEST JUMPDEST PUSH2 0x28CB DUP10 DUP3 DUP11 ADD PUSH2 0x2856 JUMP JUMPDEST SWAP7 POP POP PUSH1 0x20 DUP8 ADD CALLDATALOAD PUSH8 0xFFFFFFFFFFFFFFFF DUP2 GT ISZERO PUSH2 0x28EC JUMPI PUSH2 0x28EB PUSH2 0x2598 JUMP JUMPDEST JUMPDEST PUSH2 0x28F8 DUP10 DUP3 DUP11 ADD PUSH2 0x2856 JUMP JUMPDEST SWAP6 POP POP PUSH1 0x40 DUP8 ADD CALLDATALOAD PUSH8 0xFFFFFFFFFFFFFFFF DUP2 GT ISZERO PUSH2 0x2919 JUMPI PUSH2 0x2918 PUSH2 0x2598 JUMP JUMPDEST JUMPDEST PUSH2 0x2925 DUP10 DUP3 DUP11 ADD PUSH2 0x2856 JUMP JUMPDEST SWAP5 POP POP PUSH1 0x60 PUSH2 0x2936 DUP10 DUP3 DUP11 ADD PUSH2 0x25BE JUMP JUMPDEST SWAP4 POP POP PUSH1 0x80 DUP8 ADD CALLDATALOAD PUSH8 0xFFFFFFFFFFFFFFFF DUP2 GT ISZERO PUSH2 0x2957 JUMPI PUSH2 0x2956 PUSH2 0x2598 JUMP JUMPDEST JUMPDEST PUSH2 0x2963 DUP10 DUP3 DUP11 ADD PUSH2 0x2856 JUMP JUMPDEST SWAP3 POP POP PUSH1 0xA0 DUP8 ADD CALLDATALOAD PUSH8 0xFFFFFFFFFFFFFFFF DUP2 GT ISZERO PUSH2 0x2984 JUMPI PUSH2 0x2983 PUSH2 0x2598 JUMP JUMPDEST JUMPDEST PUSH2 0x2990 DUP10 DUP3 DUP11 ADD PUSH2 0x2856 JUMP JUMPDEST SWAP2 POP POP SWAP3 SWAP6 POP SWAP3 SWAP6 POP SWAP3 SWAP6 JUMP JUMPDEST PUSH1 0x0 DUP2 SWAP1 POP SWAP2 SWAP1 POP JUMP JUMPDEST PUSH1 0x0 PUSH2 0x29C2 PUSH2 0x29BD PUSH2 0x29B8 DUP5 PUSH2 0x268B JUMP JUMPDEST PUSH2 0x299D JUMP JUMPDEST PUSH2 0x268B JUMP JUMPDEST SWAP1 POP SWAP2 SWAP1 POP JUMP JUMPDEST PUSH1 0x0 PUSH2 0x29D4 DUP3 PUSH2 0x29A7 JUMP JUMPDEST SWAP1 POP SWAP2 SWAP1 POP JUMP JUMPDEST PUSH1 0x0 PUSH2 0x29E6 DUP3 PUSH2 0x29C9 JUMP JUMPDEST SWAP1 POP SWAP2 SWAP1 POP JUMP JUMPDEST PUSH2 0x29F6 DUP2 PUSH2 0x29DB JUMP JUMPDEST DUP3 MSTORE POP POP JUMP JUMPDEST PUSH1 0x0 PUSH1 0x20 DUP3 ADD SWAP1 POP PUSH2 0x2A11 PUSH1 0x0 DUP4 ADD DUP5 PUSH2 0x29ED JUMP JUMPDEST SWAP3 SWAP2 POP POP JUMP JUMPDEST PUSH1 0x0 DUP1 REVERT JUMPDEST PUSH1 0x0 DUP1 REVERT JUMPDEST PUSH2 0x2A2A DUP2 PUSH2 0x26AB JUMP JUMPDEST DUP2 EQ PUSH2 0x2A35 JUMPI PUSH1 0x0 DUP1 REVERT JUMPDEST POP JUMP JUMPDEST PUSH1 0x0 DUP2 MLOAD SWAP1 POP PUSH2 0x2A47 DUP2 PUSH2 0x2A21 JUMP JUMPDEST SWAP3 SWAP2 POP POP JUMP JUMPDEST PUSH1 0x0 PUSH8 0xFFFFFFFFFFFFFFFF DUP3 GT ISZERO PUSH2 0x2A68 JUMPI PUSH2 0x2A67 PUSH2 0x2759 JUMP JUMPDEST JUMPDEST PUSH1 0x20 DUP3 MUL SWAP1 POP PUSH1 0x20 DUP2 ADD SWAP1 POP SWAP2 SWAP1 POP JUMP JUMPDEST PUSH1 0x0 DUP1 REVERT JUMPDEST PUSH1 0x0 PUSH2 0x2A91 PUSH2 0x2A8C DUP5 PUSH2 0x2A4D JUMP JUMPDEST PUSH2 0x27B9 JUMP JUMPDEST SWAP1 POP DUP1 DUP4 DUP3 MSTORE PUSH1 0x20 DUP3 ADD SWAP1 POP PUSH1 0x20 DUP5 MUL DUP4 ADD DUP6 DUP2 GT ISZERO PUSH2 0x2AB4 JUMPI PUSH2 0x2AB3 PUSH2 0x2A79 JUMP JUMPDEST JUMPDEST DUP4 JUMPDEST DUP2 DUP2 LT ISZERO PUSH2 0x2ADD JUMPI DUP1 PUSH2 0x2AC9 DUP9 DUP3 PUSH2 0x2A38 JUMP JUMPDEST DUP5 MSTORE PUSH1 0x20 DUP5 ADD SWAP4 POP POP PUSH1 0x20 DUP2 ADD SWAP1 POP PUSH2 0x2AB6 JUMP JUMPDEST POP POP POP SWAP4 SWAP3 POP POP POP JUMP JUMPDEST PUSH1 0x0 DUP3 PUSH1 0x1F DUP4 ADD SLT PUSH2 0x2AFC JUMPI PUSH2 0x2AFB PUSH2 0x273E JUMP JUMPDEST JUMPDEST DUP2 MLOAD PUSH2 0x2B0C DUP5 DUP3 PUSH1 0x20 DUP7 ADD PUSH2 0x2A7E JUMP JUMPDEST SWAP2 POP POP SWAP3 SWAP2 POP POP JUMP JUMPDEST PUSH1 0x0 JUMPDEST DUP4 DUP2 LT ISZERO PUSH2 0x2B33 JUMPI DUP1 DUP3 ADD MLOAD DUP2 DUP5 ADD MSTORE PUSH1 0x20 DUP2 ADD SWAP1 POP PUSH2 0x2B18 JUMP JUMPDEST PUSH1 0x0 DUP5 DUP5 ADD MSTORE POP POP POP POP JUMP JUMPDEST PUSH1 0x0 PUSH2 0x2B52 PUSH2 0x2B4D DUP5 PUSH2 0x27D4 JUMP JUMPDEST PUSH2 0x27B9 JUMP JUMPDEST SWAP1 POP DUP3 DUP2 MSTORE PUSH1 0x20 DUP2 ADD DUP5 DUP5 DUP5 ADD GT ISZERO PUSH2 0x2B6E JUMPI PUSH2 0x2B6D PUSH2 0x2743 JUMP JUMPDEST JUMPDEST PUSH2 0x2B79 DUP5 DUP3 DUP6 PUSH2 0x2B15 JUMP JUMPDEST POP SWAP4 SWAP3 POP POP POP JUMP JUMPDEST PUSH1 0x0 DUP3 PUSH1 0x1F DUP4 ADD SLT PUSH2 0x2B96 JUMPI PUSH2 0x2B95 PUSH2 0x273E JUMP JUMPDEST JUMPDEST DUP2 MLOAD PUSH2 0x2BA6 DUP5 DUP3 PUSH1 0x20 DUP7 ADD PUSH2 0x2B3F JUMP JUMPDEST SWAP2 POP POP SWAP3 SWAP2 POP POP JUMP JUMPDEST PUSH1 0x0 DUP2 MLOAD SWAP1 POP PUSH2 0x2BBE DUP2 PUSH2 0x25A7 JUMP JUMPDEST SWAP3 SWAP2 POP POP JUMP JUMPDEST PUSH1 0x0 PUSH2 0x120 DUP3 DUP5 SUB SLT ISZERO PUSH2 0x2BDB JUMPI PUSH2 0x2BDA PUSH2 0x2A17 JUMP JUMPDEST JUMPDEST PUSH2 0x2BE6 PUSH2 0x120 PUSH2 0x27B9 JUMP JUMPDEST SWAP1 POP PUSH1 0x0 PUSH2 0x2BF6 DUP5 DUP3 DUP6 ADD PUSH2 0x2A38 JUMP JUMPDEST PUSH1 0x0 DUP4 ADD MSTORE POP PUSH1 0x20 DUP3 ADD MLOAD PUSH8 0xFFFFFFFFFFFFFFFF DUP2 GT ISZERO PUSH2 0x2C1A JUMPI PUSH2 0x2C19 PUSH2 0x2A1C JUMP JUMPDEST JUMPDEST PUSH2 0x2C26 DUP5 DUP3 DUP6 ADD PUSH2 0x2AE7 JUMP JUMPDEST PUSH1 0x20 DUP4 ADD MSTORE POP PUSH1 0x40 DUP3 ADD MLOAD PUSH8 0xFFFFFFFFFFFFFFFF DUP2 GT ISZERO PUSH2 0x2C4A JUMPI PUSH2 0x2C49 PUSH2 0x2A1C JUMP JUMPDEST JUMPDEST PUSH2 0x2C56 DUP5 DUP3 DUP6 ADD PUSH2 0x2B81 JUMP JUMPDEST PUSH1 0x40 DUP4 ADD MSTORE POP PUSH1 0x60 DUP3 ADD MLOAD PUSH8 0xFFFFFFFFFFFFFFFF DUP2 GT ISZERO PUSH2 0x2C7A JUMPI PUSH2 0x2C79 PUSH2 0x2A1C JUMP JUMPDEST JUMPDEST PUSH2 0x2C86 DUP5 DUP3 DUP6 ADD PUSH2 0x2B81 JUMP JUMPDEST PUSH1 0x60 DUP4 ADD MSTORE POP PUSH1 0x80 DUP3 ADD MLOAD PUSH8 0xFFFFFFFFFFFFFFFF DUP2 GT ISZERO PUSH2 0x2CAA JUMPI PUSH2 0x2CA9 PUSH2 0x2A1C JUMP JUMPDEST JUMPDEST PUSH2 0x2CB6 DUP5 DUP3 DUP6 ADD PUSH2 0x2B81 JUMP JUMPDEST PUSH1 0x80 DUP4 ADD MSTORE POP PUSH1 0xA0 PUSH2 0x2CCA DUP5 DUP3 DUP6 ADD PUSH2 0x2BAF JUMP JUMPDEST PUSH1 0xA0 DUP4 ADD MSTORE POP PUSH1 0xC0 PUSH2 0x2CDE DUP5 DUP3 DUP6 ADD PUSH2 0x2BAF JUMP JUMPDEST PUSH1 0xC0 DUP4 ADD MSTORE POP PUSH1 0xE0 DUP3 ADD MLOAD PUSH8 0xFFFFFFFFFFFFFFFF DUP2 GT ISZERO PUSH2 0x2D02 JUMPI PUSH2 0x2D01 PUSH2 0x2A1C JUMP JUMPDEST JUMPDEST PUSH2 0x2D0E DUP5 DUP3 DUP6 ADD PUSH2 0x2B81 JUMP JUMPDEST PUSH1 0xE0 DUP4 ADD MSTORE POP PUSH2 0x100 DUP3 ADD MLOAD PUSH8 0xFFFFFFFFFFFFFFFF DUP2 GT ISZERO PUSH2 0x2D33 JUMPI PUSH2 0x2D32 PUSH2 0x2A1C JUMP JUMPDEST JUMPDEST PUSH2 0x2D3F DUP5 DUP3 DUP6 ADD PUSH2 0x2B81 JUMP JUMPDEST PUSH2 0x100 DUP4 ADD MSTORE POP SWAP3 SWAP2 POP POP JUMP JUMPDEST PUSH1 0x0 PUSH1 0x20 DUP3 DUP5 SUB SLT ISZERO PUSH2 0x2D62 JUMPI PUSH2 0x2D61 PUSH2 0x2593 JUMP JUMPDEST JUMPDEST PUSH1 0x0 DUP3 ADD MLOAD PUSH8 0xFFFFFFFFFFFFFFFF DUP2 GT ISZERO PUSH2 0x2D80 JUMPI PUSH2 0x2D7F PUSH2 0x2598 JUMP JUMPDEST JUMPDEST PUSH2 0x2D8C DUP5 DUP3 DUP6 ADD PUSH2 0x2BC4 JUMP JUMPDEST SWAP2 POP POP SWAP3 SWAP2 POP POP JUMP JUMPDEST PUSH1 0x0 DUP3 DUP3 MSTORE PUSH1 0x20 DUP3 ADD SWAP1 POP SWAP3 SWAP2 POP POP JUMP JUMPDEST PUSH32 0x4E6F742066616972206D616E2120796F752063616E6E6F7420766F746520796F PUSH1 0x0 DUP3 ADD MSTORE PUSH32 0x757273656C660000000000000000000000000000000000000000000000000000 PUSH1 0x20 DUP3 ADD MSTORE POP JUMP JUMPDEST PUSH1 0x0 PUSH2 0x2E02 PUSH1 0x26 DUP4 PUSH2 0x2D95 JUMP JUMPDEST SWAP2 POP PUSH2 0x2E0D DUP3 PUSH2 0x2DA6 JUMP JUMPDEST PUSH1 0x40 DUP3 ADD SWAP1 POP SWAP2 SWAP1 POP JUMP JUMPDEST PUSH1 0x0 PUSH1 0x20 DUP3 ADD SWAP1 POP DUP2 DUP2 SUB PUSH1 0x0 DUP4 ADD MSTORE PUSH2 0x2E31 DUP2 PUSH2 0x2DF5 JUMP JUMPDEST SWAP1 POP SWAP2 SWAP1 POP JUMP JUMPDEST PUSH1 0x0 DUP2 MLOAD SWAP1 POP PUSH2 0x2E47 DUP2 PUSH2 0x25DF JUMP JUMPDEST SWAP3 SWAP2 POP POP JUMP JUMPDEST PUSH1 0x0 PUSH1 0x20 DUP3 DUP5 SUB SLT ISZERO PUSH2 0x2E63 JUMPI PUSH2 0x2E62 PUSH2 0x2593 JUMP JUMPDEST JUMPDEST PUSH1 0x0 PUSH2 0x2E71 DUP5 DUP3 DUP6 ADD PUSH2 0x2E38 JUMP JUMPDEST SWAP2 POP POP SWAP3 SWAP2 POP POP JUMP JUMPDEST PUSH32 0x52657175657374206E6F7420666F756E64000000000000000000000000000000 PUSH1 0x0 DUP3 ADD MSTORE POP JUMP JUMPDEST PUSH1 0x0 PUSH2 0x2EB0 PUSH1 0x11 DUP4 PUSH2 0x2D95 JUMP JUMPDEST SWAP2 POP PUSH2 0x2EBB DUP3 PUSH2 0x2E7A JUMP JUMPDEST PUSH1 0x20 DUP3 ADD SWAP1 POP SWAP2 SWAP1 POP JUMP JUMPDEST PUSH1 0x0 PUSH1 0x20 DUP3 ADD SWAP1 POP DUP2 DUP2 SUB PUSH1 0x0 DUP4 ADD MSTORE PUSH2 0x2EDF DUP2 PUSH2 0x2EA3 JUMP JUMPDEST SWAP1 POP SWAP2 SWAP1 POP JUMP JUMPDEST PUSH32 0x52657175657374206973206E6F7420696E20436F6D6D756E6974792056616C69 PUSH1 0x0 DUP3 ADD MSTORE PUSH32 0x646174696F6E2070686173650000000000000000000000000000000000000000 PUSH1 0x20 DUP3 ADD MSTORE POP JUMP JUMPDEST PUSH1 0x0 PUSH2 0x2F42 PUSH1 0x2C DUP4 PUSH2 0x2D95 JUMP JUMPDEST SWAP2 POP PUSH2 0x2F4D DUP3 PUSH2 0x2EE6 JUMP JUMPDEST PUSH1 0x40 DUP3 ADD SWAP1 POP SWAP2 SWAP1 POP JUMP JUMPDEST PUSH1 0x0 PUSH1 0x20 DUP3 ADD SWAP1 POP DUP2 DUP2 SUB PUSH1 0x0 DUP4 ADD MSTORE PUSH2 0x2F71 DUP2 PUSH2 0x2F35 JUMP JUMPDEST SWAP1 POP SWAP2 SWAP1 POP JUMP JUMPDEST PUSH32 0x566F7465722068617320616C72656164792063617374656420766F746520666F PUSH1 0x0 DUP3 ADD MSTORE PUSH32 0x7220746869732072657175657374000000000000000000000000000000000000 PUSH1 0x20 DUP3 ADD MSTORE POP JUMP JUMPDEST PUSH1 0x0 PUSH2 0x2FD4 PUSH1 0x2E DUP4 PUSH2 0x2D95 JUMP JUMPDEST SWAP2 POP PUSH2 0x2FDF DUP3 PUSH2 0x2F78 JUMP JUMPDEST PUSH1 0x40 DUP3 ADD SWAP1 POP SWAP2 SWAP1 POP JUMP JUMPDEST PUSH1 0x0 PUSH1 0x20 DUP3 ADD SWAP1 POP DUP2 DUP2 SUB PUSH1 0x0 DUP4 ADD MSTORE PUSH2 0x3003 DUP2 PUSH2 0x2FC7 JUMP JUMPDEST SWAP1 POP SWAP2 SWAP1 POP JUMP JUMPDEST PUSH32 0x4E487B7100000000000000000000000000000000000000000000000000000000 PUSH1 0x0 MSTORE PUSH1 0x11 PUSH1 0x4 MSTORE PUSH1 0x24 PUSH1 0x0 REVERT JUMPDEST PUSH1 0x0 PUSH2 0x3044 DUP3 PUSH2 0x259D JUMP JUMPDEST SWAP2 POP PUSH32 0xFFFFFFFFFFFFFFFFFFFFFFFFFFFFFFFFFFFFFFFFFFFFFFFFFFFFFFFFFFFFFFFF DUP3 SUB PUSH2 0x3076 JUMPI PUSH2 0x3075 PUSH2 0x300A JUMP JUMPDEST JUMPDEST PUSH1 0x1 DUP3 ADD SWAP1 POP SWAP2 SWAP1 POP JUMP JUMPDEST PUSH2 0x308A DUP2 PUSH2 0x25D3 JUMP JUMPDEST DUP3 MSTORE POP POP JUMP JUMPDEST PUSH1 0x0 PUSH1 0x60 DUP3 ADD SWAP1 POP PUSH2 0x30A5 PUSH1 0x0 DUP4 ADD DUP7 PUSH2 0x2714 JUMP JUMPDEST PUSH2 0x30B2 PUSH1 0x20 DUP4 ADD DUP6 PUSH2 0x26BD JUMP JUMPDEST PUSH2 0x30BF PUSH1 0x40 DUP4 ADD DUP5 PUSH2 0x3081 JUMP JUMPDEST SWAP5 SWAP4 POP POP POP POP JUMP JUMPDEST PUSH32 0x4E6F742066616972206D616E2120796F752063616E6E6F7420766F7563682079 PUSH1 0x0 DUP3 ADD MSTORE PUSH32 0x6F757273656C6600000000000000000000000000000000000000000000000000 PUSH1 0x20 DUP3 ADD MSTORE POP JUMP JUMPDEST PUSH1 0x0 PUSH2 0x3123 PUSH1 0x27 DUP4 PUSH2 0x2D95 JUMP JUMPDEST SWAP2 POP PUSH2 0x312E DUP3 PUSH2 0x30C7 JUMP JUMPDEST PUSH1 0x40 DUP3 ADD SWAP1 POP SWAP2 SWAP1 POP JUMP JUMPDEST PUSH1 0x0 PUSH1 0x20 DUP3 ADD SWAP1 POP DUP2 DUP2 SUB PUSH1 0x0 DUP4 ADD MSTORE PUSH2 0x3152 DUP2 PUSH2 0x3116 JUMP JUMPDEST SWAP1 POP SWAP2 SWAP1 POP JUMP JUMPDEST PUSH32 0x52657175657374206973206E6F7420696E20566F756368696E672050726F6365 PUSH1 0x0 DUP3 ADD MSTORE PUSH32 0x7373000000000000000000000000000000000000000000000000000000000000 PUSH1 0x20 DUP3 ADD MSTORE POP JUMP JUMPDEST PUSH1 0x0 PUSH2 0x31B5 PUSH1 0x22 DUP4 PUSH2 0x2D95 JUMP JUMPDEST SWAP2 POP PUSH2 0x31C0 DUP3 PUSH2 0x3159 JUMP JUMPDEST PUSH1 0x40 DUP3 ADD SWAP1 POP SWAP2 SWAP1 POP JUMP JUMPDEST PUSH1 0x0 PUSH1 0x20 DUP3 ADD SWAP1 POP DUP2 DUP2 SUB PUSH1 0x0 DUP4 ADD MSTORE PUSH2 0x31E4 DUP2 PUSH2 0x31A8 JUMP JUMPDEST SWAP1 POP SWAP2 SWAP1 POP JUMP JUMPDEST PUSH32 0x566F75636865722068617320616C726561647920766F756368656420666F7220 PUSH1 0x0 DUP3 ADD MSTORE PUSH32 0x7468697320726571756573740000000000000000000000000000000000000000 PUSH1 0x20 DUP3 ADD MSTORE POP JUMP JUMPDEST PUSH1 0x0 PUSH2 0x3247 PUSH1 0x2C DUP4 PUSH2 0x2D95 JUMP JUMPDEST SWAP2 POP PUSH2 0x3252 DUP3 PUSH2 0x31EB JUMP JUMPDEST PUSH1 0x40 DUP3 ADD SWAP1 POP SWAP2 SWAP1 POP JUMP JUMPDEST PUSH1 0x0 PUSH1 0x20 DUP3 ADD SWAP1 POP DUP2 DUP2 SUB PUSH1 0x0 DUP4 ADD MSTORE PUSH2 0x3276 DUP2 PUSH2 0x323A JUMP JUMPDEST SWAP1 POP SWAP2 SWAP1 POP JUMP JUMPDEST PUSH1 0x0 PUSH2 0x3288 DUP3 PUSH2 0x26AB JUMP JUMPDEST SWAP1 POP SWAP2 SWAP1 POP JUMP JUMPDEST PUSH2 0x3298 DUP2 PUSH2 0x327D JUMP JUMPDEST DUP2 EQ PUSH2 0x32A3 JUMPI PUSH1 0x0 DUP1 REVERT JUMPDEST POP JUMP JUMPDEST PUSH1 0x0 DUP2 MLOAD SWAP1 POP PUSH2 0x32B5 DUP2 PUSH2 0x328F JUMP JUMPDEST SWAP3 SWAP2 POP POP JUMP JUMPDEST PUSH1 0x0 PUSH1 0x20 DUP3 DUP5 SUB SLT ISZERO PUSH2 0x32D1 JUMPI PUSH2 0x32D0 PUSH2 0x2593 JUMP JUMPDEST JUMPDEST PUSH1 0x0 PUSH2 0x32DF DUP5 DUP3 DUP6 ADD PUSH2 0x32A6 JUMP JUMPDEST SWAP2 POP POP SWAP3 SWAP2 POP POP JUMP JUMPDEST PUSH1 0x0 PUSH2 0x32F3 DUP3 PUSH2 0x259D JUMP JUMPDEST SWAP2 POP PUSH2 0x32FE DUP4 PUSH2 0x259D JUMP JUMPDEST SWAP3 POP DUP3 DUP3 MUL PUSH2 0x330C DUP2 PUSH2 0x259D JUMP JUMPDEST SWAP2 POP DUP3 DUP3 DIV DUP5 EQ DUP4 ISZERO OR PUSH2 0x3323 JUMPI PUSH2 0x3322 PUSH2 0x300A JUMP JUMPDEST JUMPDEST POP SWAP3 SWAP2 POP POP JUMP JUMPDEST PUSH1 0x0 PUSH1 0x60 DUP3 ADD SWAP1 POP PUSH2 0x333F PUSH1 0x0 DUP4 ADD DUP7 PUSH2 0x26BD JUMP JUMPDEST PUSH2 0x334C PUSH1 0x20 DUP4 ADD DUP6 PUSH2 0x26BD JUMP JUMPDEST PUSH2 0x3359 PUSH1 0x40 DUP4 ADD DUP5 PUSH2 0x2714 JUMP JUMPDEST SWAP5 SWAP4 POP POP POP POP JUMP JUMPDEST PUSH1 0x0 PUSH1 0x40 DUP3 ADD SWAP1 POP PUSH2 0x3376 PUSH1 0x0 DUP4 ADD DUP6 PUSH2 0x2714 JUMP JUMPDEST PUSH2 0x3383 PUSH1 0x20 DUP4 ADD DUP5 PUSH2 0x26BD JUMP JUMPDEST SWAP4 SWAP3 POP POP POP JUMP JUMPDEST PUSH1 0x0 PUSH1 0x60 DUP3 ADD SWAP1 POP PUSH2 0x339F PUSH1 0x0 DUP4 ADD DUP7 PUSH2 0x2714 JUMP JUMPDEST PUSH2 0x33AC PUSH1 0x20 DUP4 ADD DUP6 PUSH2 0x26BD JUMP JUMPDEST PUSH2 0x33B9 PUSH1 0x40 DUP4 ADD DUP5 PUSH2 0x2714 JUMP JUMPDEST SWAP5 SWAP4 POP POP POP POP JUMP JUMPDEST PUSH32 0x4F74686572207468616E207265717565737420617574686F722063616E6E6F74 PUSH1 0x0 DUP3 ADD MSTORE PUSH32 0x206D6F7665207265717565737400000000000000000000000000000000000000 PUSH1 0x20 DUP3 ADD MSTORE POP JUMP JUMPDEST PUSH1 0x0 PUSH2 0x341D PUSH1 0x2D DUP4 PUSH2 0x2D95 JUMP JUMPDEST SWAP2 POP PUSH2 0x3428 DUP3 PUSH2 0x33C1 JUMP JUMPDEST PUSH1 0x40 DUP3 ADD SWAP1 POP SWAP2 SWAP1 POP JUMP JUMPDEST PUSH1 0x0 PUSH1 0x20 DUP3 ADD SWAP1 POP DUP2 DUP2 SUB PUSH1 0x0 DUP4 ADD MSTORE PUSH2 0x344C DUP2 PUSH2 0x3410 JUMP JUMPDEST SWAP1 POP SWAP2 SWAP1 POP JUMP JUMPDEST PUSH32 0x52657175657374206973206E6F7420696E20566F756368696E672050726F6365 PUSH1 0x0 DUP3 ADD MSTORE PUSH32 0x7373207068617365000000000000000000000000000000000000000000000000 PUSH1 0x20 DUP3 ADD MSTORE POP JUMP JUMPDEST PUSH1 0x0 PUSH2 0x34AF PUSH1 0x28 DUP4 PUSH2 0x2D95 JUMP JUMPDEST SWAP2 POP PUSH2 0x34BA DUP3 PUSH2 0x3453 JUMP JUMPDEST PUSH1 0x40 DUP3 ADD SWAP1 POP SWAP2 SWAP1 POP JUMP JUMPDEST PUSH1 0x0 PUSH1 0x20 DUP3 ADD SWAP1 POP DUP2 DUP2 SUB PUSH1 0x0 DUP4 ADD MSTORE PUSH2 0x34DE DUP2 PUSH2 0x34A2 JUMP JUMPDEST SWAP1 POP SWAP2 SWAP1 POP JUMP JUMPDEST PUSH32 0x5374616B6520616D6F756E74206D757374206265206772656174657220746861 PUSH1 0x0 DUP3 ADD MSTORE PUSH32 0x6E20323000000000000000000000000000000000000000000000000000000000 PUSH1 0x20 DUP3 ADD MSTORE POP JUMP JUMPDEST PUSH1 0x0 PUSH2 0x3541 PUSH1 0x24 DUP4 PUSH2 0x2D95 JUMP JUMPDEST SWAP2 POP PUSH2 0x354C DUP3 PUSH2 0x34E5 JUMP JUMPDEST PUSH1 0x40 DUP3 ADD SWAP1 POP SWAP2 SWAP1 POP JUMP JUMPDEST PUSH1 0x0 PUSH1 0x20 DUP3 ADD SWAP1 POP DUP2 DUP2 SUB PUSH1 0x0 DUP4 ADD MSTORE PUSH2 0x3570 DUP2 PUSH2 0x3534 JUMP JUMPDEST SWAP1 POP SWAP2 SWAP1 POP JUMP JUMPDEST PUSH1 0x0 DUP2 MLOAD SWAP1 POP SWAP2 SWAP1 POP JUMP JUMPDEST PUSH1 0x0 DUP3 DUP3 MSTORE PUSH1 0x20 DUP3 ADD SWAP1 POP SWAP3 SWAP2 POP POP JUMP JUMPDEST PUSH1 0x0 DUP2 SWAP1 POP PUSH1 0x20 DUP3 ADD SWAP1 POP SWAP2 SWAP1 POP JUMP JUMPDEST PUSH2 0x35AC DUP2 PUSH2 0x26AB JUMP JUMPDEST DUP3 MSTORE POP POP JUMP JUMPDEST PUSH1 0x0 PUSH2 0x35BE DUP4 DUP4 PUSH2 0x35A3 JUMP JUMPDEST PUSH1 0x20 DUP4 ADD SWAP1 POP SWAP3 SWAP2 POP POP JUMP JUMPDEST PUSH1 0x0 PUSH1 0x20 DUP3 ADD SWAP1 POP SWAP2 SWAP1 POP JUMP JUMPDEST PUSH1 0x0 PUSH2 0x35E2 DUP3 PUSH2 0x3577 JUMP JUMPDEST PUSH2 0x35EC DUP2 DUP6 PUSH2 0x3582 JUMP JUMPDEST SWAP4 POP PUSH2 0x35F7 DUP4 PUSH2 0x3593 JUMP JUMPDEST DUP1 PUSH1 0x0 JUMPDEST DUP4 DUP2 LT ISZERO PUSH2 0x3628 JUMPI DUP2 MLOAD PUSH2 0x360F DUP9 DUP3 PUSH2 0x35B2 JUMP JUMPDEST SWAP8 POP PUSH2 0x361A DUP4 PUSH2 0x35CA JUMP JUMPDEST SWAP3 POP POP PUSH1 0x1 DUP2 ADD SWAP1 POP PUSH2 0x35FB JUMP JUMPDEST POP DUP6 SWAP4 POP POP POP POP SWAP3 SWAP2 POP POP JUMP JUMPDEST PUSH1 0x0 DUP2 MLOAD SWAP1 POP SWAP2 SWAP1 POP JUMP JUMPDEST PUSH1 0x0 PUSH2 0x364B DUP3 PUSH2 0x3635 JUMP JUMPDEST PUSH2 0x3655 DUP2 DUP6 PUSH2 0x2D95 JUMP JUMPDEST SWAP4 POP PUSH2 0x3665 DUP2 DUP6 PUSH1 0x20 DUP7 ADD PUSH2 0x2B15 JUMP JUMPDEST PUSH2 0x366E DUP2 PUSH2 0x2748 JUMP JUMPDEST DUP5 ADD SWAP2 POP POP SWAP3 SWAP2 POP POP JUMP JUMPDEST PUSH1 0x0 PUSH2 0x100 DUP3 ADD SWAP1 POP PUSH2 0x368F PUSH1 0x0 DUP4 ADD DUP12 PUSH2 0x26BD JUMP JUMPDEST DUP2 DUP2 SUB PUSH1 0x20 DUP4 ADD MSTORE PUSH2 0x36A1 DUP2 DUP11 PUSH2 0x35D7 JUMP JUMPDEST SWAP1 POP DUP2 DUP2 SUB PUSH1 0x40 DUP4 ADD MSTORE PUSH2 0x36B5 DUP2 DUP10 PUSH2 0x3640 JUMP JUMPDEST SWAP1 POP DUP2 DUP2 SUB PUSH1 0x60 DUP4 ADD MSTORE PUSH2 0x36C9 DUP2 DUP9 PUSH2 0x3640 JUMP JUMPDEST SWAP1 POP DUP2 DUP2 SUB PUSH1 0x80 DUP4 ADD MSTORE PUSH2 0x36DD DUP2 DUP8 PUSH2 0x3640 JUMP JUMPDEST SWAP1 POP PUSH2 0x36EC PUSH1 0xA0 DUP4 ADD DUP7 PUSH2 0x2714 JUMP JUMPDEST DUP2 DUP2 SUB PUSH1 0xC0 DUP4 ADD MSTORE PUSH2 0x36FE DUP2 DUP6 PUSH2 0x3640 JUMP JUMPDEST SWAP1 POP DUP2 DUP2 SUB PUSH1 0xE0 DUP4 ADD MSTORE PUSH2 0x3712 DUP2 DUP5 PUSH2 0x3640 JUMP JUMPDEST SWAP1 POP SWAP10 SWAP9 POP POP POP POP POP POP POP POP POP JUMP JUMPDEST PUSH1 0x0 PUSH1 0x20 DUP3 DUP5 SUB SLT ISZERO PUSH2 0x3737 JUMPI PUSH2 0x3736 PUSH2 0x2593 JUMP JUMPDEST JUMPDEST PUSH1 0x0 PUSH2 0x3745 DUP5 DUP3 DUP6 ADD PUSH2 0x2BAF JUMP JUMPDEST SWAP2 POP POP SWAP3 SWAP2 POP POP JUMP JUMPDEST PUSH1 0x0 PUSH2 0x100 DUP3 ADD SWAP1 POP PUSH2 0x3764 PUSH1 0x0 DUP4 ADD DUP12 PUSH2 0x2714 JUMP JUMPDEST PUSH2 0x3771 PUSH1 0x20 DUP4 ADD DUP11 PUSH2 0x26BD JUMP JUMPDEST DUP2 DUP2 SUB PUSH1 0x40 DUP4 ADD MSTORE PUSH2 0x3783 DUP2 DUP10 PUSH2 0x3640 JUMP JUMPDEST SWAP1 POP DUP2 DUP2 SUB PUSH1 0x60 DUP4 ADD MSTORE PUSH2 0x3797 DUP2 DUP9 PUSH2 0x3640 JUMP JUMPDEST SWAP1 POP DUP2 DUP2 SUB PUSH1 0x80 DUP4 ADD MSTORE PUSH2 0x37AB DUP2 DUP8 PUSH2 0x3640 JUMP JUMPDEST SWAP1 POP PUSH2 0x37BA PUSH1 0xA0 DUP4 ADD DUP7 PUSH2 0x2714 JUMP JUMPDEST DUP2 DUP2 SUB PUSH1 0xC0 DUP4 ADD MSTORE PUSH2 0x37CC DUP2 DUP6 PUSH2 0x3640 JUMP JUMPDEST SWAP1 POP DUP2 DUP2 SUB PUSH1 0xE0 DUP4 ADD MSTORE PUSH2 0x37E0 DUP2 DUP5 PUSH2 0x3640 JUMP JUMPDEST SWAP1 POP SWAP10 SWAP9 POP POP POP POP POP POP POP POP POP JUMP JUMPDEST PUSH32 0x416C7265616479206D696E74656420746F207468697320757365720000000000 PUSH1 0x0 DUP3 ADD MSTORE POP JUMP JUMPDEST PUSH1 0x0 PUSH2 0x3825 PUSH1 0x1B DUP4 PUSH2 0x2D95 JUMP JUMPDEST SWAP2 POP PUSH2 0x3830 DUP3 PUSH2 0x37EF JUMP JUMPDEST PUSH1 0x20 DUP3 ADD SWAP1 POP SWAP2 SWAP1 POP JUMP JUMPDEST PUSH1 0x0 PUSH1 0x20 DUP3 ADD SWAP1 POP DUP2 DUP2 SUB PUSH1 0x0 DUP4 ADD MSTORE PUSH2 0x3854 DUP2 PUSH2 0x3818 JUMP JUMPDEST SWAP1 POP SWAP2 SWAP1 POP JUMP JUMPDEST PUSH1 0x0 PUSH1 0x40 DUP3 ADD SWAP1 POP PUSH2 0x3870 PUSH1 0x0 DUP4 ADD DUP6 PUSH2 0x26BD JUMP JUMPDEST PUSH2 0x387D PUSH1 0x20 DUP4 ADD DUP5 PUSH2 0x2714 JUMP JUMPDEST SWAP4 SWAP3 POP POP POP JUMP JUMPDEST PUSH32 0x4F74686572207468616E207265717565737420617574686F722063616E6E6F74 PUSH1 0x0 DUP3 ADD MSTORE PUSH32 0x20636C6F73652072657175657374000000000000000000000000000000000000 PUSH1 0x20 DUP3 ADD MSTORE POP JUMP JUMPDEST PUSH1 0x0 PUSH2 0x38E0 PUSH1 0x2E DUP4 PUSH2 0x2D95 JUMP JUMPDEST SWAP2 POP PUSH2 0x38EB DUP3 PUSH2 0x3884 JUMP JUMPDEST PUSH1 0x40 DUP3 ADD SWAP1 POP SWAP2 SWAP1 POP JUMP JUMPDEST PUSH1 0x0 PUSH1 0x20 DUP3 ADD SWAP1 POP DUP2 DUP2 SUB PUSH1 0x0 DUP4 ADD MSTORE PUSH2 0x390F DUP2 PUSH2 0x38D3 JUMP JUMPDEST SWAP1 POP SWAP2 SWAP1 POP JUMP JUMPDEST PUSH1 0x0 PUSH1 0x40 DUP3 ADD SWAP1 POP PUSH2 0x392B PUSH1 0x0 DUP4 ADD DUP6 PUSH2 0x2714 JUMP JUMPDEST PUSH2 0x3938 PUSH1 0x20 DUP4 ADD DUP5 PUSH2 0x3081 JUMP JUMPDEST SWAP4 SWAP3 POP POP POP JUMP JUMPDEST PUSH32 0x4E487B7100000000000000000000000000000000000000000000000000000000 PUSH1 0x0 MSTORE PUSH1 0x32 PUSH1 0x4 MSTORE PUSH1 0x24 PUSH1 0x0 REVERT JUMPDEST PUSH32 0x5265717565737420697320636C6F736564000000000000000000000000000000 PUSH1 0x0 DUP3 ADD MSTORE POP JUMP JUMPDEST PUSH1 0x0 PUSH2 0x39A4 PUSH1 0x11 DUP4 PUSH2 0x2D95 JUMP JUMPDEST SWAP2 POP PUSH2 0x39AF DUP3 PUSH2 0x396E JUMP JUMPDEST PUSH1 0x20 DUP3 ADD SWAP1 POP SWAP2 SWAP1 POP JUMP JUMPDEST PUSH1 0x0 PUSH1 0x20 DUP3 ADD SWAP1 POP DUP2 DUP2 SUB PUSH1 0x0 DUP4 ADD MSTORE PUSH2 0x39D3 DUP2 PUSH2 0x3997 JUMP JUMPDEST SWAP1 POP SWAP2 SWAP1 POP JUMP JUMPDEST PUSH1 0x0 PUSH1 0xFF DUP3 AND SWAP1 POP SWAP2 SWAP1 POP JUMP JUMPDEST PUSH1 0x0 PUSH2 0x3A02 PUSH2 0x39FD PUSH2 0x39F8 DUP5 PUSH2 0x39DA JUMP JUMPDEST PUSH2 0x299D JUMP JUMPDEST PUSH2 0x259D JUMP JUMPDEST SWAP1 POP SWAP2 SWAP1 POP JUMP JUMPDEST PUSH2 0x3A12 DUP2 PUSH2 0x39E7 JUMP JUMPDEST DUP3 MSTORE POP POP JUMP JUMPDEST PUSH1 0x0 PUSH1 0x40 DUP3 ADD SWAP1 POP PUSH2 0x3A2D PUSH1 0x0 DUP4 ADD DUP6 PUSH2 0x2714 JUMP JUMPDEST PUSH2 0x3A3A PUSH1 0x20 DUP4 ADD DUP5 PUSH2 0x3A09 JUMP JUMPDEST SWAP4 SWAP3 POP POP POP JUMP JUMPDEST PUSH2 0x3A4A DUP2 PUSH2 0x39DA JUMP JUMPDEST DUP3 MSTORE POP POP JUMP JUMPDEST PUSH1 0x0 PUSH1 0x40 DUP3 ADD SWAP1 POP PUSH2 0x3A65 PUSH1 0x0 DUP4 ADD DUP6 PUSH2 0x2714 JUMP JUMPDEST PUSH2 0x3A72 PUSH1 0x20 DUP4 ADD DUP5 PUSH2 0x3A41 JUMP JUMPDEST SWAP4 SWAP3 POP POP POP JUMP JUMPDEST PUSH1 0x0 PUSH2 0x3A84 DUP3 PUSH2 0x259D JUMP JUMPDEST SWAP2 POP PUSH2 0x3A8F DUP4 PUSH2 0x259D JUMP JUMPDEST SWAP3 POP DUP3 DUP3 ADD SWAP1 POP DUP1 DUP3 GT ISZERO PUSH2 0x3AA7 JUMPI PUSH2 0x3AA6 PUSH2 0x300A JUMP JUMPDEST JUMPDEST SWAP3 SWAP2 POP POP JUMP INVALID LOG2 PUSH5 0x6970667358 0x22 SLT KECCAK256 0x4C DUP8 PUSH9 0xE0D88DE906EFDDA725 0xEF EXTCODEHASH PUSH29 0x74E2C8182438CD9EA2F6D5EF341D7AA62164736F6C6343000818003300 "},"methodIdentifiers":{"acceptVotes(uint256)":"62dc825f","castVote(uint256,bool)":"15373e3d","closeRequest(uint256)":"f0282b7f","createRequest(string,string,string,uint256,string,string)":"b02a317e","mintTokensToNewUsers()":"edc797da","moveRequestToCommunityValidation(uint256)":"689b820f","rejectVotes(uint256)":"d966f6af","skillVouchState()":"fed5454e","voted(uint256,uint256)":"5f287cf2","vouchForSkill(uint256)":"6114fb74"}}}}}