{
  "_format": "hh-sol-artifact-1",
  "contractName": "SkillVouchNFT",
  "sourceName": "contracts/SkillVouchNFT.sol",
  "abi": [
    {
      "inputs": [],
      "stateMutability": "nonpayable",
      "type": "constructor"
    },
    {
      "inputs": [
        {
          "internalType": "address",
          "name": "sender",
          "type": "address"
        },
        {
          "internalType": "uint256",
          "name": "tokenId",
          "type": "uint256"
        },
        {
          "internalType": "address",
          "name": "owner",
          "type": "address"
        }
      ],
      "name": "ERC721IncorrectOwner",
      "type": "error"
    },
    {
      "inputs": [
        {
          "internalType": "address",
          "name": "operator",
          "type": "address"
        },
        {
          "internalType": "uint256",
          "name": "tokenId",
          "type": "uint256"
        }
      ],
      "name": "ERC721InsufficientApproval",
      "type": "error"
    },
    {
      "inputs": [
        {
          "internalType": "address",
          "name": "approver",
          "type": "address"
        }
      ],
      "name": "ERC721InvalidApprover",
      "type": "error"
    },
    {
      "inputs": [
        {
          "internalType": "address",
          "name": "operator",
          "type": "address"
        }
      ],
      "name": "ERC721InvalidOperator",
      "type": "error"
    },
    {
      "inputs": [
        {
          "internalType": "address",
          "name": "owner",
          "type": "address"
        }
      ],
      "name": "ERC721InvalidOwner",
      "type": "error"
    },
    {
      "inputs": [
        {
          "internalType": "address",
          "name": "receiver",
          "type": "address"
        }
      ],
      "name": "ERC721InvalidReceiver",
      "type": "error"
    },
    {
      "inputs": [
        {
          "internalType": "address",
          "name": "sender",
          "type": "address"
        }
      ],
      "name": "ERC721InvalidSender",
      "type": "error"
    },
    {
      "inputs": [
        {
          "internalType": "uint256",
          "name": "tokenId",
          "type": "uint256"
        }
      ],
      "name": "ERC721NonexistentToken",
      "type": "error"
    },
    {
      "anonymous": false,
      "inputs": [
        {
          "indexed": true,
          "internalType": "address",
          "name": "owner",
          "type": "address"
        },
        {
          "indexed": true,
          "internalType": "address",
          "name": "approved",
          "type": "address"
        },
        {
          "indexed": true,
          "internalType": "uint256",
          "name": "tokenId",
          "type": "uint256"
        }
      ],
      "name": "Approval",
      "type": "event"
    },
    {
      "anonymous": false,
      "inputs": [
        {
          "indexed": true,
          "internalType": "address",
          "name": "owner",
          "type": "address"
        },
        {
          "indexed": true,
          "internalType": "address",
          "name": "operator",
          "type": "address"
        },
        {
          "indexed": false,
          "internalType": "bool",
          "name": "approved",
          "type": "bool"
        }
      ],
      "name": "ApprovalForAll",
      "type": "event"
    },
    {
      "anonymous": false,
      "inputs": [
        {
          "indexed": false,
          "internalType": "uint256",
          "name": "_fromTokenId",
          "type": "uint256"
        },
        {
          "indexed": false,
          "internalType": "uint256",
          "name": "_toTokenId",
          "type": "uint256"
        }
      ],
      "name": "BatchMetadataUpdate",
      "type": "event"
    },
    {
      "anonymous": false,
      "inputs": [
        {
          "indexed": false,
          "internalType": "uint256",
          "name": "_tokenId",
          "type": "uint256"
        }
      ],
      "name": "MetadataUpdate",
      "type": "event"
    },
    {
      "anonymous": false,
      "inputs": [
        {
          "indexed": true,
          "internalType": "address",
          "name": "from",
          "type": "address"
        },
        {
          "indexed": true,
          "internalType": "address",
          "name": "to",
          "type": "address"
        },
        {
          "indexed": true,
          "internalType": "uint256",
          "name": "tokenId",
          "type": "uint256"
        }
      ],
      "name": "Transfer",
      "type": "event"
    },
    {
      "inputs": [
        {
          "internalType": "address",
          "name": "to",
          "type": "address"
        },
        {
          "internalType": "uint256",
          "name": "tokenId",
          "type": "uint256"
        }
      ],
      "name": "approve",
      "outputs": [],
      "stateMutability": "nonpayable",
      "type": "function"
    },
    {
      "inputs": [
        {
          "internalType": "address",
          "name": "owner",
          "type": "address"
        }
      ],
      "name": "balanceOf",
      "outputs": [
        {
          "internalType": "uint256",
          "name": "",
          "type": "uint256"
        }
      ],
      "stateMutability": "view",
      "type": "function"
    },
    {
      "inputs": [
        {
          "internalType": "uint256",
          "name": "tokenId",
          "type": "uint256"
        }
      ],
      "name": "burn",
      "outputs": [],
      "stateMutability": "nonpayable",
      "type": "function"
    },
    {
      "inputs": [
        {
          "internalType": "uint256",
          "name": "tokenId",
          "type": "uint256"
        }
      ],
      "name": "getApproved",
      "outputs": [
        {
          "internalType": "address",
          "name": "",
          "type": "address"
        }
      ],
      "stateMutability": "view",
      "type": "function"
    },
    {
      "inputs": [
        {
          "internalType": "address",
          "name": "user",
          "type": "address"
        }
      ],
      "name": "getURIByUser",
      "outputs": [
        {
          "internalType": "string",
          "name": "",
          "type": "string"
        }
      ],
      "stateMutability": "view",
      "type": "function"
    },
    {
      "inputs": [
        {
          "internalType": "address",
          "name": "owner",
          "type": "address"
        },
        {
          "internalType": "address",
          "name": "operator",
          "type": "address"
        }
      ],
      "name": "isApprovedForAll",
      "outputs": [
        {
          "internalType": "bool",
          "name": "",
          "type": "bool"
        }
      ],
      "stateMutability": "view",
      "type": "function"
    },
    {
      "inputs": [],
      "name": "name",
      "outputs": [
        {
          "internalType": "string",
          "name": "",
          "type": "string"
        }
      ],
      "stateMutability": "view",
      "type": "function"
    },
    {
      "inputs": [
        {
          "internalType": "uint256",
          "name": "tokenId",
          "type": "uint256"
        }
      ],
      "name": "ownerOf",
      "outputs": [
        {
          "internalType": "address",
          "name": "",
          "type": "address"
        }
      ],
      "stateMutability": "view",
      "type": "function"
    },
    {
      "inputs": [
        {
          "internalType": "address",
          "name": "to",
          "type": "address"
        },
        {
          "internalType": "string",
          "name": "uri",
          "type": "string"
        }
      ],
      "name": "safeMint",
      "outputs": [],
      "stateMutability": "nonpayable",
      "type": "function"
    },
    {
      "inputs": [
        {
          "internalType": "address",
          "name": "from",
          "type": "address"
        },
        {
          "internalType": "address",
          "name": "to",
          "type": "address"
        },
        {
          "internalType": "uint256",
          "name": "tokenId",
          "type": "uint256"
        }
      ],
      "name": "safeTransferFrom",
      "outputs": [],
      "stateMutability": "nonpayable",
      "type": "function"
    },
    {
      "inputs": [
        {
          "internalType": "address",
          "name": "from",
          "type": "address"
        },
        {
          "internalType": "address",
          "name": "to",
          "type": "address"
        },
        {
          "internalType": "uint256",
          "name": "tokenId",
          "type": "uint256"
        },
        {
          "internalType": "bytes",
          "name": "data",
          "type": "bytes"
        }
      ],
      "name": "safeTransferFrom",
      "outputs": [],
      "stateMutability": "nonpayable",
      "type": "function"
    },
    {
      "inputs": [
        {
          "internalType": "address",
          "name": "operator",
          "type": "address"
        },
        {
          "internalType": "bool",
          "name": "approved",
          "type": "bool"
        }
      ],
      "name": "setApprovalForAll",
      "outputs": [],
      "stateMutability": "nonpayable",
      "type": "function"
    },
    {
      "inputs": [
        {
          "internalType": "bytes4",
          "name": "interfaceId",
          "type": "bytes4"
        }
      ],
      "name": "supportsInterface",
      "outputs": [
        {
          "internalType": "bool",
          "name": "",
          "type": "bool"
        }
      ],
      "stateMutability": "view",
      "type": "function"
    },
    {
      "inputs": [],
      "name": "symbol",
      "outputs": [
        {
          "internalType": "string",
          "name": "",
          "type": "string"
        }
      ],
      "stateMutability": "view",
      "type": "function"
    },
    {
      "inputs": [
        {
          "internalType": "uint256",
          "name": "",
          "type": "uint256"
        }
      ],
      "name": "tokenIdToURI",
      "outputs": [
        {
          "internalType": "string",
          "name": "",
          "type": "string"
        }
      ],
      "stateMutability": "view",
      "type": "function"
    },
    {
      "inputs": [
        {
          "internalType": "uint256",
          "name": "tokenId",
          "type": "uint256"
        }
      ],
      "name": "tokenURI",
      "outputs": [
        {
          "internalType": "string",
          "name": "",
          "type": "string"
        }
      ],
      "stateMutability": "view",
      "type": "function"
    },
    {
      "inputs": [
        {
          "internalType": "address",
          "name": "from",
          "type": "address"
        },
        {
          "internalType": "address",
          "name": "to",
          "type": "address"
        },
        {
          "internalType": "uint256",
          "name": "tokenId",
          "type": "uint256"
        }
      ],
      "name": "transferFrom",
      "outputs": [],
      "stateMutability": "nonpayable",
      "type": "function"
    },
    {
      "inputs": [
        {
          "internalType": "address",
          "name": "",
          "type": "address"
        }
      ],
      "name": "userToTokenId",
      "outputs": [
        {
          "internalType": "uint256",
          "name": "",
          "type": "uint256"
        }
      ],
      "stateMutability": "view",
      "type": "function"
    }
  ],
  "bytecode": "0x60806040523480156200001157600080fd5b506040518060400160405280600d81526020017f536b696c6c566f7563684e4654000000000000000000000000000000000000008152506040518060400160405280600381526020017f535654000000000000000000000000000000000000000000000000000000000081525081600090816200008f919062000324565b508060019081620000a1919062000324565b5050506200040b565b600081519050919050565b7f4e487b7100000000000000000000000000000000000000000000000000000000600052604160045260246000fd5b7f4e487b7100000000000000000000000000000000000000000000000000000000600052602260045260246000fd5b600060028204905060018216806200012c57607f821691505b602082108103620001425762000141620000e4565b5b50919050565b60008190508160005260206000209050919050565b60006020601f8301049050919050565b600082821b905092915050565b600060088302620001ac7fffffffffffffffffffffffffffffffffffffffffffffffffffffffffffffffff826200016d565b620001b886836200016d565b95508019841693508086168417925050509392505050565b6000819050919050565b6000819050919050565b600062000205620001ff620001f984620001d0565b620001da565b620001d0565b9050919050565b6000819050919050565b6200022183620001e4565b6200023962000230826200020c565b8484546200017a565b825550505050565b600090565b6200025062000241565b6200025d81848462000216565b505050565b5b8181101562000285576200027960008262000246565b60018101905062000263565b5050565b601f821115620002d4576200029e8162000148565b620002a9846200015d565b81016020851015620002b9578190505b620002d1620002c8856200015d565b83018262000262565b50505b505050565b600082821c905092915050565b6000620002f960001984600802620002d9565b1980831691505092915050565b6000620003148383620002e6565b9150826002028217905092915050565b6200032f82620000aa565b67ffffffffffffffff8111156200034b576200034a620000b5565b5b62000357825462000113565b6200036482828562000289565b600060209050601f8311600181146200039c576000841562000387578287015190505b62000393858262000306565b86555062000403565b601f198416620003ac8662000148565b60005b82811015620003d657848901518255600182019150602085019450602081019050620003af565b86831015620003f65784890151620003f2601f891682620002e6565b8355505b6001600288020188555050505b505050505050565b6127a5806200041b6000396000f3fe608060405234801561001057600080fd5b50600436106101165760003560e01c806370a08231116100a2578063b88d4fde11610071578063b88d4fde14610303578063c87b56dd1461031f578063ca39fdcd1461034f578063d204c45e1461037f578063e985e9c51461039b57610116565b806370a082311461026957806395d89b4114610299578063a22cb465146102b7578063af24b07b146102d357610116565b8063095ea7b3116100e9578063095ea7b3146101c957806323b872dd146101e557806342842e0e1461020157806342966c681461021d5780636352211e1461023957610116565b806301ffc9a71461011b5780630221e7851461014b57806306fdde031461017b578063081812fc14610199575b600080fd5b61013560048036038101906101309190611b6b565b6103cb565b6040516101429190611bb3565b60405180910390f35b61016560048036038101906101609190611c04565b6103dd565b6040516101729190611cc1565b60405180910390f35b61018361047d565b6040516101909190611cc1565b60405180910390f35b6101b360048036038101906101ae9190611c04565b61050f565b6040516101c09190611d24565b60405180910390f35b6101e360048036038101906101de9190611d6b565b61052b565b005b6101ff60048036038101906101fa9190611dab565b610541565b005b61021b60048036038101906102169190611dab565b610643565b005b61023760048036038101906102329190611c04565b610663565b005b610253600480360381019061024e9190611c04565b61067a565b6040516102609190611d24565b60405180910390f35b610283600480360381019061027e9190611dfe565b61068c565b6040516102909190611e3a565b60405180910390f35b6102a1610746565b6040516102ae9190611cc1565b60405180910390f35b6102d160048036038101906102cc9190611e81565b6107d8565b005b6102ed60048036038101906102e89190611dfe565b6107ee565b6040516102fa9190611e3a565b60405180910390f35b61031d60048036038101906103189190611ff6565b610806565b005b61033960048036038101906103349190611c04565b610823565b6040516103469190611cc1565b60405180910390f35b61036960048036038101906103649190611dfe565b610835565b6040516103769190611cc1565b60405180910390f35b6103996004803603810190610394919061211a565b61099b565b005b6103b560048036038101906103b09190612176565b610a31565b6040516103c29190611bb3565b60405180910390f35b60006103d682610ac5565b9050919050565b600960205280600052604060002060009150905080546103fc906121e5565b80601f0160208091040260200160405190810160405280929190818152602001828054610428906121e5565b80156104755780601f1061044a57610100808354040283529160200191610475565b820191906000526020600020905b81548152906001019060200180831161045857829003601f168201915b505050505081565b60606000805461048c906121e5565b80601f01602080910402602001604051908101604052809291908181526020018280546104b8906121e5565b80156105055780601f106104da57610100808354040283529160200191610505565b820191906000526020600020905b8154815290600101906020018083116104e857829003601f168201915b5050505050905090565b600061051a82610b26565b5061052482610bae565b9050919050565b61053d8282610538610beb565b610bf3565b5050565b600073ffffffffffffffffffffffffffffffffffffffff168273ffffffffffffffffffffffffffffffffffffffff16036105b35760006040517f64a0ae920000000000000000000000000000000000000000000000000000000081526004016105aa9190611d24565b60405180910390fd5b60006105c783836105c2610beb565b610c05565b90508373ffffffffffffffffffffffffffffffffffffffff168173ffffffffffffffffffffffffffffffffffffffff161461063d578382826040517f64283d7b00000000000000000000000000000000000000000000000000000000815260040161063493929190612216565b60405180910390fd5b50505050565b61065e83838360405180602001604052806000815250610806565b505050565b610676600082610671610beb565b610c05565b5050565b600061068582610b26565b9050919050565b60008073ffffffffffffffffffffffffffffffffffffffff168273ffffffffffffffffffffffffffffffffffffffff16036106ff5760006040517f89c62b640000000000000000000000000000000000000000000000000000000081526004016106f69190611d24565b60405180910390fd5b600360008373ffffffffffffffffffffffffffffffffffffffff1673ffffffffffffffffffffffffffffffffffffffff168152602001908152602001600020549050919050565b606060018054610755906121e5565b80601f0160208091040260200160405190810160405280929190818152602001828054610781906121e5565b80156107ce5780601f106107a3576101008083540402835291602001916107ce565b820191906000526020600020905b8154815290600101906020018083116107b157829003601f168201915b5050505050905090565b6107ea6107e3610beb565b8383610e1f565b5050565b60086020528060005260406000206000915090505481565b610811848484610541565b61081d84848484610f8e565b50505050565b606061082e82611145565b9050919050565b60606000600860008473ffffffffffffffffffffffffffffffffffffffff1673ffffffffffffffffffffffffffffffffffffffff16815260200190815260200160002054036108b9576040517f08c379a00000000000000000000000000000000000000000000000000000000081526004016108b0906122bf565b60405180910390fd5b60096000600860008573ffffffffffffffffffffffffffffffffffffffff1673ffffffffffffffffffffffffffffffffffffffff1681526020019081526020016000205481526020019081526020016000208054610916906121e5565b80601f0160208091040260200160405190810160405280929190818152602001828054610942906121e5565b801561098f5780601f106109645761010080835404028352916020019161098f565b820191906000526020600020905b81548152906001019060200180831161097257829003601f168201915b50505050509050919050565b600760008154809291906109ae9061230e565b919050556007819055506109c482600754611258565b600754600860008473ffffffffffffffffffffffffffffffffffffffff1673ffffffffffffffffffffffffffffffffffffffff16815260200190815260200160002081905550806009600060075481526020019081526020016000209081610a2c9190612502565b505050565b6000600560008473ffffffffffffffffffffffffffffffffffffffff1673ffffffffffffffffffffffffffffffffffffffff16815260200190815260200160002060008373ffffffffffffffffffffffffffffffffffffffff1673ffffffffffffffffffffffffffffffffffffffff16815260200190815260200160002060009054906101000a900460ff16905092915050565b6000634906490660e01b7bffffffffffffffffffffffffffffffffffffffffffffffffffffffff1916827bffffffffffffffffffffffffffffffffffffffffffffffffffffffff19161480610b1f5750610b1e82611276565b5b9050919050565b600080610b3283611358565b9050600073ffffffffffffffffffffffffffffffffffffffff168173ffffffffffffffffffffffffffffffffffffffff1603610ba557826040517f7e273289000000000000000000000000000000000000000000000000000000008152600401610b9c9190611e3a565b60405180910390fd5b80915050919050565b60006004600083815260200190815260200160002060009054906101000a900473ffffffffffffffffffffffffffffffffffffffff169050919050565b600033905090565b610c008383836001611395565b505050565b600080610c1184611358565b9050600073ffffffffffffffffffffffffffffffffffffffff168373ffffffffffffffffffffffffffffffffffffffff1614610c5357610c5281848661155a565b5b600073ffffffffffffffffffffffffffffffffffffffff168173ffffffffffffffffffffffffffffffffffffffff1614610ce457610c95600085600080611395565b6001600360008373ffffffffffffffffffffffffffffffffffffffff1673ffffffffffffffffffffffffffffffffffffffff168152602001908152602001600020600082825403925050819055505b600073ffffffffffffffffffffffffffffffffffffffff168573ffffffffffffffffffffffffffffffffffffffff1614610d67576001600360008773ffffffffffffffffffffffffffffffffffffffff1673ffffffffffffffffffffffffffffffffffffffff168152602001908152602001600020600082825401925050819055505b846002600086815260200190815260200160002060006101000a81548173ffffffffffffffffffffffffffffffffffffffff021916908373ffffffffffffffffffffffffffffffffffffffff160217905550838573ffffffffffffffffffffffffffffffffffffffff168273ffffffffffffffffffffffffffffffffffffffff167fddf252ad1be2c89b69c2b068fc378daa952ba7f163c4a11628f55a4df523b3ef60405160405180910390a4809150509392505050565b600073ffffffffffffffffffffffffffffffffffffffff168273ffffffffffffffffffffffffffffffffffffffff1603610e9057816040517f5b08ba18000000000000000000000000000000000000000000000000000000008152600401610e879190611d24565b60405180910390fd5b80600560008573ffffffffffffffffffffffffffffffffffffffff1673ffffffffffffffffffffffffffffffffffffffff16815260200190815260200160002060008473ffffffffffffffffffffffffffffffffffffffff1673ffffffffffffffffffffffffffffffffffffffff16815260200190815260200160002060006101000a81548160ff0219169083151502179055508173ffffffffffffffffffffffffffffffffffffffff168373ffffffffffffffffffffffffffffffffffffffff167f17307eab39ab6107e8899845ad3d59bd9653f200f220920489ca2b5937696c3183604051610f819190611bb3565b60405180910390a3505050565b60008373ffffffffffffffffffffffffffffffffffffffff163b111561113f578273ffffffffffffffffffffffffffffffffffffffff1663150b7a02610fd2610beb565b8685856040518563ffffffff1660e01b8152600401610ff49493929190612629565b6020604051808303816000875af192505050801561103057506040513d601f19601f8201168201806040525081019061102d919061268a565b60015b6110b4573d8060008114611060576040519150601f19603f3d011682016040523d82523d6000602084013e611065565b606091505b5060008151036110ac57836040517f64a0ae920000000000000000000000000000000000000000000000000000000081526004016110a39190611d24565b60405180910390fd5b805181602001fd5b63150b7a0260e01b7bffffffffffffffffffffffffffffffffffffffffffffffffffffffff1916817bffffffffffffffffffffffffffffffffffffffffffffffffffffffff19161461113d57836040517f64a0ae920000000000000000000000000000000000000000000000000000000081526004016111349190611d24565b60405180910390fd5b505b50505050565b606061115082610b26565b506000600660008481526020019081526020016000208054611171906121e5565b80601f016020809104026020016040519081016040528092919081815260200182805461119d906121e5565b80156111ea5780601f106111bf576101008083540402835291602001916111ea565b820191906000526020600020905b8154815290600101906020018083116111cd57829003601f168201915b5050505050905060006111fb61161e565b90506000815103611210578192505050611253565b60008251111561124557808260405160200161122d9291906126f3565b60405160208183030381529060405292505050611253565b61124e84611635565b925050505b919050565b61127282826040518060200160405280600081525061169e565b5050565b60007f80ac58cd000000000000000000000000000000000000000000000000000000007bffffffffffffffffffffffffffffffffffffffffffffffffffffffff1916827bffffffffffffffffffffffffffffffffffffffffffffffffffffffff1916148061134157507f5b5e139f000000000000000000000000000000000000000000000000000000007bffffffffffffffffffffffffffffffffffffffffffffffffffffffff1916827bffffffffffffffffffffffffffffffffffffffffffffffffffffffff1916145b806113515750611350826116ba565b5b9050919050565b60006002600083815260200190815260200160002060009054906101000a900473ffffffffffffffffffffffffffffffffffffffff169050919050565b80806113ce5750600073ffffffffffffffffffffffffffffffffffffffff168273ffffffffffffffffffffffffffffffffffffffff1614155b156115025760006113de84610b26565b9050600073ffffffffffffffffffffffffffffffffffffffff168373ffffffffffffffffffffffffffffffffffffffff161415801561144957508273ffffffffffffffffffffffffffffffffffffffff168173ffffffffffffffffffffffffffffffffffffffff1614155b801561145c575061145a8184610a31565b155b1561149e57826040517fa9fbf51f0000000000000000000000000000000000000000000000000000000081526004016114959190611d24565b60405180910390fd5b811561150057838573ffffffffffffffffffffffffffffffffffffffff168273ffffffffffffffffffffffffffffffffffffffff167f8c5be1e5ebec7d5bd14f71427d1e84f3dd0314c0f7b2291e5b200ac8c7c3b92560405160405180910390a45b505b836004600085815260200190815260200160002060006101000a81548173ffffffffffffffffffffffffffffffffffffffff021916908373ffffffffffffffffffffffffffffffffffffffff16021790555050505050565b611565838383611724565b61161957600073ffffffffffffffffffffffffffffffffffffffff168373ffffffffffffffffffffffffffffffffffffffff16036115da57806040517f7e2732890000000000000000000000000000000000000000000000000000000081526004016115d19190611e3a565b60405180910390fd5b81816040517f177e802f000000000000000000000000000000000000000000000000000000008152600401611610929190612717565b60405180910390fd5b505050565b606060405180602001604052806000815250905090565b606061164082610b26565b50600061164b61161e565b9050600081511161166b5760405180602001604052806000815250611696565b80611675846117e5565b6040516020016116869291906126f3565b6040516020818303038152906040525b915050919050565b6116a883836118b3565b6116b56000848484610f8e565b505050565b60007f01ffc9a7000000000000000000000000000000000000000000000000000000007bffffffffffffffffffffffffffffffffffffffffffffffffffffffff1916827bffffffffffffffffffffffffffffffffffffffffffffffffffffffff1916149050919050565b60008073ffffffffffffffffffffffffffffffffffffffff168373ffffffffffffffffffffffffffffffffffffffff16141580156117dc57508273ffffffffffffffffffffffffffffffffffffffff168473ffffffffffffffffffffffffffffffffffffffff16148061179d575061179c8484610a31565b5b806117db57508273ffffffffffffffffffffffffffffffffffffffff166117c383610bae565b73ffffffffffffffffffffffffffffffffffffffff16145b5b90509392505050565b6060600060016117f4846119ac565b01905060008167ffffffffffffffff81111561181357611812611ecb565b5b6040519080825280601f01601f1916602001820160405280156118455781602001600182028036833780820191505090505b509050600082602001820190505b6001156118a8578080600190039150507f3031323334353637383961626364656600000000000000000000000000000000600a86061a8153600a858161189c5761189b612740565b5b04945060008503611853575b819350505050919050565b600073ffffffffffffffffffffffffffffffffffffffff168273ffffffffffffffffffffffffffffffffffffffff16036119255760006040517f64a0ae9200000000000000000000000000000000000000000000000000000000815260040161191c9190611d24565b60405180910390fd5b600061193383836000610c05565b9050600073ffffffffffffffffffffffffffffffffffffffff168173ffffffffffffffffffffffffffffffffffffffff16146119a75760006040517f73c6ac6e00000000000000000000000000000000000000000000000000000000815260040161199e9190611d24565b60405180910390fd5b505050565b600080600090507a184f03e93ff9f4daa797ed6e38ed64bf6a1f0100000000000000008310611a0a577a184f03e93ff9f4daa797ed6e38ed64bf6a1f0100000000000000008381611a00576119ff612740565b5b0492506040810190505b6d04ee2d6d415b85acef81000000008310611a47576d04ee2d6d415b85acef81000000008381611a3d57611a3c612740565b5b0492506020810190505b662386f26fc100008310611a7657662386f26fc100008381611a6c57611a6b612740565b5b0492506010810190505b6305f5e1008310611a9f576305f5e1008381611a9557611a94612740565b5b0492506008810190505b6127108310611ac4576127108381611aba57611ab9612740565b5b0492506004810190505b60648310611ae75760648381611add57611adc612740565b5b0492506002810190505b600a8310611af6576001810190505b80915050919050565b6000604051905090565b600080fd5b600080fd5b60007fffffffff0000000000000000000000000000000000000000000000000000000082169050919050565b611b4881611b13565b8114611b5357600080fd5b50565b600081359050611b6581611b3f565b92915050565b600060208284031215611b8157611b80611b09565b5b6000611b8f84828501611b56565b91505092915050565b60008115159050919050565b611bad81611b98565b82525050565b6000602082019050611bc86000830184611ba4565b92915050565b6000819050919050565b611be181611bce565b8114611bec57600080fd5b50565b600081359050611bfe81611bd8565b92915050565b600060208284031215611c1a57611c19611b09565b5b6000611c2884828501611bef565b91505092915050565b600081519050919050565b600082825260208201905092915050565b60005b83811015611c6b578082015181840152602081019050611c50565b60008484015250505050565b6000601f19601f8301169050919050565b6000611c9382611c31565b611c9d8185611c3c565b9350611cad818560208601611c4d565b611cb681611c77565b840191505092915050565b60006020820190508181036000830152611cdb8184611c88565b905092915050565b600073ffffffffffffffffffffffffffffffffffffffff82169050919050565b6000611d0e82611ce3565b9050919050565b611d1e81611d03565b82525050565b6000602082019050611d396000830184611d15565b92915050565b611d4881611d03565b8114611d5357600080fd5b50565b600081359050611d6581611d3f565b92915050565b60008060408385031215611d8257611d81611b09565b5b6000611d9085828601611d56565b9250506020611da185828601611bef565b9150509250929050565b600080600060608486031215611dc457611dc3611b09565b5b6000611dd286828701611d56565b9350506020611de386828701611d56565b9250506040611df486828701611bef565b9150509250925092565b600060208284031215611e1457611e13611b09565b5b6000611e2284828501611d56565b91505092915050565b611e3481611bce565b82525050565b6000602082019050611e4f6000830184611e2b565b92915050565b611e5e81611b98565b8114611e6957600080fd5b50565b600081359050611e7b81611e55565b92915050565b60008060408385031215611e9857611e97611b09565b5b6000611ea685828601611d56565b9250506020611eb785828601611e6c565b9150509250929050565b600080fd5b600080fd5b7f4e487b7100000000000000000000000000000000000000000000000000000000600052604160045260246000fd5b611f0382611c77565b810181811067ffffffffffffffff82111715611f2257611f21611ecb565b5b80604052505050565b6000611f35611aff565b9050611f418282611efa565b919050565b600067ffffffffffffffff821115611f6157611f60611ecb565b5b611f6a82611c77565b9050602081019050919050565b82818337600083830152505050565b6000611f99611f9484611f46565b611f2b565b905082815260208101848484011115611fb557611fb4611ec6565b5b611fc0848285611f77565b509392505050565b600082601f830112611fdd57611fdc611ec1565b5b8135611fed848260208601611f86565b91505092915050565b600080600080608085870312156120105761200f611b09565b5b600061201e87828801611d56565b945050602061202f87828801611d56565b935050604061204087828801611bef565b925050606085013567ffffffffffffffff81111561206157612060611b0e565b5b61206d87828801611fc8565b91505092959194509250565b600067ffffffffffffffff82111561209457612093611ecb565b5b61209d82611c77565b9050602081019050919050565b60006120bd6120b884612079565b611f2b565b9050828152602081018484840111156120d9576120d8611ec6565b5b6120e4848285611f77565b509392505050565b600082601f83011261210157612100611ec1565b5b81356121118482602086016120aa565b91505092915050565b6000806040838503121561213157612130611b09565b5b600061213f85828601611d56565b925050602083013567ffffffffffffffff8111156121605761215f611b0e565b5b61216c858286016120ec565b9150509250929050565b6000806040838503121561218d5761218c611b09565b5b600061219b85828601611d56565b92505060206121ac85828601611d56565b9150509250929050565b7f4e487b7100000000000000000000000000000000000000000000000000000000600052602260045260246000fd5b600060028204905060018216806121fd57607f821691505b6020821081036122105761220f6121b6565b5b50919050565b600060608201905061222b6000830186611d15565b6122386020830185611e2b565b6122456040830184611d15565b949350505050565b7f5573657220646f6573206e6f742068617665206120746f6b656e206d696e746560008201527f642e000000000000000000000000000000000000000000000000000000000000602082015250565b60006122a9602283611c3c565b91506122b48261224d565b604082019050919050565b600060208201905081810360008301526122d88161229c565b9050919050565b7f4e487b7100000000000000000000000000000000000000000000000000000000600052601160045260246000fd5b600061231982611bce565b91507fffffffffffffffffffffffffffffffffffffffffffffffffffffffffffffffff820361234b5761234a6122df565b5b600182019050919050565b60008190508160005260206000209050919050565b60006020601f8301049050919050565b600082821b905092915050565b6000600883026123b87fffffffffffffffffffffffffffffffffffffffffffffffffffffffffffffffff8261237b565b6123c2868361237b565b95508019841693508086168417925050509392505050565b6000819050919050565b60006123ff6123fa6123f584611bce565b6123da565b611bce565b9050919050565b6000819050919050565b612419836123e4565b61242d61242582612406565b848454612388565b825550505050565b600090565b612442612435565b61244d818484612410565b505050565b5b818110156124715761246660008261243a565b600181019050612453565b5050565b601f8211156124b65761248781612356565b6124908461236b565b8101602085101561249f578190505b6124b36124ab8561236b565b830182612452565b50505b505050565b600082821c905092915050565b60006124d9600019846008026124bb565b1980831691505092915050565b60006124f283836124c8565b9150826002028217905092915050565b61250b82611c31565b67ffffffffffffffff81111561252457612523611ecb565b5b61252e82546121e5565b612539828285612475565b600060209050601f83116001811461256c576000841561255a578287015190505b61256485826124e6565b8655506125cc565b601f19841661257a86612356565b60005b828110156125a25784890151825560018201915060208501945060208101905061257d565b868310156125bf57848901516125bb601f8916826124c8565b8355505b6001600288020188555050505b505050505050565b600081519050919050565b600082825260208201905092915050565b60006125fb826125d4565b61260581856125df565b9350612615818560208601611c4d565b61261e81611c77565b840191505092915050565b600060808201905061263e6000830187611d15565b61264b6020830186611d15565b6126586040830185611e2b565b818103606083015261266a81846125f0565b905095945050505050565b60008151905061268481611b3f565b92915050565b6000602082840312156126a05761269f611b09565b5b60006126ae84828501612675565b91505092915050565b600081905092915050565b60006126cd82611c31565b6126d781856126b7565b93506126e7818560208601611c4d565b80840191505092915050565b60006126ff82856126c2565b915061270b82846126c2565b91508190509392505050565b600060408201905061272c6000830185611d15565b6127396020830184611e2b565b9392505050565b7f4e487b7100000000000000000000000000000000000000000000000000000000600052601260045260246000fdfea26469706673582212203ff00edcfd1db72d2c0fd07eee1727dbd68528a8de126e4350561629db7a29fa64736f6c63430008180033",
  "linkReferences": {},
  "deployedLinkReferences": {}
}